:100000000C94EC0D0C94090E0C94090E0C94090E32
:100010000C94090E0C94090E0C94090E0C94090E04
:100020000C94090E0C94090E0C94090E0C94090EF4
:100030000C94090E0C94090E0C94090E0C94090EE4
:100040000C94090E0C94090E0C94090E0C94090ED4
:100050000C94090E0C94090E0C94090E0C94090EC4
:100060000C94090E0C94090E000000000000000022
:100070000000000000000000000000000000000080
:100080000000000000000000000000000000000070
:100090000000000000000000000000000000FF80E1
:1000A0008080000000000000000000000000000050
:1000B00000000000000000000000000000000080C0
:1000C0008080FF0000000000000000000000000031
:1000D000000000000000000000003F0000000000E1
:1000E0000000000000008080808000000000000010
:1000F00000000000000000000000000000003F00C1
:1001000000000000000000808080800000000000EF
:1001100000000000000000000000000000000000DF
:1001200000003F0000000000000000000000FF0091
:1001300000000000000000000000000000000000BF
:10014000000000000000000000000000000000802F
:10015000808080808080000000000000000000009F
:100160000000000000000000010303030100000084
:1001700000000000C0E0E0E0C0000000000000005F
:1001800000000000000000000000003F3E3C3C3C3E
:100190003E3F0000000000FF3F1F1F1F3FFF000009
:1001A000000000000000000000000000000000004F
:1001B000000000000000000000000000000000003F
:1001C000000000000000000000000000000000002F
:1001D000000000000000000000000000000000001F
:1001E000000000000000000000000000000000000F
:1001F00000000000000000000000080B0C0F0000D1
:10020000000000001824E4180000000000000000B6
:1002100000000000000000000000000000000000DE
:1002200000000000000000000000000000000000CE
:1002300000000000000000000000000000000000BE
:1002400000000000000000000000000000000000AE
:10025000000000000000000000000000000000009E
:1002600000000000000705050A0F00000000000064
:100270000CFC000018F80000000000000000000066
:1002800000000000000000000C030C030C00000044
:100290000000000098E018E0980000000000000056
:1002A00000000000000000000000000000003F000F
:1002B00000000000000000808080FF80808000003F
:1002C000000000000000000000000000000000002E
:1002D000000103070F1F00000000000080C0E0F0D5
:1002E000F8FC00000000000000000000000000001A
:1002F0000000000008103F1008000000000000008F
:100300000804FE04080000000000000000000000D7
:100310000000000000000000001F00001F0000009F
:100320000000000000E60000E60000000000000001
:100330000000000000000000000000000F101F007F
:100340001F000000000000008040FE00FE000000D2
:10035000000000000000000000000000000000009D
:1003600000003F00000000000000008080808080CE
:10037000808000000000000000000000000000007D
:1003800000000000000000000000000000000080ED
:100390008080FF80808000000000000000000000DE
:1003A000000000000000000000003F00000000000E
:1003B000000000808080FF000000000000000000BE
:1003C00000000000000000000000000004081F08FA
:1003D00004000000000000000000FE00000000001B
:1003E000000000000000000000000000000000000D
:1003F00000003F0000000000000000000000FF803F
:1004000080800000000000000000000000000000EC
:1004100000000000000000010000000000000000DB
:1004200040404050E040000000000000000000009C
:1004300000000000000000000000010000000000BB
:100440000000000040E0504040400000000000007C
:100450000000000000000000000000000F0000008D
:100460000000000000000000E0202020202000000C
:10047000000000000000000000000000000000007C
:1004800000000000000000000000000040E04040CC
:10049000E04000000000000000000000000000003C
:1004A0000000000000031F03000000000000000027
:1004B0007CFCFCFC7C000000000000000000000050
:1004C00000000000000000000F0F0F0F0F000000E1
:1004D0000000000080F0FEF080000000000000003E
:1004E000000000000000000000000000000000000C
:1004F00000000000000000000000000000000000FC
:1005000000000000000000000000000000000000EB
:1005100000000F0000000000000000000000F400D8
:1005200000000000000000000000000000000000CB
:10053000000000000F000F0000000000000000009D
:1005400000000000000000000000000000000000AB
:10055000000000000000000101030D01030D000078
:10056000000000203CE0203CE020000000000000F3
:10057000000000000000000000000007081F080441
:10058000000000000000001884FE847800000000D5
:100590000000000000000000000000000007080844
:1005A0000700010608000000000080841860803801
:1005B000444438000000000000000000000000007B
:1005C0000000000007080906000000000000007895
:1005D000C48464186C0400000000000000000000E7
:1005E0000000000000000000000F000000000000FC
:1005F00000000000000000000000000000000000FB
:1006000000000000000000000000000000010608DB
:10061000000000000000000000FC030000000000DB
:10062000000000000000008000000000000000004A
:100630000806010000000000000000000003FC00AC
:10064000000000000000000080000000000000002A
:1006500000000000050E0500000000000000000082
:10066000000000000000000000000000000000008A
:100670000000000000000000000001000000000079
:10068000000000404040F0404040000000000000FA
:10069000000000000000000000000000000000005A
:1006A0000000000000000000000106000000000043
:1006B000000000000000000000000000000000003A
:1006C00000000000000000000000000020202000CA
:1006D000000000000000000000000000000000001A
:1006E000000000000000000000000000000000000A
:1006F00000000400000000000000000000000000F6
:10070000000000000000000000000F0000000000DA
:10071000000000000CF000000000000000000000DD
:1007200000000000000000000000000304080403B3
:1007300000000000000000F0080408F000000000C5
:1007400000000000000000000000000000000000A9
:1007500001020F0000000000000000000000FC008B
:100760000000000000000000000000000000000089
:100770000000000608080403000000000000000C50
:100780001424448400000000000000000000000069
:10079000000000000000000408080502000000003E
:1007A0000000001804844830000000000000000031
:1007B0000000000000000000000000000001060F23
:1007C0000000000000000030509010FC10000000FD
:1007D0000000000000000000000000000000000316
:1007E0000D0908080000000000000098040488704B
:1007F00000000000000000000000000000000000F9
:10080000000000030408080400000000000000F0DD
:100810004884483000000000000000000000000094
:10082000000000000000000808080B0C0000000099
:10083000000000001CE000000000000000000000BC
:100840000000000000000000000000020508050292
:100850000000000000000030488448300000000024
:100860000000000000000000000000000000000385
:10087000040804030000000000000008844488F01D
:100880000000000000000000000000000000000068
:100890000000000000000100000000000000000057
:1008A0000000040000000000000000000000000044
:1008B0000000000000000000000001000000000037
:1008C0000000000000010600000000000000000021
:1008D0000000000000000000000000000101020212
:1008E00004000000000000804040202010000000B4
:1008F00000000000000000000000000000000001F7
:100900000101010101000000000000202020202042
:1009100020000000000000000000000000000000B7
:1009200000000004020201010000000000000010AD
:100930002020404080000000000000000000000077
:100940000000000000000006080808070000000082
:1009500000000000003440800000000000000000A3
:10096000000000000000000000010204090909085D
:100970000502010000FC02F9040408FC8405FA00E9
:1009800000000000808080808000000000000000E7
:10099000070807000000000000000C70A020A070F5
:1009A0000C0000000000000000000000000000003B
:1009B0000000000F0808080807000000000000FC05
:1009C000848484847800000000000000000000009F
:1009D00000000000000000030408080806000000F2
:1009E000000000F0080404083000000000000000CF
:1009F00000000000000000000000000F08080804CC
:100A000003000000000000FC04040408F0000000E3
:100A10000000000000000000000000000000000FC7
:100A20000808080808000000000000FC8484848492
:100A30008400000000000000000000000000000032
:100A4000000000000F08080808080000000000006F
:100A5000FC8080808000000000000000000000009A
:100A60000000000000000003040808080806000059
:100A7000000000F008040444447800000000000076
:100A800000000000000000000000000F0000000057
:100A90000F000000000000FC80808080FC0000004F
:100AA0000000000000000000000000000000000046
:100AB00000000F0000000000000000000000FC002B
:100AC0000000000000000000000000000000000026
:100AD000000000000000000F000000000000000007
:100AE000180404F8000000000000000000000000EE
:100AF000000000000000000F0001020408000000D8
:100B0000000000FC408060180400000000000000AD
:100B10000000000000000000000000000F000000C6
:100B20000000000000000000FC04040404000000B9
:100B300000000000000000000000000000000F0C9A
:100B400003000000030C0F000000FC008078047814
:100B50008000FC0000000000000000000000000019
:100B60000000000F060100000F000000000000FC64
:100B700000806018FC000000000000000000000081
:100B8000000000000000000304080808040300003F
:100B9000000000F00804040408F000000000000059
:100BA00000000000000000000000000F0808080816
:100BB00007000000000000FC4040404080000000B2
:100BC0000000000000000000000000000000000322
:100BD0000408080804030000000000F00804041CD6
:100BE00008F6000000000000000000000000000007
:100BF0000000000F0808080807000000000000FCC3
:100C00004040406098040000000000000000000028
:100C100000000000000000070808080806000000A7
:100C200000000038848444443800000000000000C4
:100C300000000000000000000000000808080F0885
:100C400008080000000000000000FC000000000098
:100C50000000000000000000000000000000000F85
:100C6000000000000F000000000000F0080404086D
:100C7000F000000000000000000000000000000084
:100C80000000000C03000000030C00000000000046
:100C90008078047880000000000000000000000060
:100CA00000000000000E0100000708070000010E10
:100CB0000000F804788000807804F800000000004C
:100CC0000000000000000000000008040300000312
:100CD000040800000000040830C0C0300804000010
:100CE00000000000000000000000000000000806F6
:100CF000010001060800000000000000807C800068
:100D000000000000000000000000000000000000E3
:100D1000000000080808090A0C0000000000000C90
:100D200014648404040000000000000000000000BF
:100D3000000000000000000000000F08000000009C
:100D4000000000000000FF000000000000000000A4
:100D5000000080800000000000000000000E010084
:100D600000000000000000000000F00C0000000087
:100D70000000000000000000000000000000000073
:100D800000080F0000000000000000000000FF004D
:100D90000000000000000000008080000000000053
:100DA000000000000007080700000000000000002D
:100DB0008000000080000000000000000000000033
:100DC0000000000000000000000000000000000023
:100DD000000000010101010101000000000000000D
:100DE00000000000000000000000000000080400F7
:100DF00000000000000000000000000000000000F3
:100E000000000000000000000000000000000000E2
:100E1000010101000000000000000098242424FCCF
:100E200000000000000000000000000000000000C2
:100E30000000000F0001010000000000000000FCA5
:100E4000880404F80000000000000000000000001A
:100E5000000000000000000001010100000000008F
:100E6000000000F8040404980000000000000000E6
:100E70000000000000000000000000000101000F61
:100E800000000000000000F8040488FC00000000DE
:100E90000000000000000000000000000000000052
:100EA0000101010000000000000000F8242424E8F3
:100EB0000000000000000000000000000000000032
:100EC00000000000010F0900000000000000000009
:100ED00000FC000000000000000000000000000016
:100EE00000000000000000000101000100000000FF
:100EF000000000F9040488FF00000000000000006A
:100F000080808000000000000000000F0001010050
:100F100000000000000000FC800000FC0000000059
:100F200000000000000000000000000000000000C1
:100F300000090000000000000000000000FC0000AC
:100F400000000000000000000000000000000000A1
:100F50000000000000090000000000000000000088
:100F600000FF000000000000000000008080000082
:100F700000000000000000000F0000010000000061
:100F800000000000FC40B00C000000000000000069
:100F9000000000000000000000000000000F000042
:100FA000000000000000000000FC00000000000045
:100FB000000000000000000000000000000100012F
:100FC000010001010100000000FC800000FC0000A5
:100FD00000FC000000000000000000000000000015
:100FE000000000010001010000000000000000FC02
:100FF000800000FC00000000000000000000000075
:1010000000000000000000000101010000000000DD
:10101000000000F8040404F80000000000000000D4
:1010200000000000000000000000000100010100BD
:1010300000000000000000FF880404F80000000029
:101040000000008000000000000000000000000020
:101050000101000100000000000000F8040488FF06
:101060000000000000000000000000800000000000
:10107000000000000100010000000000000000006E
:10108000FC800000000000000000000000000000E4
:10109000000000000000000001010100000000004D
:1010A000000000C824242498000000000000000074
:1010B000000000000000000000000000010F01001F
:1010C000000000000000000000FC04000000000020
:1010D000000000000000000000000000000000010F
:1010E0000000000100000000000000F8040408FCFB
:1010F00000000000000000000000000000000000F0
:10110000000000010000000100000000000000805D
:10111000780478800000000000000000000000005B
:1011200000000000000001000001000001000000BC
:101130000000F80478807804F80000000000000047
:10114000000000000000000000000001000000019D
:101150000000000000000004D820D80400000000B7
:10116000000000000000000000000000000000017E
:10117000000000010000000000000080700F70807F
:10118000000000000000008080000000000000005F
:101190000000000101010101000000000000000C3E
:1011A000142444840000000000000000000000003F
:1011B0000000000000000000000708000000000020
:1011C0000000000020DF0000000000000000000020
:1011D00000008000000000000000000000000F0080
:1011E00000000000000000000000FF000000000000
:1011F000000000000000800000000000000000006F
:1012000008070000000000000000000000DF2000D0
:10121000000000000000000080000000000000004E
:10122000000000000000000000000000000000C0FE
:1012300080804040800000000000000000000000AE
:1012400000000000000000000F0808080F00000068
:1012500000000000FC040404FC000000000000008A
:101260000000000000000000000000000708070068
:101270000000000000000C70A020A0700C00000016
:101280000000000000000000000000000000000F4F
:101290000808080800000000000000FC8484848422
:1012A00078000000000000000000000000000000C6
:1012B0000000000F0808080807000000000000FCFC
:1012C0008484848478000000000000000000000096
:1012D00000000000000000000F08080808000000DF
:1012E00000000000FC000000000000000000000002
:1012F0000000000000000000000000000F080808C7
:101300000F0000000000071CE4040404FC070000B8
:101310000000000000000000000000000000000FBE
:101320000808080808000000000000FC8484848489
:101330008400000000000000000000000000000029
:101340000000080601000F000106080000000C3034
:101350004080FC80C0300C00000000000000000055
:101360000000000000000006080808080700000050
:10137000000000180484848478000000000000004D
:1013800000000000000000000000000F0000010647
:101390000F000000000000FC18608000FC0000004E
:1013A0000000000000000000000000000000000F2E
:1013B000004021460F000000000000FC1860800083
:1013C000FC00000000000000000000000000000021
:1013D000000000000F0001060808000000000000E7
:1013E000FC804060180400000000000000000000C5
:1013F000000000000000000F080808080F000000AF
:10140000000004FC00000000FC00000000000000E0
:10141000000000000000000000000F0C03000000AE
:10142000030C0F000000FC00807804788000FC00B2
:101430000000000000000000000000000000000F9D
:10144000000000000F000000000000FC8080808091
:10145000FC00000000000000000000000000000090
:10146000000000030408080804030000000000F066
:101470000804040408F00000000000000000000060
:10148000000000000000000F080808080F0000001E
:10149000000000FC00000000FC0000000000000054
:1014A00000000000000000000000000F080808080D
:1014B00007000000000000FC4040404080000000A9
:1014C0000000000000000000000000000000000319
:1014D0000408080806000000000000F008040408E2
:1014E00030000000000000000000000000000000CC
:1014F0000000000808080F080808000000000000AD
:101500000000FC00000000000000000000000000DF
:1015100000000000000000080700000007080000AD
:101520000000000004CC30C00000000000000000FB
:1015300000000000000000000000000102040F0491
:1015400002010000000000E01008FC0810E00000AC
:10155000000000000000000000000000000008047F
:1015600003000003040800000000040830C0C0307D
:10157000080400000000000000000000000000005F
:101580000000000F00000000000F0000000000FC41
:101590000404040404FC0700000000000000000034
:1015A000000080000000000F000000000F0000009D
:1015B000000000C020202040FC00000000000000CF
:1015C000000000000000000000000F0000000F00FD
:1015D00000000F000000FC040404FC040404FC00F0
:1015E00000000000000000000000000000000F00EC
:1015F00000000F0000000F000000FC040404FC04C5
:101600000404FC070000000000000000000000804F
:10161000000008080F0000000000000000000000AB
:10162000FC84848484780000000000000000000036
:101630000000000000000F000000000000000F008C
:101640000000FC84848484780000FC00000000001A
:1016500000000000000000000000000F000000007B
:1016600000000000000000FC8484848478000000F6
:101670000000000000000000000000000000000664
:10168000040808040300000000000018080484880F
:10169000F00000000000000000000000000000005A
:1016A000000F0000030408080804030000FC808009
:1016B000F00804040408F00000000000000000002E
:1016C0000000000000000007080808080F000000E4
:1016D0000000049860404040FC0000000000000052
:1016E00000000000000000000000000001010100F7
:1016F0000000000000000098242424FC00000000EA
:1017000000000000000000000000000000000000D9
:10171000070809090800000000000000F88404041C
:10172000F8000000000000000000000000000000C1
:10173000000000010101010000000000000000FCA9
:10174000242424D800000000000000000000000055
:101750000000000000000000010101010000000085
:1017600000000000FC00000000000000000000007D
:101770000000000000000000000000000001010166
:1017800001000000000000070CF40404FC07000046
:101790000000000000000000000000000000000049
:1017A0000101010000000000000000F8242424E8EA
:1017B0000000000000000000000000000000000029
:1017C000000001000001000001000000000004D83A
:1017D00020FC20D8040000000000000000000000F1
:1017E00000000000000000000001010000000000F7
:1017F00000000000880424D8000000000000000061
:1018000000000000000000000000000100000001D6
:1018100000000000000000FC1820C0FC00000000D8
:1018200000000000000000000000000000000001B7
:101830000804080100000000000000FC1820C0FCA3
:101840000000000000000000000000000000000098
:101850000000000001000001010000000000000085
:10186000FC20D00804000000000000000000000080
:101870000000000000000000010101010100000063
:1018800000000004FC000000FC000000000000005C
:101890000000000000000000000001010000000145
:1018A000010000000000FCC0380438C0FC0000004B
:1018B0000000000000000000000000000000000127
:1018C0000000000100000000000000FC202020FCBF
:1018D0000000000000000000000000000000000008
:1018E000000000000101010000000000000000F8FD
:1018F000040404F8000000000000000000000000E4
:1019000000000000000000010101010100000000D2
:10191000000000FC000000FC0000000000000000CF
:1019200000000000000000000000000100010100B4
:1019300000000000000000FF880404F80000000020
:101940000000008000000000000000000000000017
:101950000101010000000000000000F804040498E8
:101960000000000000000000000000000000000077
:101970000000000101010101000000000000000062
:1019800000FC00000000000000000000000000005B
:101990000000000000000001000000010000000045
:1019A00000000080700F70800000000000000080C8
:1019B00080000000000000000000000101010F0194
:1019C000010100000000F8040404FF040404F8000E
:1019D0000000000000008000000000000000000186
:1019E000000000010000000000000004D820D8041E
:1019F00000000000000000000000000000000000E7
:101A0000000000010000000001000000000000FCD8
:101A100004040404FC0700000000000000000000B3
:101A20000080000000000001000000010000000034
:101A3000000000E0101010FC00000000000000009A
:101A40000000000000000000000001000001000094
:101A5000010000000000FC0404FC0404FC00000081
:101A60000000000000000000000000000000010075
:101A700000010000010000000000FC0404FC04045C
:101A8000FC070000000000000000000000800000D3
:101A90000000000101010000000000000000000043
:101AA00000FC2424180000000000000000000000DA
:101AB0000000000000000100000000000100000024
:101AC0000000FC2424241800FC000000000000009A
:101AD0000000000000000000000000010000000005
:101AE00000000000000000FC242424180000000076
:101AF00000000000000000000000000000000000E6
:101B0000000101000000000000000000980424F81B
:101B100000000000000000000000000000000000C5
:101B20000000010000000101010000000000FC2095
:101B300020F8040404F80000000000000000000089
:101B40000000000000000000010101010000000091
:101B5000000000CC302020FC00000000000000004D
:101B600000000000000000000000000F0828082806
:101B700008000000000000FC8484848484000000CD
:101B80000000000000000000000000000000000055
:101B90000501050000000000000000F8242424E8EE
:101BA0000000000000000000000000000000000035
:101BB000FFFFC0FFFFC0FFFFC0FFFFC0C0C0C0C02D
:101BC000FFFF1E1EC0C0C0C0C0C0C0C0C0C0C0C0DB
:101BD000C0C0C0C0C0C0000011241FBECFEFD8E0FD
:101BE000DEBFCDBF11E0A0E0B1E0E6E0F1E202C06F
:101BF00005900D92A830B107D9F725E0A8E0B1E033
:101C000001C01D92A431B207E1F70E94E90E0C94C5
:101C100081100C94000098E087FF02C0299A01C04F
:101C20002998880F289A28989150B1F7089541155E
:101C30005105E9F041305105B1F5FB01A3E0F695FE
:101C4000E795AA95E1F7F695FE2FEE27F795E7952C
:101C50008E0F9F1FFC01EC5EFE4F6770772701C05F
:101C6000440F6A95EAF78081482B40830895FB0171
:101C700023E0F695E7952A95E1F7F695FE2FEE27F6
:101C8000F795E7958E0F9F1FFC01EC5EFE4F677086
:101C9000772781E090E001C0880F6A95EAF7809588
:101CA00090818923808308952B982C980E940B0E95
:101CB0002C9A0895CF93DF9381E20E94540E80E026
:101CC0000E94540E8FE70E94540E82E20E94540E2E
:101CD00080E00E94540E87E00E94540E2B9A2C98AC
:101CE000C4E1D1E089910E940B0E85E0C431D80790
:101CF000C9F72C9ADF91CF910895CF93DF93D82F16
:101D0000C9E0C150D9F0D7FF0EC0409112015091E7
:101D10001301609110017091110180910E01909159
:101D20000F010E94170EDD0F80911001909111019B
:101D300001969093110180931001E3CFDF91CF9131
:101D400008950F931F93CF93DF938C010115110515
:101D5000B9F0C0910E01D0910F0140911201509144
:101D600013016091100170911101CE010E94170EB4
:101D70002196D0930F01C0930E0101501109E6CFB7
:101D8000DF91CF911F910F9108950F931F93CF93E0
:101D9000DF938C0101151105B9F0C0911001D091AC
:101DA00011014091120150911301BE0180910E0169
:101DB00090910F010E94170E2196D0931101C093AC
:101DC000100101501109E6CFDF91CF911F910F91C2
:101DD00008958BE184B92C9A2A9825E32A95F1F786
:101DE00000002A9A3FEF8BED95E031508040904003
:101DF000E1F700C000008DE80E94540E84E10E94CB
:101E0000540E80E20E94540E80E00E94540E8FEA2D
:101E10000E94540EAFEFBBEDE5E0A150B040E040B2
:101E2000E1F700C0000081EA0E94540E88EC0E9495
:101E3000540E80E094E0E4E1F1E0DF019C011D92AA
:101E400021503040E1F70E945A0E81E090E09093DB
:101E500013018093120186E390E090930F01809329
:101E60000E0183E290E09093110180931001C0EB8A
:101E7000DBE103E210E03BE1C43CD30799F0FE0153
:101E800084910E947D0E80910E0190910F01019628
:101E900090930F0180930E01109311010093100194
:101EA0002196E9CF8BE290E090931101809310018D
:101EB00086E390E090930F0180930E01C4E1D0E09F
:101EC0000BE210E0FE01E055F44E84910E947D0E7D
:101ED00080910E0190910F01019690930F018093D4
:101EE0000E0110931101009310012196C832D10503
:101EF00049F702E010E010930F0100930E0181E119
:101F000090E090931101809310018CE790E00E9483
:101F1000A10E10930F0100930E018EE390E09093B9
:101F20001101809310018CE790E00E94A10ED093E4
:101F30000F01C0930E01CAE1D0E0D0931101C0930C
:101F400010018EE190E00E94C50E88E590E090932C
:101F50000F0180930E01D0931101C09310018EE107
:101F600090E00E94C50E0AE010E010930F0100936C
:101F70000E01CDE1D0E0D0931101C093100184E1B6
:101F800090E00E94C50E809110019091110101977F
:101F9000909311018093100184E190E00E94A10EC2
:101FA00010930F0100930E01D0931101C093100103
:101FB00084E190E00E94A10E80910E0190910F01AA
:101FC000019790930F0180930E0184E190E00E94AD
:101FD000C50E82E690E090930F0180930E01D0939E
:101FE0001101C0931001C5E1D0E00DE110E021978F
:101FF00091F084E190E00E94C50E80910E019091D5
:102000000F01019690930F0180930E01109311011F
:1020100000931001ECCF88E690E090930901809343
:1020200008018CE090E090930B0180930A0181E11C
:1020300090E090930D0180930C0189E190E09093E2
:102040000F0180930E01109211011092100180E097
:10205000C82E81E0D82E99E1692E712C24E2522EEF
:10206000D601CD916D01CC2309F448C0A0900E019A
:10207000B0900F0100911001109111015C9EE001E0
:1020800011244801F8E18F0E911C0815190551F132
:10209000E12CF12CF701EC0FFD1FE859FF4F849163
:1020A0000E947D0E80910E0190910F0101969093F8
:1020B0000F0180930E0110931101009310012FEF77
:1020C000E21AF20A3CE0E316F10421F72C96085FCD
:1020D0001F4F1093110100931001B0920F01A092B5
:1020E0000E01D3CF10921101109210018DE0680EF5
:1020F000711C70920F0160920E01B2CF0E945A0EB5
:06210000FFCFF894FFCFB1
:08210600C6F3F0EDE0EB000070
:00000001FF
