:100000000C94D5020C94FD020C94FD020C94FD029C
:100010000C94FD020C94FD020C94FD020C94FD0264
:100020000C94FD020C94FD020C94FD020C94FD0254
:100030000C94FD020C94FD020C94FD020C94FD0244
:100040000C94590E0C94FD020C947C0F0C94560FDA
:100050000C94FD020C94FD020C94FD020C94FD0224
:100060000C9431110C94FD020000000023002600C6
:10007000290000030C0F30333C3FC0C3CCCFF0F35A
:10008000FCFFAED580A83FD300408D142002A1C84C
:10009000DA12817FD9F1DB40A4A6AF2E22CE224610
:1000A000237823A023182458258025A825D0253C73
:1000B00028E628F42919920A0C2060020104080697
:1000C0000B080103030507020401050605060607E0
:1000D00006060606060102070707050A08060707BF
:1000E00006060707030406060807080608070607AA
:1000F00007080B060706030503080802060605069F
:1001000006040606010305010906060606040505A0
:10011000060509050505050105080900000000FEA2
:100120002007000007000000008090F89690F896E5
:100130001000300000300000001824FF44448420E8
:1001400020F02020101C22221C80700CC22020C015
:100150000000002010000010202010DC2222225C71
:1001600080600010202020201010200700F80601D9
:100170001060800106F88060100A041F040A000065
:10018000000000404040F8404040000000300000C7
:10019000000000807040404040000000000030003F
:1001A00000E01C038070000000FC02020202FC1050
:1001B00020202020100404FE000020203020200CED
:1001C000824242221C3020202020200402222222AF
:1001D000DC10202020201060504844FE40400000E9
:1001E00000003000001E12121212E2102020202007
:1001F00010F814121212E0102020202010020282A7
:10020000621A06002010000000DC22222222DC10EC
:1002100020202020103C42424242FC00202020109E
:100220000018300018807040A0A0101008080000CE
:10023000001010202050505050505050000000002E
:1002400000000008081010A0A0402020101000009E
:10025000000402E2221C0000200000F00C04F20A5C
:100260000AFA040CF00030204050505010100000EA
:10027000E098868698E0003000000000000030FE24
:100280002222223CC0302020202010F8040202024A
:10029000020400102020202010FE0202020204F8B6
:1002A00030202020201000FE222222222230202076
:1002B000202020FE2222222202300000000000F82E
:1002C0000402022222E400102020202010FE202020
:1002D000202020FE3000000000003002FE0220300E
:1002E00020000202FE20202010FE20508804023050
:1002F0000000001020FE0000000000302020202020
:1003000020FE0638C0C03806FE30000000000000A5
:1003100030FE061820C000FE30000000003030F82B
:10032000040202020204F80010202020201000FE27
:10033000424242423C300000000000F80402020247
:100340000204F80010202020609080FE222262A289
:100350001C00300000000010201C22222222C410A9
:100360002020202010020202FE02020200000030C3
:10037000000000FE0000000000FE00102020201001
:10038000000638C00000C038060000003030000011
:10039000001EE000C0380638C000E01E000030003B
:1003A00000000000300000068870708806300000F1
:1003B000000030020C10E0100C02000000300000C1
:1003C00000028262120A06302020202020FF010154
:1003D000F08080031C60800000000030C00101FF3D
:1003E0008080F010080402020408100000000000E1
:1003F000000000000000000000000080808080807D
:10040000808080010200008048484848F010202089
:10041000202030FF10080808F0302020202010F0A5
:10042000080808101020202010F008080808FF1005
:100430002020201030F0484848487010202020200C
:100440001008FE090900300000F008080808F8103C
:10045000A0A0A09070FF10080808F0300000000075
:1004600030F9300008F9808070FF40A0100830009B
:10047000001020FF30F8080808F0080808F03000E5
:1004800000003000000030F810080808F0300000CC
:10049000000030F008080808F0102020202010F894
:1004A00010080808F0F02020202010F008080808A4
:1004B000F81020202010F0F810080830000000305C
:1004C00048484888202020201008FE08080800100E
:1004D000202020F800000000F81020202010301804
:1004E000E000E018000030000018E000E018E00034
:1004F000E01800003000000030000018A040A018F4
:10050000300000003018E000E018008070000008A3
:100510008848281830202020202020DE01010000FB
:10052000708080FFF00101DE20208080700000C01C
:10053000202040408080600000000000000000FE9D
:1005400002020202020202FE30202020202020208F
:100550003082001980400000000000240027002A9B
:100560000000000000250028002B000404040404FF
:100570000404040202020202020303030303030150
:100580000204081020408001020408102001020427
:10059000081020000000080002010000030407000A
:1005A0000000000000000000B71411241FBECFEFB0
:1005B000D8E0DEBFCDBF13E0A0E0B1E0E4E2FFE2AF
:1005C00002C005900D92AE30B107D9F725E0AEE03C
:1005D000B3E001C01D92A836B207E1F712E0C5ED05
:1005E000D2E004C02197FE010E947517C43DD107D7
:1005F000C9F70E9496150C9490170C940000FC010A
:1006000060870895FC0167830895FC01668308955F
:10061000FC0165830895FC01648308950895FC013D
:1006200063830895FC01748B638B0895DC015396FA
:10063000ED91FC915497309749F020E030E040E094
:1006400050E060E070E080E090E009940895089543
:10065000FC01818992890895FC018785908908951C
:10066000FC01858596850895FC0183859485089510
:10067000FC01818592850895089508950F931F9335
:10068000CF93DF93EC018A01E881F981028CF38D2D
:10069000E02D0995E881F981068CF78DE02DB801F0
:1006A000CE01DF91CF911F910F910994FC017487C6
:1006B00063870895FC01728761876130710519F4C1
:1006C0008CEF91E205C06230710561F480EB9DE131
:1006D0009687858780E39AE2908B87878AE090E00F
:1006E000928B818B0895EF92FF920F931F93CF937C
:1006F000DF938C01EB010E945A03C130D10531F028
:10070000229731F488E0E82EF12C02C0E12CF12C84
:10071000F801F58EE48EDF91CF911F910F91FF903C
:10072000EF900895FC0180850895FC01878108956C
:10073000FC0186810895FC0185810895FC01848176
:100740000895089580E00895CF93DF93EC019C8194
:100750008E81981758F4E881F9810084F185E02DA5
:1007600042E0CE0109958C818F5F8C83DF91CF9120
:100770000895FC016093BC008091BC0087FFFCCF12
:100780009091B900987F90830895CF92DF92EF9275
:10079000FF920F931F93CF93DF93EC01C62ED42EBD
:1007A0008F85882351F0411108C084E98093BC00F3
:1007B0008091BC0084FDFCCF1F86EF848E01035F17
:1007C0001F4FE11014C0FE8464EAC8010E94B903FF
:1007D0008D85883011F1803101F1DD2011F080E448
:1007E000E82EE092BB0064E8C8010E94B903C09201
:1007F000BB0064E8C8010E94B90382E0D81204C0BB
:100800008F858F5F8F8711C084E98093BC008091B2
:10081000BC0084FDFCCF1F8608C0FF0CF092BB001B
:1008200064E8C8010E94B903D8CFDF91CF911F912E
:100830000F91FF90EF90DF90CF900895089580E0A2
:1008400090E00895CF93DF93EC0182E090E00E9466
:10085000E80DCE010E945F129BA78AA70E94A10DFE
:100860002AA53BA533708AE0829FA001839F500D8B
:1008700011248D859E85840F951F9C878B87DF9122
:10088000CF9108951F93CF93DF93EC01162F8A8D9C
:100890009B8D9D7F91609B8F8A8F62E0CE010E942D
:1008A0001A1411110CC08A8D9B8D9E7F9B8F8A8F8D
:1008B00062E0CE01DF91CF911F910C941A14DF9169
:1008C000CF911F9108951F93CF93DF93EC01162FC3
:1008D0008A8D9B8D93609B8F8A8F62E0CE010E94F0
:1008E0001A1411110CC08A8D9B8D9E7F9B8F8A8F4D
:1008F00062E0CE01DF91CF911F910C941A14DF9129
:10090000CF911F910895FC016087268D378D662356
:1009100011F0326002C03D7FFC01378F268F64E00A
:100920000C941A14FC016783228D338D662311F019
:100930003F7B02C03064FC01338F228F62E00C9455
:100940001A14FC016683828D938D9C013E7F338F48
:10095000228F662321F03062338F228F03C09E7D69
:10096000938F828F62E0CF010C941A14FC0165838F
:10097000228D338D662311F0306101C03F7EFC0172
:10098000338F228F62E00C941A14FC0164836F7021
:1009900020A131A1207F262B31A320A365E00C9458
:1009A0001A14CF93DF9300D000D0CDB7DEB7DC01AF
:1009B000ED91FC9106A4F7A5E02DBE016F5F7F4F7E
:1009C00009958C81811103C060E871E002C06AE77B
:1009D00071E08FE793E00E94540F8A81811103C078
:1009E00060E871E002C066E871E08FE793E00E9482
:1009F000540F8B81811103C066E971E002C06CE87D
:100A000071E08FE793E00E94540F8FE793E00E941C
:100A10002A0F0F900F900F900F90DF91CF910895B4
:100A20000F931F93CF93DF938C01EB01DC0113969F
:100A30008C918823D9F08EE30E94F50D60EA71E075
:100A40008FE793E00E94540F88E20E94F50DAE01FB
:100A500060E070E02AE08FE793E00E94A30E89E255
:100A60000E94F50D8FE793E00E942A0FD8015C9653
:100A7000ED91FC915D97EF70FF271D968D919C91F4
:100A80001E979E01C817D90708F49C01D8011F962C
:100A90004D915C91509770964217530708F49A0154
:100AA000A901481B590BCA016AE070E00E943F1778
:100AB000EB0186E0CC0FDD1F8A95E1F7CE2BDF2B13
:100AC000D8015A968D919C915B978960906C5B964A
:100AD0009C938E935A9762E0C8010E941A14F80101
:100AE000D58FC48F63E0C8010E941A1465E0C80165
:100AF000DF91CF911F910F910C941A14CF93DF9334
:100B0000EC018B81882379F08EE30E94F50D6DEA6C
:100B100071E08FE793E00E94540F62EB71E08FE782
:100B200093E00E94420FE881F9810480F581E02D75
:100B300060E0CE0109951B8E1A8ECE01DF91CF9118
:100B40000C947B141F93CF93DF93EC018B8188234C
:100B500079F08EE30E94F50D65EB71E08FE793E08D
:100B60000E94540F62EB71E08FE793E00E94420F06
:100B7000109213031092120310925C0310927E03E2
:100B800010925A0311E0109359031092340361E05C
:100B900082E10E94290E61E083E10E94290E80918A
:100BA000B9008E7F8093B9008091B9008D7F8093CA
:100BB000B90088E48093B80085E48093BC0010936A
:100BC0005B0381E180937D0310925C0310927E03AE
:100BD0000E94A10D81113AC08B81882349F08EE3D8
:100BE0000E94F50D6AEB71E08FE793E00E94420FDF
:100BF00084E098E59F8B8E8B198E188E83E090E0B1
:100C00009B8F8A8FE881F981028CF38DE02D61E062
:100C100070E0CE01099580E098E09F8F8E8F81E88B
:100C200090E999A388A31BA21AA21DA21CA21FA22D
:100C30001EA219A618A6CE010E947B1481E090E0A6
:100C40009B8F8A8F62E0CE010E941A1481E0DF91AF
:100C5000CF911F910895CF93DF93CDB7DEB727973C
:100C60000FB6F894DEBF0FBECDBFDC01ED91FC9155
:100C700004A4F5A5E02DBE016F5F7F4F09958C811F
:100C8000811103C06CEC71E002C067EC71E08FE78A
:100C900093E00E94540F8D81811103C068ED71E0D3
:100CA00002C061ED71E08FE793E00E94540F8F81E5
:100CB000811103C067EE71E002C06FED71E08FE754
:100CC00093E00E94540F6FEE71E08FE793E00E9473
:100CD000540F4A8150E060E070E02AE08FE793E033
:100CE0000E94A30E68EF71E08FE793E00E94540F1B
:100CF0004B8150E060E070E02AE08FE793E00E94D3
:100D0000A30E8FE793E00E942A0F27960FB6F89460
:100D1000DEBF0FBECDBFDF91CF910895CF92DF929E
:100D2000EF92FF920F931F93CF93DF931F92CDB754
:100D3000DEB78C016B01DC01ED91FC91048CF58D2B
:100D4000E02D498309957C01D801ED91FC9100A02B
:100D5000F1A1E02DC80109954981C114D104E1F147
:100D60004B30D0F1F6011082F1E0EF1AF10822E0E9
:100D7000E216F10488F545E0EAE0F0E010E24150C7
:100D8000242F30E0443011F0009751F02C0D3D1D20
:100D9000BF010E943F17805DD9018C93CB0104C035
:100DA000D601A20FB31F1C934111E9CFF601848134
:100DB0008583838184838EE2838360E072E0C60151
:100DC00006960F90DF91CF911F910F91FF90EF90BA
:100DD000DF90CF900C9489170F90DF91CF911F91E6
:100DE0000F91FF90EF90DF90CF900895DC01FB0111
:100DF000108211821282138214968C911497808330
:100E000017968C911797818318968C9118978283E7
:100E100015968C918383089527E0FB0111922A9502
:100E2000E9F7FC018681FB0185830895EF92FF922B
:100E30000F931F93CF93DF937A018901892BA1F53B
:100E400067E971E08EE294E00E9489176EE274E037
:100E500088E394E00E94891765E072E082E494E000
:100E60000E94891782E4E4E5F4E0DF011D928A958F
:100E7000E9F710922D04E0914C04F0914D04309765
:100E800019F082E494E00995E0915004F091510446
:100E9000309709F4F5C08BE292E0DF91CF911F917A
:100EA0000F91FF90EF900994CB0188279870892FBC
:100EB0008695869586959B012227307F832B8A60B5
:100EC000809328041092290410922A048A3209F48B
:100ED0004BC020F48A50823028F0D2C08A3409F402
:100EE00082C0CEC06370660FE12EF02EE62FF0E0D8
:100EF000EF01C85DDB4F8E8181132AC0E75DFB4F98
:100F00008681801325C0188B008B109240046630B8
:100F1000F9F468E374E08EE294E00E948017892B74
:100F2000B9F462E474E088E394E00E948017892BAE
:100F300079F068E374E082E494E00E948917E0911C
:100F40004C04F0914D04309719F082E494E0099537
:100F50008E818E1104C08F818F1509F491C01E837C
:100F60000F83109236048CC0862F807180932B04DF
:100F7000E62FEF70CE2FCC0FCC0F80912D04C81729
:100F800048F4E0915004F0915104309719F084E551
:100F900094E00995C0932D0480912B0490912C042A
:100FA000891749F080932C0482E4E4E5F4E0DF0142
:100FB0001D928A95E9F7EC2FF0E0E85DFB4FF4A66F
:100FC000E1E0EC0FF0E0E85DFB4FE4A6E2E0EC0FBF
:100FD000F0E0E85DFB4F14A7E3E0EC0FF0E0E85D24
:100FE000FB4F04A74DC0C80126E0969587952A952A
:100FF000E1F78F739927B1E0EB22FF2434E0EE0C88
:10100000FF1C3A95E1F7A801452F552742954F70EF
:10101000E42AF52A4CE34E9D90014F9D300D11249A
:10102000820F931F202F2F7105FF06C03EE1239FE3
:1010300080199109112405C0AEE12A9F800D911DF0
:101040001124E0914E04F0914F043097C9F02091A3
:101050005204309153048217930791F090935304F4
:10106000809352046CE370E00E943F17962F682F24
:10107000892FDF91CF911F910F91FF90EF900994ED
:10108000DF91CF911F910F91FF90EF900895EF9214
:10109000FF920F931F93CF93DF938C018CE090E02E
:1010A0000E94E80DE801AA96780186E3E80EF11C9B
:1010B000C8010E945F1289939993CE15DF05C1F78D
:1010C000DF91CF911F910F91FF90EF900C94A10DA4
:1010D000CF93DF93EB016031710520F480E30E9430
:1010E000F50D04C06F3F710509F020F480E30E9404
:1010F000F50D03C06115704118F480E30E94F50DF1
:10110000AE0160E070E020E18FE793E00E94A30E63
:1011100080E2DF91CF910C94F50DDC01ED91FC9113
:101120000084F185E02D40E009940F931F93CF9345
:101130008C01FC0164839085C62FC90F6C2F6F70E2
:10114000C8010E948D086C2F62956F706061C801A4
:10115000CF911F910F910C948D080F931F93CF93F4
:10116000DF931F92CDB7DEB78C01FC018681681733
:1011700028F4C80149830E9495084981F8018781B4
:10118000869586958695481758F44583642F606B3D
:10119000C8010F90DF91CF911F910F910C948D0892
:1011A0000F90DF91CF911F910F910895CF92DF9211
:1011B000EF92FF920F931F93CF93DF93EC01F62EE4
:1011C000C42ED22E8F81869586958695081710F0AD
:1011D0000FEF080F1D2D011780F0412F6F2DCE014D
:1011E0000E94AD08EF2CCE1430F060E0CE010E94DA
:1011F000A403E394F8CF1F5FEECF4D2D6F2DCE01EA
:10120000DF91CF911F910F91FF90EF90DF90CF90E2
:101210000C94AD080F931F93DC0115962C91159734
:101220001B96ED91FC911C97309749F03396E49111
:1012300019960C911997E09FE02D112401C0E0E070
:101240008FEF820F0E2F10E0095F1F4F93E015956F
:1012500007959A95E1F7080F16964C91169741500D
:1012600014966C911497CD010E94D6081F910F918E
:1012700008952F923F924F925F926F927F928F923A
:101280009F92AF92BF92CF92DF92EF92FF920F9315
:101290001F93CF93DF93CDB7DEB727970FB6F894A0
:1012A000DEBF0FBECDBFFC010385148501151105FE
:1012B00009F42FC19F838E83F801B4913196449134
:1012C000319654903196A491EA2EF12CF7E0EF0E6E
:1012D000F11C93E0F594E7949A95E1F7EB82F8011D
:1012E000349674913196E491671758F0862F90E008
:1012F0002E2F30E0F901E70FF11D8E179F070CF438
:1013000048C06D3061F4EE81FF818681882309F445
:101310003DC060E08E819F810E94950837C06A3091
:1013200009F0F7C0EE81FF81818515818E9D100D3A
:1013300011248781869586958695181730F08285C9
:10134000882319F082E0828710E0412F60E08E81CF
:101350009F810E94AD08EE81FF8182858230B0F0CE
:10136000CF010E940A09EE81FF818185612F8E9D48
:10137000600D1124660F660F660F8781861708F4CB
:1013800060E060648E819F810E948D0881E090E022
:10139000C2C050E05B2BC8010696671BEE81FF813F
:1013A000F185F9834230510588F4452B09F0198203
:1013B0005E9C90015F9C300D1124629F8001639FB1
:1013C000100D1124080F191F412C24C0EA2FE770BB
:1013D00021F048E0442E4E1A01C0412CA82FFC01F8
:1013E00040E050E07E2F7A1B761728F47491470F67
:1013F000511D3196F7CFFC01E60FF11D54904E9D23
:1014000080014F9D100D5E9D100D1124020F131FC2
:10141000080F191FEE81FF81F481FC83EE81FF81AB
:101420003580652C712CCC24C394D12C812C912C2B
:101430007FEF7C0D7A838B81781708F05CC0212CBC
:10144000EE81FF818185281608F04FC07A817111E5
:1014500002C0222041F0EE81FF8145814F5F6C8107
:10146000CF010E94AD08A12CB12CA51488F5F5017F
:10147000E80DF91DE00FF11F2491442061F0CE1416
:10148000DF0449F4E22FF0E0042C02C0F595E79563
:101490000A94E2F72E2FEE81FF818185823079F464
:1014A000E22F2110E295EF70F0E0EE58FF4F24910B
:1014B000622F8E819F812D830E94A4032D81622F34
:1014C0008E819F810E94A403FFEFAF1ABF0ACDCF88
:1014D000B12C7981B71639F060E08E819F810E942E
:1014E000A403B394F6CF2394ABCF860C971CFFEFE5
:1014F000CF1ADF0A9DCFEE81FF8187818695869581
:101500008695381608F042CF3582632D606BCF0187
:101510003BCF80E090E027960FB6F894DEBF0FBE79
:10152000CDBFDF91CF911F910F91FF90EF90DF9092
:10153000CF90BF90AF909F908F907F906F905F9073
:101540004F903F902F9008950F931F93CF93DF9369
:101550008C01CCECD4E081E0898740E060E0CE01F2
:101560000E94AD086EE072E0CE010E94540FCE01E1
:101570000E940A0982E0898742E060E0CE010E9471
:10158000AD08CE010E940A09B801CE01DF91CF91CA
:101590001F910F910C94540F0F93CF93DF93EC0195
:1015A0000F8106950695069501504E81415020E029
:1015B00060E00E94D60881E09A85911101C080E028
:1015C0008A8760E4CE01DF91CF910F910C948D0852
:1015D000CF92DF92EF92FF920F931F93CF93DF93FF
:1015E000EC01898182FD34C085FD32C02A8130E062
:1015F000F901ED56FA4F8491F901E158FA4F04913F
:10160000F901E559FA4F14911123A1F081110E94BB
:10161000000EE12FF0E0EE0FFF1FE859FF4FA591FC
:10162000B491EC91E02331E020E009F430E0832F25
:10163000922F02C080E090E0298123FB332730F90C
:1016400026952170232731E08327817082278A8B9A
:101650008FB7F89440910E0350910F0360911003DF
:10166000709111038FBF9A892B898881992321F169
:10167000211122C080FD07C0816088834E875F876B
:10168000688B798B3BC00E851F85288939896A0153
:101690007B01C01AD10AE20AF30A0B811C8120E007
:1016A00030E0C016D106E206F30640F121E02B8BB4
:1016B00080628068888322C08E7F888391111EC0DB
:1016C0002223E1F01B8A81FD03C08B858F5F8B870E
:1016D00088818D7F806188834E875F87688B798B57
:1016E00086FF04C01C861B868F7B8883888187FFCA
:1016F00005C08F7788838981816089838B8988235E
:1017000009F19923F9F08E859F85A889B9898A0105
:101710009B01081B190B2A0B3B0B8D819E81A0E0BE
:10172000B0E0081719072A073B0760F0888181FDA0
:1017300009C09B859D878A648F7788834E875F87E2
:10174000688B798B8E859F85A889B989481B590B31
:101750006A0B7B0B8F819885A0E0B0E04817590792
:101760006A077B0740F08B85882329F08C871B86CE
:10177000888184608883DF91CF911F910F91FF90C2
:10178000EF90DF90CF900895CF93DF93EC018981A4
:1017900084FF03C0CE010E94E80A988192FB88274B
:1017A00080F992FF08C02C85213021F41C869B7F94
:1017B000988301C080E0DF91CF9108950F931F932C
:1017C000CF93DF93CDB7DEB72C970FB6F894DEBF7B
:1017D0000FBECDBF4CE0BE016F5F7F4F86E994E046
:1017E0000E948E060CEC14E081E0F801818740E055
:1017F00060E0C8010E94AD0867E172E0C8010E9484
:10180000420F82E0F8018187BE016F5F7F4FC80100
:101810000E94540FC8010E940A092C960FB6F89432
:10182000DEBF0FBECDBFDF91CF911F910F91089505
:10183000CF93DF9390E0FC01E158FA4F2491FC0133
:10184000E559FA4F8491882361F190E0880F991F40
:10185000FC01E95AFA4FC591D491FC01EF59FA4FB6
:10186000A591B491611109C09FB7F8948881209522
:1018700082238883EC912E230BC0623061F49FB7E2
:10188000F8943881822F809583238883EC912E2BC6
:101890002C939FBF06C08FB7F894E8812E2B288326
:1018A0008FBFDF91CF9108953FB7F8948091E10405
:1018B0009091E204A091E304B091E40426B5A89BC2
:1018C00005C02F3F19F00196A11DB11D3FBFBA2FD2
:1018D000A92F982F8827820F911DA11DB11DBC0132
:1018E000CD0142E0660F771F881F991F4A95D1F7F7
:1018F00008958F929F92AF92BF92CF92DF92EF9214
:10190000FF926B017C010E94540C4B015C01C114DD
:10191000D104E104F104F1F00E94540CDC01CB018C
:1019200088199909AA09BB09883E9340A105B10508
:1019300070F321E0C21AD108E108F10888EE880EA0
:1019400083E0981EA11CB11CC114D104E104F10470
:1019500019F7DDCFFF90EF90DF90CF90BF90AF9061
:101960009F908F900895CF92DF92EF92FF920F9306
:101970001F93CF93DF936C017A018B01C0E0D0E01D
:10198000CE15DF0589F0D8016D918D01D601ED915D
:10199000FC910190F081E02DC6010995892B11F48D
:1019A0007E0102C02196ECCFC701DF91CF911F913C
:1019B0000F91FF90EF90DF90CF9008958FE793E025
:1019C0000E94DF0F21E0892B09F420E0822F089587
:1019D0006115710579F0FB0101900020E9F731975D
:1019E000AF01461B570BDC01ED91FC910280F381A6
:1019F000E02D099480E090E00895EF92FF920F931C
:101A00001F93CF93DF93EC0181E0888F9B8D8C8DAA
:101A1000981305C0E889F989808185FD24C0F62ED8
:101A20000B8D10E00F5F1F4F0F731127E02E8C8D71
:101A3000E8120CC00FB607FCFACFE889F98980815B
:101A400085FFF5CFCE010E94EE10F1CF8B8DFE0108
:101A5000E80FF11DE35AFF4FF0820B8FEA89FB89F3
:101A60008081806207C0EE89FF896083E889F989F7
:101A700080818064808381E090E0DF91CF911F912D
:101A80000F91FF90EF900895382F20917E03909151
:101A90007D03213208F049C080915A038111FCCFA7
:101AA00042E040935A03309359033FEF3093580379
:101AB0001092570320935603ADE5B3E046E353E09D
:101AC000FA013E2F341B321718F43D913193F9CFB0
:101AD0001092350320913503990F922B9093350383
:101AE00090913403913061F4109234039091350356
:101AF0009093BB009091BC0093FDF8CF95EC01C092
:101B000095EE9093BC0090915A039230E1F390913E
:101B100058039F3F79F080915803803241F08091C3
:101B20005803803331F084E005C081E003C082E0D7
:101B300001C083E010925C0310927E0310925B035D
:101B4000089581E00C94440D90915A039111FCCFBB
:101B500091E090935A03409359032FEF2093580339
:101B600010925703260F20935603909335039091BC
:101B70003503880F892B809335038091340381309E
:101B800061F410923403809135038093BB008091FF
:101B9000BC0083FDF8CF85EC01C085EE8093BC00CE
:101BA00080915A038130E1F380915703861710F436
:101BB00060915703A6E3B3E024E133E0F9018E2FEF
:101BC000821B861718F48D918193F9CF862F089583
:101BD000813208F080E241E0682F80E10E94A40D8C
:101BE00010921303809312030895E0917F03F09104
:101BF00080030190F081E02D682F8FE793E0099436
:101C0000833081F028F4813099F08230A1F008957A
:101C10008730A9F08830B9F08430D1F48091800009
:101C20008F7D03C0809180008F778093800008951E
:101C300084B58F7702C084B58F7D84BD089580916F
:101C4000B0008F7703C08091B0008F7D8093B0008B
:101C500008951F93CF93DF93282F30E0F901ED56BD
:101C6000FA4F8491F901E158FA4FD491F901E559FD
:101C7000FA4FC491CC23C9F0162F81110E94000E97
:101C8000EC2FF0E0EE0FFF1FEF59FA4FA591B49142
:101C90008FB7F894111105C09C91ED2FE095E923C1
:101CA00002C0EC91ED2BEC938FBFDF91CF911F9190
:101CB00008951F920F920FB60F9211242F933F9306
:101CC0008F939F93AF93BF9380910E0390910F03D7
:101CD000A0911003B09111033091E00423E0230F91
:101CE0002D3720F40196A11DB11D05C026E8230F54
:101CF0000296A11DB11D2093E00480930E039093E2
:101D00000F03A0931003B09311038091E10490910D
:101D1000E204A091E304B091E4040196A11DB11D79
:101D20008093E1049093E204A093E304B093E4046D
:101D3000BF91AF919F918F913F912F910F900FBEC7
:101D40000F901F9018954F925F926F927F92EF9233
:101D5000FF920F931F93CF93DF93CDB7DEB7A19779
:101D60000FB6F894DEBF0FBECDBF7C01FA01CB01E8
:101D700019A2223008F42AE08E010F5D1F4F422E77
:101D8000512C612C712CBF01A30192010E945317A9
:101D9000F901CA01015011096A3014F4605D01C0F3
:101DA000695CD8016C93232B242B252B61F7B80198
:101DB000C7010E94E80CA1960FB6F894DEBF0FBED3
:101DC000CDBFDF91CF911F910F91FF90EF907F904A
:101DD0006F905F904F9008950F931F93CF93DF9371
:101DE00000D000D0CDB7DEB7AC01990F660B770BF2
:101DF00077FF23C08DE249835A836B837C830E94E3
:101E0000F50D8C0149815A816B817C8170956095BB
:101E1000509541955F4F6F4F7F4F2AE08FE793E0DA
:101E20000E94A30E800F911F0F900F900F900F90A4
:101E3000DF91CF911F910F9108952AE08FE793E0F2
:101E40000F900F900F900F90DF91CF911F910F91F6
:101E50000C94A30E69E272E00C94E80CCF93DF932C
:101E6000AC0160E070E02AE08FE793E00E94A30EEF
:101E7000EC018FE793E00E942A0F8C0F9D1FDF91EA
:101E8000CF9108950F931F93CF93DF93EC010E949E
:101E9000E80C8C01CE010E942A0F800F911FDF9168
:101EA000CF911F910F9108950C94E80C1F920F92FF
:101EB0000FB60F9211242F933F934F935F936F931D
:101EC0007F938F939F93AF93BF93EF93FF938FE78E
:101ED00093E00E94EE10FF91EF91BF91AF919F911F
:101EE0008F917F916F915F914F913F912F910F90C3
:101EF0000FBE0F901F9018951F920F920FB60F9262
:101F000011242F938F939F93EF93FF93E0918F036F
:101F1000F09190038081E0919503F091960382FD0A
:101F200012C09081809198038F5F8F7320919903E5
:101F3000821751F0E0919803F0E0E158FC4F958F43
:101F40008093980301C08081FF91EF919F918F91C1
:101F50002F910F900FBE0F901F901895FC01538D7D
:101F6000448D252F30E0842F90E0821B930B541773
:101F700010F0CF96089501970895FC01918D828D00
:101F8000981761F0828DDF01A80FB11D5D968C91CD
:101F9000928D9F5F9F73928F90E008958FEF9FEFD8
:101FA0000895FC01918D828D981731F0828DE80F94
:101FB000F11D858D90E008958FEF9FEF0895FC014E
:101FC000918D228D892F90E0805C9F4F821B91091B
:101FD0008F739927089580E090E0892B29F00E9463
:101FE000DE0C81110C940000089585ED8093BC00F7
:101FF0008091BC0084FDFCCF10925A03089540915B
:102000004305262F30E0240F311D21323105DCF449
:1020100020915A032430C9F4FC0180E090E0861737
:1020200058F4309143052191DC01AF5DBA4FA30F05
:10203000B11D2C930196F3CF80914305680F6093F7
:10204000430580E0089581E0089582E008950895B1
:10205000E091130380911203E81730F4F0E0EC5E96
:10206000FC4F808190E008958FEF9FEF089590914D
:10207000130380911203981750F4E92FF0E0EC5EFF
:10208000FC4F208130E09F5F9093130302C02FEF3D
:102090003FEFC90108958091120390E0209113034E
:1020A000821B91090895CF92DF92EF92FF920F93D6
:1020B0001F93CF93DF937C01262F972F8A01809166
:1020C0005B03882391F0C62FD72F6E01C40ED51E57
:1020D000CC15DD0571F06991D701ED91FC9101906E
:1020E000F081E02DC7010995F3CF642F822F0E9464
:1020F000FF0FC801DF91CF911F910F91FF90EF90DB
:10210000DF90CF900895CF93DF931F92CDB7DEB7C6
:10211000698320915B032223D1F020917E0320323A
:1021200040F021E030E0FC013383228380E090E046
:1021300015C080915C03E82FF0E0E35AFC4F9981D1
:1021400090838F5F80935C0380937E0305C061E082
:10215000CE0101960E94FF0F81E090E00F90DF9189
:10216000CF910895CF93C62F672F8CE194E00E9402
:1021700083106C2F8CE194E0CF910C9483100E941B
:102180007B170F931F93CF93DF938C01EB010E947A
:102190000C07C8010E94470821E02883F80182A5A6
:1021A00093A592FD2E8397FF02C081E08B83F801F7
:1021B00085A586958695898384A595A590FF02C0FF
:1021C00081E08C83F801828D938D95FF02C081E0C0
:1021D0008D83DF91CF911F910F910895FC01848D24
:1021E000DF01A80FB11DA35ABF4F2C91848D90E041
:1021F00001968F739927848FA689B7892C93A0891C
:10220000B1898C9180648C93938D848D981306C0D2
:102210000288F389E02D80818F7D80830895CF939C
:10222000DF93EC01888D8823C9F0EA89FB898081DE
:1022300085FD05C0A889B9898C9186FD0FC00FB6B0
:1022400007FCF5CF808185FFF2CFA889B9898C91F1
:1022500085FFEDCFCE010E94EE10E7CFDF91CF9149
:1022600008951F920F920FB60F9211242F933F9350
:102270004F935F936F937F938F939F93AF93BF938E
:10228000EF93FF938091B900887F803609F49CC05A
:1022900068F5883209F45BC090F4803109F454C0C9
:1022A00038F4882309F4F6C0883009F44DC0F6C02C
:1022B000883109F44CC0803209F45DC0EFC080342D
:1022C00009F468C048F4803309F455C0883309F034
:1022D000E5C080935803D8C0803509F44FC08835D5
:1022E00009F45DC0883409F0D9C0D6C0883909F432
:1022F000C7C0A8F4883709F467C038F4883609F4F1
:1023000063C0803709F460C0C9C0883809F4B8C018
:10231000803909F45FC0803809F0C0C05BC0803BE1
:1023200009F486C038F4803A09F466C0883A09F4A2
:102330007FC0B4C0803C09F4A7C0883C09F4A4C0A5
:10234000883B09F48AC0AAC08091350310C09091DF
:10235000570380915603981770F5E091570381E079
:102360008E0F80935703F0E0EA5CFC4F80818093EE
:10237000BB0085EC86C0809358038EC0E091570364
:1023800081E08E0F809357038091BB00F0E0EA5C00
:10239000FC4F808390915703809156036EC0E0916B
:1023A000570381E08E0F809357038091BB00F0E0CC
:1023B000EA5CFC4F80838091590381116DC081E0FC
:1023C0008093340384EA61C083E080935A031092BF
:1023D0006705CFCF80916705803208F051C0E0914A
:1023E000670581E08E0F809367058091BB00F0E068
:1023F000E95BFA4F8083BDCF85EC8093BC001092DF
:102400005A0380916705803230F4E0916705F0E06F
:10241000E95BFA4F10826091670570E0E091450535
:10242000F091460587E495E009951092670536C05E
:1024300084E080935A031092440510924305E09182
:102440004105F0914205099580914305811105C030
:1024500081E08093430510922105E091440581E0DD
:102460008E0F80934405F0E0EF5DFA4F80818093FA
:10247000BB009091440580914305981708F479CFEB
:1024800085E88093BC000AC085EC8093BC00109264
:102490005A0304C0109258030E94F50FFF91EF9168
:1024A000BF91AF919F918F917F916F915F914F916C
:1024B0003F912F910F900FBE0F901F9018951F9373
:1024C000CF93DF938CE194E00E943710182F8CE1BA
:1024D00094E00E943710D12F20E0C22F9E01280FD8
:1024E000311DC901DF91CF911F910895CF92DF92E5
:1024F000EF92FF920F931F93CF93DF93CDB7DEB789
:102500002C970FB6F894DEBF0FBECDBF8C010E9492
:102510004708D801ED91FC9106A8F7A9E02D4CE001
:10252000BE016F5F7F4FC80109956CE572E08FE7D0
:1025300093E00E94540FBE016F5F7F4F8FE793E0DF
:102540000E94540FF801E6A4F7A467E672E08FE753
:1025500093E00E94540FB701C8010E946808D80197
:102560009A968D919C919B9792FD03C064E572E0D1
:1025700002C06CE472E08FE793E00E94540FF80110
:1025800082A593A597FD03C067EC71E002C06CECD7
:1025900071E08FE793E00E94540FD8019D968C91D3
:1025A000E82EE694E694F12C6CE672E08FE793E077
:1025B0000E94540FBAE0EB16F1042CF460E28FE7AE
:1025C00093E00E94FD0CC7010E94EC0E80E20E9485
:1025D000F50DC12CD12CEFE0EE1AF108CE14DF047A
:1025E0004CF46AE28FE793E00E94FD0CFFEFCF1AF4
:1025F000DF0AF4CF8FE793E00E942A0F62E772E0D0
:102600008FE793E00E94420F780186E1E80EF11C0B
:102610006801A6E3CA0ED11CF701619171917F0197
:10262000C8010E946808EC14FD04B1F78FE793E03D
:102630000E942A0F81E080935B0381E180937D03F8
:1026400010925C0310927E0360E08CE194E00E94A3
:10265000831080E00E94440D41E060E281E10E942D
:10266000A40D109213038093120380E1E82EF12C45
:10267000C8010E945F12BC01C8010E946808F1E015
:10268000EF1AF108A9F70E94A10D8FE793E00E94CD
:102690002A0FD801ED91FC910288F389E02DC80141
:1026A0000995882331F06FEB72E08FE793E00E9489
:1026B000540FD801ED91FC9102A4F3A5E02DC801BF
:1026C0000995882331F06AEC72E08FE793E00E946D
:1026D000540FD801ED91FC910680F781E02DC801DF
:1026E0000995182F60ED72E08FE793E00E94540F78
:1026F000812F90E00E94EC0E80E20E94F50D8FE7A2
:1027000093E00E942A0F2C960FB6F894DEBF0FBEFE
:10271000CDBFDF91CF911F910F91FF90EF90DF9090
:10272000CF9008951F93CF93DF93FC0123893489C1
:10273000232B09F47BC0EC0182E090E00E94E80DBD
:10274000CE010E945F129BA78AA70E94A10D8AA5B5
:102750009BA593FF0CC08B81882349F08EE30E94D8
:10276000F50D68ED72E08FE793E00E94420F8AA5B5
:102770009BA597FF5BC081E080935B0381E1809321
:102780007D0310925C0310927E036CE08CE194E078
:102790000E94831080E00E94440D41E068E081E1E6
:1027A0000E94A40D1092130380931203CE010E9485
:1027B0005F122EA53FA58217930721F09FA78EA732
:1027C00011E001C010E0CE010E945F1228A939A9D2
:1027D0008217930719F099AB88AB11E0CE010E94E4
:1027E0005F122AA93BA98217930719F09BAB8AAB0A
:1027F00011E0CE010E945F122CA93DA98217930718
:1028000019F09DAB8CAB11E00E94A10D112371F06A
:102810002CA93DA94AA95BA968A979A9EB89FC89DA
:102820008EA59FA5DF91CF911F910994DF91CF9144
:102830001F910895FF920F931F93CF93DF938C0105
:10284000F62EFC018381C62FD0E08823A1F18EE310
:102850000E94F50D67EE72E08FE793E00E94540F3F
:1028600066EF72E08FE793E00E94540F4F2D50E027
:1028700060E070E020E18FE793E00E94A30E6AEF32
:1028800072E08FE793E00E94540FFE013B96EE0F3B
:10289000FF1FE00FF11F4081518160E070E020E1F7
:1028A0008FE793E00E94A30E89E20E94F50D8FE767
:1028B00093E00E942A0F81E080935B0381E1809383
:1028C0007D0310925C0310927E036F2D8CE194E0E7
:1028D0000E9483102B96CC0FDD1FC00FD11F688183
:1028E0007981C8010E94B210DF91CF911F910F91A1
:1028F000FF900C94A10DEF92FF920F931F93CF9333
:10290000DF93EC018B81882379F08EE30E94F50D33
:102910006FEF72E08FE793E00E94540F62EB71E07B
:102920008FE793E00E94420F81E080935B0380E198
:1029300080937D0310925C0310927E038E01065EED
:102940001F4F7E0184E2E80EF11CF8016191719144
:102950008F01CE010E94B2100E151F05B1F7DF9155
:10296000CF911F910F91FF90EF900C94A10DCF92FA
:10297000DF92EF92FF920F931F93CF93DF93EFE7D6
:10298000F3E01382128288EE93E0A0E0B0E084834B
:102990009583A683B78328E031E03183208325EC3B
:1029A00030E03587248724EC30E03787268720EC19
:1029B00030E0318B208B21EC30E0338B228B22EC0A
:1029C00030E0358B248B26EC30E0378B268B118E54
:1029D000128E138E148EECE1F4E013821282848343
:1029E0009583A683B7838AE191E091838083ECECA1
:1029F000F4E01382128281E081871486138680E7D7
:102A000091E091838083E6E9F4E085E1DF011D92A6
:102A10008A95E9F78CE291E0918380838FE0858B42
:102A20008EE6E8E2F4E0DF011D928A95E9F7EDE039
:102A3000F5E08CE3C82ED12CD482C382C4EFD1E060
:102A4000D683C583D087C78390E9E92EFF24F3940A
:102A5000F286E18613861486158616861786108AF6
:102A6000118A128A138A82E082830EE015E0F8014F
:102A700080818F7D877F808362E082E00E94180CD6
:102A8000D8018C918B7E8D7F8C93E9EFF4E0D4821A
:102A9000C382D683C583D087C783F286E186138637
:102AA0001486158616861786108A118A128A138A4A
:102AB00083E082830AEF14E0F80180818F7D877FB5
:102AC000808362E083E00E94180CD8018C918B7E99
:102AD0008D7F8C93E5EEF4E0D482C382D683C583E8
:102AE000D087C783F286E1861386148615861686FC
:102AF0001786108A118A128A138A85E08283C6EEAD
:102B0000D4E088818F7D877F888362E085E00E94A2
:102B1000180C88818B7E8D7F8883DF91CF911F91E8
:102B20000F91FF90EF90DF90CF900895789484B547
:102B3000826084BD84B5816084BD85B5826085BDB9
:102B400085B5816085BD80916E00816080936E0047
:102B50001092810080918100826080938100809139
:102B600081008160809381008091800081608093EA
:102B700080008091B10084608093B1008091B000AA
:102B800081608093B00080917A00846080937A00A5
:102B900080917A00826080937A0080917A008160CF
:102BA00080937A0080917A00806880937A001092F6
:102BB000C10061E088E00E94180CE0918F03F09161
:102BC000900382E08083E0918B03F0918C0310826C
:102BD000E0918D03F0918E038FEC80831092970328
:102BE000E0919303F091940386E08083E091910358
:102BF000F0919203808180618083E0919103F09154
:102C00009203808188608083E0919103F091920328
:102C1000808180688083E0919103F09192038081AC
:102C20008F7D808361E088E00E94180C60E088E07E
:102C30000E94290E6AE070E080E090E00E94790C2A
:102C400061E088E00E94290E6AE070E080E090E098
:102C50000E94790C1092DB048CE38093DA041092CA
:102C6000B9008CE08093B8001092D0041092D10487
:102C7000E1E5F5E085919491E82EE3E5F5E0F49047
:102C8000E4E5F5E0E491E093D204E5E5F5E0E491D4
:102C9000E093D304E6E5F5E0E491E093D404C82F93
:102CA000D92F8C2F8E198F1540F4FE0164918CEC76
:102CB00094E00E948D082196F4CF1092D6048CECFB
:102CC00094E00E94CC0A85EB90E09093D804809326
:102CD000D70486E994E00E94A205C1E0C09399045C
:102CE00061E88CEC94E00E948D0860E08CEC94E04C
:102CF0000E948D088CEC94E00E94CC0A86E994E056
:102D00000E9422049093DF048093DE040E942E0F21
:102D10008091DE049091DF040E94DE0BC093D50405
:102D200068EE73E080E090E00E94790CC1EBD0E0A7
:102D3000FE014591549161E070E086E994E00E94C3
:102D40003E03FE01859194910E942E0FFE01659134
:102D5000749186E994E00E94100586E197E09093D3
:102D6000AA048093A90484EA9AE090934D04809386
:102D70004C046CE272E08FE793E00E94420F86E918
:102D800094E00E9422049093DF048093DE040E946A
:102D90002E0F8091DE049091DF040E94DE0B61E42F
:102DA00072E08FE793E00E94420F8FB7F894C090D3
:102DB0000E03D0900F03E0901003F09011038FBF2B
:102DC00086E994E00E9492138DE095E00E94E80A63
:102DD00089EF94E00E94E80A8DE095E00E94C40B20
:102DE000882329F061E086E994E00E94630489EF7A
:102DF00094E00E94C40B882329F061E086E994E006
:102E00000E9442048091000190910101A091020171
:102E1000B09103018C159D05AE05BF0568F586E9E7
:102E200094E00E9422049093DF048093DE042091BA
:102E3000DC043091DD0482179307F1F00E942E0F1D
:102E40008091DE049091DF040E94DE0B8091DE040D
:102E50009091DF049093DD048093DC04F8EECF0EB4
:102E6000F3E0DF1EE11CF11CC0920001D0920101D1
:102E7000E0920201F09203010E94EB0F96CFAA1B91
:102E8000BB1B51E107C0AA1FBB1FA617B70710F055
:102E9000A61BB70B881F991F5A95A9F78095909587
:102EA000BC01CD010895A1E21A2EAA1BBB1BFD0196
:102EB0000DC0AA1FBB1FEE1FFF1FA217B307E40719
:102EC000F50720F0A21BB30BE40BF50B661F771F71
:102ED000881F991F1A9469F7609570958095909551
:102EE0009B01AC01BD01CF010895EE0FFF1F0590BE
:102EF000F491E02D099481E090E0F8940C949017FF
:102F0000FB01DC018D91019080190110D9F3990B1F
:102F10000895FB01DC0101900D920020E1F7089576
:042F2000F894FFCF53
:102F24009001000000000000FD0CB30CAE0F0F1167
:102F3400DF0FBD0FD10F00000000831053101F04DA
:102F440027104B103710281000000000A2057E0542
:102F5400C5049E039204950383049203B6049B0361
:102F640030032C03280373033803100522043E03A3
:102F740063044204A1049803C110F60692131603D5
:102F840012038E060F032B06D104761200000000F4
:102F94003909B30C1F041E04C503204241535300D6
:102FA400202D2D2D2D00204D5554450020534F46E6
:102FB400544D55544500202D2D2D2D2D2D2D2D00F6
:102FC4007365744672657175656E637900746572B4
:102FD4006D00282900696E697400726164696F204C
:102FE400666F756E642E002052445300202D2D2DE3
:102FF400002054554E454400202D2D2D2D2D00200C
:1030040053544552454F0020204D4F4E4F20002031
:1030140020525353493A20002020534E523A200064
:10302400204D487A002020202020202020005220FB
:10303400442053203A200046205220452051205558
:103044002045204E20432059000D0A005265717519
:10305400657374206765744672657175656E63790E
:10306400005374617274206C6F6F70002053746528
:1030740072656F00204D6F6E6F202000467265717F
:1030840075656E63793D002050493D0020536967A2
:103094003D003020202020312020202032202020FC
:1030A40020332020202034202020203520202020E0
:1030B40036202020203720202020382020202039AE
:1030C4002020202041202020204220202020432096
:1030D400202020442020202045202020204600427B
:1030E400617373426F6F737420004D6F6E6F2000B5
:1030F400566F6C756D653D00424C4F434B5F4520E8
:10310400666F756E642E002D5F7361766552656718
:10311400697374657200283078002C203078002D93
:0E312400736176655265676973746572730036
:00000001FF
