:100000000C94D5020C94FD020C94FD020C94FD029C
:100010000C94FD020C94FD020C94FD020C94FD0264
:100020000C94FD020C94FD020C94FD020C94FD0254
:100030000C94FD020C94FD020C94FD020C94FD0244
:100040000C9494110C94FD020C941B0E0C94F50D61
:100050000C94FD020C94FD020C94FD020C94FD0224
:100060000C944D0E0C94FD0200030C0F30333C3FFA
:10007000C0C3CCCFF0F3FCFFAED580A83FD3004087
:100080008D142002A1C8DA12817FD9F1DB40A4A629
:10009000AF2E22CE2246237823A023182458258071
:1000A00025A825D0253C28E628F42919920A0C20F9
:1000B0006002010408060B0801030305070204019E
:1000C00005060506060706060606060102070707D7
:1000D000050A0806070706060707030406060807B9
:1000E00008060807060707080B06070603050308A6
:1000F00008020606050606040606010305010906B0
:100100000606060405050605090505050501050899
:100110000900000000FE200700000700000000802A
:1001200090F89690F896100030000030000000180B
:1001300024FF4444842020F02020101C22221C8014
:10014000700CC22020C000000020100000102020F1
:1001500010DC2222225C8060001020202020101061
:10016000200700F806011060800106F88060100A80
:10017000041F040A0000000000404040F8404040D6
:10018000000000300000000000807040404040004F
:1001900000000000300000E01C038070000000FC44
:1001A00002020202FC1020202020100404FE0000A5
:1001B00020203020200C824242221C30202020208F
:1001C000200402222222DC1020202020106050482F
:1001D00044FE4040000000003000001E12121212C7
:1001E000E2102020202010F814121212E01020201B
:1001F000202010020282621A06002010000000DC9B
:1002000022222222DC1020202020103C42424242A6
:10021000FC00202020100018300018807040A0A0A2
:1002200010100808000000101020205050505050AE
:1002300050500000000000000008081010A0A0406E
:10024000202010100000000402E2221C0000200008
:1002500000F00C04F20A0AFA040CF00030204050BE
:10026000505010100000E098868698E000300000A2
:100270000000000030FE2222223CC030202020203E
:1002800010F804020202020400102020202010FEB8
:100290000202020204F830202020201000FE222258
:1002A000222222302020202020FE22222222023060
:1002B0000000000000F80402022222E400102020C6
:1002C000202010FE2020202020FE30000000000012
:1002D0003002FE02203020000202FE20202010FE0C
:1002E0002050880402300000001020FE00000000B2
:1002F00000302020202020FE0638C0C03806FE3006
:1003000000000000000030FE061820C000FE300093
:100310000000003030F8040202020204F80010204D
:100320002020201000FE424242423C3000000000EB
:1003300000F8040202020204F8001020202060905D
:1003400080FE222262A21C00300000000010201C4F
:1003500022222222C4102020202010020202FE02AB
:10036000020200000030000000FE0000000000FE5D
:10037000001020202010000638C00000C038060001
:10038000000030300000001EE000C0380638C00019
:10039000E01E000030000000000030000006887001
:1003A000708806300000000030020C10E0100C02D3
:1003B00000000030000000028262120A0630202095
:1003C000202020FF0101F08080031C6080000000DD
:1003D0000030C00101FF8080F01008040202040810
:1003E00010000000000000000000000000000000FD
:1003F00000808080808080808001020000804848EA
:100400004848F0102020202030FF10080808F03065
:100410002020202010F0080808101020202010F0C4
:1004200008080808FF102020201030F048484848ED
:100430007010202020201008FE090900300000F074
:1004400008080808F810A0A0A09070FF100808087D
:10045000F0300000000030F9300008F9808070FFB3
:1004600040A010083000001020FF30F8080808F005
:10047000080808F0300000003000000030F81008D4
:100480000808F0300000000030F008080808F010FC
:100490002020202010F810080808F0F0202020204C
:1004A00010F008080808F81020202010F0F81008B4
:1004B00008300000003048484888202020201008DC
:1004C000FE0808080010202020F800000000F810A6
:1004D000202020103018E000E01800003000001844
:1004E000E000E018E000E0180000300000003000FC
:1004F0000018A040A018300000003018E000E018FC
:100500000080700000088848281830202020202013
:1005100020DE01010000708080FFF00101DE20205C
:100520008080700000C0202040408080600000007B
:100530000000000000FE02020202020202FE302061
:10054000202020202020307800198040000000006A
:1005500000240027002A0000000000250028002BAE
:100560000000000000230026002900040404040405
:100570000404040202020202020303030303030150
:100580000204081020408001020408102001020427
:10059000081020000000080002010000030407000A
:1005A0000000000000000000431411241FBECFEF24
:1005B000D8E0DEBFCDBF13E0A0E0B1E0ECECF9E2A3
:1005C00002C005900D92A030B107D9F725E0A0E058
:1005D000B3E001C01D92AE31B207E1F712E0C5ED04
:1005E000D2E004C02197FE010E94D214C43DD1077D
:1005F000C9F70E9491120C94E4140C940000FC01C1
:1006000060870895FC0167830895FC01668308955F
:10061000FC0165830895FC01648308950895FC013D
:1006200063830895FC01748B638B0895DC015396FA
:10063000ED91FC915497309749F020E030E040E094
:1006400050E060E070E080E090E009940895089543
:10065000FC01818992890895FC018785908908951C
:10066000FC01858596850895FC0183859485089510
:10067000FC01818592850895089508950F931F9335
:10068000CF93DF93EC018A01E881F981028CF38D2D
:10069000E02D0995E881F981068CF78DE02DB801F0
:1006A000CE01DF91CF911F910F910994FC017487C6
:1006B00063870895FC01728761876130710519F4C1
:1006C0008CEF91E205C06230710561F480EB9DE131
:1006D0009687858780E39AE2908B87878AE090E00F
:1006E000928B818B0895EF92FF920F931F93CF937C
:1006F000DF938C01EB010E945A03C130D10531F028
:10070000229731F488E0E82EF12C02C0E12CF12C84
:10071000F801F58EE48EDF91CF911F910F91FF903C
:10072000EF900895FC0180850895FC01878108956C
:10073000FC0186810895FC0185810895FC01848176
:100740000895089580E00895CF93DF93EC019C8194
:100750008E81981758F4E881F9810084F185E02DA5
:1007600042E0CE0109958C818F5F8C83DF91CF9120
:100770000895FC016093BC008091BC0087FFFCCF12
:100780009091B900987F90830895CF92DF92EF9275
:10079000FF920F931F93CF93DF93EC01C62ED42EBD
:1007A0008F85882351F0411108C084E98093BC00F3
:1007B0008091BC0084FDFCCF1F86EF848E01035F17
:1007C0001F4FE11014C0FE8464EAC8010E94B903FF
:1007D0008D85883011F1803101F1DD2011F080E448
:1007E000E82EE092BB0064E8C8010E94B903C09201
:1007F000BB0064E8C8010E94B90382E0D81204C0BB
:100800008F858F5F8F8711C084E98093BC008091B2
:10081000BC0084FDFCCF1F8608C0FF0CF092BB001B
:1008200064E8C8010E94B903D8CFDF91CF911F912E
:100830000F91FF90EF90DF90CF900895089580E0A2
:1008400090E00895CF93C62F672F89E594E00E942A
:100850007B0C6C2F89E594E0CF910C947B0CEF928C
:10086000FF920F931F93CF93DF93EC018B8188232B
:1008700079F08EE30E94BA106EE771E08CEB93E0A2
:100880000E948F126DE871E08CEB93E00E947D1264
:1008900081E08093980380E18093BA0310929903DA
:1008A0001092BB038E01065E1F4F7E0184E2E80EAC
:1008B000F11CF801619171918F01CE010E94220417
:1008C0000E151F05B1F7DF91CF911F910F91FF908A
:1008D000EF900C946610CF93DF93EC018B8188230B
:1008E00079F08EE30E94BA1060E971E08CEB93E03E
:1008F0000E948F126DE871E08CEB93E00E947D12F4
:10090000E881F9810480F581E02D60E0CE01099550
:100910001B8E1A8ECE01DF91CF910C942F04CF93B2
:10092000DF9300D000D0CDB7DEB7DC01ED91FC91B4
:1009300006A4F7A5E02DBE016F5F7F4F09958C815E
:10094000811103C06BE971E002C065E971E08CEBD5
:1009500093E00E948F128A81811103C06BE971E0DC
:1009600002C061EA71E08CEB93E00E948F128B81F0
:10097000811103C061EB71E002C067EA71E08CEBAA
:1009800093E00E948F128CEB93E00E9465120F900F
:100990000F900F900F90DF91CF910895FF920F93DA
:1009A0001F93CF93DF938C01F62EFC018381C62F1A
:1009B000D0E08823A1F18EE30E94BA106BEB71E0C6
:1009C0008CEB93E00E948F126AEC71E08CEB93E069
:1009D0000E948F124F2D50E060E070E020E18CEB20
:1009E00093E00E94DE116EEC71E08CEB93E00E94CC
:1009F0008F12FE013B96EE0FFF1FE00FF11F4081AB
:100A0000518160E070E020E18CEB93E00E94DE1108
:100A100089E20E94BA108CEB93E00E94651281E09B
:100A20008093980381E18093BA0310929903109206
:100A3000BB036F2D89E594E00E947B0C2B96CC0FB5
:100A4000DD1FC00FD11F68817981C8010E94220477
:100A5000DF91CF911F910F91FF900C9466101F931F
:100A6000CF93DF93EC01162F8A8D9B8D9D7F916034
:100A70009B8F8A8F62E0CE010E94CE0411110CC0C0
:100A80008A8D9B8D9E7F9B8F8A8F62E0CE01DF9146
:100A9000CF911F910C94CE04DF91CF911F910895B7
:100AA0001F93CF93DF93EC01162F8A8D9B8D93605C
:100AB0009B8F8A8F62E0CE010E94CE0411110CC080
:100AC0008A8D9B8D9E7F9B8F8A8F62E0CE01DF9106
:100AD000CF911F910C94CE04DF91CF911F91089577
:100AE0000F931F93CF93DF938C01EB01DC011396DF
:100AF0008C918823D9F08EE30E94BA1063ED71E0E7
:100B00008CEB93E00E948F1288E20E94BA10AE0133
:100B100060E070E02AE08CEB93E00E94DE1189E255
:100B20000E94BA108CEB93E00E946512D8015C968B
:100B3000ED91FC915D97EF70FF271D968D919C9133
:100B40001E979E01C817D90708F49C01D8011F966B
:100B50004D915C91509770964217530708F49A0193
:100B6000A901481B590BCA016AE070E00E949C145D
:100B7000EB0186E0CC0FDD1F8A95E1F7CE2BDF2B52
:100B8000D8015A968D919C915B978960906C5B9689
:100B90009C938E935A9762E0C8010E94CE04F8019C
:100BA000D58FC48F63E0C8010E94CE0465E0C80100
:100BB000DF91CF911F910F910C94CE04FC016087BF
:100BC000268D378D662311F0326002C03D7FFC0117
:100BD000378F268F64E00C94CE04FC016783228D4E
:100BE000338D662311F03F7B02C03064FC01338FEC
:100BF000228F62E00C94CE04FC016683828D938D7B
:100C00009C013E7F338F228F662321F03062338F29
:100C1000228F03C09E7D938F828F62E0CF010C9460
:100C2000CE04FC016583228D338D662311F0306183
:100C300001C03F7EFC01338F228F62E00C94CE0412
:100C4000FC0164836F7020A131A1207F262B31A38A
:100C500020A365E00C94CE04CF93DF93CDB7DEB72D
:100C600027970FB6F894DEBF0FBECDBFDC01ED9124
:100C7000FC9104A4F5A5E02DBE016F5F7F4F09959F
:100C80008C81811103C065EE71E002C060EE71E0FD
:100C90008CEB93E00E948F128D81811103C061EF74
:100CA00071E002C06AEE71E08CEB93E00E948F125B
:100CB0008F81811103C060E072E002C068EF71E0D3
:100CC0008CEB93E00E948F1268E072E08CEB93E073
:100CD0000E948F124A8150E060E070E02AE08CEBC5
:100CE00093E00E94DE1161E172E08CEB93E00E94E0
:100CF0008F124B8150E060E070E02AE08CEB93E0D3
:100D00000E94DE118CEB93E00E94651227960FB6CD
:100D1000F894DEBF0FBECDBFDF91CF9108951F9332
:100D2000CF93DF93EC018B81882379F08EE30E94CF
:100D3000BA1069E172E08CEB93E00E948F126DE8CB
:100D400071E08CEB93E00E947D12109250031092A0
:100D50004F03109299031092BB031092970311E076
:100D6000109396031092710361E082E10E94EE10ED
:100D700061E083E10E94EE108091B9008E7F809344
:100D8000B9008091B9008D7F8093B90088E4809389
:100D9000B80085E48093BC001093980381E18093B0
:100DA000BA03109299031092BB030E94661081113E
:100DB0003AC08B81882349F08EE30E94BA106EE11D
:100DC00072E08CEB93E00E947D1284E098E59F8BAB
:100DD0008E8B198E188E83E090E09B8F8A8FE8812E
:100DE000F981028CF38DE02D61E070E0CE01099570
:100DF00080E098E09F8F8E8F81E890E999A388A387
:100E00001BA21AA21DA21CA21FA21EA219A618A6EE
:100E1000CE010E942F0481E090E09B8F8A8F62E0D8
:100E2000CE010E94CE0481E0DF91CF911F91089501
:100E3000CF92DF92EF92FF920F931F93CF93DF93A6
:100E40001F92CDB7DEB78C016B01DC01ED91FC91F7
:100E5000048CF58DE02D498309957C01D801ED9135
:100E6000FC9100A0F1A1E02DC80109954981C114B0
:100E7000D104E1F14B30D0F1F6011082F1E0EF1A2C
:100E8000F10822E0E216F10488F545E0EAE0F0E03E
:100E900010E24150242F30E0443011F0009751F01F
:100EA0002C0D3D1DBF010E949C14805DD9018C93C7
:100EB000CB0104C0D601A20FB31F1C934111E9CF8F
:100EC000F60184818583838184838EE283836BE250
:100ED00072E0C60106960F90DF91CF911F910F919E
:100EE000FF90EF90DF90CF900C94DD140F90DF9186
:100EF000CF911F910F91FF90EF90DF90CF900895C9
:100F0000DC01FB01108211821282138214968C91F3
:100F10001497808317968C911797818318968C91DC
:100F20001897828315968C918383089527E0FB019F
:100F300011922A95E9F7FC018681FB0185830895CA
:100F40001F93CF93DF9389E594E00E942F0C182F15
:100F500089E594E00E942F0CD12F20E0C22F9E0142
:100F6000280F311DC901DF91CF911F9108951F9363
:100F7000CF93DF93FC0123893489232B09F47BC0B1
:100F8000EC0182E090E00E94AD10CE010E94A0072B
:100F90009BA78AA70E9466108AA59BA593FF0CC0F9
:100FA0008B81882349F08EE30E94BA1060E372E0DF
:100FB0008CEB93E00E947D128AA59BA597FF5BC0F6
:100FC00081E08093980381E18093BA0310929903A2
:100FD0001092BB036CE089E594E00E947B0C80E0FA
:100FE0000E94091041E068E081E10E9469101092BE
:100FF000500380934F03CE010E94A0072EA53FA56A
:101000008217930721F09FA78EA711E001C010E07F
:10101000CE010E94A00728A939A98217930719F0C9
:1010200099AB88AB11E0CE010E94A0072AA93BA989
:101030008217930719F09BAB8AAB11E0CE010E9497
:10104000A0072CA93DA98217930719F09DAB8CAB83
:1010500011E00E946610112371F02CA93DA94AA944
:101060005BA968A979A9EB89FC898EA59FA5DF9169
:10107000CF911F910994DF91CF911F910895CF9344
:10108000DF93EC0182E090E00E94AD10CE010E945F
:10109000A0079BA78AA70E9466102AA53BA53370CC
:1010A0008AE0829FA001839F500D11248D859E852B
:1010B000840F951F9C878B87DF91CF910895EF92C6
:1010C000FF920F931F93CF93DF938C018CE090E0FE
:1010D0000E94AD10E801AA96780186E3E80EF11CA3
:1010E000C8010E94A00789939993CE15DF05C1F727
:1010F000DF91CF911F910F91FF90EF900C946610AC
:10110000CF93DF93EB016031710520F480E30E94FF
:10111000BA1004C06F3F710509F020F480E30E940B
:10112000BA1003C06115704118F480E30E94BA1030
:10113000AE0160E070E020E18CEB93E00E94DE11F4
:1011400080E2DF91CF910C94BA10DC01ED91FC911B
:101150000084F185E02D40E009940F931F93CF9315
:101160008C01FC0164839085C62FC90F6C2F6F70B2
:10117000C8010E94A5086C2F62956F706061C8015C
:10118000CF911F910F910C94A5080F931F93CF93AC
:10119000DF931F92CDB7DEB78C01FC018681681703
:1011A00028F4C80149830E94AD084981F80187816C
:1011B000869586958695481758F44583642F606B0D
:1011C000C8010F90DF91CF911F910F910C94A5084A
:1011D0000F90DF91CF911F910F910895CF92DF92E1
:1011E000EF92FF920F931F93CF93DF93EC01F62EB4
:1011F000C42ED22E8F81869586958695081710F07D
:101200000FEF080F1D2D011780F0412F6F2DCE011C
:101210000E94C508EF2CCE1430F060E0CE010E9491
:10122000A403E394F8CF1F5FEECF4D2D6F2DCE01B9
:10123000DF91CF911F910F91FF90EF90DF90CF90B2
:101240000C94C5080F931F93DC0115962C911597EC
:101250001B96ED91FC911C97309749F03396E491E1
:1012600019960C911997E09FE02D112401C0E0E040
:101270008FEF820F0E2F10E0095F1F4F93E015953F
:1012800007959A95E1F7080F16964C9116974150DD
:1012900014966C911497CD010E94EE081F910F9146
:1012A00008952F923F924F925F926F927F928F920A
:1012B0009F92AF92BF92CF92DF92EF92FF920F93E5
:1012C0001F93CF93DF93CDB7DEB727970FB6F89470
:1012D000DEBF0FBECDBFFC010385148501151105CE
:1012E00009F42FC19F838E83F801B4913196449104
:1012F000319654903196A491EA2EF12CF7E0EF0E3E
:10130000F11C93E0F594E7949A95E1F7EB82F801EC
:10131000349674913196E491671758F0862F90E0D7
:101320002E2F30E0F901E70FF11D8E179F070CF407
:1013300048C06D3061F4EE81FF818681882309F415
:101340003DC060E08E819F810E94AD0837C06A3049
:1013500009F0F7C0EE81FF81818515818E9D100D0A
:1013600011248781869586958695181730F0828599
:10137000882319F082E0828710E0412F60E08E819F
:101380009F810E94C508EE81FF8182858230B0F086
:10139000CF010E942209EE81FF818185612F8E9D00
:1013A000600D1124660F660F660F8781861708F49B
:1013B00060E060648E819F810E94A50881E090E0DA
:1013C000C2C050E05B2BC8010696671BEE81FF810F
:1013D000F185F9834230510588F4452B09F01982D3
:1013E0005E9C90015F9C300D1124629F8001639F81
:1013F000100D1124080F191F412C24C0EA2FE7708B
:1014000021F048E0442E4E1A01C0412CA82FFC01C7
:1014100040E050E07E2F7A1B761728F47491470F36
:10142000511D3196F7CFFC01E60FF11D54904E9DF2
:1014300080014F9D100D5E9D100D1124020F131F92
:10144000080F191FEE81FF81F481FC83EE81FF817B
:101450003580652C712CCC24C394D12C812C912CFB
:101460007FEF7C0D7A838B81781708F05CC0212C8C
:10147000EE81FF818185281608F04FC07A817111B5
:1014800002C0222041F0EE81FF8145814F5F6C81D7
:10149000CF010E94C508A12CB12CA51488F5F50137
:1014A000E80DF91DE00FF11F2491442061F0CE14E6
:1014B000DF0449F4E22FF0E0042C02C0F595E79533
:1014C0000A94E2F72E2FEE81FF818185823079F434
:1014D000E22F2110E295EF70F0E0E859FF4F2491E0
:1014E000622F8E819F812D830E94A4032D81622F04
:1014F0008E819F810E94A403FFEFAF1ABF0ACDCF58
:10150000B12C7981B71639F060E08E819F810E94FD
:10151000A403B394F6CF2394ABCF860C971CFFEFB4
:10152000CF1ADF0A9DCFEE81FF8187818695869550
:101530008695381608F042CF3582632D606BCF0157
:101540003BCF80E090E027960FB6F894DEBF0FBE49
:10155000CDBFDF91CF911F910F91FF90EF90DF9062
:10156000CF90BF90AF909F908F907F906F905F9043
:101570004F903F902F9008950F93CF93DF93EC01FE
:101580000F8106950695069501504E81415020E049
:1015900060E00E94EE0881E09A85911101C080E030
:1015A0008A8760E4CE01DF91CF910F910C94A5085A
:1015B0000F931F93CF93DF93CDB7DEB72C970FB662
:1015C000F894DEBF0FBECDBF4CE0BE016F5F7F4F12
:1015D00085E694E00E9418070BE914E081E0F80129
:1015E000818740E060E0C8010E94C5086FE372E0B7
:1015F000C8010E947D1282E0F8018187BE016F5F01
:101600007F4FC8010E948F12C8010E9422092C96A8
:101610000FB6F894DEBF0FBECDBFDF91CF911F9103
:101620000F910895FC01538D448D252F30E0842FB8
:1016300090E0821B930B541710F0CF9608950197FA
:101640000895FC01918D828D981761F0828DDF01E4
:10165000A80FB11D5D968C91928D9F5F9F73928FA5
:1016600090E008958FEF9FEF0895FC01918D828D9A
:10167000981731F0828DE80FF11D858D90E0089567
:101680008FEF9FEF0895FC01918D228D892F90E0BF
:10169000805C9F4F821B91098F73992708958CEB73
:1016A00093E00E94430B21E0892B09F420E0822F74
:1016B0000895FC01848DDF01A80FB11DA35ABF4F0F
:1016C0002C91848D90E001968F739927848FA68941
:1016D000B7892C93A089B1898C9180648C93938D68
:1016E000848D981306C00288F389E02D80818F7D58
:1016F00080830895EF92FF920F931F93CF93DF9310
:10170000EC0181E0888F9B8D8C8D981305C0E88952
:10171000F989808185FD24C0F62E0B8D10E00F5FC6
:101720001F4F0F731127E02E8C8DE8120CC00FB6DF
:1017300007FCFACFE889F989808185FFF5CFCE01D2
:101740000E94590BF1CF8B8DFE01E80FF11DE35A7A
:10175000FF4FF0820B8FEA89FB898081806207C08E
:10176000EE89FF896083E889F989808180648083BC
:1017700081E090E0DF91CF911F910F91FF90EF906A
:101780000895CF93DF93EC01888D8823C9F0EA890F
:10179000FB89808185FD05C0A889B9898C9186FD6A
:1017A0000FC00FB607FCF5CF808185FFF2CFA88967
:1017B000B9898C9185FFEDCFCE010E94590BE7CFFF
:1017C000DF91CF91089580E090E0892B29F00E946D
:1017D0004F0B81110C940000089585ED8093BC009F
:1017E0008091BC0084FDFCCF109297030895409136
:1017F0002203262F30E0240F311D21323105DCF485
:10180000209197032430C9F4FC0180E090E0861712
:1018100058F4309122032191DC01A050BD4FA30F59
:10182000B11D2C930196F3CF80912203680F609332
:10183000220380E0089581E0089582E008950895EC
:10184000E091500380914F03E81730F4F0E0EF5A35
:10185000FC4F808190E008958FEF9FEF0895909165
:10186000500380914F03981750F4E92FF0E0EF5A9E
:10187000FC4F208130E09F5F9093500302C02FEF18
:101880003FEFC901089580914F0390E020915003EC
:10189000821B91090895CF92DF92EF92FF920F93EE
:1018A0001F93CF93DF937C01262F972F8A0180917E
:1018B0009803882391F0C62FD72F6E01C40ED51E32
:1018C000CC15DD0571F06991D701ED91FC91019086
:1018D000F081E02DC7010995F3CF642F822F0E947C
:1018E000F70BC801DF91CF911F910F91FF90EF90FF
:1018F000DF90CF900895CF93DF931F92CDB7DEB7DF
:101900006983209198032223D1F02091BB032032D8
:1019100040F021E030E0FC013383228380E090E05E
:1019200015C080919903E82FF0E0E656FC4F9981AD
:1019300090838F5F809399038093BB0305C061E020
:10194000CE0101960E94F70B81E090E00F90DF91AD
:10195000CF9108950E94D814CF92DF92EF92FF9218
:101960000F931F93CF93DF93CDB7DEB72C970FB6AE
:10197000F894DEBF0FBECDBF8C010E945F08D80176
:10198000ED91FC9106A8F7A9E02D4CE0BE016F5F38
:101990007F4FC801099561E672E08CEB93E00E94ED
:1019A0008F12BE016F5F7F4F8CEB93E00E948F120E
:1019B000F801E6A4F7A46CE672E08CEB93E00E94D9
:1019C0008F12B701C8010E948008D8019A968D91A4
:1019D0009C919B9792FD03C069E572E002C061E5AE
:1019E00072E08CEB93E00E948F12F80182A593A520
:1019F00097FD03C060EE71E002C065EE71E08CEB14
:101A000093E00E948F12D8019D968C91E82EE69467
:101A1000E694F12C61E772E08CEB93E00E948F1268
:101A2000BAE0EB16F1042CF460E28CEB93E00E9438
:101A30007A0BC7010E94271280E20E94BA10C12CC3
:101A4000D12CEFE0EE1AF108CE14DF044CF46AE278
:101A50008CEB93E00E947A0BFFEFCF1ADF0AF4CFF2
:101A60008CEB93E00E94651267E772E08CEB93E0E9
:101A70000E947D12780186E1E80EF11C6801A6E360
:101A8000CA0ED11CF701619171917F01C8010E94BA
:101A90008008EC14FD04B1F78CEB93E00E94651212
:101AA00081E08093980381E18093BA0310929903B7
:101AB0001092BB0360E089E594E00E947B0C80E01B
:101AC0000E94091041E060E281E10E9469101092D9
:101AD000500380934F0380E1E82EF12CC8010E944F
:101AE000A007BC01C8010E948008F1E0EF1AF108CC
:101AF000A9F70E9466108CEB93E00E946512D80152
:101B0000ED91FC910288F389E02DC80109958823A5
:101B100031F064EC72E08CEB93E00E948F12D801FC
:101B2000ED91FC9102A4F3A5E02DC801099588234D
:101B300031F06FEC72E08CEB93E00E948F12D801D1
:101B4000ED91FC910680F781E02DC8010995182FD1
:101B500065ED72E08CEB93E00E948F12812F90E094
:101B60000E94271280E20E94BA108CEB93E00E9440
:101B700065122C960FB6F894DEBF0FBECDBFDF9175
:101B8000CF911F910F91FF90EF90DF90CF9008952C
:101B90000F931F93CF93DF938C01EB010E94960765
:101BA000C8010E945F0821E02883F80182A593A55F
:101BB00092FD2E8397FF02C081E08B83F80185A5FB
:101BC00086958695898384A595A590FF02C081E0BE
:101BD0008C83F801828D938D95FF02C081E08D8307
:101BE000DF91CF911F910F9108951F920F920FB621
:101BF0000F9211242F933F934F935F936F937F9393
:101C00008F939F93AF93BF93EF93FF938CEB93E0EE
:101C10000E94590BFF91EF91BF91AF919F918F91CE
:101C20007F916F915F914F913F912F910F900FBED8
:101C30000F901F9018951F920F920FB60F921124BC
:101C40002F938F939F93EF93FF93E091CC03F091A9
:101C5000CD038081E091D203F091D30382FD12C0C5
:101C600090818091D5038F5F8F732091D603821767
:101C700051F0E091D503F0E0E454FC4F958F809350
:101C8000D50301C08081FF91EF919F918F912F919A
:101C90000F900FBE0F901F9018951F920F920FB6C6
:101CA0000F9211242F933F934F935F936F937F93E2
:101CB0008F939F93AF93BF93EF93FF938091B9005E
:101CC000887F803609F49CC068F5883209F45BC0CF
:101CD00090F4803109F454C038F4882309F4F6C034
:101CE000883009F44DC0F6C0883109F44CC0803208
:101CF00009F45DC0EFC0803409F468C048F4803353
:101D000009F455C0883309F0E5C080939503D8C025
:101D1000803509F44FC0883509F45DC0883409F076
:101D2000D9C0D6C0883909F4C7C0A8F4883709F4E7
:101D300067C038F4883609F463C0803709F460C09E
:101D4000C9C0883809F4B8C0803909F45FC0803848
:101D500009F0C0C05BC0803B09F486C038F4803A0B
:101D600009F466C0883A09F47FC0B4C0803C09F425
:101D7000A7C0883C09F4A4C0883B09F48AC0AAC063
:101D80008091720310C090919403809193039817EF
:101D900070F5E091940381E08E0F80939403F0E05E
:101DA000ED58FC4F80818093BB0085EC86C080930A
:101DB00095038EC0E091940381E08E0F809394038D
:101DC0008091BB00F0E0ED58FC4F8083909194032C
:101DD000809193036EC0E091940381E08E0F809315
:101DE00094038091BB00F0E0ED58FC4F808380911C
:101DF000960381116DC081E08093710384EA61C014
:101E000083E08093970310924603CFCF80914603DF
:101E1000803208F051C0E091460381E08E0F80933C
:101E200046038091BB00F0E0EA5DFC4F8083BDCFAC
:101E300085EC8093BC00109297038091460380321A
:101E400030F4E0914603F0E0EA5DFC4F10826091CF
:101E5000460370E0E0912403F091250386E293E0CD
:101E600009951092460336C084E080939703109240
:101E7000230310922203E0912003F091210309959E
:101E800080912203811105C081E08093220310928A
:101E90000003E091230381E08E0F80932303F0E0A1
:101EA000E050FD4F80818093BB009091230380918F
:101EB0002203981708F479CF85E88093BC000AC004
:101EC00085EC8093BC001092970304C01092950398
:101ED0000E94ED0BFF91EF91BF91AF919F918F9178
:101EE0007F916F915F914F913F912F910F900FBE16
:101EF0000F901F901895833081F028F4813099F06D
:101F00008230A1F008958730A9F08830B9F084308C
:101F1000D1F4809180008F7D03C0809180008F7705
:101F200080938000089584B58F7702C084B58F7D3B
:101F300084BD08958091B0008F7703C08091B00078
:101F40008F7D8093B00008953FB7F8948091AC04E2
:101F50009091AD04A091AE04B091AF0426B5A89BBA
:101F600005C02F3F19F00196A11DB11D3FBFBA2F2B
:101F7000A92F982F8827820F911DA11DB11DBC018B
:101F8000CD0142E0660F771F881F991F4A95D1F750
:101F90000895CF92DF92EF92FF920F931F93CF930A
:101FA000DF936C017A018B01C0E0D0E0CE15DF0534
:101FB00089F0D8016D918D01D601ED91FC910190D0
:101FC000F081E02DC6010995892B11F47E0102C034
:101FD0002196ECCFC701DF91CF911F910F91FF9018
:101FE000EF90DF90CF9008956115710579F0FB01B6
:101FF00001900020E9F73197AF01461B570BDC0138
:10200000ED91FC910280F381E02D099480E090E055
:102010000895382F2091BB039091BA03213208F024
:1020200049C0809197038111FCCF42E04093970310
:10203000309396033FEF30939503109294032093CF
:102040009303AAE9B3E043E753E0FA013E2F341BC0
:10205000321718F43D913193F9CF10927203209109
:102060007203990F922B90937203909171039130A8
:1020700061F410927103909172039093BB00909160
:10208000BC0093FDF8CF95EC01C095EE9093BC0099
:10209000909197039230E1F3909195039F3F79F0EF
:1020A00080919503803241F080919503803331F027
:1020B00084E005C081E003C082E001C083E01092AB
:1020C00099031092BB0310929803089581E00C9439
:1020D0000910909197039111FCCF91E09093970391
:1020E000409396032FEF2093950310929403260FAD
:1020F000209393039093720390917203880F892B1E
:102100008093720380917103813061F410927103A6
:10211000809172038093BB008091BC0083FDF8CF57
:1021200085EC01C085EE8093BC00809197038130DF
:10213000E1F380919403861710F460919403A3E770
:10214000B3E021E533E0F9018E2F821B861718F4E6
:102150008D918193F9CF862F0895813208F080E226
:1021600041E0682F80E10E94691010925003809333
:102170004F030895E091BC03F091BD030190F081FD
:10218000E02D682F8CEB93E00994CF93DF93282FF9
:1021900030E0F901ED56FA4F8491F901E158FA4F18
:1021A000D491F901E559FA4FC491CC2391F08111F2
:1021B0000E947B0FEC2FF0E0EE0FFF1FEF59FA4F5C
:1021C000A591B491EC91ED2381E090E021F480E0C1
:1021D00002C080E090E0DF91CF9108951F93CF93EC
:1021E000DF93282F30E0F901ED56FA4F8491F90181
:1021F000E158FA4FD491F901E559FA4FC491CC2333
:10220000C9F0162F81110E947B0FEC2FF0E0EE0F2A
:10221000FF1FE95AFA4FA591B4918FB7F8941111A5
:1022200005C09C91ED2FE095E92302C0EC91ED2BC8
:10223000EC938FBFDF91CF911F910895CF93DF93E0
:1022400090E0FC01E158FA4F2491FC01E559FA4F66
:102250008491882361F190E0880F991FFC01E35B72
:10226000FA4FC591D491FC01E95AFA4FA591B49166
:10227000611109C09FB7F8948881209582238883D3
:10228000EC912E230BC0623061F49FB7F894388133
:10229000822F809583238883EC912E2B2C939FBFD4
:1022A00006C08FB7F894E8812E2B28838FBFDF916B
:1022B000CF9108958F929F92AF92BF92CF92DF926B
:1022C000EF92FF926B017C010E94A40F4B015C0115
:1022D000C114D104E104F104F1F00E94A40FDC0167
:1022E000CB0188199909AA09BB09883E9340A10529
:1022F000B10570F321E0C21AD108E108F10888EEB7
:10230000880E83E0981EA11CB11CC114D104E10405
:10231000F10419F7DDCFFF90EF90DF90CF90BF90E1
:10232000AF909F908F9008951F920F920FB60F92CB
:1023300011242F933F938F939F93AF93BF938091DB
:102340004B0390914C03A0914D03B0914E033091FB
:10235000AB0423E0230F2D3720F40196A11DB11DFE
:1023600005C026E8230F0296A11DB11D2093AB04E2
:1023700080934B0390934C03A0934D03B0934E0373
:102380008091AC049091AD04A091AE04B091AF04E3
:102390000196A11DB11D8093AC049093AD04A09350
:1023A000AE04B093AF04BF91AF919F918F913F91D5
:1023B0002F910F900FBE0F901F9018954F925F9224
:1023C0006F927F92EF92FF920F931F93CF93DF93C1
:1023D000CDB7DEB7A1970FB6F894DEBF0FBECDBF65
:1023E0007C01FA01CB0119A2223008F42AE08E0107
:1023F0000F5D1F4F422E512C612C712CBF01A30188
:1024000092010E94B014F901CA01015011096A3009
:1024100014F4605D01C0695CD8016C93232B242BFC
:10242000252B61F7B801C7010E94F40FA1960FB6E2
:10243000F894DEBF0FBECDBFDF91CF911F910F91FA
:10244000FF90EF907F906F905F904F9008950F9363
:102450001F93CF93DF9300D000D0CDB7DEB7AC0190
:10246000990F660B770B77FF23C08DE249835A8360
:102470006B837C830E94BA108C0149815A816B81E5
:102480007C8170956095509541955F4F6F4F7F4F60
:102490002AE08CEB93E00E94DE11800F911F0F90D9
:1024A0000F900F900F90DF91CF911F910F91089592
:1024B0002AE08CEB93E00F900F900F900F90DF913C
:1024C000CF911F910F910C94DE116DEF72E00C947F
:1024D000F40FCF93DF93AC0160E070E02AE08CEB67
:1024E00093E00E94DE11EC018CEB93E00E946512F8
:1024F0008C0F9D1FDF91CF9108950F931F93CF9362
:10250000DF93EC010E94F40F8C01CE010E94651252
:10251000800F911FDF91CF911F910F9108950C941F
:10252000F40F789484B5826084BD84B5816084BDE5
:1025300085B5826085BD85B5816085BD80916E0061
:10254000816080936E001092810080918100826092
:1025500080938100809181008160809381008091CF
:1025600080008160809380008091B10084608093BE
:10257000B1008091B00081608093B00080917A00BA
:10258000846080937A0080917A00826080937A00E0
:1025900080917A00816080937A0080917A008068CF
:1025A00080937A001092C10061E088E00E941E11C1
:1025B00062E082E00E941E1162E083E00E941E1130
:1025C000E091CC03F091CD0382E08083E091C803D9
:1025D000F091C9031082E091CA03F091CB038FEC14
:1025E00080831092D403E091D003F091D10386E070
:1025F0008083E091CE03F091CF038081806180835E
:10260000E091CE03F091CF03808188608083E091D8
:10261000CE03F091CF03808180688083E091CE0368
:10262000F091CF0380818F7D808361E088E00E94FC
:102630001E1160E088E00E94EE106AE070E080E029
:1026400090E00E945A1161E088E00E94EE106AE07A
:1026500070E080E090E00E945A111092AA048CE38E
:102660008093A9041092B9008CE08093B800109276
:102670009F041092A004E7E4F5E085919491E82E80
:10268000E9E4F5E0F490EAE4F5E0E491E093A104F4
:10269000EBE4F5E0E491E093A204ECE4F5E0E491EE
:1026A000E093A304C82FD92F8C2F8E198F1540F4D7
:1026B000FE0164918BE994E00E94A5082196F4CF75
:1026C0001092A5048BE994E00E94BC0A8BEA90E08A
:1026D0009093A7048093A60485E694E00E948F0659
:1026E000C1E0C093680461E88BE994E00E94A5080A
:1026F00060E08BE994E00E94A5088BE994E00E94D9
:10270000BC0A85E694E00E943F0890934A038093B8
:1027100049030E9469128091490390914A030E94E3
:10272000D80AC093A40468EE73E080E090E00E94B1
:102730005A11C7E9D0E0FE014591549161E070E083
:1027400085E694E00E943E03FE01859194910E94EB
:102750006912FE016591749185E694E00E9470050E
:102760006DED72E08CEB93E00E947D1285E694E0C3
:102770000E943F0890934A03809349030E94691284
:102780008091490390914A030E94D80A62EF72E057
:102790008CEB93E00E947D128FB7F894C0904B03AE
:1027A000D0904C03E0904D03F0904E038FBF80918A
:1027B000040190910501A0910601B09107018C15CB
:1027C0009D05AE05BF0510F582E00E94C510892B5E
:1027D00029F461E085E694E00E94500583E00E94C0
:1027E000C510892B29F461E085E694E00E942F054D
:1027F000D701C6018C509E4FAF4FBF4F809304014D
:1028000090930501A0930601B09307018091000108
:1028100090910101A0910201B09103018C159D05D9
:10282000AE05BF0568F585E694E00E943F089093E9
:102830004A0380934903209147033091480382174C
:102840009307F1F00E9469128091490390914A0325
:102850000E94D80A8091490390914A0390934803BB
:1028600080934703F8EECF0EF3E0DF1EE11CF11C6E
:10287000C0920001D0920101E0920201F0920301A6
:102880000E94E30B89CFECEBF3E01382128288EE17
:1028900093E0A0E0B0E084839583A683B7832CE027
:1028A00031E03183208325EC30E03587248724EC28
:1028B00030E03787268720EC30E0318B208B21EC0D
:1028C00030E0338B228B22EC30E0358B248B26ECEE
:1028D00030E0378B268B118E128E138E148EE9E525
:1028E000F4E01382128284839583A683B7838EE1FA
:1028F00091E091838083EBE9F4E01382128281E01E
:1029000081871486138684E791E091838083E5E6CE
:10291000F4E085E1DF011D928A95E9F780E391E01B
:10292000918380838FE0858B8EE6E0EBF4E0DF011E
:102930001D928A95E9F70895AA1BBB1B51E107C0B8
:10294000AA1FBB1FA617B70710F0A61BB70B881F3F
:10295000991F5A95A9F780959095BC01CD010895CE
:10296000A1E21A2EAA1BBB1BFD010DC0AA1FBB1F93
:10297000EE1FFF1FA217B307E407F50720F0A21B05
:10298000B30BE40BF50B661F771F881F991F1A9472
:1029900069F760957095809590959B01AC01BD019C
:1029A000CF010895EE0FFF1F0590F491E02D0994DB
:1029B00081E090E0F8940C94E414FB01DC010190B8
:0C29C0000D920020E1F70895F894FFCF7D
:1029CC0090010000F4010000000000007A0BC90F18
:1029DC00120BC10B430B210B350B000000007B0CC1
:1029EC004B0C1F041F0C430C2F0C200C0000000080
:1029FC008F066B0420069E03ED059503DE059203FE
:102A0C0011069B0330032C03280373033803700552
:102A1C003F083E0350052F05FC059803C80D8007A1
:102A2C00B7071603120318070F032C068F04AC0C00
:102A3C00000000005109C90F1F041E04C5032D73AB
:102A4C006176655265676973746572730028290035
:102A5C007465726D00204241535300202D2D2D2D95
:102A6C0000204D5554450020534F46544D55544568
:102A7C0000202D2D2D2D2D2D2D2D002D5F736176EC
:102A8C0065526567697374657200283078002C2074
:102A9C003078007365744672657175656E63790084
:102AAC002052445300202D2D2D002054554E4544CA
:102ABC0000202D2D2D2D2D002053544552454F0017
:102ACC0020204D4F4E4F20002020525353493A2086
:102ADC00002020534E523A2000696E6974007261D6
:102AEC0064696F20666F756E642E00204D487A0005
:102AFC00424C4F434B5F4520666F756E642E00460B
:102B0C0020522045205120552045204E204320594D
:102B1C00002053746572656F00204D6F6E6F20201E
:102B2C00004672657175656E63793D002050493DB4
:102B3C0000205369673D00302020202031202020C8
:102B4C002032202020203320202020342020202040
:102B5C00352020202036202020203720202020380F
:102B6C0020202020392020202041202020204220FD
:102B7C0020202043202020204420202020452020DD
:102B8C002020460042617373426F6F737420004DB6
:102B9C006F6E6F2000566F6C756D653D00526571E0
:102BAC0075657374206765744672657175656E63BF
:102BBC0079005374617274206C6F6F70000D0A0091
:00000001FF
