:100000000C94D6020C94FE020C94FE020C94FE0298
:100010000C94FE020C94FE020C94FE020C94FE0260
:100020000C94FE020C94FE020C94FE020C94FE0250
:100030000C94FE020C94FE020C94FE020C94FE0240
:100040000C9425140C94FE020C9476100C94501011
:100050000C94FE020C94FE020C94FE020C94FE0220
:100060000C94A8100C94FE0200000000230026004F
:10007000290000030C0F30333C3FC0C3CCCFF0F35A
:10008000FCFFAED580A83FD300408D142002A1C84C
:10009000DA12817FD9F1DB40A4A6AF2E22CE224610
:1000A000237823A023182458258025A825D0253C73
:1000B00028E628F42919920A0C2060020104080697
:1000C0000B080103030507020401050605060607E0
:1000D00006060606060102070707050A08060707BF
:1000E00006060707030406060807080608070607AA
:1000F00007080B060706030503080802060605069F
:1001000006040606010305010906060606040505A0
:10011000060509050505050105080900000000FEA2
:100120002007000007000000008090F89690F896E5
:100130001000300000300000001824FF44448420E8
:1001400020F02020101C22221C80700CC22020C015
:100150000000002010000010202010DC2222225C71
:1001600080600010202020201010200700F80601D9
:100170001060800106F88060100A041F040A000065
:10018000000000404040F8404040000000300000C7
:10019000000000807040404040000000000030003F
:1001A00000E01C038070000000FC02020202FC1050
:1001B00020202020100404FE000020203020200CED
:1001C000824242221C3020202020200402222222AF
:1001D000DC10202020201060504844FE40400000E9
:1001E00000003000001E12121212E2102020202007
:1001F00010F814121212E0102020202010020282A7
:10020000621A06002010000000DC22222222DC10EC
:1002100020202020103C42424242FC00202020109E
:100220000018300018807040A0A0101008080000CE
:10023000001010202050505050505050000000002E
:1002400000000008081010A0A0402020101000009E
:10025000000402E2221C0000200000F00C04F20A5C
:100260000AFA040CF00030204050505010100000EA
:10027000E098868698E0003000000000000030FE24
:100280002222223CC0302020202010F8040202024A
:10029000020400102020202010FE0202020204F8B6
:1002A00030202020201000FE222222222230202076
:1002B000202020FE2222222202300000000000F82E
:1002C0000402022222E400102020202010FE202020
:1002D000202020FE3000000000003002FE0220300E
:1002E00020000202FE20202010FE20508804023050
:1002F0000000001020FE0000000000302020202020
:1003000020FE0638C0C03806FE30000000000000A5
:1003100030FE061820C000FE30000000003030F82B
:10032000040202020204F80010202020201000FE27
:10033000424242423C300000000000F80402020247
:100340000204F80010202020609080FE222262A289
:100350001C00300000000010201C22222222C410A9
:100360002020202010020202FE02020200000030C3
:10037000000000FE0000000000FE00102020201001
:10038000000638C00000C038060000003030000011
:10039000001EE000C0380638C000E01E000030003B
:1003A00000000000300000068870708806300000F1
:1003B000000030020C10E0100C02000000300000C1
:1003C00000028262120A06302020202020FF010154
:1003D000F08080031C60800000000030C00101FF3D
:1003E0008080F010080402020408100000000000E1
:1003F000000000000000000000000080808080807D
:10040000808080010200008048484848F010202089
:10041000202030FF10080808F0302020202010F0A5
:10042000080808101020202010F008080808FF1005
:100430002020201030F0484848487010202020200C
:100440001008FE090900300000F008080808F8103C
:10045000A0A0A09070FF10080808F0300000000075
:1004600030F9300008F9808070FF40A0100830009B
:10047000001020FF30F8080808F0080808F03000E5
:1004800000003000000030F810080808F0300000CC
:10049000000030F008080808F0102020202010F894
:1004A00010080808F0F02020202010F008080808A4
:1004B000F81020202010F0F810080830000000305C
:1004C00048484888202020201008FE08080800100E
:1004D000202020F800000000F81020202010301804
:1004E000E000E018000030000018E000E018E00034
:1004F000E01800003000000030000018A040A018F4
:10050000300000003018E000E018008070000008A3
:100510008848281830202020202020DE01010000FB
:10052000708080FFF00101DE20208080700000C01C
:10053000202040408080600000000000000000FE9D
:1005400002020202020202FE30202020202020208F
:100550003082001980400000000000240027002A9B
:100560000000000000250028002B000404040404FF
:100570000404040202020202020303030303030150
:100580000204081020408001020408102001020427
:10059000081020000000080002010000030407000A
:1005A00000000000000000003217221511241FBEB9
:1005B000CFEFD8E0DEBFCDBF25E0A4E3B3E001C0BC
:1005C0001D92AE3AB207E1F713E0A0E0B1E0EEE62B
:1005D000F5E302C005900D92A433B107D9F712E0FC
:1005E000C5EDD2E004C02197FE010E948F18C43DE2
:1005F000D107C9F70E9434150C94AA1A0C94000074
:10060000FC0163830895FC01748B638B0895DC0106
:100610005396ED91FC915497309749F020E030E0EB
:1006200040E050E060E070E080E090E009940895E0
:100630000895FC01818992890895FC01878590893C
:100640000895FC01858596850895FC018385948530
:100650000895FC01818592850895089508950F936A
:100660001F93CF93DF93EC018A01E881F981028C1B
:10067000F38DE02D0995E881F981068CF78DE02D49
:10068000B801CE01DF91CF911F910F910994FC0128
:10069000748763870895FC017287618761307105F3
:1006A00019F48CEF91E205C06230710561F480EBC2
:1006B0009DE19687858780E39AE2908B87878AE021
:1006C00090E0928B818B0895FC0180850895FC0158
:1006D00060870895FC0187810895FC016783089570
:1006E000FC0186810895FC0166830895FC018581E3
:1006F0000895FC0165830895FC0184810895FC013F
:1007000064830895089580E00895CF93DF93EC010A
:100710009C818E81981758F4E881F9810084F185D5
:10072000E02D42E0CE0109958C818F5F8C83DF91B3
:10073000CF910895FC016093BC008091BC0087FFBD
:10074000FCCF9091B900987F90830895CF92DF926B
:10075000EF92FF920F931F93CF93DF93EC01C62E7E
:10076000D42E8F85882351F0411108C084E98093ED
:10077000BC008091BC0084FDFCCF1F86EF848E01FD
:10078000035F1F4FE11014C0FE8464EAC8010E9499
:100790009A038D85883011F1803101F1DD2011F04F
:1007A00080E4E82EE092BB0064E8C8010E949A034E
:1007B000C092BB0064E8C8010E949A0382E0D8128C
:1007C00004C08F858F5F8F8711C084E98093BC0040
:1007D0008091BC0084FDFCCF1F8608C0FF0CF09206
:1007E000BB0064E8C8010E949A03D8CFDF91CF9183
:1007F0001F910F91FF90EF90DF90CF900895089593
:1008000080E090E00895CF93DF9300D000D0CDB783
:10081000DEB7DC01ED91FC9106A4F7A5E02DBE0149
:100820006F5F7F4F09958C81811103C066E871E08D
:1008300002C060E871E08AEF93E00E9420158A818F
:10084000811103C066E871E002C06CE871E08AEFD4
:1008500093E00E9420158B81811103C06CE971E047
:1008600002C062E971E08AEF93E00E9420158AEFEE
:1008700093E00E94F6140F900F900F900F90DF916D
:10088000CF910895CF93DF93CDB7DEB727970FB6FB
:10089000F894DEBF0FBECDBFDC01ED91FC9104A446
:1008A000F5A5E02DBE016F5F7F4F09958C81811109
:1008B00003C06BEA71E002C066EA71E08AEF93E080
:1008C0000E9420158D81811103C067EB71E002C089
:1008D00060EB71E08AEF93E00E9420158F81811117
:1008E00003C066EC71E002C06EEB71E08AEF93E04A
:1008F0000E9420156EEC71E08AEF93E00E942015B3
:100900004A8150E060E070E02AE08AEF93E00E94C4
:100910006F1467ED71E08AEF93E00E9420154B8120
:1009200050E060E070E02AE08AEF93E00E946F14EC
:100930008AEF93E00E94F61427960FB6F894DEBF74
:100940000FBECDBFDF91CF910895CF92DF92EF928E
:10095000FF920F931F93CF93DF931F92CDB7DEB714
:100960008C016B01DC01ED91FC91048CF58DE02D87
:10097000498309957C01D801ED91FC9100A0F1A17A
:10098000E02DC80109954981C114D104E1F14B3032
:10099000D0F1F6011082F1E0EF1AF10822E0E21640
:1009A000F10488F545E0EAE0F0E010E24150242F40
:1009B00030E0443011F0009751F02C0D3D1DBF0187
:1009C0000E945918805DD9018C93CB0104C0D601D7
:1009D000A20FB31F1C934111E9CFF60184818583D7
:1009E000838184838EE283836FED71E0C601069676
:1009F0000F90DF91CF911F910F91FF90EF90DF90BB
:100A0000CF900C94A31A0F90DF91CF911F910F916B
:100A1000FF90EF90DF90CF900895DC01FB011082F2
:100A200011821282138214968C91149780831796E8
:100A30008C911797818318968C91189782831596BD
:100A40008C918383089527E0FB0111922A95E9F7A1
:100A5000FC018681FB0185830895EF92FF920F933D
:100A60001F93CF93DF937A018901892BA1F56DE95B
:100A700071E087EF94E00E94A31A67EF74E081E0D1
:100A800095E00E94A31A64EE71E08BE095E00E946D
:100A9000A31A82E4EDE1F5E0DF011D928A95E9F702
:100AA0001092F604E0911505F0911605309719F0B3
:100AB0008BE095E00995E0911905F0911A053097C2
:100AC00009F4F5C082E393E0DF91CF911F910F917C
:100AD000FF90EF900994CB0188279870892F869515
:100AE000869586959B012227307F832B8A60809391
:100AF000F1041092F2041092F3048A3209F44BC00C
:100B000020F48A50823028F0D2C08A3409F482C09E
:100B1000CEC06370660FE12EF02EE62FF0E0EF01FD
:100B2000CF50DB4F8E8181132AC0EE50FB4F868160
:100B3000801325C0188B008B109209056630F9F4DC
:100B400061E075E087EF94E00E949A1A892BB9F46E
:100B50006BE075E081E095E00E949A1A892B79F0AC
:100B600061E075E08BE095E00E94A31AE091150525
:100B7000F0911605309719F08BE095E009958E817C
:100B80008E1104C08F818F1509F491C01E830F83CD
:100B90001092FF048CC0862F80718093F404E62F9E
:100BA000EF70CE2FCC0FCC0F8091F604C81748F40D
:100BB000E0911905F0911A05309719F08DE195E053
:100BC0000995C093F6048091F4049091F504891777
:100BD00049F08093F50482E4EDE1F5E0DF011D9238
:100BE0008A95E9F7EC2FF0E0EF50FB4FF4A6E1E037
:100BF000EC0FF0E0EF50FB4FE4A6E2E0EC0FF0E08A
:100C0000EF50FB4F14A7E3E0EC0FF0E0EF50FB4F89
:100C100004A74DC0C80126E0969587952A95E1F76F
:100C20008F739927B1E0EB22FF2434E0EE0CFF1C18
:100C30003A95E1F7A801452F552742954F70E42AD0
:100C4000F52A4CE34E9D90014F9D300D1124820FEB
:100C5000931F202F2F7105FF06C03EE1239F8019AF
:100C60009109112405C0AEE12A9F800D911D112428
:100C7000E0911705F09118053097C9F020911B05F8
:100C800030911C058217930791F090931C05809377
:100C90001B056CE370E00E945918962F682F892F6E
:100CA000DF91CF911F910F91FF90EF900994DF9109
:100CB000CF911F910F91FF90EF900895DC01ED917E
:100CC000FC910084F185E02D40E009940F931F937F
:100CD000CF938C01FC0164839085C62FC90F6C2FC4
:100CE0006F70C8010E945E066C2F62956F70606124
:100CF000C801CF911F910F910C945E060F931F9323
:100D0000CF93DF931F92CDB7DEB78C01FC018681B4
:100D1000681728F4C80149830E9466064981F801D2
:100D20008781869586958695481758F44583642F64
:100D3000606BC8010F90DF91CF911F910F910C94C0
:100D40005E060F90DF91CF911F910F910895CF9282
:100D5000DF92EF92FF920F931F93CF93DF93EC01FB
:100D6000F62EC42ED22E8F818695869586950817ED
:100D700010F00FEF080F1D2D011780F0412F6F2D80
:100D8000CE010E947E06EF2CCE1430F060E0CE0142
:100D90000E948503E394F8CF1F5FEECF4D2D6F2D9A
:100DA000CE01DF91CF911F910F91FF90EF90DF90D7
:100DB000CF900C947E060F931F93DC0115962C9117
:100DC00015971B96ED91FC911C97309749F033963F
:100DD000E49119960C911997E09FE02D112401C020
:100DE000E0E08FEF820F0E2F10E0095F1F4F93E0BE
:100DF000159507959A95E1F7080F16964C91169759
:100E0000415014966C911497CD010E94A7061F9132
:100E10000F9108952F923F924F925F926F927F921F
:100E20008F929F92AF92BF92CF92DF92EF92FF92FA
:100E30000F931F93CF93DF93CDB7DEB727970FB6EE
:100E4000F894DEBF0FBECDBFFC01038514850115EC
:100E5000110509F42FC19F838E83F801B491319657
:100E60004491319654903196A491EA2EF12CF7E0FA
:100E7000EF0EF11C93E0F594E7949A95E1F7EB827D
:100E8000F801349674913196E491671758F0862FE3
:100E900090E02E2F30E0F901E70FF11D8E179F072C
:100EA0000CF448C06D3061F4EE81FF8186818823A7
:100EB00009F43DC060E08E819F810E94660637C0C4
:100EC0006A3009F0F7C0EE81FF81818515818E9D22
:100ED000100D11248781869586958695181730F018
:100EE0008285882319F082E0828710E0412F60E03C
:100EF0008E819F810E947E06EE81FF8182858230F5
:100F0000B0F0CF010E94DB06EE81FF818185612F69
:100F10008E9D600D1124660F660F660F8781861700
:100F200008F460E060648E819F810E945E0681E02B
:100F300090E0C2C050E05B2BC8010696671BEE81B3
:100F4000FF81F185F9834230510588F4452B09F082
:100F500019825E9C90015F9C300D1124629F80017C
:100F6000639F100D1124080F191F412C24C0EA2F74
:100F7000E77021F048E0442E4E1A01C0412CA82F02
:100F8000FC0140E050E07E2F7A1B761728F4749124
:100F9000470F511D3196F7CFFC01E60FF11D54901C
:100FA0004E9D80014F9D100D5E9D100D1124020F6E
:100FB000131F080F191FEE81FF81F481FC83EE815E
:100FC000FF813580652C712CCC24C394D12C812CCD
:100FD000912C7FEF7C0D7A838B81781708F05CC0B1
:100FE000212CEE81FF818185281608F04FC07A817F
:100FF000711102C0222041F0EE81FF8145814F5FD7
:101000006C81CF010E947E06A12CB12CA51488F51D
:10101000F501E80DF91DE00FF11F2491442061F066
:10102000CE14DF0449F4E22FF0E0042C02C0F59561
:10103000E7950A94E2F72E2FEE81FF8181858230B9
:1010400079F4E22F2110E295EF70F0E0EE58FF4FB7
:101050002491622F8E819F812D830E9485032D8193
:10106000622F8E819F810E948503FFEFAF1ABF0A16
:10107000CDCFB12C7981B71639F060E08E819F8198
:101080000E948503B394F6CF2394ABCF860C971CB4
:10109000FFEFCF1ADF0A9DCFEE81FF818781869512
:1010A00086958695381608F042CF3582632D606BA1
:1010B000CF013BCF80E090E027960FB6F894DEBFDB
:1010C0000FBECDBFDF91CF911F910F91FF90EF9099
:1010D000DF90CF90BF90AF909F908F907F906F9058
:1010E0005F904F903F902F9008950F931F93CF9351
:1010F000DF938C01C5E9D5E081E0898740E060E0BD
:10110000CE010E947E066DEE71E0CE010E94201598
:10111000CE010E94DB0682E0898742E060E0CE01DA
:101120000E947E06CE010E94DB06B801CE01DF914F
:10113000CF911F910F910C9420150F93CF93DF93B4
:10114000EC010F8106950695069501504E814150A0
:1011500020E060E00E94A70681E09A85911101C01D
:1011600080E08A8760E4CE01DF91CF910F910C94EB
:101170005E06CF92DF92EF92FF920F931F93CF9371
:10118000DF93EC01898182FD34C085FD32C02A8164
:1011900030E0F901ED56FA4F8491F901E158FA4F28
:1011A0000491F901E559FA4F14911123A1F081112D
:1011B0000E945613E12FF0E0EE0FFF1FE859FF4F9A
:1011C000A591B491EC91E02331E020E009F430E006
:1011D000832F922F02C080E090E0298123FB3327E8
:1011E00030F926952170232731E0832781708227EB
:1011F0008A8B8FB7F8944091890350918A0360914C
:101200008B0370918C038FBF9A892B8988819923D6
:1012100021F1211122C080FD07C0816088834E87A3
:101220005F87688B798B3BC00E851F85288939893C
:101230006A017B01C01AD10AE20AF30A0B811C8100
:1012400020E030E0C016D106E206F30640F121E0CE
:101250002B8B80628068888322C08E7F8883911167
:101260001EC02223E1F01B8A81FD03C08B858F5FA6
:101270008B8788818D7F806188834E875F87688BAD
:10128000798B86FF04C01C861B868F7B88838881B0
:1012900087FF05C08F7788838981816089838B89E7
:1012A000882309F19923F9F08E859F85A889B9894A
:1012B0008A019B01081B190B2A0B3B0B8D819E8118
:1012C000A0E0B0E0081719072A073B0760F0888103
:1012D00081FD09C09B859D878A648F7788834E87AF
:1012E0005F87688B798B8E859F85A889B989481B14
:1012F000590B6A0B7B0B8F819885A0E0B0E04817F3
:1013000059076A077B0740F08B85882329F08C8773
:101310001B86888184608883DF91CF911F910F9114
:10132000FF90EF90DF90CF900895CF93DF93EC0183
:10133000898184FF03C0CE010E94B908988192FB85
:10134000882780F992FF08C02C85213021F41C8663
:101350009B7F988301C080E0DF91CF910895CF9368
:10136000C82F81E080939E0546E060E085E995E026
:101370000E947E0686E0C89FF0011124ED55FB4FC8
:10138000448155816081718185E995E00E94231235
:1013900085E995E0CF910C94DB060F931F93CF93D3
:1013A000DF93CDB7DEB72C970FB6F894DEBF0FBE34
:1013B000CDBF4CE0BE016F5F7F4F8FE595E00E948F
:1013C000A50405E915E081E0F801818740E060E0CF
:1013D000C8010E947E0666EF71E0C8010E940E15EA
:1013E00082E0F8018187BE016F5F7F4FC8010E94D4
:1013F0002015C8010E94DB062C960FB6F894DEBFBC
:101400000FBECDBFDF91CF911F910F910895089529
:10141000CF92DF92EF92FF920F931F93CF93DF93C0
:101420007C01262F972F8A018091D603882391F083
:10143000C62FD72F6E01C40ED51ECC15DD0571F059
:101440006991D701ED91FC910190F081E02DC701E8
:101450000995F3CF642F822F0E94D611C801DF9126
:10146000CF911F910F91FF90EF90DF90CF90089553
:10147000CF93DF931F92CDB7DEB769832091D60358
:101480002223D1F02091F903203240F021E030E016
:10149000FC013383228380E090E015C08091D70364
:1014A000E82FF0E0E852FC4F998190838F5F8093A2
:1014B000D7038093F90305C061E0CE0101960E9435
:1014C000D61181E090E00F90DF91CF910895CF93F6
:1014D000C62F672F87E994E00E94380A6C2F87E9AE
:1014E00094E0CF910C94380AEF92FF920F931F93E0
:1014F000CF93DF93EC018B81882379F08EE30E94F8
:101500004B1368E072E08AEF93E00E94201567E1D8
:1015100072E08AEF93E00E940E1581E08093D6037B
:1015200080E18093F8031092D7031092F9038E01A3
:10153000065E1F4F7E0184E2E80EF11CF801619106
:1015400071918F01CE010E94670A0E151F05B1F738
:10155000DF91CF911F910F91FF90EF900C94F712B4
:10156000CF93DF93EC018B81882379F08EE30E9487
:101570004B136AE172E08AEF93E00E94201567E165
:1015800072E08AEF93E00E940E15E881F9810480F1
:10159000F581E02D60E0CE0109951B8E1A8ECE01FB
:1015A000DF91CF910C94740A1F93CF93DF9387E957
:1015B00094E00E941D10182F87E994E00E941D10EE
:1015C000D12F20E0C22F9E01280F311DC901DF91CC
:1015D000CF911F9108951F93CF93DF93FC0123892F
:1015E0003489232B09F47BC0EC0182E090E00E9457
:1015F0003E13CE010E94D40A9BA78AA70E94F7122D
:101600008AA59BA593FF0CC08B81882349F08EE3AC
:101610000E944B136FE172E08AEF93E00E940E1577
:101620008AA59BA597FF5BC081E08093D60381E1EB
:101630008093F8031092D7031092F9036CE087E9C6
:1016400094E00E94380A80E00E949A1241E068E02B
:1016500081E10E94FA1210928E0380938D03CE01D5
:101660000E94D40A2EA53FA58217930721F09FA7B9
:101670008EA711E001C010E0CE010E94D40A28A973
:1016800039A98217930719F099AB88AB11E0CE0105
:101690000E94D40A2AA93BA98217930719F09BAB91
:1016A0008AAB11E0CE010E94D40A2CA93DA9821771
:1016B000930719F09DAB8CAB11E00E94F712112338
:1016C00071F02CA93DA94AA95BA968A979A9EB8960
:1016D000FC898EA59FA5DF91CF911F910994DF9181
:1016E000CF911F910895EF92FF920F931F93CF9385
:1016F000DF938C018CE090E00E943E13E801AA96F3
:10170000780186E3E80EF11CC8010E94D40A89938F
:101710009993CE15DF05C1F7DF91CF911F910F91FE
:10172000FF90EF900C94F7120F931F93CF93DF93DA
:101730008C01EB010E942305C8010E94730B21E07C
:101740002883F80182A593A592FD2E8397FF02C0FE
:1017500081E08B83F80185A586958695898384A58C
:1017600095A590FF02C081E08C83F801828D938D56
:1017700095FF02C081E08D83DF91CF911F910F9182
:101780000895CF93DF93EC0182E090E00E943E1336
:10179000CE010E94D40A9BA78AA70E94F7122AA50D
:1017A0003BA533708AE0829FA001839F500D1124D6
:1017B0008D859E85840F951F9C878B87DF91CF91A8
:1017C0000895FF920F931F93CF93DF938C01F62E12
:1017D000FC018381C62FD0E08823A1F18EE30E9413
:1017E0004B136EE272E08AEF93E00E9420156DE3E6
:1017F00072E08AEF93E00E9420154F2D50E060E0E8
:1018000070E020E18AEF93E00E946F1461E472E0DF
:101810008AEF93E00E942015FE013B96EE0FFF1F1A
:10182000E00FF11F4081518160E070E020E18AEF1C
:1018300093E00E946F1489E20E944B138AEF93E0B9
:101840000E94F61481E08093D60381E18093F8032F
:101850001092D7031092F9036F2D87E994E00E944C
:10186000380A2B96CC0FDD1FC00FD11F68817981FC
:10187000C8010E94670ADF91CF911F910F91FF90DD
:101880000C94F7121F93CF93DF93EC01162F8A8DE0
:101890009B8D9D7F91609B8F8A8F62E0CE010E941D
:1018A000E10B11110CC08A8D9B8D9E7F9B8F8A8FBF
:1018B00062E0CE01DF91CF911F910C94E10BDF919B
:1018C000CF911F9108951F93CF93DF93EC01162FB3
:1018D0008A8D9B8D93609B8F8A8F62E0CE010E94E0
:1018E000E10B11110CC08A8D9B8D9E7F9B8F8A8F7F
:1018F00062E0CE01DF91CF911F910C94E10BDF915B
:10190000CF911F9108950F931F93CF93DF938C0175
:10191000EB01DC0113968C918823D9F08EE30E94B1
:101920004B1366E472E08AEF93E00E94201588E290
:101930000E944B13AE0160E070E02AE08AEF93E072
:101940000E946F1489E20E944B138AEF93E00E9479
:10195000F614D8015C96ED91FC915D97EF70FF272E
:101960001D968D919C911E979E01C817D90708F46A
:101970009C01D8011F964D915C915097709642172B
:10198000530708F49A01A901481B590BCA016AE0E0
:1019900070E00E945918EB0186E0CC0FDD1F8A959C
:1019A000E1F7CE2BDF2BD8015A968D919C915B9756
:1019B0008960906C5B969C938E935A9762E0C80105
:1019C0000E94E10BF801D58FC48F63E0C8010E942B
:1019D000E10B65E0C801DF91CF911F910F910C944D
:1019E000E10BFC016087268D378D662311F0326094
:1019F00002C03D7FFC01378F268F64E00C94E10B21
:101A0000FC016783228D338D662311F03F7B02C07A
:101A10003064FC01338F228F62E00C94E10BFC01F7
:101A20006683828D938D9C013E7F338F228F662348
:101A300021F03062338F228F03C09E7D938F828F7F
:101A400062E0CF010C94E10BFC016583228D338DA4
:101A5000662311F0306101C03F7EFC01338F228F7D
:101A600062E00C94E10BFC0164836F7020A131A152
:101A7000207F262B31A320A365E00C94E10BCF93AC
:101A8000DF93EB016031710520F480E30E944B137A
:101A900004C06F3F710509F020F480E30E944B13EE
:101AA00003C06115704118F480E30E944B13AE012E
:101AB00060E070E020E18AEF93E00E946F1480E222
:101AC000DF91CF910C944B13CF92DF92EF92FF9264
:101AD0000F931F93CF93DF93CDB7DEB72C970FB63D
:101AE000F894DEBF0FBECDBF8C010E94730BD801EE
:101AF000ED91FC9106A8F7A9E02D4CE0BE016F5FC7
:101B00007F4FC801099563E672E08AEF93E00E9477
:101B10002015BE016F5F7F4F8AEF93E00E94201572
:101B2000F801E6A4F7A46EE672E08AEF93E00E9463
:101B30002015B701C8010E943F0DD8019A968D91DA
:101B40009C919B9792FD03C06BE572E002C063E538
:101B500072E08AEF93E00E942015F80182A593A518
:101B600097FD03C066EA71E002C06BEA71E08AEF9C
:101B700093E00E942015D8019D968C91E82EE69462
:101B8000E694F12C63E772E08AEF93E00E9420155F
:101B9000BAE0EB16F1042CF460E28AEF93E00E94C5
:101BA000900FC7010E94B81480E20E944B13C12C11
:101BB000D12CEFE0EE1AF108CE14DF044CF46AE207
:101BC0008AEF93E00E94900FFFEFCF1ADF0AF4CF65
:101BD0008AEF93E00E94F61469E772E08AEF93E0DF
:101BE0000E940E15780186E1E80EF11C6801A6E35B
:101BF000CA0ED11CF701619171917F01C8010E9449
:101C00003F0DEC14FD04B1F78AEF93E00E94F61447
:101C100081E08093D60381E18093F8031092D7038B
:101C20001092F90360E087E994E00E94380A80E0AE
:101C30000E949A1241E060E281E10E94FA12109241
:101C40008E0380938D0380E1E82EF12CC8010E9461
:101C5000D40ABC01C8010E943F0DF1E0EF1AF1085F
:101C6000A9F70E94F7128AEF93E00E94F614D801B8
:101C7000ED91FC910288F389E02DC8010995882334
:101C800031F066EC72E08AEF93E00E942015D801F3
:101C9000ED91FC9102A4F3A5E02DC80109958823DC
:101CA00031F061ED72E08AEF93E00E942015D801D7
:101CB000ED91FC910680F781E02DC8010995182F60
:101CC00067ED72E08AEF93E00E942015812F90E08B
:101CD0000E94B81480E20E944B138AEF93E00E94A6
:101CE000F6142C960FB6F894DEBF0FBECDBFDF9171
:101CF000CF911F910F91FF90EF90DF90CF900895BB
:101D0000EF92FF920F931F93CF93DF938C01EB0120
:101D10000E944B03C130D10531F0229731F488E0A5
:101D2000E82EF12C02C0E12CF12CF801F58EE48EA6
:101D3000DF91CF911F910F91FF90EF9008951F9326
:101D4000CF93DF93EC018B81882379F08EE30E949F
:101D50004B136FED72E08AEF93E00E94201567E16C
:101D600072E08AEF93E00E940E1510928E0310929B
:101D70008D031092D7031092F9031092D50311E04E
:101D80001093D4031092AF0361E082E10E947F13AD
:101D900061E083E10E947F138091B9008E7F809380
:101DA000B9008091B9008D7F8093B90088E4809359
:101DB000B80085E48093BC001093D60381E1809342
:101DC000F8031092D7031092F9030E94F7128111C1
:101DD0003AC08B81882349F08EE30E944B1364EE56
:101DE00072E08AEF93E00E940E1584E098E59F8BE5
:101DF0008E8B198E188E83E090E09B8F8A8FE881FE
:101E0000F981028CF38DE02D61E070E0CE0109953F
:101E100080E098E09F8F8E8F81E890E999A388A356
:101E20001BA21AA21DA21CA21FA21EA219A618A6BE
:101E3000CE010E94740A81E090E09B8F8A8F62E05D
:101E4000CE010E94E10B81E0DF91CF911F910895B7
:101E5000FC01538D448D252F30E0842F90E0821BB0
:101E6000930B541710F0CF96089501970895FC0135
:101E7000918D828D981761F0828DDF01A80FB11DC1
:101E80005D968C91928D9F5F9F73928F90E00895E5
:101E90008FEF9FEF0895FC01918D828D981731F09F
:101EA000828DE80FF11D858D90E008958FEF9FEFF3
:101EB0000895FC01918D228D892F90E0805C9F4FC9
:101EC000821B91098F73992708958AEF93E00E94EE
:101ED000590F21E0892B09F420E0822F0895FC019D
:101EE000848DDF01A80FB11DA35ABF4F2C91848DA3
:101EF00090E001968F739927848FA689B7892C93D8
:101F0000A089B1898C9180648C93938D848D981372
:101F100006C00288F389E02D80818F7D808308953B
:101F2000EF92FF920F931F93CF93DF93EC0181E029
:101F3000888F9B8D8C8D981305C0E889F9898081E5
:101F400085FD24C0F62E0B8D10E00F5F1F4F0F7321
:101F50001127E02E8C8DE8120CC00FB607FCFACFCB
:101F6000E889F989808185FFF5CFCE010E946F0F46
:101F7000F1CF8B8DFE01E80FF11DE35AFF4FF08288
:101F80000B8FEA89FB898081806207C0EE89FF8917
:101F90006083E889F98980818064808381E090E0B2
:101FA000DF91CF911F910F91FF90EF900895CF9304
:101FB000DF93EC01888D8823C9F0EA89FB89808151
:101FC00085FD05C0A889B9898C9186FD0FC00FB623
:101FD00007FCF5CF808185FFF2CFA889B9898C9164
:101FE00085FFEDCFCE010E946F0FE7CFDF91CF913C
:101FF000089580E090E0892B29F00E94650F8111FF
:102000000C940000089585ED8093BC008091BC0085
:1020100084FDFCCF1092D50308950895E0918E03BE
:1020200080918D03E81730F4F0E0E157FC4F808198
:1020300090E008958FEF9FEF089590918E03809127
:102040008D03981750F4E92FF0E0E157FC4F208101
:1020500030E09F5F90938E0302C02FEF3FEFC901E6
:10206000089580918D0390E020918E03821B910949
:1020700008950E948C1A6115710579F0FB01019099
:102080000020E9F73197AF01461B570BDC01ED91BA
:10209000FC910280F381E02D099480E090E00895A6
:1020A0001F920F920FB60F9211242F933F934F93CD
:1020B0005F936F937F938F939F93AF93BF93EF93B0
:1020C000FF938AEF93E00E946F0FFF91EF91BF9112
:1020D000AF919F918F917F916F915F914F913F91C0
:1020E0002F910F900FBE0F901F9018951F920F9277
:1020F0000FB60F9211242F938F939F93EF93FF931B
:10210000E0910A04F0910B048081E0911004F091B9
:10211000110482FD12C09081809113048F5F8F7330
:1021200020911404821751F0E0911304F0E0E6507E
:10213000FC4F958F8093130401C08081FF91EF9134
:102140009F918F912F910F900FBE0F901F90189518
:102150001F920F920FB60F9211242F933F934F931C
:102160005F936F937F938F939F93AF93BF93EF93FF
:10217000FF938091B900887F803609F49CC068F590
:10218000883209F45BC090F4803109F454C038F40B
:10219000882309F4F6C0883009F44DC0F6C08831B0
:1021A00009F44CC0803209F45DC0EFC0803409F4FA
:1021B00068C048F4803309F455C0883309F0E5C09D
:1021C0008093D303D8C0803509F44FC0883509F413
:1021D0005DC0883409F0D9C0D6C0883909F4C7C0B9
:1021E000A8F4883709F467C038F4883609F463C066
:1021F000803709F460C0C9C0883809F4B8C0803994
:1022000009F45FC0803809F0C0C05BC0803B09F4AE
:1022100086C038F4803A09F466C0883A09F47FC071
:10222000B4C0803C09F4A7C0883C09F4A4C0883B32
:1022300009F48AC0AAC08091B00310C09091D20363
:102240008091D103981770F5E091D20381E08E0F51
:102250008093D203F0E0EF54FC4F80818093BB0069
:1022600085EC86C08093D3038EC0E091D20381E0D9
:102270008E0F8093D2038091BB00F0E0EF54FC4FAF
:1022800080839091D2038091D1036EC0E091D203FC
:1022900081E08E0F8093D2038091BB00F0E0EF5479
:1022A000FC4F80838091D40381116DC081E08093C5
:1022B000AF0384EA61C083E08093D50310927A0370
:1022C000CFCF80917A03803208F051C0E0917A0339
:1022D00081E08E0F80937A038091BB00F0E0E65A94
:1022E000FC4F8083BDCF85EC8093BC001092D5035A
:1022F00080917A03803230F4E0917A03F0E0E65A7C
:10230000FC4F108260917A0370E0E0915803F091E5
:1023100059038AE593E0099510927A0336C084E068
:102320008093D5031092570310925603E091540303
:10233000F0915503099580915603811105C081E004
:102340008093560310923403E091570381E08E0F7F
:1023500080935703F0E0EC5CFC4F80818093BB00DE
:102360009091570380915603981708F479CF85E828
:102370008093BC000AC085EC8093BC001092D5030A
:1023800004C01092D3030E940310FF91EF91BF91FC
:10239000AF919F918F917F916F915F914F913F91FD
:1023A0002F910F900FBE0F901F90189540915603DC
:1023B000262F30E0240F311D21323105DCF420912D
:1023C000D5032430C9F4FC0180E090E0861758F46E
:1023D000309156032191DC01AC5CBC4FA30FB11DC1
:1023E0002C930196F3CF80915603680F60935603A8
:1023F00080E0089581E0089582E008953FB7F89461
:102400008091A6059091A705A091A805B091A90576
:1024100026B5A89B05C02F3F19F00196A11DB11D3F
:102420003FBFBA2FA92F982F8827820F911DA11D7A
:10243000B11DBC01CD0142E0660F771F881F991FB7
:102440004A95D1F70895CF92DF92EF92FF920F93C2
:102450001F93CF93DF936C017A018B01C0E0D0E032
:10246000CE15DF0589F0D8016D918D01D601ED9172
:10247000FC910190F081E02DC6010995892B11F4A2
:102480007E0102C02196ECCFC701DF91CF911F9151
:102490000F91FF90EF90DF90CF900895EF92FF9211
:1024A0000F931F93CF93DF93EC01198218821B8245
:1024B0001A821D821C8261157105A9F17B01FB0145
:1024C00001900020E9F731978F01061B170BB80127
:1024D0006F5F7F4F80E090E00E94C219009759F033
:1024E000998388831B830A832C813D81232B81F46C
:1024F000FC0110820DC088819981009711F00E9423
:102500002A19198218821D821C821B821A820BC012
:102510001D830C83B701DF91CF911F910F91FF9025
:10252000EF900C94A31ADF91CF911F910F91FF9020
:10253000EF900895382F2091F9039091F8032132FC
:1025400008F049C08091D5038111FCCF42E040934F
:10255000D5033093D4033FEF3093D3031092D203CB
:102560002093D103A8EDB3E041EB53E0FA013E2FF5
:10257000341B321718F43D913193F9CF1092B00308
:102580002091B003990F922B9093B0039091AF03D9
:10259000913061F41092AF039091B0039093BB001F
:1025A0009091BC0093FDF8CF95EC01C095EE90930F
:1025B000BC009091D5039230E1F39091D3039F3FFB
:1025C00079F08091D303803241F08091D30380333E
:1025D00031F084E005C081E003C082E001C083E007
:1025E0001092D7031092F9031092D603089581E058
:1025F0000C949A129091D5039111FCCF91E0909395
:10260000D5034093D4032FEF2093D3031092D2032A
:10261000260F2093D1039093B0039091B003880FBD
:10262000892B8093B0038091AF03813061F41092C5
:10263000AF038091B0038093BB008091BC0083FD09
:10264000F8CF85EC01C085EE8093BC008091D50366
:102650008130E1F38091D203861710F46091D203A8
:10266000A1EBB3E02FE833E0F9018E2F821B861730
:1026700018F48D918193F9CF862F0895813208F057
:1026800080E241E0682F80E10E94FA1210928E03EE
:1026900080938D030895E091FA03F091FB0301907C
:1026A000F081E02D682F8AEF93E00994833081F068
:1026B00028F4813099F08230A1F008958730A9F094
:1026C0008830B9F08430D1F4809180008F7D03C0D0
:1026D000809180008F7780938000089584B58F77F4
:1026E00002C084B58F7D84BD08958091B0008F773E
:1026F00003C08091B0008F7D8093B00008951F9338
:10270000CF93DF93282F30E0F901ED56FA4F8491F3
:10271000F901E158FA4FD491F901E559FA4FC49102
:10272000CC23C9F0162F81110E945613EC2FF0E034
:10273000EE0FFF1FEF59FA4FA591B4918FB7F894A0
:10274000111105C09C91ED2FE095E92302C0EC9199
:10275000ED2BEC938FBFDF91CF911F910895CF9315
:10276000DF9390E0FC01E158FA4F2491FC01E55918
:10277000FA4F8491882361F190E0880F991FFC0142
:10278000E95AFA4FC591D491FC01EF59FA4FA5913E
:10279000B491611109C09FB7F89488812095822374
:1027A0008883EC912E230BC0623061F49FB7F894BC
:1027B0003881822F809583238883EC912E2B2C9354
:1027C0009FBF06C08FB7F894E8812E2B28838FBF58
:1027D000DF91CF9108958F929F92AF92BF92CF9247
:1027E000DF92EF92FF926B017C010E94FE114B0180
:1027F0005C01C114D104E104F104F1F00E94FE1166
:10280000DC01CB0188199909AA09BB09883E9340CC
:10281000A105B10570F321E0C21AD108E108F10861
:1028200088EE880E83E0981EA11CB11CC114D1044F
:10283000E104F10419F7DDCFFF90EF90DF90CF9026
:10284000BF90AF909F908F9008951F920F920FB6F8
:102850000F9211242F933F938F939F93AF93BF9326
:102860008091890390918A03A0918B03B0918C038E
:102870003091A50523E0230F2D3720F40196A11DEB
:10288000B11D05C026E8230F0296A11DB11D20939E
:10289000A5058093890390938A03A0938B03B0933B
:1028A0008C038091A6059091A705A091A805B091F1
:1028B000A9050196A11DB11D8093A6059093A705BA
:1028C000A093A805B093A905BF91AF919F918F9157
:1028D0003F912F910F900FBE0F901F9018954F9220
:1028E0005F926F927F92EF92FF920F931F93CF931D
:1028F000DF93CDB7DEB7A1970FB6F894DEBF0FBE5A
:10290000CDBF7C01FA01CB0119A2223008F42AE0E4
:102910008E010F5D1F4F422E512C612C712CBF0177
:10292000A30192010E946D18F901CA010150110919
:102930006A3014F4605D01C0695CD8016C93232B8C
:10294000242B252B61F7B801C7010E943B10A196EB
:102950000FB6F894DEBF0FBECDBFDF91CF911F91B0
:102960000F91FF90EF907F906F905F904F90089540
:102970000F931F93CF93DF9300D000D0CDB7DEB776
:10298000AC01990F660B770B77FF23C08DE249836B
:102990005A836B837C830E944B138C0149815A813B
:1029A0006B817C8170956095509541955F4F6F4F1D
:1029B0007F4F2AE08AEF93E00E946F14800F911FEF
:1029C0000F900F900F900F90DF91CF911F910F916B
:1029D00008952AE08AEF93E00F900F900F900F90E8
:1029E000DF91CF911F910F910C946F1460E373E00E
:1029F0000C943B10CF93DF93AC0160E070E02AE0D1
:102A00008AEF93E00E946F14EC018AEF93E00E943A
:102A1000F6148C0F9D1FDF91CF9108950F931F9394
:102A2000CF93DF93EC010E943B108C01CE010E94FA
:102A3000F614800F911FDF91CF911F910F91089590
:102A40000C943B10CF93DF93C3EAD4E08C859D8533
:102A50000E942A198E819F810E942A19888199815A
:102A6000DF91CF910C942A19789484B5826084BD4B
:102A700084B5816084BD85B5826085BD85B5816082
:102A800085BD80916E00816080936E001092810000
:102A900080918100826080938100809181008160BB
:102AA000809381008091800081608093800080917C
:102AB000B10084608093B1008091B0008160809308
:102AC000B00080917A00846080937A0080917A00CF
:102AD000826080937A0080917A00816080937A008E
:102AE00080917A00806880937A001092C10061E042
:102AF00088E00E94AF13E0910A04F0910B0482E099
:102B00008083E0910604F09107041082E0910804AC
:102B1000F09109048FEC808310921204E0910E046E
:102B2000F0910F0486E08083E0910C04F0910D0495
:102B3000808180618083E0910C04F0910D0480819C
:102B400088608083E0910C04F0910D04808180689E
:102B50008083E0910C04F0910D0480818F7D80834F
:102B600061E088E00E94AF1360E088E00E947F137C
:102B70006AE070E080E090E00E94EB1361E088E0A2
:102B80000E947F136AE070E080E090E00E94EB1307
:102B90001092A4058CE38093A3051092B9008CE0F9
:102BA0008093B8001092990510929A05E1E5F5E03E
:102BB00085919491E82EE3E5F5E0F490E4E5F5E005
:102BC000E491E0939B05E5E5F5E0E491E0939C0555
:102BD000E6E5F5E0E491E0939D05C82FD92F8C2F11
:102BE0008E198F1540F4FE01649185E995E00E94ED
:102BF0005E062196F4CF10929F0585E995E00E942C
:102C00009D0885EB90E09093A1058093A0058FE54A
:102C100095E00E949F0EC1E0C093620561E885E9DE
:102C200095E00E945E0660E085E995E00E945E0600
:102C300085E995E00E949D088FE595E00E94C10B13
:102C400090938703809386030E94FA1480918603F1
:102C5000909187030E94CD09C0939E0568EE73E0B2
:102C600080E090E00E94EB13C1EBD0E0FE014591C3
:102C7000549161E070E08FE595E00E942F03FE0122
:102C8000859194910E94FA14FE01659174918FE5EB
:102C900095E00E94830C8DE295E0909373058093FC
:102CA000720585E798E0909316058093150561EF0E
:102CB00072E08AEF93E00E940E158FE595E00E9486
:102CC000C10B90938703809386030E94CD09809166
:102CD00088030E94AF098FB7F894C0908903D09001
:102CE0008A03E0908B03F0908C038FBF8FE595E013
:102CF0000E94EB0A8DED94E00E94B90889EC94E003
:102D00000E94B90885EB94E00E94B9088DED94E02B
:102D10000E949509882329F061E08FE595E00E94E3
:102D2000630C89EC94E00E949509882329F061E006
:102D30008FE595E00E94420C85EB94E00E94950996
:102D40008823D9F0409188034F5F4093880350E077
:102D500060E070E02AE08AEF93E00E946F148AEF4F
:102D600093E00E94F61480918803833011F410924E
:102D70008803809188030E94AF098091000190919F
:102D80000101A0910201B09103018C159D05AE05D2
:102D9000BF0508F064C08FE595E00E94C10B9093D9
:102DA00087038093860320918403309185038217E3
:102DB0009307F1F00E94FA148091860390918703A3
:102DC0000E94CD098091860390918703909385039B
:102DD00080938403F8EECF0EF3E0DF1EE11CF11CBC
:102DE000C0920001D0920101E0920201F092030131
:102DF0006DE773E08FE595E00E94940B80917E0370
:102E000080937C0390917B03891749F16DE773E010
:102E10008FE595E00E94940B81E080939E0546E04B
:102E200065E485E995E00E947E0666E073E085E949
:102E300095E00E94201546E06EE685E995E00E9447
:102E40007E0640917E0350E060E070E02AE085E974
:102E500095E00E946F1480917C0380937B030E9415
:102E6000F90F39CFCF92DF92EF92FF920F931F931A
:102E7000CF93DF93EAEFF3E01382128288EE93E0C0
:102E8000A0E0B0E084839583A683B7832EE031E091
:102E90003183208325EC30E03587248724EC30E033
:102EA0003787268720EC30E0318B208B21EC30E017
:102EB000338B228B22EC30E0358B248B26EC30E0F8
:102EC000378B268B118E128E138E148EE7E9F4E069
:102ED0001382128284839583A683B78380E291E074
:102EE00091838083E5E9F5E01382128281E0818796
:102EF0001486138686E791E091838083EFE5F5E001
:102F000085E1DF011D928A95E9F782E391E09183E3
:102F100080838FE0858B8EE6E1EFF4E0DF011D9288
:102F20008A95E9F7EDEDF4E08CE3C82ED12CD4823C
:102F3000C382C4EFD1E0D683C583D087C78390E92D
:102F4000E92EFF24F394F286E18613861486158613
:102F500016861786108A118A128A138A82E0828363
:102F60000EED14E0F80180818F7D877F808362E021
:102F700082E00E94AF13D8018C918B7E8D7F8C9361
:102F8000E9ECF4E0D482C382D683C583D087C783BB
:102F9000F286E18613861486158616861786108AB1
:102FA000118A128A138A83E082830AEC14E0F80102
:102FB00080818F7D877F808362E083E00E94AF13F2
:102FC000D8018C918B7E8D7F8C93E5EBF4E0D482DD
:102FD000C382D683C583D087C783F286E1861386F2
:102FE0001486158616861786108A118A128A138A05
:102FF00084E08283C6EBD4E088818F7D877F8883DD
:1030000062E084E00E94AF1388818B7E8D7F88838D
:1030100060E173E083EA94E00E944E1268E173E09D
:1030200089EA94E00E944E1264E273E08FEA94E031
:10303000DF91CF911F910F91FF90EF90DF90CF9094
:103040000C944E122F923F924F925F926F927F920A
:103050008F929F92AF92BF92CF92DF92EF92FF92A8
:103060000F931F93CF93DF93CDB7DEB7CA1BDB0B54
:103070000FB6F894DEBF0FBECDBF09942A883988F9
:1030800048885F846E847D848C849B84AA84B98400
:10309000C884DF80EE80FD800C811B81AA81B9810C
:1030A000CE0FD11D0FB6F894DEBF0FBECDBFED0120
:1030B0000895AA1BBB1B51E107C0AA1FBB1FA6177F
:1030C000B70710F0A61BB70B881F991F5A95A9F7D1
:1030D00080959095BC01CD010895A1E21A2EAA1BFE
:1030E000BB1BFD010DC0AA1FBB1FEE1FFF1FA217B8
:1030F000B307E407F50720F0A21BB30BE40BF50BB5
:10310000661F771F881F991F1A9469F7609570953D
:10311000809590959B01AC01BD01CF010895EE0F04
:10312000FF1F0590F491E02D0994CF93DF93823037
:10313000910510F482E090E0E091AC05F091AD05CE
:1031400020E030E0C0E0D0E0309711F140815181C3
:1031500048175907C0F04817590761F482819381D5
:10316000209719F09B838A832BC09093AD058093A1
:10317000AC0526C02115310519F04217530718F484
:103180009A01BE01DF01EF010280F381E02DDCCF67
:103190002115310509F1281B390B2430310590F434
:1031A00012968D919C9113976115710521F0FB0189
:1031B0009383828304C09093AD058093AC05FD0199
:1031C000329644C0FD01E20FF31F81939193225088
:1031D00031092D933C933AC02091AA053091AB055B
:1031E000232B41F420910601309107013093AB0568
:1031F0002093AA0520910401309105012115310584
:1032000041F42DB73EB74091080150910901241BAC
:10321000350BE091AA05F091AB05E217F307A0F496
:103220002E1B3F0B2817390778F0AC014E5F5F4F1C
:103230002417350748F04E0F5F1F5093AB0540939E
:10324000AA058193919302C0E0E0F0E0CF01DF9105
:10325000CF9108950F931F93CF93DF93009709F4B5
:103260008CC0FC013297138212820091AC05109140
:10327000AD050115110581F420813181820F931F65
:103280002091AA053091AB052817390779F5F093FD
:10329000AB05E093AA0571C0D80140E050E0AE173D
:1032A000BF0750F412962D913C911397AD01211553
:1032B000310509F1D901F3CF9D01DA01338322836E
:1032C00060817181860F971F8217930769F4EC0163
:1032D00028813981260F371F2E5F3F4F318320838E
:1032E0008A819B8193838283452B29F4F093AD05DA
:1032F000E093AC0542C01396FC93EE931297ED0158
:10330000499159919E01240F351FE217F30771F47B
:1033100080819181840F951F029611969C938E93C4
:103320008281938113969C938E931297E0E0F0E054
:10333000D80112968D919C911397009719F0F8017E
:103340008C01F6CF8D919C9198012E5F3F4F820F9B
:10335000931F2091AA053091AB052817390769F40E
:10336000309729F41092AD051092AC0502C013827B
:1033700012821093AB050093AA05DF91CF911F91A4
:103380000F910895A0E0B0E0E8ECF9E10C94261864
:10339000EC01009721F4CB010E949518B8C0FC0104
:1033A000E60FF71F9C0122503109E217F30708F4DA
:1033B000ACC0D9010D911C91119706171707B0F0F9
:1033C0000530110508F49FC0C801049786179707B8
:1033D00008F499C002501109061B170B01931193B1
:1033E0006D937C93CF010E942A198DC05B01A01AB6
:1033F000B10A4C01800E911EA091AC05B091AD05B3
:1034000040E050E0E12CF12C109709F44AC0A815D7
:10341000B905D1F56D907C901197630182E0C80EDB
:10342000D11CCA14DB0480F1A3014A195B096A01AB
:1034300082E0C80ED11C1296BC9012971396AC91E4
:10344000B5E0CB16D10440F0B282A3835183408310
:10345000D9016D937C930AC00E5F1F4FC301800F8B
:10346000911FF90191838083EB2DFA2FE114F10470
:1034700031F0D7011396FC93EE93129744C0F0936A
:10348000AD05E093AC053FC08D919C911197481715
:10349000590708F4AC017D0112960D90BC91A02D46
:1034A000B3CF8091AA059091AB0588159905E1F4F9
:1034B00046175707C8F480910401909105010097C1
:1034C00041F48DB79EB74091080150910901841BCA
:1034D000950BE817F907C8F4F093AB05E093AA053C
:1034E000F901718360830FC0CB010E9495187C01A4
:1034F000009759F0A801BE010E94911ACE010E94C6
:103500002A19C70104C0CE0102C080E090E0CDB707
:10351000DEB7EEE00C94421881E090E0F8940C9451
:10352000AA1AFB01DC0102C001900D9241505040EB
:10353000D8F70895FB01DC018D91019080190110ED
:10354000D9F3990B0895FB01DC0101900D92002045
:10355000E1F7089512E0C5EDD2E004C0FE010E943B
:0E3560008F182196C63DD107C9F7F894FFCF0A
:10356E00E80300000000AE05800000000000900F90
:10357E002312280FD70F590F370F4B0F00000000E3
:10358E00380A080A00040D1031101D100E1000002C
:10359E0000009F0EB00A330D7C03000D6A03F10C80
:1035AE006403240D760321031D031903800E2903E2
:1035BE00830CC10B2F03630C420C0F0D7003940B85
:1035CE000D05EB0A07030303A504000342040304DD
:1035DE00640D000000000A0723120004FF03A60377
:1035EE00204241535300202D2D2D2D00204D55549A
:1035FE00450020534F46544D55544500202D2D2D3A
:10360E002D2D2D2D2D002052445300202D2D2D001B
:10361E002054554E454400202D2D2D2D2D00205388
:10362E00544552454F0020204D4F4E4F2000202034
:10363E00525353493A20002020534E523A20002034
:10364E004D487A00202020202020202000522044A7
:10365E002053203A2000462052204520512055204C
:10366E0045204E20432059002D73617665526567C3
:10367E00697374657273002829007465726D004257
:10368E004C4F434B5F4520666F756E642E002D5F69
:10369E007361766552656769737465720028307858
:1036AE00002C203078007365744672657175656EF6
:1036BE006379002053746572656F00204D6F6E6FD5
:1036CE002020004672657175656E63793D0020504D
:1036DE00493D00205369673D0030202020203120D5
:1036EE002020203220202020332020202034202093
:1036FE00202035202020203620202020372020207A
:10370E002038202020203920202020412020202059
:10371E00422020202043202020204420202020450D
:10372E0020202020460042617373426F6F73742015
:10373E00004D6F6E6F2000566F6C756D653D0069A4
:10374E006E697400726164696F20666F756E642EA7
:10375E000052657175657374206765744672657184
:10376E0075656E63790052205320532049203A002C
:10377E00542055204E2045005020522045205320E5
:10378E004520540056204F204C2055204D204500FA
:04379E000D0A000010
:00000001FF
