:100000000C946F000C9497000C9497000C9497003C
:100010000C9497000C9497000C9497000C94970004
:100020000C9497000C9497000C9497000C949700F4
:100030000C9497000C9497000C9497000C949700E4
:100040000C946F0D0C9497000C948A020C9464022B
:100050000C9497000C9497000C9497000C949700C4
:100060000C94BC020C9497002E22CE2246237823B7
:10007000A023182458258025A825D0253C28E6282B
:10008000F42900000000240027002A0000000000DE
:1000900023002600290000000000250028002B0076
:1000A000040404040404040402020202020203031E
:1000B0000303030301020408102040800102040826
:1000C00010200102040810200000000800020100B6
:1000D000000304070000000000000000B90D112417
:1000E0001FBECFEFD8E0DEBFCDBF12E0A0E0B1E091
:1000F000E8E0F0E202C005900D92A23EB107D9F708
:1001000024E0A2EEB2E001C01D92A93FB207E1F7E0
:1001100010E0CFE6D0E004C02197FE010E94E70F77
:10012000CE36D107C9F70E94060E0C9402100C942B
:100130000000FC01538D448D252F30E0842F90E08A
:10014000821B930B541710F0CF96089501970895D2
:10015000FC01918D828D981761F0828DDF01A80FCF
:10016000B11D5D968C91928D9F5F9F73928F90E0F1
:1001700008958FEF9FEF0895FC01918D828D981760
:1001800031F0828DE80FF11D858D90E008958FEF9D
:100190009FEF0895FC01918D228D892F90E0805C66
:1001A0009F4F821B91098F739927089586E993E0E9
:1001B0000E94CA0021E0892B09F420E0822F0895D3
:1001C000FC01848DDF01A80FB11DA35ABF4F2C91F4
:1001D000848D90E001968F739927848FA689B789C3
:1001E0002C93A089B1898C9180648C93938D848D9C
:1001F000981306C00288F389E02D80818F7D80836B
:100200000895EF92FF920F931F93CF93DF93EC012A
:1002100081E0888F9B8D8C8D981305C0E889F989C2
:10022000808185FD24C0F62E0B8D10E00F5F1F4FDF
:100230000F731127E02E8C8DE8120CC00FB607FC4F
:10024000FACFE889F989808185FFF5CFCE010E9438
:10025000E000F1CF8B8DFE01E80FF11DE35AFF4F57
:10026000F0820B8FEA89FB898081806207C0EE896A
:10027000FF896083E889F98980818064808381E0D7
:1002800090E0DF91CF911F910F91FF90EF90089533
:10029000CF93DF93EC01888D8823C9F0EA89FB892D
:1002A000808185FD05C0A889B9898C9186FD0FC024
:1002B0000FB607FCF5CF808185FFF2CFA889B989F9
:1002C0008C9185FFEDCFCE010E94E000E7CFDF915A
:1002D000CF91089580E090E0892B29F00E94D6000C
:1002E00081110C940000089585ED8093BC008091ED
:1002F000BC0084FDFCCF109271030895409104036B
:10030000262F30E0240F311D21323105DCF42091FD
:1003100071032430C9F4FC0180E090E0861758F4A2
:10032000309104032191DC01AE51BD4FA30FB11DEB
:100330002C930196F3CF80910403680F609304031C
:1003400080E0089581E0089582E008950895E091A5
:100350002A0380912903E81730F4F0E0E55DFC4FB3
:10036000808190E008958FEF9FEF089590912A0388
:1003700080912903981750F4E92FF0E0E55DFC4FD8
:10038000208130E09F5F90932A0302C02FEF3FEF60
:10039000C90108958091290390E020912A03821BCE
:1003A00091090895CF92DF92EF92FF920F931F93DE
:1003B000CF93DF937C01262F972F8A0180917203C0
:1003C000882391F0C62FD72F6E01C40ED51ECC15F1
:1003D000DD0571F06991D701ED91FC910190F081FB
:1003E000E02DC7010995F3CF642F822F0E947E0173
:1003F000C801DF91CF911F910F91FF90EF90DF9097
:10040000CF900895CF93DF931F92CDB7DEB7698366
:10041000209172032223D1F020919503203240F0E5
:1004200021E030E0FC013383228380E090E015C0BE
:1004300080917303E82FF0E0EC58FC4F9981908392
:100440008F5F809373038093950305C061E0CE01B5
:1004500001960E947E0181E090E00F90DF91CF91A4
:100460000895089580E090E008950E94ED0F0F93A5
:100470001F93CF93DF938C01EB010E949109C80178
:100480000E94CC0A21E02883F80182A593A592FD61
:100490002E8397FF02C081E08B83F80185A58695A6
:1004A0008695898384A595A590FF02C081E08C8301
:1004B000F801828D938D95FF02C081E08D83DF91DD
:1004C000CF911F910F9108951F920F920FB60F9227
:1004D00011242F933F934F935F936F937F938F9349
:1004E0009F93AF93BF93EF93FF9386E993E00E94AE
:1004F000E000FF91EF91BF91AF919F918F917F911C
:100500006F915F914F913F912F910F900FBE0F9080
:100510001F9018951F920F920FB60F9211242F93D0
:100520008F939F93EF93FF93E091A603F091A7031E
:100530008081E091AC03F091AD0382FD12C0908107
:100540008091AF038F5F8F732091B003821751F0BA
:10055000E091AF03F0E0EA56FC4F958F8093AF0334
:1005600001C08081FF91EF919F918F912F910F900A
:100570000FBE0F901F9018951F920F920FB60F92FB
:1005800011242F933F934F935F936F937F938F9398
:100590009F93AF93BF93EF93FF938091B900887FB0
:1005A000803609F49CC068F5883209F45BC090F489
:1005B000803109F454C038F4882309F4F6C0883037
:1005C00009F44DC0F6C0883109F44CC0803209F4FA
:1005D0005DC0EFC0803409F468C048F4803309F48A
:1005E00055C0883309F0E5C080936F03D8C08035CB
:1005F00009F44FC0883509F45DC0883409F0D9C0CA
:10060000D6C0883909F4C7C0A8F4883709F467C090
:1006100038F4883609F463C0803709F460C0C9C073
:10062000883809F4B8C0803909F45FC0803809F00F
:10063000C0C05BC0803B09F486C038F4803A09F43E
:1006400066C0883A09F47FC0B4C0803C09F4A7C0F2
:10065000883C09F4A4C0883B09F48AC0AAC08091F0
:100660004C0310C090916E0380916D03981770F544
:10067000E0916E0381E08E0F80936E03F0E0E35B08
:10068000FC4F80818093BB0085EC86C080936F0314
:100690008EC0E0916E0381E08E0F80936E03809197
:1006A000BB00F0E0E35BFC4F808390916E03809190
:1006B0006D036EC0E0916E0381E08E0F80936E0338
:1006C0008091BB00F0E0E35BFC4F8083809170037E
:1006D00081116DC081E080934B0384EA61C083E0A7
:1006E0008093710310922803CFCF8091280380322A
:1006F00008F051C0E091280381E08E0F8093280319
:100700008091BB00F0E0E85FFC4F8083BDCF85ECBB
:100710008093BC001092710380912803803230F4E2
:10072000E0912803F0E0E85FFC4F1082609128031D
:1007300070E0E0910603F091070388E093E00995EB
:100740001092280336C084E0809371031092050351
:1007500010920403E0910203F09103030995809144
:100760000403811105C081E0809304031092E2022A
:10077000E091050381E08E0F80930503F0E0EE51D8
:10078000FD4F80818093BB0090910503809104030D
:10079000981708F479CF85E88093BC000AC085ECEF
:1007A0008093BC001092710304C010926F030E94EA
:1007B0007401FF91EF91BF91AF919F918F917F91C4
:1007C0006F915F914F913F912F910F900FBE0F90BE
:1007D0001F9018951F93CF93DF9383E394E00E94BB
:1007E000B601182F83E394E00E94B601D12F20E0D8
:1007F000C22F9E01280F311DC901DF91CF911F919A
:100800000895CF92DF92EF92FF920F931F93CF93B1
:10081000DF93CDB7DEB72C970FB6F894DEBF0FBECF
:10082000CDBF8C010E94CC0AD801ED91FC9106A8A5
:10083000F7A9E02D4CE0BE016F5F7F4FC80109951D
:1008400086E891E00E94100CCE0101960E94100CE7
:10085000F801E6A4F7A481E991E00E94100CB70129
:10086000C8010E94ED0AD8019A968D919C919B97A0
:1008700092FD03C084E791E002C08CE691E00E9403
:10088000100CF80182A593A597FD03C081E891E0C3
:1008900002C08CE791E00E94100CD8019D968C91CB
:1008A000E82EE694E694F12C86E991E00E94100C83
:1008B000BAE0EB16F1042CF460E286E993E00E94C2
:1008C0000101C7010E94410D80E20E94120CC12C5F
:1008D000D12CEFE0EE1AF108CE14DF044CF46AE2FA
:1008E00086E993E00E940101FFEFCF1ADF0AF4CFFF
:1008F0000E94000C8CE991E00E94040C780186E1D2
:10090000E80EF11C6801A6E3CA0ED11CF701619143
:1009100071917F01C8010E94ED0AEC14FD04B1F74A
:100920000E94000C81E08093720381E18093940324
:10093000109273031092950360E083E394E00E94A9
:10094000020280E00E946A0C41E060E281E10E94C4
:10095000CA0C10922A038093290380E1E82EF12C1F
:10096000C8010E94EA03BC01C8010E94ED0AF1E03F
:10097000EF1AF108A9F70E94C70C0E94000CD801D9
:10098000ED91FC910288F389E02DC8010995882337
:1009900021F089EE91E00E94100CD801ED91FC91BC
:1009A00002A4F3A5E02DC8010995882321F084EF66
:1009B00091E00E94100CD801ED91FC910680F78126
:1009C000E02DC8010995182F8AEF91E00E94100CC4
:1009D000812F90E00E94410D80E20E94120C0E9443
:1009E000000C2C960FB6F894DEBF0FBECDBFDF9182
:1009F000CF911F910F91FF90EF90DF90CF900895CE
:100A00001F93CF93DF93FC0123893489232B09F4AF
:100A100079C0EC0182E090E00E940E0DCE010E94B0
:100A2000EA039BA78AA70E94C70C8AA59BA593FFF0
:100A30000AC08B81882339F08EE30E94120C82E079
:100A400092E00E94040C8AA59BA597FF5BC081E001
:100A50008093720381E18093940310927303109248
:100A600095036CE083E394E00E94020280E00E9420
:100A70006A0C41E068E081E10E94CA0C10922A03EE
:100A800080932903CE010E94EA032EA53FA5821779
:100A9000930721F09FA78EA711E001C010E0CE01BF
:100AA0000E94EA0328A939A98217930719F099AB84
:100AB00088AB11E0CE010E94EA032AA93BA9821764
:100AC000930719F09BAB8AAB11E0CE010E94EA03B9
:100AD0002CA93DA98217930719F09DAB8CAB11E0AF
:100AE0000E94C70C112371F02CA93DA94AA95BA94A
:100AF00068A979A9EB89FC898EA59FA5DF91CF9183
:100B00001F910994DF91CF911F910895CF93C62F24
:100B1000672F83E394E00E9402026C2F83E394E04A
:100B2000CF910C940202FF920F931F93CF93DF9308
:100B30008C01F62EFC018381C62FD0E0882341F181
:100B40008EE30E94120C81E192E00E94100C80E280
:100B500092E00E94100C8F2D90E0A0E0B0E040E108
:100B6000BC01CD010E94290C84E292E00E94100C8D
:100B7000FE013B96EE0FFF1FE00FF11F60817181B8
:100B800080E090E040E10E94290C89E20E941D0C67
:100B900081E08093720381E1809394031092730348
:100BA000109295036F2D83E394E00E9402022B962E
:100BB000CC0FDD1FC00FD11F68817981C8010E9451
:100BC0008605DF91CF911F910F91FF900C94C70C78
:100BD000FC0160870895FC0167830895FC0166832A
:100BE0000895FC0165830895FC01648308950895C8
:100BF000FC0163830895FC01748B638B0895DC0111
:100C00005396ED91FC915497309749F020E030E0F5
:100C100040E050E060E070E080E090E009940895EA
:100C20000895FC01818992890895FC018785908946
:100C30000895FC01858596850895FC01838594853A
:100C40000895FC01818592850895089508950F9374
:100C50001F93CF93DF93EC018A01E881F981028C25
:100C6000F38DE02D0995E881F981068CF78DE02D53
:100C7000B801CE01DF91CF911F910F910994FC0132
:100C8000748763870895FC017287618761307105FD
:100C900019F48CEF91E205C06230710561F480EBCC
:100CA0009DE19687858780E39AE2908B87878AE02B
:100CB00090E0928B818B0895EF92FF920F931F9398
:100CC000CF93DF938C01EB010E944306C130D10525
:100CD00031F0229731F488E0E82EF12C02C0E12CAB
:100CE000F12CF801F58EE48EDF91CF911F910F91D9
:100CF000FF90EF900895FC0180850895FC018781A5
:100D00000895FC0186810895FC0185810895FC0108
:100D100084810895089580E00895CF93DF93EC01D6
:100D200089E292E00E94100CCE01DF91CF910C94E9
:100D3000040CEF92FF920F931F93CF93DF93EC017C
:100D40008B81882359F08EE30E94120C8EE292E090
:100D50000E94100C8DE392E00E94040C81E08093CD
:100D6000720380E1809394031092730310929503B1
:100D70008E01065E1F4F7E0184E2E80EF11CF80131
:100D8000619171918F01CE010E9486050E151F059C
:100D9000B1F7DF91CF911F910F91FF90EF900C94DD
:100DA000C70CCF93DF93EC018B81882359F08EE33E
:100DB0000E94120C80E492E00E94100C8DE392E0FD
:100DC0000E94040CE881F9810480F581E02D60E047
:100DD000CE0109951B8E1A8ECE01DF91CF910C9416
:100DE0009906CF93DF93EC0182E090E00E940E0D14
:100DF000CE010E94EA039BA78AA70E94C70C2AA5DE
:100E00003BA533708AE0829FA001839F500D11247F
:100E10008D859E85840F951F9C878B87DF91CF9151
:100E200008951F93CF93DF93EC01162F8A8D9B8D2E
:100E30009D7F91609B8F8A8F62E0CE010E94930517
:100E400011110CC08A8D9B8D9E7F9B8F8A8F62E0D3
:100E5000CE01DF91CF911F910C949305DF91CF913B
:100E60001F9108951F93CF93DF93EC01162F8A8D66
:100E70009B8D93609B8F8A8F62E0CE010E949305C9
:100E800011110CC08A8D9B8D9E7F9B8F8A8F62E093
:100E9000CE01DF91CF911F910C949305DF91CF91FB
:100EA0001F910895FC016087268D378D662311F010
:100EB000326002C03D7FFC01378F268F64E00C94C6
:100EC0009305FC016783228D338D662311F03F7BF0
:100ED00002C03064FC01338F228F62E00C949305D2
:100EE000FC016683828D938D9C013E7F338F228F20
:100EF000662321F03062338F228F03C09E7D938F53
:100F0000828F62E0CF010C949305FC016583228DF2
:100F1000338D662311F0306101C03F7EFC01338FB9
:100F2000228F62E00C949305FC0164836F7020A112
:100F300031A1207F262B31A320A365E00C949305DB
:100F40000F931F93CF93DF938C01EB01DC0113967A
:100F50008C918823A9F08EE30E94120C85E492E024
:100F60000E94100C88E20E94120CCE01A0E0B0E0BA
:100F70004AE0BC01CD010E94290C89E20E941D0CAF
:100F8000D8015C96ED91FC915D97EF70FF271D965F
:100F90008D919C911E979E01C817D90708F49C015A
:100FA000D8011F964D915C91509770964217530748
:100FB00008F49A01A901481B590BCA016AE070E0C4
:100FC0000E94B10FEB0186E0CC0FDD1F8A95E1F79F
:100FD000CE2BDF2BD8015A968D919C915B9789601F
:100FE000906C5B969C938E935A9762E0C8010E9426
:100FF0009305F801D58FC48F63E0C8010E94930563
:1010000065E0C801DF91CF911F910F910C9493057A
:101010001F93CF93DF93EC018B81882359F08EE3EC
:101020000E94120C82E592E00E94100C8DE392E087
:101030000E94040C10922A03109229031092730349
:10104000109295031092710311E0109370031092A7
:101050004B0382E10E941B0D83E10E941B0D8091D6
:10106000B9008E7F8093B9008091B9008D7F809305
:10107000B90088E48093B80085E48093BC001093A5
:10108000720381E18093940310927303109295038D
:101090000E94C70C811138C08B81882339F08EE300
:1010A0000E94120C87E592E00E94040C84E098E50F
:1010B0009F8B8E8B198E188E83E090E09B8F8A8F8A
:1010C000E881F981028CF38DE02D61E070E0CE01C2
:1010D000099580E098E09F8F8E8F81E890E999A331
:1010E00088A31BA21AA21DA21CA21FA21EA219A69F
:1010F00018A6CE010E94990681E090E09B8F8A8F0E
:1011000062E0CE010E94930581E0DF91CF911F91B3
:101110000895CF93DF9300D000D0CDB7DEB7DC01C8
:10112000ED91FC9106A4F7A5E02DBE016F5F7F4F06
:1011300009958C81811103C08AE692E002C084E6A1
:1011400092E00E94100C8A81811103C08AE692E02D
:1011500002C080E792E00E94100C8B81811103C0D5
:1011600080E892E002C086E792E00E94100C0E94A4
:10117000000C0F900F900F900F90DF91CF9108957A
:10118000CF93DF93CDB7DEB727970FB6F894DEBFC6
:101190000FBECDBFDC01ED91FC9104A4F5A5E02DBF
:1011A000BE016F5F7F4F09958C81811103C08CE771
:1011B00091E002C081E891E00E94100C8D818111C4
:1011C00003C081E992E002C08AE892E00E94100C1C
:1011D0008F81811103C080EA92E002C088E992E029
:1011E0000E94100C88EA92E00E94100C6A8170E064
:1011F00080E090E04AE00E94290C81EB92E00E949E
:10120000100C6B8170E080E090E04AE00E94290CB5
:101210000E94000C27960FB6F894DEBF0FBECDBF1C
:10122000DF91CF910895CF92DF92EF92FF920F93CB
:101230001F93CF93DF931F92CDB7DEB78C016B0165
:10124000DC01ED91FC91048CF58DE02D498309952D
:101250007C01D801ED91FC9100A0F1A1E02DC80125
:1012600009954981C114D104E1F14B30D0F1F60167
:101270001082F1E0EF1AF10822E0E216F10488F59D
:1012800045E0EAE0F0E010E24150242F30E0443045
:1012900011F0009751F02C0D3D1DBF010E94B10FC0
:1012A000805DD9018C93CB0104C0D601A20FB31F7E
:1012B0001C934111E9CFF601848185838381848366
:1012C0008EE2838369EB72E0C60106960F90DF9190
:1012D000CF911F910F91FF90EF90DF90CF900C94E2
:1012E000FB0F0F90DF91CF911F910F91FF90EF9027
:1012F000DF90CF900895DC01FB01108211821282F1
:10130000138214968C911497808317968C9117975B
:10131000818318968C911897828315968C9183837C
:10132000089527E0FB0111922A95E9F7FC018681D7
:10133000FB0185830895EF92FF920F931F93CF9344
:10134000DF937A018901892BA1F561E872E085E4D8
:1013500094E00E94FB0F65E474E08FE494E00E9447
:10136000FB0F6EEB72E089E594E00E94FB0F82E4D4
:10137000EBE6F4E0DF011D928A95E9F71092440450
:10138000E0916304F0916404309719F089E594E0EA
:101390000995E0916704F0916804309709F4F5C06D
:1013A00089EC92E0DF91CF911F910F91FF90EF9028
:1013B0000994CB0188279870892F86958695869504
:1013C0009B012227307F832B8A6080933F041092F9
:1013D0004004109241048A3209F44BC020F48A5030
:1013E000823028F0D2C08A3409F482C0CEC0637043
:1013F000660FE12EF02EE62FF0E0EF01C15CDB4F2F
:101400008E8181132AC0E05CFB4F8681801325C04A
:10141000188B008B109257046630F9F46FE474E077
:1014200085E494E00E94F20F892BB9F469E574E039
:101430008FE494E00E94F20F892B79F06FE474E05E
:1014400089E594E00E94FB0FE0916304F09164044D
:10145000309719F089E594E009958E818E1104C0CA
:101460008F818F1509F491C01E830F8310924D0454
:101470008CC0862F807180934204E62FEF70CE2FB0
:10148000CC0FCC0F80914404C81748F4E091670456
:10149000F0916804309719F08BE694E00995C093B9
:1014A00044048091420490914304891749F0809349
:1014B000430482E4EBE6F4E0DF011D928A95E9F74C
:1014C000EC2FF0E0E15CFB4FF4A6E1E0EC0FF0E084
:1014D000E15CFB4FE4A6E2E0EC0FF0E0E15CFB4FE7
:1014E00014A7E3E0EC0FF0E0E15CFB4F04A74DC074
:1014F000C80126E0969587952A95E1F78F7399277D
:10150000B1E0EB22FF2434E0EE0CFF1C3A95E1F74A
:10151000A801452F552742954F70E42AF52A4CE340
:101520004E9D90014F9D300D1124820F931F202F4F
:101530002F7105FF06C03EE1239F801991091124F8
:1015400005C0AEE12A9F800D911D1124E091650434
:10155000F09166043097C9F02091690430916A04D3
:101560008217930791F090936A04809369046CE367
:1015700070E00E94B10F962F682F892FDF91CF91D5
:101580001F910F91FF90EF900994DF91CF911F91E0
:101590000F91FF90EF900895EF92FF920F931F939A
:1015A000CF93DF938C018CE090E00E940E0DE80158
:1015B000AA96780186E3E80EF11CC8010E94EA03AE
:1015C00089939993CE15DF05C1F7DF91CF911F91D4
:1015D0000F91FF90EF900C94C70CCF93DF93EB012A
:1015E0006031710520F480E30E94120C04C06F3F4B
:1015F000710509F020F480E30E94120C03C061150C
:10160000704118F480E30E94120CBE0180E090E06B
:1016100040E10E94290C80E2DF91CF910C94120CE2
:10162000833081F028F4813099F08230A1F0089560
:101630008730A9F08830B9F08430D1F480918000EF
:101640008F7D03C0809180008F7780938000089504
:1016500084B58F7702C084B58F7D84BD0895809155
:10166000B0008F7703C08091B0008F7D8093B00071
:101670000895CF93DF93282F30E0F901E853FF4F0F
:101680008491F901EC54FF4FD491F901E056FF4FDA
:10169000C491CC2391F081110E94100BEC2FF0E04B
:1016A000EE0FFF1FE457FF4FA591B491EC91ED238E
:1016B00081E090E021F480E002C080E090E0DF91E2
:1016C000CF910895CF93DF9390E0FC01EC54FF4F4E
:1016D0002491FC01E056FF4F8491882361F190E052
:1016E000880F991FFC01EE57FF4FC591D491FC0163
:1016F000EA56FF4FA591B491611109C09FB7F894C4
:101700008881209582238883EC912E230BC0623040
:1017100061F49FB7F8943881822F80958323888362
:10172000EC912E2B2C939FBF06C08FB7F894E881C5
:101730002E2B28838FBFDF91CF9108953FB7F89468
:101740008091BF049091C004A091C104B091C204E3
:1017500026B5A89B05C02F3F19F00196A11DB11D0C
:101760003FBFBA2FA92F982F8827820F911DA11D47
:10177000B11DBC01CD0142E0660F771F881F991F84
:101780004A95D1F70895CF92DF92EF92FF920F938F
:101790001F93CF93DF936C017A018B01C0E0D0E0FF
:1017A000CE15DF0589F0D8016D918D01D601ED913F
:1017B000FC910190F081E02DC6010995892B11F46F
:1017C0007E0102C02196ECCFC701DF91CF911F911E
:1017D0000F91FF90EF90DF90CF900895009769F000
:1017E000FC0101900020E9F73197AF01481B590B2C
:1017F000BC0186E993E00C94C30B80E090E008956F
:1018000087EC92E00C94EE0BCF93DF930E94EE0BEB
:10181000EC010E94000C8C0F9D1FDF91CF91089569
:101820000C94EE0BE0919603F09197030190F081F8
:10183000E02D682F86E993E00994CF93DF930E940F
:10184000120CEC010E94000C8C0F9D1FDF91CF91B8
:1018500008958F929F92AF92BF920F931F93CF9351
:10186000DF93CDB7DEB7A1970FB6F894DEBF0FBEFA
:10187000CDBF19A2423008F44AE08E010F5D1F4F20
:10188000842E912CA12CB12CA50194010E94C50F8E
:10189000E62FB901CA0101501109EA3014F4E05DE4
:1018A00001C0E95CD801EC93232B242B252B61F795
:1018B000C8010E94EE0BA1960FB6F894DEBF0FBED2
:1018C000CDBFDF91CF911F910F91BF90AF909F90AF
:1018D0008F900895382F2091950390919403213291
:1018E00008F049C0809171038111FCCF42E0409320
:1018F0007103309370033FEF30936F0310926E03C8
:1019000020936D03A4E7B3E04DE453E0FA013E2FCA
:10191000341B321718F43D913193F9CF10924C03D8
:1019200020914C03990F922B90934C0390914B0371
:10193000913061F410924B0390914C039093BB0053
:101940009091BC0093FDF8CF95EC01C095EE90937B
:10195000BC00909171039230E1F390916F039F3F2F
:1019600079F080916F03803241F080916F03803372
:1019700031F084E005C081E003C082E001C083E073
:10198000109273031092950310927203089581E0F0
:101990000C946A0C909171039111FCCF91E090939B
:1019A0007103409370032FEF20936F0310926E0327
:1019B000260F20936D0390934C0390914C03880F56
:1019C000892B80934C0380914B03813061F41092FA
:1019D0004B0380914C038093BB008091BC0083FD3E
:1019E000F8CF85EC01C085EE8093BC008091710337
:1019F0008130E1F380916E03861710F460916E03DD
:101A0000ADE4B3E02BE233E0F9018E2F821B8617A1
:101A100018F48D918193F9CF862F0895813208F0C3
:101A200080E241E0682F80E10E94CA0C10922A03F4
:101A3000809329030895CF93DF93282F30E0F90195
:101A4000E853FF4F8491F901EC54FF4FD491F90111
:101A5000E056FF4FC491CC2389F081110E94100BF6
:101A6000EC2FF0E0EE0FFF1FEA56FF4FA591B49167
:101A70008FB7F894EC91ED2BEC938FBFDF91CF9162
:101A80000895CF92DF92EF92FF92CF93DF936C0194
:101A9000990FEE08FF08F7FE17C08DE20E94120CA6
:101AA000EC0166277727CB016C197D098E099F0908
:101AB0004AE00E94290C8C0F9D1FDF91CF91FF906F
:101AC000EF90DF90CF9008954AE0C701B601DF9113
:101AD000CF91FF90EF90DF90CF900C94290C1F9244
:101AE0000F920FB60F9211242F933F938F939F93D2
:101AF000AF93BF938091BB049091BC04A091BD04AF
:101B0000B091BE043091BA0423E0230F2D3720F4A6
:101B10000196A11DB11D05C026E8230F0296A11D47
:101B2000B11D2093BA048093BB049093BC04A0938E
:101B3000BD04B093BE048091BF049091C004A091F5
:101B4000C104B091C2040196A11DB11D8093BF04D0
:101B50009093C004A093C104B093C204BF91AF910D
:101B60009F918F913F912F910F900FBE0F901F90DB
:101B70001895E6E9F3E01382128288EE93E0A0E084
:101B8000B0E084839583A683B78328E031E0318376
:101B9000208325EC30E03587248724EC30E037873C
:101BA000268720EC30E0318B208B21EC30E0338B2A
:101BB000228B22EC30E0358B248B26EC30E0378B07
:101BC000268B118E128E138E148EE3E3F4E01382B3
:101BD000128284839583A683B7838AE191E09183FF
:101BE0008083E3ECF4E085E1DF011D928A95E9F75B
:101BF0008CE291E0918380838FE0858B8EE6EFE32A
:101C0000F4E0DF011D928A95E9F70895CF93DF9301
:101C1000CDB7DEB72C970FB6F894DEBF0FBECDBFA1
:101C2000789484B5826084BD84B5816084BD85B5B7
:101C3000826085BD85B5816085BD80916E008160C3
:101C400080936E0010928100809181008260809369
:101C5000810080918100816080938100809180006B
:101C60008160809380008091B10084608093B10096
:101C70008091B00081608093B00080917A00846090
:101C800080937A0080917A00826080937A008091BC
:101C90007A00816080937A0080917A0080688093D6
:101CA0007A001092C10060E082E00E94620B60E066
:101CB00083E00E94620B60E085E00E94620B61E0BD
:101CC0008DE00E94620BE091A603F091A70382E0F1
:101CD0008083E091A203F091A3031082E091A4031A
:101CE000F091A5038FEC80831092AE03E091AA03DC
:101CF000F091AB0386E08083E091A803F091A90303
:101D0000808180618083E091A803F091A9038081A4
:101D100088608083E091A803F091A90380818068A6
:101D20008083E091A803F091A90380818F7D808357
:101D30008AEC92E00E94040C0E949E0B4B015C0115
:101D400084EFC82EDD24D394E12CF12C0E949E0B4D
:101D5000DC01CB0188199909AA09BB09883E934087
:101D6000A105B10558F021E0C21AD108E108F10837
:101D700088EE880E83E0981EA11CB11CC114D1040A
:101D8000E104F10419F783EC94E00E94080883EC65
:101D900094E00E94F1069093B9048093B804BC01CA
:101DA00080E090E04AE00E94290C0E94000C81E053
:101DB0008093C6040EE710E0F8014591549161E06C
:101DC00070E083EC94E00E942706F801659174911D
:101DD00083EC94E00E94A00760E083EC94E00E9412
:101DE000700760E083EC94E00E94610765E083EC9B
:101DF00094E00E9494078BE999E09093D704809334
:101E0000D6048DE896E090936404809363048FB7C2
:101E1000F894C090BB04D090BC04E090BD04F09056
:101E2000BE048FBF82E00E94390B892B49F483EDF9
:101E300092E00E94040C61E083EC94E00E9432077F
:101E400083E00E94390B892B49F486ED92E00E94D1
:101E5000040C61E083EC94E00E94110783EC94E0B1
:101E60000E9400058091000190910101A091020162
:101E7000B09103018C159D05AE05BF0508F06EC03D
:101E800083EC94E00E94F1069093B9048093B80427
:101E90002091B6043091B70482179307C1F04CE04B
:101EA000BE016F5F7F4F83EC94E00E9413098BEDBE
:101EB00092E00E94100CCE0101960E94040C8091C9
:101EC000B8049091B9049093B7048093B6046FEA74
:101ED00074E083EC94E00E9437028091B004809318
:101EE000AE049091AD04891759F16FEA74E083EC68
:101EF00094E00E9437028AEA92E00E94100C6091FE
:101F0000B00470E080E090E04AE00E94290C0E945A
:101F1000000C8091B204882311F082E501C08DE2AB
:101F20009091B504992311F013E501C01DE20E94C0
:101F3000120C812F0E941D0C8091AE048093AD0481
:101F400088EEC80E83E0D81EE11CF11CC09200018F
:101F5000D0920101E0920201F09203010E946A0115
:101F600056CFAA1BBB1B51E107C0AA1FBB1FA61758
:101F7000B70710F0A61BB70B881F991F5A95A9F732
:101F800080959095BC01CD010895A1E21A2EAA1B5F
:101F9000BB1BFD010DC0AA1FBB1FEE1FFF1FA21719
:101FA000B307E407F50720F0A21BB30BE40BF50B16
:101FB000661F771F881F991F1A9469F7609570959F
:101FC000809590959B01AC01BD01CF010895EE0F66
:101FD000FF1F0590F491E02D099481E090E0F894C2
:101FE0000C940210FB01DC018D910190801901100D
:101FF000D9F3990B0895FB01DC0101900D920020AB
:08200000E1F70895F894FFCF09
:1020080090010000000000000101C30B9900480185
:10201800CA00A800BC00000000000202D20132027F
:10202800A601CA01B601A701000000000808D106F0
:102038009407870661077E0652077B068507840694
:102048001906150611065C062106A007F1062706E3
:10205800320711077007810637027B090005FF0563
:10206800FB051309F805C0088908010420537465A5
:1020780072656F00204D6F6E6F202000202D2D2D72
:102088000020524453004672657175656E63793D50
:10209800002050493D00205369673D003020202032
:1020A80020312020202032202020203320202020F2
:1020B80034202020203520202020362020202037C2
:1020C80020202020382020202039202020204120B6
:1020D800202020422020202043202020204420208F
:1020E80020204520202020460042617373426F6FF4
:1020F800737420004D6F6E6F2000566F6C756D65A0
:102108003D00424C4F434B5F4520666F756E642E11
:10211800002D5F7361766552656769737465720037
:10212800283078002C203078005244533A002D7320
:102138006176655265676973746572730028290052
:102148007465726D007365744672657175656E634A
:102158007900696E697400726164696F20666F75D1
:102168006E642E00204241535300202D2D2D2D004A
:10217800204D5554450020534F46544D5554450065
:10218800202D2D2D2D2D2D2D2D002054554E45441F
:1021980000202D2D2D2D2D002053544552454F0044
:1021A80020204D4F4E4F20002020525353493A20B3
:1021B800002020534E523A2000204D487A0020201B
:1021C800202020202020000D0A00526164696F2E13
:1021D8002E2E00557000446F776E00465245513AD6
:0221E8000000F5
:00000001FF
