:100000000C94D6020C94FE020C94FE020C94FE0298
:100010000C94FE020C94FE020C94FE020C94FE0260
:100020000C94FE020C94FE020C94FE020C94FE0250
:100030000C94FE020C94FE020C94FE020C94FE0240
:100040000C9470140C94FE020C94C1100C949B1030
:100050000C94FE020C94FE020C94FE020C94FE0220
:100060000C94F3100C94FE02000000002300260004
:10007000290000030C0F30333C3FC0C3CCCFF0F35A
:10008000FCFFAED580A83FD300408D142002A1C84C
:10009000DA12817FD9F1DB40A4A6AF2E22CE224610
:1000A000237823A023182458258025A825D0253C73
:1000B00028E628F42919920A0C2060020104080697
:1000C0000B080103030507020401050605060607E0
:1000D00006060606060102070707050A08060707BF
:1000E00006060707030406060807080608070607AA
:1000F00007080B060706030503080802060605069F
:1001000006040606010305010906060606040505A0
:10011000060509050505050105080900000000FEA2
:100120002007000007000000008090F89690F896E5
:100130001000300000300000001824FF44448420E8
:1001400020F02020101C22221C80700CC22020C015
:100150000000002010000010202010DC2222225C71
:1001600080600010202020201010200700F80601D9
:100170001060800106F88060100A041F040A000065
:10018000000000404040F8404040000000300000C7
:10019000000000807040404040000000000030003F
:1001A00000E01C038070000000FC02020202FC1050
:1001B00020202020100404FE000020203020200CED
:1001C000824242221C3020202020200402222222AF
:1001D000DC10202020201060504844FE40400000E9
:1001E00000003000001E12121212E2102020202007
:1001F00010F814121212E0102020202010020282A7
:10020000621A06002010000000DC22222222DC10EC
:1002100020202020103C42424242FC00202020109E
:100220000018300018807040A0A0101008080000CE
:10023000001010202050505050505050000000002E
:1002400000000008081010A0A0402020101000009E
:10025000000402E2221C0000200000F00C04F20A5C
:100260000AFA040CF00030204050505010100000EA
:10027000E098868698E0003000000000000030FE24
:100280002222223CC0302020202010F8040202024A
:10029000020400102020202010FE0202020204F8B6
:1002A00030202020201000FE222222222230202076
:1002B000202020FE2222222202300000000000F82E
:1002C0000402022222E400102020202010FE202020
:1002D000202020FE3000000000003002FE0220300E
:1002E00020000202FE20202010FE20508804023050
:1002F0000000001020FE0000000000302020202020
:1003000020FE0638C0C03806FE30000000000000A5
:1003100030FE061820C000FE30000000003030F82B
:10032000040202020204F80010202020201000FE27
:10033000424242423C300000000000F80402020247
:100340000204F80010202020609080FE222262A289
:100350001C00300000000010201C22222222C410A9
:100360002020202010020202FE02020200000030C3
:10037000000000FE0000000000FE00102020201001
:10038000000638C00000C038060000003030000011
:10039000001EE000C0380638C000E01E000030003B
:1003A00000000000300000068870708806300000F1
:1003B000000030020C10E0100C02000000300000C1
:1003C00000028262120A06302020202020FF010154
:1003D000F08080031C60800000000030C00101FF3D
:1003E0008080F010080402020408100000000000E1
:1003F000000000000000000000000080808080807D
:10040000808080010200008048484848F010202089
:10041000202030FF10080808F0302020202010F0A5
:10042000080808101020202010F008080808FF1005
:100430002020201030F0484848487010202020200C
:100440001008FE090900300000F008080808F8103C
:10045000A0A0A09070FF10080808F0300000000075
:1004600030F9300008F9808070FF40A0100830009B
:10047000001020FF30F8080808F0080808F03000E5
:1004800000003000000030F810080808F0300000CC
:10049000000030F008080808F0102020202010F894
:1004A00010080808F0F02020202010F008080808A4
:1004B000F81020202010F0F810080830000000305C
:1004C00048484888202020201008FE08080800100E
:1004D000202020F800000000F81020202010301804
:1004E000E000E018000030000018E000E018E00034
:1004F000E01800003000000030000018A040A018F4
:10050000300000003018E000E018008070000008A3
:100510008848281830202020202020DE01010000FB
:10052000708080FFF00101DE20208080700000C01C
:10053000202040408080600000000000000000FE9D
:1005400002020202020202FE30202020202020208F
:100550003082001980400000000000240027002A9B
:100560000000000000250028002B000404040404FF
:100570000404040202020202020303030303030150
:100580000204081020408001020408102001020427
:10059000081020000000080002010000030407000A
:1005A00000000000000000008317591511241FBE31
:1005B000CFEFD8E0DEBFCDBF25E0AEE4B3E001C0B1
:1005C0001D92A83CB207E1F713E0A0E0B1E0E0E142
:1005D000F6E302C005900D92AE34B107D9F712E0F0
:1005E000C5EDD2E004C02197FE010E94E018C43D91
:1005F000D107C9F70E946B150C94FB1A0C940000EC
:10060000FC0163830895FC01748B638B0895DC0106
:100610005396ED91FC915497309749F020E030E0EB
:1006200040E050E060E070E080E090E009940895E0
:100630000895FC01818992890895FC01878590893C
:100640000895FC01858596850895FC018385948530
:100650000895FC01818592850895089508950F936A
:100660001F93CF93DF93EC018A01E881F981028C1B
:10067000F38DE02D0995E881F981068CF78DE02D49
:10068000B801CE01DF91CF911F910F910994FC0128
:10069000748763870895FC017287618761307105F3
:1006A00019F48CEF91E205C06230710561F480EBC2
:1006B0009DE19687858780E39AE2908B87878AE021
:1006C00090E0928B818B0895FC0180850895FC0158
:1006D00060870895FC0187810895FC016783089570
:1006E000FC0186810895FC0166830895FC018581E3
:1006F0000895FC0165830895FC0184810895FC013F
:1007000064830895089580E00895CF93DF93EC010A
:100710009C818E81981758F4E881F9810084F185D5
:10072000E02D42E0CE0109958C818F5F8C83DF91B3
:10073000CF910895FC016093BC008091BC0087FFBD
:10074000FCCF9091B900987F90830895CF92DF926B
:10075000EF92FF920F931F93CF93DF93EC01C62E7E
:10076000D42E8F85882351F0411108C084E98093ED
:10077000BC008091BC0084FDFCCF1F86EF848E01FD
:10078000035F1F4FE11014C0FE8464EAC8010E9499
:100790009A038D85883011F1803101F1DD2011F04F
:1007A00080E4E82EE092BB0064E8C8010E949A034E
:1007B000C092BB0064E8C8010E949A0382E0D8128C
:1007C00004C08F858F5F8F8711C084E98093BC0040
:1007D0008091BC0084FDFCCF1F8608C0FF0CF09206
:1007E000BB0064E8C8010E949A03D8CFDF91CF9183
:1007F0001F910F91FF90EF90DF90CF900895089593
:1008000080E090E00895CF93DF9300D000D0CDB783
:10081000DEB7DC01ED91FC9106A4F7A5E02DBE0149
:100820006F5F7F4F09958C81811103C068E871E08B
:1008300002C062E871E084E194E00E9457158A8169
:10084000811103C068E871E002C06EE871E084E1E4
:1008500094E00E9457158B81811103C06EE971E00D
:1008600002C064E971E084E194E00E94571584E1DC
:1008700094E00E9441150F900F900F900F90DF9120
:10088000CF910895CF93DF93CDB7DEB727970FB6FB
:10089000F894DEBF0FBECDBFDC01ED91FC9104A446
:1008A000F5A5E02DBE016F5F7F4F09958C81811109
:1008B00003C06DEA71E002C068EA71E084E194E08F
:1008C0000E9457158D81811103C069EB71E002C050
:1008D00062EB71E084E194E00E9457158F818111F1
:1008E00003C068EC71E002C060EC71E084E194E068
:1008F0000E94571560ED71E084E194E00E94571565
:100900004A8150E060E070E02AE084E194E00E94D7
:10091000BA1469ED71E084E194E00E9457154B81AF
:1009200050E060E070E02AE084E194E00E94BA14B4
:1009300084E194E00E94411527960FB6F894DEBF3B
:100940000FBECDBFDF91CF910895CF92DF92EF928E
:10095000FF920F931F93CF93DF931F92CDB7DEB714
:100960008C016B01DC01ED91FC91048CF58DE02D87
:10097000498309957C01D801ED91FC9100A0F1A17A
:10098000E02DC80109954981C114D104E1F14B3032
:10099000D0F1F6011082F1E0EF1AF10822E0E21640
:1009A000F10488F545E0EAE0F0E010E24150242F40
:1009B00030E0443011F0009751F02C0D3D1DBF0187
:1009C0000E94AA18805DD9018C93CB0104C0D60186
:1009D000A20FB31F1C934111E9CFF60184818583D7
:1009E000838184838EE2838361EE71E0C601069683
:1009F0000F90DF91CF911F910F91FF90EF90DF90BB
:100A0000CF900C94F41A0F90DF91CF911F910F911A
:100A1000FF90EF90DF90CF900895DC01FB011082F2
:100A200011821282138214968C91149780831796E8
:100A30008C911797818318968C91189782831596BD
:100A40008C918383089527E0FB0111922A95E9F7A1
:100A5000FC018681FB0185830895EF92FF920F933D
:100A60001F93CF93DF937A018901892BA1F56FE959
:100A700071E081E195E00E94F41A61E175E08BE19B
:100A800095E00E94F41A66EE71E085E295E00E941E
:100A9000F41A82E4E7E3F5E0DF011D928A95E9F7B5
:100AA00010921005E0912F05F0913005309719F064
:100AB00085E295E00995E0913305F0913405309792
:100AC00009F4F5C08CE493E0DF91CF911F910F9171
:100AD000FF90EF900994CB0188279870892F869515
:100AE000869586959B012227307F832B8A60809391
:100AF0000B0510920C0510920D058A3209F44BC0BB
:100B000020F48A50823028F0D2C08A3409F482C09E
:100B1000CEC06370660FE12EF02EE62FF0E0EF01FD
:100B2000C55FDA4F8E8181132AC0E45FFA4F868158
:100B3000801325C0188B008B109223056630F9F4C2
:100B40006BE175E081E195E00E94EB1A892BB9F425
:100B500065E275E08BE195E00E94EB1A892B79F054
:100B60006BE175E085E295E00E94F41AE0912F05B3
:100B7000F0913005309719F085E295E009958E8166
:100B80008E1104C08F818F1509F491C01E830F83CD
:100B9000109219058CC0862F807180930E05E62F68
:100BA000EF70CE2FCC0FCC0F80911005C81748F4F2
:100BB000E0913305F0913405309719F087E395E023
:100BC0000995C093100580910E0590910F05891726
:100BD00049F080930F0582E4E7E3F5E0DF011D9221
:100BE0008A95E9F7EC2FF0E0E55FFA4FF4A6E1E033
:100BF000EC0FF0E0E55FFA4FE4A6E2E0EC0FF0E086
:100C0000E55FFA4F14A7E3E0EC0FF0E0E55FFA4F81
:100C100004A74DC0C80126E0969587952A95E1F76F
:100C20008F739927B1E0EB22FF2434E0EE0CFF1C18
:100C30003A95E1F7A801452F552742954F70E42AD0
:100C4000F52A4CE34E9D90014F9D300D1124820FEB
:100C5000931F202F2F7105FF06C03EE1239F8019AF
:100C60009109112405C0AEE12A9F800D911D112428
:100C7000E0913105F09132053097C9F020913505AA
:100C8000309136058217930791F090933605809343
:100C900035056CE370E00E94AA18962F682F892F03
:100CA000DF91CF911F910F91FF90EF900994DF9109
:100CB000CF911F910F91FF90EF900895DC01ED917E
:100CC000FC910084F185E02D40E009940F931F937F
:100CD000CF938C01FC0164839085C62FC90F6C2FC4
:100CE0006F70C8010E945E066C2F62956F70606124
:100CF000C801CF911F910F910C945E060F931F9323
:100D0000CF93DF931F92CDB7DEB78C01FC018681B4
:100D1000681728F4C80149830E9466064981F801D2
:100D20008781869586958695481758F44583642F64
:100D3000606BC8010F90DF91CF911F910F910C94C0
:100D40005E060F90DF91CF911F910F910895CF9282
:100D5000DF92EF92FF920F931F93CF93DF93EC01FB
:100D6000F62EC42ED22E8F818695869586950817ED
:100D700010F00FEF080F1D2D011780F0412F6F2D80
:100D8000CE010E947E06EF2CCE1430F060E0CE0142
:100D90000E948503E394F8CF1F5FEECF4D2D6F2D9A
:100DA000CE01DF91CF911F910F91FF90EF90DF90D7
:100DB000CF900C947E060F931F93DC0115962C9117
:100DC00015971B96ED91FC911C97309749F033963F
:100DD000E49119960C911997E09FE02D112401C020
:100DE000E0E08FEF820F0E2F10E0095F1F4F93E0BE
:100DF000159507959A95E1F7080F16964C91169759
:100E0000415014966C911497CD010E94A7061F9132
:100E10000F9108952F923F924F925F926F927F921F
:100E20008F929F92AF92BF92CF92DF92EF92FF92FA
:100E30000F931F93CF93DF93CDB7DEB727970FB6EE
:100E4000F894DEBF0FBECDBFFC01038514850115EC
:100E5000110509F42FC19F838E83F801B491319657
:100E60004491319654903196A491EA2EF12CF7E0FA
:100E7000EF0EF11C93E0F594E7949A95E1F7EB827D
:100E8000F801349674913196E491671758F0862FE3
:100E900090E02E2F30E0F901E70FF11D8E179F072C
:100EA0000CF448C06D3061F4EE81FF8186818823A7
:100EB00009F43DC060E08E819F810E94660637C0C4
:100EC0006A3009F0F7C0EE81FF81818515818E9D22
:100ED000100D11248781869586958695181730F018
:100EE0008285882319F082E0828710E0412F60E03C
:100EF0008E819F810E947E06EE81FF8182858230F5
:100F0000B0F0CF010E94DB06EE81FF818185612F69
:100F10008E9D600D1124660F660F660F8781861700
:100F200008F460E060648E819F810E945E0681E02B
:100F300090E0C2C050E05B2BC8010696671BEE81B3
:100F4000FF81F185F9834230510588F4452B09F082
:100F500019825E9C90015F9C300D1124629F80017C
:100F6000639F100D1124080F191F412C24C0EA2F74
:100F7000E77021F048E0442E4E1A01C0412CA82F02
:100F8000FC0140E050E07E2F7A1B761728F4749124
:100F9000470F511D3196F7CFFC01E60FF11D54901C
:100FA0004E9D80014F9D100D5E9D100D1124020F6E
:100FB000131F080F191FEE81FF81F481FC83EE815E
:100FC000FF813580652C712CCC24C394D12C812CCD
:100FD000912C7FEF7C0D7A838B81781708F05CC0B1
:100FE000212CEE81FF818185281608F04FC07A817F
:100FF000711102C0222041F0EE81FF8145814F5FD7
:101000006C81CF010E947E06A12CB12CA51488F51D
:10101000F501E80DF91DE00FF11F2491442061F066
:10102000CE14DF0449F4E22FF0E0042C02C0F59561
:10103000E7950A94E2F72E2FEE81FF8181858230B9
:1010400079F4E22F2110E295EF70F0E0EE58FF4FB7
:101050002491622F8E819F812D830E9485032D8193
:10106000622F8E819F810E948503FFEFAF1ABF0A16
:10107000CDCFB12C7981B71639F060E08E819F8198
:101080000E948503B394F6CF2394ABCF860C971CB4
:10109000FFEFCF1ADF0A9DCFEE81FF818781869512
:1010A00086958695381608F042CF3582632D606BA1
:1010B000CF013BCF80E090E027960FB6F894DEBFDB
:1010C0000FBECDBFDF91CF911F910F91FF90EF9099
:1010D000DF90CF90BF90AF909F908F907F906F9058
:1010E0005F904F903F902F9008950F931F93CF9351
:1010F000DF938C01CFEAD5E081E0898740E060E0B2
:10110000CE010E947E066FEE71E0CE010E9457155F
:10111000CE010E94DB0682E0898742E060E0CE01DA
:101120000E947E06CE010E94DB06B801CE01DF914F
:10113000CF911F910F910C9457150F93CF93DF937D
:10114000EC010F8106950695069501504E814150A0
:1011500020E060E00E94A70681E09A85911101C01D
:1011600080E08A8760E4CE01DF91CF910F910C94EB
:101170005E06CF92DF92EF92FF920F931F93CF9371
:10118000DF93EC01898182FD34C085FD32C02A8164
:1011900030E0F901ED56FA4F8491F901E158FA4F28
:1011A0000491F901E559FA4F14911123A1F081112D
:1011B0000E94A113E12FF0E0EE0FFF1FE859FF4F4F
:1011C000A591B491EC91E02331E020E009F430E006
:1011D000832F922F02C080E090E0298123FB3327E8
:1011E00030F926952170232731E0832781708227EB
:1011F0008A8B8FB7F8944091A3035091A403609118
:10120000A5037091A6038FBF9A892B8988819923A2
:1012100021F1211122C080FD07C0816088834E87A3
:101220005F87688B798B3BC00E851F85288939893C
:101230006A017B01C01AD10AE20AF30A0B811C8100
:1012400020E030E0C016D106E206F30640F121E0CE
:101250002B8B80628068888322C08E7F8883911167
:101260001EC02223E1F01B8A81FD03C08B858F5FA6
:101270008B8788818D7F806188834E875F87688BAD
:10128000798B86FF04C01C861B868F7B88838881B0
:1012900087FF05C08F7788838981816089838B89E7
:1012A000882309F19923F9F08E859F85A889B9894A
:1012B0008A019B01081B190B2A0B3B0B8D819E8118
:1012C000A0E0B0E0081719072A073B0760F0888103
:1012D00081FD09C09B859D878A648F7788834E87AF
:1012E0005F87688B798B8E859F85A889B989481B14
:1012F000590B6A0B7B0B8F819885A0E0B0E04817F3
:1013000059076A077B0740F08B85882329F08C8773
:101310001B86888184608883DF91CF911F910F9114
:10132000FF90EF90DF90CF900895CF93DF93EC0183
:10133000898184FF03C0CE010E94B908988192FB85
:10134000882780F992FF08C02C85213021F41C8663
:101350009B7F988301C080E0DF91CF9108959091A9
:101360004E03913091F030F0923009F03DC068EFBB
:1013700071E03CC061E0813021F489E795E00C9494
:10138000AE0C89E795E00C948D0C20910001309112
:101390000101813059F42C3031051CF42F5F3F4F8F
:1013A0000AC0109201011092000110C0121613061B
:1013B0003CF421503109309301012093000106C013
:1013C0008CE090E09093010180930001E091000196
:1013D000F0910101EE0FFF1FE556FF4F65917491EB
:1013E00089E795E00C94CE0C6EEF71E084E194E017
:1013F0000C944515CF93C82F81E08093B80546E043
:1014000060E08FEA95E00E947E0686E0C89FF001CA
:101410001124E354FB4F44815581608171818FEA2F
:1014200095E00E946E128FEA95E0CF910C94DB0656
:101430000F931F93CF93DF93CDB7DEB72C970FB6E3
:10144000F894DEBF0FBECDBF4CE0BE016F5F7F4F93
:1014500089E795E00E94A5040FEA15E081E0F80114
:10146000818740E060E0C8010E947E066AE072E089
:10147000C8010E94451582E0F8018187BE016F5FB7
:101480007F4FC8010E945715C8010E94DB062C96A9
:101490000FB6F894DEBF0FBECDBFDF91CF911F9185
:1014A0000F9108950895CF92DF92EF92FF920F93DC
:1014B0001F93CF93DF937C01262F972F8A01809172
:1014C000F003882391F0C62FD72F6E01C40ED51ECE
:1014D000CC15DD0571F06991D701ED91FC9101907A
:1014E000F081E02DC7010995F3CF642F822F0E9470
:1014F0002112C801DF91CF911F910F91FF90EF90C2
:10150000DF90CF900895CF93DF931F92CDB7DEB7D2
:1015100069832091F0032223D1F02091130420321B
:1015200040F021E030E0FC013383228380E090E052
:1015300015C08091F103E82FF0E0EE50FC4F998147
:1015400090838F5F8093F1038093130405C061E063
:10155000CE0101960E94211281E090E00F90DF9170
:10156000CF910895CF93C62F672F81EB94E00E940F
:10157000830A6C2F81EB94E0CF910C94830AEF9255
:10158000FF920F931F93CF93DF93EC018B818823FE
:1015900079F08EE30E9496136CE172E084E194E0AE
:1015A0000E9457156BE272E084E194E00E944515B9
:1015B00081E08093F00380E1809312041092F103A4
:1015C000109213048E01065E1F4F7E0184E2E80E26
:1015D000F11CF801619171918F01CE010E94B20A54
:1015E0000E151F05B1F7DF91CF911F910F91FF905D
:1015F000EF900C944213CF93DF93EC018B818823FF
:1016000079F08EE30E9496136EE272E084E194E03A
:101610000E9457156BE272E084E194E00E94451548
:10162000E881F9810480F581E02D60E0CE01099523
:101630001B8E1A8ECE01DF91CF910C94BF0A1F939F
:10164000CF93DF9381EB94E00E946810182F81EB19
:1016500094E00E946810D12F20E0C22F9E01280F35
:10166000311DC901DF91CF911F9108951F93CF9331
:10167000DF93FC0123893489232B09F47BC0EC011F
:1016800082E090E00E948913CE010E941F0B9BA76D
:101690008AA70E9442138AA59BA593FF0CC08B8149
:1016A000882349F08EE30E94961363E372E084E19D
:1016B00094E00E9445158AA59BA597FF5BC081E039
:1016C0008093F00381E1809312041092F103109251
:1016D00013046CE081EB94E00E94830A80E00E9496
:1016E000E51241E068E081E10E9445131092A803F1
:1016F0008093A703CE010E941F0B2EA53FA5821742
:10170000930721F09FA78EA711E001C010E0CE0142
:101710000E941F0B28A939A98217930719F099ABCA
:1017200088AB11E0CE010E941F0B2AA93BA98217AA
:10173000930719F09BAB8AAB11E0CE010E941F0BFF
:101740002CA93DA98217930719F09DAB8CAB11E032
:101750000E944213112371F02CA93DA94AA95BA94B
:1017600068A979A9EB89FC898EA59FA5DF91CF9106
:101770001F910994DF91CF911F910895EF92FF92ED
:101780000F931F93CF93DF938C018CE090E00E9426
:101790008913E801AA96780186E3E80EF11CC801D6
:1017A0000E941F0B89939993CE15DF05C1F7DF9136
:1017B000CF911F910F91FF90EF900C9442130F93D4
:1017C0001F93CF93DF938C01EB010E942305C80187
:1017D0000E94BE0B21E02883F80182A593A592FD0B
:1017E0002E8397FF02C081E08B83F80185A5869543
:1017F0008695898384A595A590FF02C081E08C839E
:10180000F801828D938D95FF02C081E08D83DF9179
:10181000CF911F910F910895CF93DF93EC0182E058
:1018200090E00E948913CE010E941F0B9BA78AA7FC
:101830000E9442132AA53BA533708AE0829FA00133
:10184000839F500D11248D859E85840F951F9C8745
:101850008B87DF91CF910895FF920F931F93CF93C2
:10186000DF938C01F62EFC018381C62FD0E0882304
:10187000A1F18EE30E94961362E472E084E194E0A9
:101880000E94571561E572E084E194E00E945715CB
:101890004F2D50E060E070E020E184E194E00E9490
:1018A000BA1465E572E084E194E00E945715FE01E8
:1018B0003B96EE0FFF1FE00FF11F4081518160E06A
:1018C00070E020E184E194E00E94BA1489E20E9471
:1018D000961384E194E00E94411581E08093F00327
:1018E00081E1809312041092F103109213046F2D82
:1018F00081EB94E00E94830A2B96CC0FDD1FC00F72
:10190000D11F68817981C8010E94B20ADF91CF910D
:101910001F910F91FF900C9442131F93CF93DF936D
:10192000EC01162F8A8D9B8D9D7F91609B8F8A8FF6
:1019300062E0CE010E942C0C11110CC08A8D9B8D8F
:101940009E7F9B8F8A8F62E0CE01DF91CF911F91A6
:101950000C942C0CDF91CF911F9108951F93CF937E
:10196000DF93EC01162F8A8D9B8D93609B8F8A8F5E
:1019700062E0CE010E942C0C11110CC08A8D9B8D4F
:101980009E7F9B8F8A8F62E0CE01DF91CF911F9166
:101990000C942C0CDF91CF911F9108950F931F93FE
:1019A000CF93DF938C01EB01DC0113968C9188239C
:1019B000D9F08EE30E9496136AE572E084E194E028
:1019C0000E94571588E20E949613AE0160E070E015
:1019D0002AE084E194E00E94BA1489E20E949613FE
:1019E00084E194E00E944115D8015C96ED91FC9150
:1019F0005D97EF70FF271D968D919C911E979E011C
:101A0000C817D90708F49C01D8011F964D915C9125
:101A1000509770964217530708F49A01A901481B82
:101A2000590BCA016AE070E00E94AA18EB0186E037
:101A3000CC0FDD1F8A95E1F7CE2BDF2BD8015A960C
:101A40008D919C915B978960906C5B969C938E9333
:101A50005A9762E0C8010E942C0CF801D58FC48F00
:101A600063E0C8010E942C0C65E0C801DF91CF91B2
:101A70001F910F910C942C0CFC016087268D378DE3
:101A8000662311F0326002C03D7FFC01378F268F44
:101A900064E00C942C0CFC016783228D338D66234B
:101AA00011F03F7B02C03064FC01338F228F62E073
:101AB0000C942C0CFC016683828D938D9C013E7FDF
:101AC000338F228F662321F03062338F228F03C041
:101AD0009E7D938F828F62E0CF010C942C0CFC01D1
:101AE0006583228D338D662311F0306101C03F7E06
:101AF000FC01338F228F62E00C942C0CFC01648378
:101B00006F7020A131A1207F262B31A320A365E097
:101B10000C942C0CCF93DF93EB016031710520F412
:101B200080E30E94961304C06F3F710509F020F412
:101B300080E30E94961303C06115704118F480E39E
:101B40000E949613AE0160E070E020E184E194E031
:101B50000E94BA1480E2DF91CF910C949613CF9239
:101B6000DF92EF92FF920F931F93CF93DF93CDB746
:101B7000DEB72C970FB6F894DEBF0FBECDBF8C0139
:101B80000E94BE0BD801ED91FC9106A8F7A9E02DAB
:101B90004CE0BE016F5F7F4FC801099567E772E0B7
:101BA00084E194E00E945715BE016F5F7F4F84E18E
:101BB00094E00E945715F801E6A4F7A462E872E0E9
:101BC00084E194E00E945715B701C8010E948A0D74
:101BD000D8019A968D919C919B9792FD03C06FE6D8
:101BE00072E002C067E672E084E194E00E9457155B
:101BF000F80182A593A597FD03C068EA71E002C0D1
:101C00006DEA71E084E194E00E945715D8019D9639
:101C10008C91E82EE694E694F12C67E872E084E17A
:101C200094E00E945715BAE0EB16F1042CF460E240
:101C300084E194E00E94DB0FC7010E94031580E25B
:101C40000E949613C12CD12CEFE0EE1AF108CE14AD
:101C5000DF044CF46AE284E194E00E94DB0FFFEFC2
:101C6000CF1ADF0AF4CF84E194E00E9441156DE8B9
:101C700072E084E194E00E944515780186E1E80E67
:101C8000F11C6801A6E3CA0ED11CF70161917191A4
:101C90007F01C8010E948A0DEC14FD04B1F784E1B4
:101CA00094E00E94411581E08093F00381E18093EC
:101CB00012041092F1031092130460E081EB94E09F
:101CC0000E94830A80E00E94E51241E060E281E127
:101CD0000E9445131092A8038093A70380E1E82E89
:101CE000F12CC8010E941F0BBC01C8010E948A0D83
:101CF000F1E0EF1AF108A9F70E94421384E194E0A1
:101D00000E944115D801ED91FC910288F389E02DE4
:101D1000C8010995882331F06AED72E084E194E00E
:101D20000E945715D801ED91FC9102A4F3A5E02D76
:101D3000C8010995882331F065EE72E084E194E0F2
:101D40000E945715D801ED91FC910680F781E02D96
:101D5000C8010995182F6BEE72E084E194E00E94AF
:101D60005715812F90E00E94031580E20E94961380
:101D700084E194E00E9441152C960FB6F894DEBFE2
:101D80000FBECDBFDF91CF911F910F91FF90EF90CC
:101D9000DF90CF900895EF92FF920F931F93CF9310
:101DA000DF938C01EB010E944B03C130D10531F070
:101DB000229731F488E0E82EF12C02C0E12CF12CBE
:101DC000F801F58EE48EDF91CF911F910F91FF9076
:101DD000EF9008951F93CF93DF93EC018B818823BD
:101DE00079F08EE30E94961363EF72E084E194E051
:101DF0000E9457156BE272E084E194E00E94451561
:101E00001092A8031092A7031092F10310921304EA
:101E10001092EF0311E01093EE031092C90361E0FA
:101E200082E10E94CA1361E083E10E94CA1380919B
:101E3000B9008E7F8093B9008091B9008D7F809327
:101E4000B90088E48093B80085E48093BC001093C7
:101E5000F00381E1809312041092F10310921304B5
:101E60000E94421381113AC08B81882349F08EE38E
:101E70000E94961368EF72E084E194E00E94451599
:101E800084E098E59F8B8E8B198E188E83E090E00E
:101E90009B8F8A8FE881F981028CF38DE02D61E0C0
:101EA00070E0CE01099580E098E09F8F8E8F81E8E9
:101EB00090E999A388A31BA21AA21DA21CA21FA28B
:101EC0001EA219A618A6CE010E94BF0A81E090E0CA
:101ED0009B8F8A8F62E0CE010E942C0C81E0DF9103
:101EE000CF911F910895FC01538D448D252F30E033
:101EF000842F90E0821B930B541710F0CF96089517
:101F000001970895FC01918D828D981761F0828D63
:101F1000DF01A80FB11D5D968C91928D9F5F9F731D
:101F2000928F90E008958FEF9FEF0895FC01918DBF
:101F3000828D981731F0828DE80FF11D858D90E02C
:101F400008958FEF9FEF0895FC01918D228D892FC9
:101F500090E0805C9F4F821B91098F7399270895B1
:101F600084E194E00E94A40F21E0892B09F420E091
:101F7000822F0895FC01848DDF01A80FB11DA35AA3
:101F8000BF4F2C91848D90E001968F739927848F99
:101F9000A689B7892C93A089B1898C9180648C9390
:101FA000938D848D981306C00288F389E02D80817B
:101FB0008F7D80830895EF92FF920F931F93CF93AD
:101FC000DF93EC0181E0888F9B8D8C8D981305C089
:101FD000E889F989808185FD24C0F62E0B8D10E0FB
:101FE0000F5F1F4F0F731127E02E8C8DE8120CC06E
:101FF0000FB607FCFACFE889F989808185FFF5CF14
:10200000CE010E94BA0FF1CF8B8DFE01E80FF11DBA
:10201000E35AFF4FF0820B8FEA89FB89808180624F
:1020200007C0EE89FF896083E889F989808180642F
:10203000808381E090E0DF91CF911F910F91FF901D
:10204000EF900895CF93DF93EC01888D8823C9F03A
:10205000EA89FB89808185FD05C0A889B9898C91B1
:1020600086FD0FC00FB607FCF5CF808185FFF2CF4C
:10207000A889B9898C9185FFEDCFCE010E94BA0F56
:10208000E7CFDF91CF91089580E090E0892B29F090
:102090000E94B00F81110C940000089585ED80938B
:1020A000BC008091BC0084FDFCCF1092EF0308952A
:1020B0000895E091A8038091A703E81730F4F0E0B9
:1020C000E755FC4F808190E008958FEF9FEF0895D2
:1020D0009091A8038091A703981750F4E92FF0E09E
:1020E000E755FC4F208130E09F5F9093A80302C02A
:1020F0002FEF3FEFC90108958091A70390E0209151
:10210000A803821B910908950E94DD1A61157105CB
:1021100079F0FB0101900020E9F73197AF01461BF0
:10212000570BDC01ED91FC910280F381E02D0994C5
:1021300080E090E008951F920F920FB60F92112445
:102140002F933F934F935F936F937F938F939F93BF
:10215000AF93BF93EF93FF9384E194E00E94BA0F93
:10216000FF91EF91BF91AF919F918F917F916F916F
:102170005F914F913F912F910F900FBE0F901F9045
:1021800018951F920F920FB60F9211242F938F93D1
:102190009F93EF93FF93E0912404F09125048081B5
:1021A000E0912A04F0912B0482FD12C0908180916D
:1021B0002D048F5F8F7320912E04821751F0E091D0
:1021C0002D04F0E0EC5EFB4F958F80932D0401C051
:1021D0008081FF91EF919F918F912F910F900FBE72
:1021E0000F901F9018951F920F920FB60F92112407
:1021F0002F933F934F935F936F937F938F939F930F
:10220000AF93BF93EF93FF938091B900887F80369F
:1022100009F49CC068F5883209F45BC090F4803101
:1022200009F454C038F4882309F4F6C0883009F45E
:102230004DC0F6C0883109F44CC0803209F45DC04D
:10224000EFC0803409F468C048F4803309F455C005
:10225000883309F0E5C08093ED03D8C0803509F4D8
:102260004FC0883509F45DC0883409F0D9C0D6C0A4
:10227000883909F4C7C0A8F4883709F467C038F46E
:10228000883609F463C0803709F460C0C9C0883853
:1022900009F4B8C0803909F45FC0803809F0C0C0C3
:1022A0005BC0803B09F486C038F4803A09F466C00C
:1022B000883A09F47FC0B4C0803C09F4A7C0883CC8
:1022C00009F4A4C0883B09F48AC0AAC08091CA035B
:1022D00010C09091EC038091EB03981770F5E0919A
:1022E000EC0381E08E0F8093EC03F0E0E553FC4FAC
:1022F00080818093BB0085EC86C08093ED038EC007
:10230000E091EC0381E08E0F8093EC038091BB00A1
:10231000F0E0E553FC4F80839091EC038091EB0358
:102320006EC0E091EC0381E08E0F8093EC0380910E
:10233000BB00F0E0E553FC4F80838091EE038111F8
:102340006DC081E08093C90384EA61C083E080931B
:10235000EF0310929503CFCF80919503803208F060
:1023600051C0E091950381E08E0F80939503809199
:10237000BB00F0E0EB58FC4F8083BDCF85EC809331
:10238000BC001092EF0380919503803230F4E0910D
:102390009503F0E0EB58FC4F10826091950370E0DC
:1023A000E0917303F091740385E793E0099510922F
:1023B000950336C084E08093EF031092720310926D
:1023C0007103E0916F03F09170030995809171039F
:1023D000811105C081E08093710310924F03E09159
:1023E000720381E08E0F80937203F0E0E15BFC4F9B
:1023F00080818093BB009091720380917103981744
:1024000008F479CF85E88093BC000AC085EC8093FE
:10241000BC001092EF0304C01092ED030E944E1016
:10242000FF91EF91BF91AF919F918F917F916F91AC
:102430005F914F913F912F910F900FBE0F901F9082
:10244000189540917103262F30E0240F311D213261
:102450003105DCF42091EF032430C9F4FC0180E065
:1024600090E0861758F4309171032191DC01A15B53
:10247000BC4FA30FB11D2C930196F3CF8091710334
:10248000680F6093710380E0089581E0089582E011
:1024900008953FB7F8948091C0059091C105A0912F
:1024A000C205B091C30526B5A89B05C02F3F19F002
:1024B0000196A11DB11D3FBFBA2FA92F982F8827C4
:1024C000820F911DA11DB11DBC01CD0142E0660F1F
:1024D000771F881F991F4A95D1F70895CF92DF92F1
:1024E000EF92FF920F931F93CF93DF936C017A01CA
:1024F0008B01C0E0D0E0CE15DF0589F0D8016D91E9
:102500008D01D601ED91FC910190F081E02DC60185
:102510000995892B11F47E0102C02196ECCFC701E9
:10252000DF91CF911F910F91FF90EF90DF90CF90AF
:102530000895EF92FF920F931F93CF93DF93EC01D7
:10254000198218821B821A821D821C8261157105F4
:10255000A9F17B01FB0101900020E9F731978F0180
:10256000061B170BB8016F5F7F4F80E090E00E9461
:10257000131A009759F0998388831B830A832C814F
:102580003D81232B81F4FC0110820DC0888199814B
:10259000009711F00E947B19198218821D821C82FB
:1025A0001B821A820BC01D830C83B701DF91CF9170
:1025B0001F910F91FF90EF900C94F41ADF91CF913F
:1025C0001F910F91FF90EF900895382F20911304E1
:1025D00090911204213208F049C08091EF038111DB
:1025E000FCCF42E04093EF033093EE033FEF309394
:1025F000ED031092EC032093EB03A2EFB3E04BEC5E
:1026000053E0FA013E2F341B321718F43D913193F9
:10261000F9CF1092CA032091CA03990F922B90937D
:10262000CA039091C903913061F41092C90390914B
:10263000CA039093BB009091BC0093FDF8CF95EC3A
:1026400001C095EE9093BC009091EF039230E1F3BE
:102650009091ED039F3F79F08091ED03803241F03E
:102660008091ED03803331F084E005C081E003C048
:1026700082E001C083E01092F103109213041092E3
:10268000F003089581E00C94E5129091EF0391110D
:10269000FCCF91E09093EF034093EE032FEF209354
:1026A000ED031092EC03260F2093EB039093CA03E3
:1026B0009091CA03880F892B8093CA038091C90324
:1026C000813061F41092C9038091CA038093BB00EA
:1026D0008091BC0083FDF8CF85EC01C085EE80932E
:1026E000BC008091EF038130E1F38091EC03861709
:1026F00010F46091EC03ABECB3E029EA33E0F901AC
:102700008E2F821B861718F48D918193F9CF862F17
:102710000895813208F080E241E0682F80E10E9454
:1027200045131092A8038093A7030895E091140421
:10273000F09115040190F081E02D682F84E194E080
:102740000994833081F028F4813099F08230A1F02F
:1027500008958730A9F08830B9F08430D1F48091A1
:1027600080008F7D03C0809180008F7780938000F0
:10277000089584B58F7702C084B58F7D84BD089598
:102780008091B0008F7703C08091B0008F7D8093DF
:10279000B00008951F93CF93DF93282F30E0F90105
:1027A000ED56FA4F8491F901E158FA4FD491F901AD
:1027B000E559FA4FC491CC23C9F0162F81110E941C
:1027C000A113EC2FF0E0EE0FFF1FEF59FA4FA59188
:1027D000B4918FB7F894111105C09C91ED2FE0953D
:1027E000E92302C0EC91ED2BEC938FBFDF91CF91E9
:1027F0001F910895CF93DF9390E0FC01E158FA4FC9
:102800002491FC01E559FA4F8491882361F190E00D
:10281000880F991FFC01E95AFA4FC591D491FC0128
:10282000EF59FA4FA591B491611109C09FB7F8947F
:102830008881209582238883EC912E230BC06230FF
:1028400061F49FB7F8943881822F80958323888321
:10285000EC912E2B2C939FBF06C08FB7F894E88184
:102860002E2B28838FBFDF91CF9108958F929F9257
:10287000AF92BF92CF92DF92EF92FF926B017C01F9
:102880000E9449124B015C01C114D104E104F1041E
:10289000F1F00E944912DC01CB0188199909AA09BB
:1028A000BB09883E9340A105B10570F321E0C21A2F
:1028B000D108E108F10888EE880E83E0981EA11C7B
:1028C000B11CC114D104E104F10419F7DDCFFF906C
:1028D000EF90DF90CF90BF90AF909F908F90089532
:1028E0001F920F920FB60F9211242F933F938F9345
:1028F0009F93AF93BF938091A3039091A403A09162
:10290000A503B091A6033091BF0523E0230F2D3717
:1029100020F40196A11DB11D05C026E8230F0296E3
:10292000A11DB11D2093BF058093A3039093A40321
:10293000A093A503B093A6038091C0059091C10513
:10294000A091C205B091C3050196A11DB11D809350
:10295000C0059093C105A093C205B093C305BF9174
:10296000AF919F918F913F912F910F900FBE0F903C
:102970001F9018954F925F926F927F92EF92FF9205
:102980000F931F93CF93DF93CDB7DEB7A1970FB609
:10299000F894DEBF0FBECDBF7C01FA01CB0119A2B6
:1029A000223008F42AE08E010F5D1F4F422E512C79
:1029B000612C712CBF01A30192010E94BE18F90184
:1029C000CA01015011096A3014F4605D01C0695CEC
:1029D000D8016C93232B242B252B61F7B801C70159
:1029E0000E948610A1960FB6F894DEBF0FBECDBF31
:1029F000DF91CF911F910F91FF90EF907F906F909B
:102A00005F904F9008950F931F93CF93DF9300D063
:102A100000D0CDB7DEB7AC01990F660B770B77FF0F
:102A200023C08DE249835A836B837C830E94961373
:102A30008C0149815A816B817C817095609550959C
:102A400041955F4F6F4F7F4F2AE084E194E00E94F1
:102A5000BA14800F911F0F900F900F900F90DF917D
:102A6000CF911F910F9108952AE084E194E00F9097
:102A70000F900F900F90DF91CF911F910F910C94B9
:102A8000BA146AE473E00C9486100F931F93CF93EB
:102A9000DF93EC010E9486108C01CE010E9441154B
:102AA000800F911FDF91CF911F910F9108950C948A
:102AB0008610CF93DF93CDEBD4E08C859D850E946B
:102AC0007B198E819F810E947B1988819981DF917A
:102AD000CF910C947B19789484B5826084BD84B5C1
:102AE000816084BD85B5826085BD85B5816085BD09
:102AF00080916E00816080936E00109281008091C1
:102B00008100826080938100809181008160809348
:102B10008100809180008160809380008091B1006D
:102B200084608093B1008091B00081608093B00098
:102B300080917A00846080937A0080917A0082602C
:102B400080937A0080917A00816080937A008091EE
:102B50007A00806880937A001092C10061E088E07A
:102B60000E94FA13E0912404F091250482E080830E
:102B7000E0912004F09121041082E0912204F09170
:102B800023048FEC808310922C04E0912804F091B0
:102B9000290486E08083E0912604F0912704808157
:102BA00080618083E0912604F09127048081886011
:102BB0008083E0912604F0912704808180688083DF
:102BC000E0912604F091270480818F7D808361E06D
:102BD00088E00E94FA1360E088E00E94CA136AE06D
:102BE00070E080E090E00E94361461E088E00E948E
:102BF000CA136AE070E080E090E00E943614109200
:102C0000BE058CE38093BD051092B9008CE08093E3
:102C1000B8001092B3051092B405E1E5F5E0859196
:102C20009491E82EE3E5F5E0F490E4E5F5E0E49135
:102C3000E093B505E5E5F5E0E491E093B605E6E55A
:102C4000F5E0E491E093B705C82FD92F8C2F8E19AA
:102C50008F1540F4FE0164918FEA95E00E945E06B4
:102C60002196F4CF1092B9058FEA95E00E949D0855
:102C700085EB90E09093BB058093BA0561E88FEAFD
:102C800095E00E945E0660E08FEA95E00E945E0695
:102C90008FEA95E00E949D08C1E0C093B80565E009
:102CA00073E08FEA95E00E9457156CE073E08FEABD
:102CB00095E00E94571582E08093B80542E060E0FD
:102CC0008FEA95E00E947E0667E173E08FEA95E067
:102CD0000E94571560ED77E080E090E00E94361486
:102CE00089E795E00E94EA0EC0937C05E09100011F
:102CF000F0910101EE0FFF1FE556FF4F45915491F2
:102D000061E070E089E795E00E942F03E091000107
:102D1000F0910101EE0FFF1FE556FF4F45915491D1
:102D200060E070E02AE084E194E00E94BA1484E15B
:102D300094E00E944115E0910001F0910101EE0F35
:102D4000FF1FE556FF4F6591749189E795E00E945A
:102D5000CE0C8DE295E090938D0580938C0585E7F0
:102D600098E09093300580932F0589E795E00E94C5
:102D70000C0C9093A2038093A1030E94180A8091E7
:102D80004E030E94FA098FB7F894C090A303D09025
:102D9000A403E090A503F090A6038FBF89E795E018
:102DA0000E94360B87EF94E00E94B90883EE94E00E
:102DB0000E94B9088FEC94E00E94B9088FEC94E06F
:102DC0000E949509882371F080914E038F5F8330B4
:102DD00019F080934E0302C010924E0380914E036F
:102DE0000E94FA0987EF94E00E949509882319F060
:102DF00081E00E94AF0983EE94E00E949509882348
:102E000019F08FEF0E94AF098091020190910301A8
:102E1000A0910401B09105018C159D05AE05BF057B
:102E200008F06EC089E795E00E940C0C9093A20315
:102E30008093A10320919F033091A00382179307F1
:102E400041F1AC0160E070E02AE084E194E00E948E
:102E5000BA1484E194E00E9441158091A1039091FD
:102E6000A2030E94180A8091A1039091A20390935B
:102E7000A00380939F03F8EECF0EF3E0DF1EE11C6A
:102E8000F11CC0920201D0920301E0920401F09281
:102E9000050168E973E089E795E00E94DF0B809106
:102EA00099038093970390919603891749F168E9F4
:102EB00073E089E795E00E94DF0B81E08093B8051D
:102EC00046E065E48FEA95E00E947E0660E273E0EA
:102ED0008FEA95E00E94571546E06EE68FEA95E08E
:102EE0000E947E064091990350E060E070E02AE085
:102EF0008FEA95E00E94BA1480919703809396031D
:102F00000E94441040CFCF92DF92EF92FF920F9336
:102F10001F93CF93DF93E4E1F4E01382128288EEF3
:102F200093E0A0E0B0E084839583A683B78320E19B
:102F300031E03183208325EC30E03587248724EC91
:102F400030E03787268720EC30E0318B208B21EC76
:102F500030E0338B228B22EC30E0358B248B26EC57
:102F600030E0378B268B118E128E138E148EE1EB90
:102F7000F4E01382128284839583A683B78382E26E
:102F800091E091838083EFEAF5E01382128281E081
:102F900081871486138688E791E091838083E9E72F
:102FA000F5E085E1DF011D928A95E9F784E391E080
:102FB000918380838FE0858B8EE6EBE0F5E0DF0187
:102FC0001D928A95E9F7E7EFF4E08CE3C82ED12C47
:102FD000D482C382C4EFD1E0D683C583D087C783B0
:102FE00090E9E92EFF24F394F286E1861386148695
:102FF000158616861786108A118A128A138A82E02D
:10300000828308EF14E0F80180818F7D877F8083C1
:1030100062E082E00E94FA13D8018C918B7E8D7F52
:103020008C93E3EEF4E0D482C382D683C583D08749
:10303000C783F286E1861386148615861686178660
:10304000108A118A128A138A83E0828304EE14E0C4
:10305000F80180818F7D877F808362E083E00E941A
:10306000FA13D8018C918B7E8D7F8C93EFECF4E07A
:10307000D482C382D683C583D087C783F286E18694
:1030800013861486158616861786108A118A128A68
:10309000138A84E08283C0EDD4E088818F7D877FAE
:1030A000888362E084E00E94FA1388818B7E8D7FA2
:1030B00088836AE273E08DEB94E00E94991262E3E8
:1030C00073E083EC94E00E9499126EE373E089EC64
:1030D00094E0DF91CF911F910F91FF90EF90DF90DF
:1030E000CF900C9499122F923F924F925F926F92D1
:1030F0007F928F929F92AF92BF92CF92DF92EF9288
:10310000FF920F931F93CF93DF93CDB7DEB7CA1B08
:10311000DB0B0FB6F894DEBF0FBECDBF09942A8833
:10312000398848885F846E847D848C849B84AA84DB
:10313000B984C884DF80EE80FD800C811B81AA8168
:10314000B981CE0FD11D0FB6F894DEBF0FBECDBF33
:10315000ED010895AA1BBB1B51E107C0AA1FBB1FAD
:10316000A617B70710F0A61BB70B881F991F5A9513
:10317000A9F780959095BC01CD010895A1E21A2E82
:10318000AA1BBB1BFD010DC0AA1FBB1FEE1FFF1F0B
:10319000A217B307E407F50720F0A21BB30BE40B5B
:1031A000F50B661F771F881F991F1A9469F76095A2
:1031B0007095809590959B01AC01BD01CF0108955C
:1031C000EE0FFF1F0590F491E02D0994CF93DF934C
:1031D0008230910510F482E090E0E091C605F09114
:1031E000C70520E030E0C0E0D0E0309711F1408129
:1031F000518148175907C0F04817590761F4828177
:103200009381209719F09B838A832BC09093C705E5
:103210008093C60526C02115310519F042175307C2
:1032200018F49A01BE01DF01EF010280F381E02D65
:10323000DCCF2115310509F1281B390B243031056C
:1032400090F412968D919C9113976115710521F060
:10325000FB019383828304C09093C7058093C605C6
:10326000FD01329644C0FD01E20FF31F819391935B
:10327000225031092D933C933AC02091C4053091DE
:10328000C505232B41F420910801309109013093A9
:10329000C5052093C4052091060130910701211531
:1032A000310541F42DB73EB740910A0150910B0111
:1032B000241B350BE091C405F091C505E217F30717
:1032C000A0F42E1B3F0B2817390778F0AC014E5F96
:1032D0005F4F2417350748F04E0F5F1F5093C50509
:1032E0004093C4058193919302C0E0E0F0E0CF01E8
:1032F000DF91CF9108950F931F93CF93DF930097A2
:1033000009F48CC0FC013297138212820091C60529
:103310001091C7050115110581F420813181820FBB
:10332000931F2091C4053091C5052817390779F5F9
:10333000F093C505E093C40571C0D80140E050E0AA
:10334000AE17BF0750F412962D913C911397AD0123
:103350002115310509F1D901F3CF9D01DA0133833C
:10336000228360817181860F971F8217930769F40A
:10337000EC0128813981260F371F2E5F3F4F3183A3
:1033800020838A819B8193838283452B29F4F09348
:10339000C705E093C60542C01396FC93EE931297BF
:1033A000ED01499159919E01240F351FE217F30752
:1033B00071F480819181840F951F029611969C93E0
:1033C0008E938281938113969C938E931297E0E063
:1033D000F0E0D80112968D919C911397009719F007
:1033E000F8018C01F6CF8D919C9198012E5F3F4F93
:1033F000820F931F2091C4053091C5052817390706
:1034000069F4309729F41092C7051092C60502C0DE
:10341000138212821093C5050093C405DF91CF91EA
:103420001F910F910895A0E0B0E0E9E1FAE10C945A
:103430007718EC01009721F4CB010E94E618B8C080
:10344000FC01E60FF71F9C0122503109E217F30738
:1034500008F4ACC0D9010D911C91119706171707FC
:10346000B0F00530110508F49FC0C8010497861715
:10347000970708F499C002501109061B170B019316
:1034800011936D937C93CF010E947B198DC05B01DA
:10349000A01AB10A4C01800E911EA091C605B091F0
:1034A000C70540E050E0E12CF12C109709F44AC028
:1034B000A815B905D1F56D907C901197630182E054
:1034C000C80ED11CCA14DB0480F1A3014A195B09A0
:1034D0006A0182E0C80ED11C1296BC901297139616
:1034E000AC91B5E0CB16D10440F0B282A3835183F6
:1034F0004083D9016D937C930AC00E5F1F4FC301B7
:10350000800F911FF90191838083EB2DFA2FE11435
:10351000F10431F0D7011396FC93EE93129744C057
:10352000F093C705E093C6053FC08D919C9111971C
:103530004817590708F4AC017D0112960D90BC9113
:10354000A02DB3CF8091C4059091C505881599052C
:10355000E1F446175707C8F48091060190910701DE
:10356000009741F48DB79EB740910A0150910B012D
:10357000841B950BE817F907C8F4F093C505E09391
:10358000C405F901718360830FC0CB010E94E61866
:103590007C01009759F0A801BE010E94E21ACE01F9
:1035A0000E947B19C70104C0CE0102C080E090E0F8
:1035B000CDB7DEB7EEE00C94931881E090E0F8947C
:1035C0000C94FB1AFB01DC0102C001900D924150EA
:1035D0005040D8F70895FB01DC018D9101908019CE
:1035E0000110D9F3990B0895FB01DC0101900D92B4
:1035F0000020E1F7089512E0C5EDD2E004C0FE011D
:103600000E94E0182196C63DD107C9F7F894FFCF74
:103610000B00E80300000000C80580000000000067
:10362000DB0F6E12730F2210A40F820F960F000093
:103630000000830A530A000458107C1068105910C7
:1036400000000000EA0EFB0A7E0D7C034B0D6A03AE
:103650003C0D64036F0D760321031D031903CB0E8C
:103660002903CE0C0C0C2F03AE0C8D0C5A0D7003DD
:10367000DF0B0D05360B07030303A504000342040B
:103680000304AF0D000000000A076E120004FF03E0
:10369000A603204241535300202D2D2D2D00204DF7
:1036A0005554450020534F46544D55544500202D48
:1036B0002D2D2D2D2D2D2D002052445300202D2D4C
:1036C0002D002054554E454400202D2D2D2D2D002C
:1036D0002053544552454F0020204D4F4E4F20005F
:1036E0002020525353493A20002020534E523A2072
:1036F00000204D487A002020202020202020005249
:1037000020442053203A2000726567203300726500
:103710006720756E6B6E6F776E00462052204520D5
:103720005120552045204E20432059002D736176AD
:103730006552656769737465727300282900746542
:10374000726D00424C4F434B5F4520666F756E644F
:103750002E002D5F736176655265676973746572BB
:1037600000283078002C203078007365744672652C
:103770007175656E6379002053746572656F002002
:103780004D6F6E6F2020004672657175656E6379AE
:103790003D002050493D00205369673D0030202006
:1037A00020203120202020322020202033202020E3
:1037B00020342020202035202020203620202020CA
:1037C0003720202020382020202039202020204190
:1037D0002020202042202020204320202020442080
:1037E0002020204520202020460042617373426F34
:1037F0006F737420004D6F6E6F2000566F6C756D87
:10380000653D00696E697400726164696F20666F5E
:10381000756E642E00566572203A200032303230C8
:103820002E30332E303600524441353830374D007B
:1038300052205320532049203A00542055204E2036
:10384000450050205220452053204520540056204A
:0E3850004F204C2055204D2045000D0A000051
:00000001FF
