:100000000C94D5020C94FD020C94FD020C94FD029C
:100010000C94FD020C94FD020C94FD020C94FD0264
:100020000C94FD020C94FD020C94FD020C94FD0254
:100030000C94FD020C94FD020C94FD020C94FD0244
:100040000C949A120C94FD020C94560A0C94300AEB
:100050000C94FD020C94FD020C94FD020C94FD0224
:100060000C94880A0C94FD0200030C0F30333C3FC3
:10007000C0C3CCCFF0F3FCFFAED580A83FD3004087
:100080008D142002A1C8DA12817FD9F1DB40A4A629
:10009000AF2E22CE2246237823A023182458258071
:1000A00025A825D0253C28E628F42919920A0C20F9
:1000B0006002010408060B0801030305070204019E
:1000C00005060506060706060606060102070707D7
:1000D000050A0806070706060707030406060807B9
:1000E00008060807060707080B06070603050308A6
:1000F00008020606050606040606010305010906B0
:100100000606060405050605090505050501050899
:100110000900000000FE200700000700000000802A
:1001200090F89690F896100030000030000000180B
:1001300024FF4444842020F02020101C22221C8014
:10014000700CC22020C000000020100000102020F1
:1001500010DC2222225C8060001020202020101061
:10016000200700F806011060800106F88060100A80
:10017000041F040A0000000000404040F8404040D6
:10018000000000300000000000807040404040004F
:1001900000000000300000E01C038070000000FC44
:1001A00002020202FC1020202020100404FE0000A5
:1001B00020203020200C824242221C30202020208F
:1001C000200402222222DC1020202020106050482F
:1001D00044FE4040000000003000001E12121212C7
:1001E000E2102020202010F814121212E01020201B
:1001F000202010020282621A06002010000000DC9B
:1002000022222222DC1020202020103C42424242A6
:10021000FC00202020100018300018807040A0A0A2
:1002200010100808000000101020205050505050AE
:1002300050500000000000000008081010A0A0406E
:10024000202010100000000402E2221C0000200008
:1002500000F00C04F20A0AFA040CF00030204050BE
:10026000505010100000E098868698E000300000A2
:100270000000000030FE2222223CC030202020203E
:1002800010F804020202020400102020202010FEB8
:100290000202020204F830202020201000FE222258
:1002A000222222302020202020FE22222222023060
:1002B0000000000000F80402022222E400102020C6
:1002C000202010FE2020202020FE30000000000012
:1002D0003002FE02203020000202FE20202010FE0C
:1002E0002050880402300000001020FE00000000B2
:1002F00000302020202020FE0638C0C03806FE3006
:1003000000000000000030FE061820C000FE300093
:100310000000003030F8040202020204F80010204D
:100320002020201000FE424242423C3000000000EB
:1003300000F8040202020204F8001020202060905D
:1003400080FE222262A21C00300000000010201C4F
:1003500022222222C4102020202010020202FE02AB
:10036000020200000030000000FE0000000000FE5D
:10037000001020202010000638C00000C038060001
:10038000000030300000001EE000C0380638C00019
:10039000E01E000030000000000030000006887001
:1003A000708806300000000030020C10E0100C02D3
:1003B00000000030000000028262120A0630202095
:1003C000202020FF0101F08080031C6080000000DD
:1003D0000030C00101FF8080F01008040202040810
:1003E00010000000000000000000000000000000FD
:1003F00000808080808080808001020000804848EA
:100400004848F0102020202030FF10080808F03065
:100410002020202010F0080808101020202010F0C4
:1004200008080808FF102020201030F048484848ED
:100430007010202020201008FE090900300000F074
:1004400008080808F810A0A0A09070FF100808087D
:10045000F0300000000030F9300008F9808070FFB3
:1004600040A010083000001020FF30F8080808F005
:10047000080808F0300000003000000030F81008D4
:100480000808F0300000000030F008080808F010FC
:100490002020202010F810080808F0F0202020204C
:1004A00010F008080808F81020202010F0F81008B4
:1004B00008300000003048484888202020201008DC
:1004C000FE0808080010202020F800000000F810A6
:1004D000202020103018E000E01800003000001844
:1004E000E000E018E000E0180000300000003000FC
:1004F0000018A040A018300000003018E000E018FC
:100500000080700000088848281830202020202013
:1005100020DE01010000708080FFF00101DE20205C
:100520008080700000C0202040408080600000007B
:100530000000000000FE02020202020202FE302061
:10054000202020202020307800198040000000006A
:1005500000240027002A0000000000250028002BAE
:100560000000000000230026002900040404040405
:100570000404040202020202020303030303030150
:100580000204081020408001020408102001020427
:10059000081020000000080002010000030407000A
:1005A0000000000000000000F81511241FBECFEF6E
:1005B000D8E0DEBFCDBF13E0A0E0B1E0E8E4FDE2AB
:1005C00002C005900D92AC30B107D9F725E0ACE040
:1005D000B3E001C01D92A233B207E1F712E0C5ED0E
:1005E000D2E004C02197FE010E948716C43DD107C6
:1005F000C9F70E9492130C94A2160C940000CF939A
:10060000DF93EC019C818E81981758F4E881F98181
:100610000084F185E02D42E0CE0109958C818F5F49
:100620008C83DF91CF9108950895E09165038091C7
:100630006403E81730F4F0E0EA59FC4F808190E061
:1006400008958FEF9FEF0895909165038091640363
:10065000981750F4E92FF0E0EA59FC4F208130E080
:100660009F5F9093650302C02FEF3FEFC90108958C
:100670008091640390E020916503821B91090895A5
:100680001F93CF93DF938EE694E00E942403182FEC
:100690008EE694E00E942403D12F20E0C22F9E0119
:1006A000280F311DC901DF91CF911F910895CF927D
:1006B000DF92EF92FF920F931F93CF93DF937C0112
:1006C000262F972F8A018091AD03882391F0C62FA2
:1006D000D72F6E01C40ED51ECC15DD0571F06991C2
:1006E000D701ED91FC910190F081E02DC7010995B2
:1006F000F3CF642F822F0E94B60BC801DF91CF91F8
:100700001F910F91FF90EF90DF90CF900895CF93BE
:10071000DF931F92CDB7DEB769832091AD0322230B
:10072000D1F02091D003203240F021E030E0FC01F4
:100730003383228380E090E015C08091AE03E82FE0
:10074000F0E0E155FC4F998190838F5F8093AE0379
:100750008093D00305C061E0CE0101960E94B60BE4
:1007600081E090E00F90DF91CF910895CF93C62F55
:10077000672F8EE694E00E9487036C2F8EE694E04C
:10078000CF910C9487031F93CF93DF93FC012389B0
:100790003489232B09F47DC0EC0182E090E00E94B3
:1007A000A011CE010E9440039BA78AA70E94591165
:1007B0008AA59BA593FF0EC08B81882359F06EE319
:1007C00081ED93E00E9443136AE771E081ED93E0CD
:1007D0000E9431138AA59BA597FF5BC081E080939F
:1007E000AD0381E18093CF031092AE031092D0034A
:1007F0006CE08EE694E00E94870380E00E94FC108B
:1008000041E068E081E10E945C11109265038093F1
:100810006403CE010E9440032EA53FA582179307D3
:1008200021F09FA78EA711E001C010E0CE010E9429
:10083000400328A939A98217930719F099AB88AB0F
:1008400011E0CE010E9440032AA93BA98217930719
:1008500019F09BAB8AAB11E0CE010E9440032CA99A
:100860003DA98217930719F09DAB8CAB11E00E9454
:100870005911112371F02CA93DA94AA95BA968A9B6
:1008800079A9EB89FC898EA59FA5DF91CF911F9156
:100890000994DF91CF911F910895EF92FF920F93EA
:1008A0001F93CF93DF938C018CE090E00E94A01106
:1008B000E801AA96780186E3E80EF11CC8010E94BF
:1008C000400389939993CE15DF05C1F7DF91CF914E
:1008D0001F910F91FF90EF900C945911CF92DF92DE
:1008E000EF92FF920F931F93CF93DF93CDB7DEB7B5
:1008F0002C970FB6F894DEBF0FBECDBF8C010E94BF
:100900004D04D801ED91FC9106A8F7A9E02D4CE02B
:10091000BE016F5F7F4FC801099563EA71E081ED09
:1009200093E00E949013BE016F5F7F4F81ED93E0D3
:100930000E949013F801E6A4F7A46EEA71E081ED3D
:1009400093E00E949013B701C8010E944110D801A2
:100950009A968D919C919B9792FD03C061E971E0FD
:1009600002C069E871E081ED93E00E949013F80104
:1009700082A593A597FD03C06EE971E002C069E905
:1009800071E081ED93E00E949013D8019D968C91C7
:10099000E82EE694E694F12C63EB71E081ED93E0B0
:1009A0000E949013BAE0EB16F1042CF460E281EDA2
:1009B00093E00E94B109C7010E944A1360E281EDF1
:1009C00093E00E944313C12CD12CEFE0EE1AF10802
:1009D000CE14DF044CF46AE281ED93E00E94B10989
:1009E000FFEFCF1ADF0AF4CF81ED93E00E942D13C1
:1009F00069EB71E081ED93E00E943113780186E1AB
:100A0000E80EF11C6801A6E3CA0ED11CF701619142
:100A100071917F01C8010E944110EC14FD04B1F7EF
:100A200081ED93E00E942D1381E08093AD0381E17D
:100A30008093CF031092AE031092D00360E08EE655
:100A400094E00E94870380E00E94FC1041E060E295
:100A500081E10E945C11109265038093640380E140
:100A6000E82EF12CC8010E944003BC01C8010E947D
:100A70004110F1E0EF1AF108A9F70E94591181ED38
:100A800093E00E942D13D801ED91FC910288F38927
:100A9000E02DC8010995882331F066E072E081ED10
:100AA00093E00E949013D801ED91FC9102A4F3A56C
:100AB000E02DC8010995882331F061E172E081EDF4
:100AC00093E00E949013D801ED91FC910680F7818C
:100AD000E02DC8010995182F67E172E081ED93E0E0
:100AE0000E949013812F90E00E944A1360E281EDF2
:100AF00093E00E94431381ED93E00E942D132C9606
:100B00000FB6F894DEBF0FBECDBFDF91CF911F911E
:100B10000F91FF90EF90DF90CF9008950F931F9368
:100B2000CF93DF938C01EB010E94A10EC8010E94BC
:100B30004D0421E02883F80182A593A592FD2E8320
:100B400097FF02C081E08B83F80185A58695869585
:100B5000898384A595A590FF02C081E08C83F8016C
:100B6000828D938D95FF02C081E08D83DF91CF91BF
:100B70001F910F910895CF93DF93EC0182E090E0F5
:100B80000E94A011CE010E9440039BA78AA70E9449
:100B900059112AA53BA533708AE0829FA001839F4B
:100BA000500D11248D859E85840F951F9C878B8702
:100BB000DF91CF910895EF92FF920F931F93CF9300
:100BC000DF938C01EB010E94510CC130D10531F053
:100BD000229731F488E0E82EF12C02C0E12CF12CB0
:100BE000F801F58EE48EDF91CF911F910F91FF9068
:100BF000EF900895DC01ED91FC910084F185E02DEA
:100C000040E009940F931F93CF93DF931F92CDB7CA
:100C1000DEB78C01FC018681681728F4C80149837E
:100C20000E94DE0B4981F80187818695869586951D
:100C3000481758F44583642F606BC8010F90DF910B
:100C4000CF911F910F910C94FA050F90DF91CF91E6
:100C50001F910F910895CF92DF92EF92FF920F9321
:100C60001F93CF93DF93EC01F62EC42ED22E8F81EB
:100C7000869586958695081710F00FEF080F1D2DA5
:100C8000011780F0412F6F2DCE010E940206EF2C3C
:100C9000CE1430F060E0CE010E94FF02E394F8CF62
:100CA0001F5FEECF4D2D6F2DCE01DF91CF911F91A4
:100CB0000F91FF90EF90DF90CF900C9402060F936E
:100CC0001F93DC0115962C9115971B96ED91FC91C5
:100CD0001C97309749F03396E49119960C91199727
:100CE000E09FE02D112401C0E0E08FEF820F0E2F76
:100CF00010E0095F1F4F93E0159507959A95E1F76E
:100D0000080F16964C911697415014966C911497B3
:100D1000CD010E942B061F910F9108952F923F92B3
:100D20004F925F926F927F928F929F92AF92BF92FB
:100D3000CF92DF92EF92FF920F931F93CF93DF93A7
:100D4000CDB7DEB727970FB6F894DEBF0FBECDBF85
:100D5000FC01038514850115110509F42FC19F833A
:100D60008E83F801B4913196449131965490319626
:100D7000A491EA2EF12CF7E0EF0EF11C93E0F5942C
:100D8000E7949A95E1F7EB82F801349674913196E5
:100D9000E491671758F0862F90E02E2F30E0F9018C
:100DA000E70FF11D8E179F070CF448C06D3061F4FA
:100DB000EE81FF818681882309F43DC060E08E8149
:100DC0009F810E94DE0B37C06A3009F0F7C0EE81C8
:100DD000FF81818515818E9D100D11248781869557
:100DE00086958695181730F08285882319F082E061
:100DF000828710E0412F60E08E819F810E94020671
:100E0000EE81FF8182858230B0F0CF010E945F06C3
:100E1000EE81FF818185612F8E9D600D1124660F0B
:100E2000660F660F8781861708F460E060648E8124
:100E30009F810E94FA0581E090E0C2C050E05B2BE8
:100E4000C8010696671BEE81FF81F185F983423068
:100E5000510588F4452B09F019825E9C90015F9C36
:100E6000300D1124629F8001639F100D1124080F23
:100E7000191F412C24C0EA2FE77021F048E0442ECE
:100E80004E1A01C0412CA82FFC0140E050E07E2FFB
:100E90007A1B761728F47491470F511D3196F7CFBE
:100EA000FC01E60FF11D54904E9D80014F9D100DE9
:100EB0005E9D100D1124020F131F080F191FEE81E4
:100EC000FF81F481FC83EE81FF813580652C712CDC
:100ED000CC24C394D12C812C912C7FEF7C0D7A8370
:100EE0008B81781708F05CC0212CEE81FF81818511
:100EF000281608F04FC07A81711102C0222041F0FB
:100F0000EE81FF8145814F5F6C81CF010E94020617
:100F1000A12CB12CA51488F5F501E80DF91DE00F01
:100F2000F11F2491442061F0CE14DF0449F4E22F34
:100F3000F0E0042C02C0F595E7950A94E2F72E2F15
:100F4000EE81FF818185823079F4E22F2110E295D4
:100F5000EF70F0E0E859FF4F2491622F8E819F815E
:100F60002D830E94FF022D81622F8E819F810E941E
:100F7000FF02FFEFAF1ABF0ACDCFB12C7981B716B0
:100F800039F060E08E819F810E94FF02B394F6CF1A
:100F90002394ABCF860C971CFFEFCF1ADF0A9DCFAF
:100FA000EE81FF818781869586958695381608F0B3
:100FB00042CF3582632D606BCF013BCF80E090E064
:100FC00027960FB6F894DEBF0FBECDBFDF91CF914D
:100FD0001F910F91FF90EF90DF90CF90BF90AF9057
:100FE0009F908F907F906F905F904F903F902F9049
:100FF0000895FF920F931F93CF93DF938C01F62EEA
:10100000FC018381C62FD0E08823A1F16EE381ED3E
:1010100093E00E9443136FE172E081ED93E00E9440
:1010200090136EE272E081ED93E00E9490134F2DD9
:1010300050E060E070E020E181ED93E00E94E41276
:1010400062E372E081ED93E00E949013FE013B9613
:10105000EE0FFF1FE00FF11F4081518160E070E053
:1010600020E181ED93E00E94E41269E281ED93E0DA
:101070000E947E1381E08093AD0381E18093CF03D2
:101080001092AE031092D0036F2D8EE694E00E9472
:1010900087032B96CC0FDD1FC00FD11F688179818C
:1010A000C8010E94B603DF91CF911F910F91FF906D
:1010B0000C9459111F93CF93DF93EC01162F8A8D57
:1010C0009B8D9D7F91609B8F8A8F62E0CE010E94F5
:1010D000F90711110CC08A8D9B8D9E7F9B8F8A8F83
:1010E00062E0CE01DF91CF911F910C94F907DF915F
:1010F000CF911F9108951F93CF93DF93EC01162F8B
:101100008A8D9B8D93609B8F8A8F62E0CE010E94B7
:10111000F90711110CC08A8D9B8D9E7F9B8F8A8F42
:1011200062E0CE01DF91CF911F910C94F907DF911E
:10113000CF911F9108950F931F93CF93DF938C014D
:10114000EB01DC0113968C918823E9F06EE381EDCD
:1011500093E00E94431367E372E081ED93E00E9405
:10116000901368E281ED93E00E944313AE0160E0CA
:1011700070E02AE081ED93E00E94E41269E281EDE3
:1011800093E00E947E13D8015C96ED91FC915D97EF
:10119000EF70FF271D968D919C911E979E01C81799
:1011A000D90708F49C01D8011F964D915C91509786
:1011B00070964217530708F49A01A901481B590B6E
:1011C000CA016AE070E00E945116EB0186E0CC0F84
:1011D000DD1F8A95E1F7CE2BDF2BD8015A968D9132
:1011E0009C915B978960906C5B969C938E935A97C9
:1011F00062E0C8010E94F907F801D58FC48F63E04F
:10120000C8010E94F90765E0C801DF91CF911F91E5
:101210000F910C94F907EF92FF920F931F93CF93C6
:10122000DF93EC018B81882389F06EE381ED93E0FD
:101230000E94431364E472E081ED93E00E949013F6
:1012400063E572E081ED93E00E94311381E08093C9
:10125000AD0380E18093CF031092AE031092D003D0
:101260008E01065E1F4F7E0184E2E80EF11CF8013C
:10127000619171918F01CE010E94B6030E151F0579
:10128000B1F7DF91CF911F910F91FF90EF900C94E8
:101290005911FC01538D448D252F30E0842F90E0AF
:1012A000821B930B541710F0CF9608950197089561
:1012B000FC01918D828D981761F0828DDF01A80F5E
:1012C000B11D5D968C91928D9F5F9F73928F90E080
:1012D00008958FEF9FEF0895FC01918D828D9817EF
:1012E00031F0828DE80FF11D858D90E008958FEF2C
:1012F0009FEF0895FC01918D228D892F90E0805CF5
:101300009F4F821B91098F739927089581ED93E078
:101310000E947A0921E0892B09F420E0822F0895A8
:10132000FC01848DDF01A80FB11DA35ABF4F2C9182
:10133000848D90E001968F739927848FA689B78951
:101340002C93A089B1898C9180648C93938D848D2A
:10135000981306C00288F389E02D80818F7D8083F9
:101360000895EF92FF920F931F93CF93DF93EC01B9
:1013700081E0888F9B8D8C8D981305C0E889F98951
:10138000808185FD24C0F62E0B8D10E00F5F1F4F6E
:101390000F731127E02E8C8DE8120CC00FB607FCDE
:1013A000FACFE889F989808185FFF5CFCE010E94C7
:1013B0009009F1CF8B8DFE01E80FF11DE35AFF4F2D
:1013C000F0820B8FEA89FB898081806207C0EE89F9
:1013D000FF896083E889F98980818064808381E066
:1013E00090E0DF91CF911F910F91FF90EF900895C2
:1013F000CF93DF93EC01888D8823C9F0EA89FB89BC
:10140000808185FD05C0A889B9898C9186FD0FC0B2
:101410000FB607FCF5CF808185FFF2CFA889B98987
:101420008C9185FFEDCFCE010E949009E7CFDF912F
:10143000CF91089580E090E0892B29F00E948609E1
:1014400081110C940000089585ED8093BC0080917B
:10145000BC0084FDFCCF1092AC0308950E948D1651
:101460001F920F920FB60F9211242F933F934F9319
:101470005F936F937F938F939F93AF93BF93EF93FC
:10148000FF9381ED93E00E949009FF91EF91BF914E
:10149000AF919F918F917F916F915F914F913F910C
:1014A0002F910F900FBE0F901F9018951F920F92C3
:1014B0000FB60F9211242F938F939F93EF93FF9367
:1014C000E091E103F091E2038081E091E703F09184
:1014D000E80382FD12C090818091EA038F5F8F73D1
:1014E0002091EB03821751F0E091EA03F0E0EF5214
:1014F000FC4F958F8093EA0301C08081FF91EF91AB
:101500009F918F912F910F900FBE0F901F90189564
:101510001F920F920FB60F9211242F933F934F9368
:101520005F936F937F938F939F93AF93BF93EF934B
:10153000FF938091B900887F803609F49CC068F5DC
:10154000883209F45BC090F4803109F454C038F457
:10155000882309F4F6C0883009F44DC0F6C08831FC
:1015600009F44CC0803209F45DC0EFC0803409F446
:1015700068C048F4803309F455C0883309F0E5C0E9
:101580008093AA03D8C0803509F44FC0883509F488
:101590005DC0883409F0D9C0D6C0883909F4C7C005
:1015A000A8F4883709F467C038F4883609F463C0B2
:1015B000803709F460C0C9C0883809F4B8C08039E0
:1015C00009F45FC0803809F0C0C05BC0803B09F4FB
:1015D00086C038F4803A09F466C0883A09F47FC0BE
:1015E000B4C0803C09F4A7C0883C09F4A4C0883B7F
:1015F00009F48AC0AAC08091870310C09091A90302
:101600008091A803981770F5E091A90381E08E0FEF
:101610008093A903F0E0E857FC4F80818093BB00E2
:1016200085EC86C08093AA038EC0E091A90381E077
:101630008E0F8093A9038091BB00F0E0E857FC4F28
:1016400080839091A9038091A8036EC0E091A903C3
:1016500081E08E0F8093A9038091BB00F0E0E857F2
:10166000FC4F80838091AB0381116DC081E080933A
:10167000860384EA61C083E08093AC031092520336
:10168000CFCF80915203803208F051C0E0915203D5
:1016900081E08E0F809352038091BB00F0E0EE5CFE
:1016A000FC4F8083BDCF85EC8093BC001092AC03CF
:1016B00080915203803230F4E0915203F0E0EE5C0E
:1016C000FC4F10826091520370E0E0913003F09182
:1016D000310382E393E009951092520336C084E00F
:1016E0008093AC0310922F0310922E03E0912C03F1
:1016F000F0912D03099580912E03811105C081E0A1
:1017000080932E0310920C03E0912F0381E08E0F43
:1017100080932F03F0E0E45FFC4F80818093BB0057
:1017200090912F0380912E03981708F479CF85E8C4
:101730008093BC000AC085EC8093BC001092AC037F
:1017400004C01092AA030E94240AFF91EF91BF9156
:10175000AF919F918F917F916F915F914F913F9149
:101760002F910F900FBE0F901F90189540912E0350
:10177000262F30E0240F311D21323105DCF4209179
:10178000AC032430C9F4FC0180E090E0861758F4E3
:1017900030912E032191DC01A45FBC4FA30FB11D3A
:1017A0002C930196F3CF80912E03680F60932E0344
:1017B00080E0089581E0089582E008950F931F93DB
:1017C000CF938C01FC0164839085C62FC90F6C2FC9
:1017D0006F70C8010E94FA056C2F62956F7060618E
:1017E000C801CF911F910F910C94FA05FC016087FD
:1017F0000895FC0167830895FC0166830895FC0148
:1018000065830895FC01648308950895FC01638352
:101810000895FC01748B638B0895DC015396ED9160
:10182000FC915497309749F020E030E040E050E0E0
:1018300060E070E080E090E0099408950895FC0174
:10184000818992890895FC01878590890895FC011A
:10185000858596850895FC01838594850895FC010E
:10186000818592850895089508950F931F93CF93CE
:10187000DF93EC018A01E881F981028CF38DE02D80
:101880000995E881F981068CF78DE02DB801CE012C
:10189000DF91CF911F910F910994FC0174876387A9
:1018A0000895FC01728761876130710519F48CEF2E
:1018B00091E205C06230710561F480EB9DE196878D
:1018C000858780E39AE2908B87878AE090E0928B0D
:1018D000818B0895FC0180850895FC01878108951E
:1018E000FC0186810895FC0185810895FC018481B5
:1018F0000895089580E00895089580E090E00895A7
:10190000FC016087268D378D662311F0326002C09E
:101910003D7FFC01378F268F64E00C94F907FC01B2
:101920006783228D338D662311F03F7B02C03064C4
:10193000FC01338F228F62E00C94F907FC0166836F
:10194000828D938D9C013E7F338F228F662321F001
:101950003062338F228F03C09E7D938F828F62E02F
:10196000CF010C94F907FC016583228D338D66232A
:1019700011F0306101C03F7EFC01338F228F62E0A5
:101980000C94F907FC0164836F7020A131A1207FC2
:10199000262B31A320A365E00C94F907CF93DF93A6
:1019A000EC018B81882389F06EE381ED93E00E9446
:1019B000431364E872E081ED93E00E94901363E5C5
:1019C00072E081ED93E00E943113E881F981048097
:1019D000F581E02D60E0CE0109951B8E1A8ECE01B7
:1019E000DF91CF910C940B091F93CF93DF93EC0100
:1019F0008B81882389F06EE381ED93E00E9443138D
:101A000069E872E081ED93E00E94901363E572E073
:101A100081ED93E00E9431131092650310926403EC
:101A20001092AE031092D0031092AC0311E0109309
:101A3000AB031092860361E082E10E94F41161E041
:101A400083E10E94F4118091B9008E7F8093B900E8
:101A50008091B9008D7F8093B90088E48093B800AD
:101A600085E48093BC001093AD0381E18093CF03A4
:101A70001092AE031092D0030E94591181113CC004
:101A80008B81882359F06EE381ED93E00E9443132C
:101A90006EE872E081ED93E00E94311384E098E5F6
:101AA0009F8B8E8B198E188E83E090E09B8F8A8F90
:101AB000E881F981028CF38DE02D61E070E0CE01C8
:101AC000099580E098E09F8F8E8F81E890E999A337
:101AD00088A31BA21AA21DA21CA21FA21EA219A6A5
:101AE00018A6CE010E940B0981E090E09B8F8A8F9F
:101AF00062E0CE010E94F90781E0DF91CF911F9152
:101B00000895CF93DF9300D000D0CDB7DEB7DC01CE
:101B1000ED91FC9106A4F7A5E02DBE016F5F7F4F0C
:101B200009958C81811103C061EA72E002C06BE902
:101B300072E081ED93E00E9490138A81811103C0CD
:101B400061EA72E002C067EA72E081ED93E00E9410
:101B500090138B81811103C067EB72E002C06DEAC4
:101B600072E081ED93E00E94901381ED93E00E947A
:101B70002D130F900F900F900F90DF91CF9108953C
:101B8000CF93DF93CDB7DEB727970FB6F894DEBFBC
:101B90000FBECDBFDC01ED91FC9104A4F5A5E02DB5
:101BA000BE016F5F7F4F09958C81811103C069E988
:101BB00071E002C06EE971E081ED93E00E94901344
:101BC0008D81811103C068EC72E002C061EC72E0AB
:101BD00081ED93E00E9490138F81811103C067ED26
:101BE00072E002C06FEC72E081ED93E00E9490130E
:101BF0006FED72E081ED93E00E9490134A8150E016
:101C000060E070E02AE081ED93E00E94E41268EE6B
:101C100072E081ED93E00E9490134B8150E060E010
:101C200070E02AE081ED93E00E94E41281ED93E000
:101C30000E942D1327960FB6F894DEBF0FBECDBFBE
:101C4000DF91CF910895CF92DF92EF92FF920F93A1
:101C50001F93CF93DF931F92CDB7DEB78C016B013B
:101C6000DC01ED91FC91048CF58DE02D4983099503
:101C70007C01D801ED91FC9100A0F1A1E02DC801FB
:101C800009954981C114D104E1F14B30D0F1F6013D
:101C90001082F1E0EF1AF10822E0E216F10488F573
:101CA00045E0EAE0F0E010E24150242F30E044301B
:101CB00011F0009751F02C0D3D1DBF010E945116EF
:101CC000805DD9018C93CB0104C0D601A20FB31F54
:101CD0001C934111E9CFF60184818583838184833C
:101CE0008EE2838360EF72E0C60106960F90DF916B
:101CF000CF911F910F91FF90EF90DF90CF900C94B8
:101D00009B160F90DF91CF911F910F91FF90EF9055
:101D1000DF90CF900895DC01FB01108211821282C6
:101D2000138214968C911497808317968C91179731
:101D3000818318968C911897828315968C91838352
:101D4000089527E0FB0111922A95E9F7FC018681AD
:101D5000FB0185830895EF92FF920F931F93CF931A
:101D6000DF937A018901892BA1F568EB72E080E8A5
:101D700094E00E949B1660E874E08AE894E00E9478
:101D80009B1665EF72E084E994E00E949B1682E462
:101D9000E6EAF4E0DF011D928A95E9F710927F04EC
:101DA000E0919E04F0919F04309719F084E994E04B
:101DB0000995E091A204F091A304309709F4F5C0CD
:101DC0008BE093E0DF91CF911F910F91FF90EF9007
:101DD0000994CB0188279870892F869586958695DA
:101DE0009B012227307F832B8A6080937A04109294
:101DF0007B0410927C048A3209F44BC020F48A5090
:101E0000823028F0D2C08A3409F482C0CEC0637018
:101E1000660FE12EF02EE62FF0E0EF01C658DB4F03
:101E20008E8181132AC0E558FB4F8681801325C01F
:101E3000188B008B109292046630F9F46AE874E013
:101E400080E894E00E949216892BB9F464E974E06A
:101E50008AE894E00E949216892B79F06AE874E08F
:101E600084E994E00E949B16E0919E04F0919F0407
:101E7000309719F084E994E009958E818E1104C0A1
:101E80008F818F1509F491C01E830F8310928804EF
:101E90008CC0862F807180937D04E62FEF70CE2F4B
:101EA000CC0FCC0F80917F04C81748F4E091A204B6
:101EB000F091A304309719F086EA94E00995C09355
:101EC0007F0480917D0490917E04891749F080936E
:101ED0007E0482E4E6EAF4E0DF011D928A95E9F7E8
:101EE000EC2FF0E0E658FB4FF4A6E1E0EC0FF0E059
:101EF000E658FB4FE4A6E2E0EC0FF0E0E658FB4FBB
:101F000014A7E3E0EC0FF0E0E658FB4F04A74DC048
:101F1000C80126E0969587952A95E1F78F73992752
:101F2000B1E0EB22FF2434E0EE0CFF1C3A95E1F720
:101F3000A801452F552742954F70E42AF52A4CE316
:101F40004E9D90014F9D300D1124820F931F202F25
:101F50002F7105FF06C03EE1239F801991091124CE
:101F600005C0AEE12A9F800D911D1124E091A004CF
:101F7000F091A1043097C9F02091A4043091A504F8
:101F80008217930791F09093A5048093A4046CE3C7
:101F900070E00E945116962F682F892FDF91CF9104
:101FA0001F910F91FF90EF900994DF91CF911F91B6
:101FB0000F91FF90EF900895CF93DF93EC016EEFB8
:101FC00072E081ED93E00E949013BE0181ED93E0F9
:101FD0000E94311340E060E08EE195E00E9402062D
:101FE00063E073E08EE195E00E94901342E060E0D0
:101FF0008EE195E00E9402068EE195E00E945F0668
:10200000BE018EE195E0DF91CF910C9490130F9378
:102010001F93CF93DF93EC01062F142F8E85813110
:1020200020F4882329F0411103C00E9459111E8613
:102030008E85811113C08D8591E09093AD038093BF
:10204000CF031092AE031092D003112311F060E47D
:1020500001C060E08EE694E00E948703602F8EE668
:1020600094E00E948703123021F48E858F5F8E8763
:1020700003C00E9459111E86DF91CF911F910F91CD
:102080000895CF93DF93EB016031710530F460E385
:1020900081ED93E00E94431304C06F3F710509F086
:1020A00030F460E381ED93E00E94431303C06115B7
:1020B000704128F460E381ED93E00E944313AE0188
:1020C00060E070E020E181ED93E00E94E41260E2C4
:1020D00081ED93E0DF91CF910C944313833081F035
:1020E00028F4813099F08230A1F008958730A9F06A
:1020F0008830B9F08430D1F4809180008F7D03C0A6
:10210000809180008F7780938000089584B58F77C9
:1021100002C084B58F7D84BD08958091B0008F7713
:1021200003C08091B0008F7D8093B00008953FB7C9
:10213000F89480912E0590912F05A0913005B091D3
:10214000310526B5A89B05C02F3F19F00196A11DAA
:10215000B11D3FBFBA2FA92F982F8827820F911D3D
:10216000A11DB11DBC01CD0142E0660F771F881F84
:10217000991F4A95D1F70895CF92DF92EF92FF927F
:102180000F931F93CF93DF936C017A018B01C0E013
:10219000D0E0CE15DF0589F0D8016D918D01D60113
:1021A000ED91FC910190F081E02DC6010995892BFC
:1021B00011F47E0102C02196ECCFC701DF91CF91CF
:1021C0001F910F91FF90EF90DF90CF9008956115D0
:1021D000710579F0FB0101900020E9F73197AF011B
:1021E000461B570BDC01ED91FC910280F381E02D41
:1021F000099480E090E00895382F2091D0039091C9
:10220000CF03213208F049C08091AC038111FCCF8B
:1022100042E04093AC033093AB033FEF3093AA030B
:102220001092A9032093A803AFEAB3E048E853E073
:10223000FA013E2F341B321718F43D913193F9CF38
:102240001092870320918703990F922B9093870315
:1022500090918603913061F41092860390918703E8
:102260009093BB009091BC0093FDF8CF95EC01C01A
:1022700095EE9093BC009091AC039230E1F3909175
:10228000AA039F3F79F08091AA03803241F08091A8
:10229000AA03803331F084E005C081E003C082E00E
:1022A00001C083E01092AE031092D0031092AD03F0
:1022B000089581E00C94FC109091AC039111FCCF37
:1022C00091E09093AC034093AB032FEF2093AA03CC
:1022D0001092A903260F2093A8039093870390914F
:1022E0008703880F892B8093870380918603813031
:1022F00061F410928603809187038093BB008091E4
:10230000BC0083FDF8CF85EC01C085EE8093BC0056
:102310008091AC038130E1F38091A903861710F41A
:102320006091A903A8E8B3E026E633E0F9018E2F17
:10233000821B861718F48D918193F9CF862F08950B
:10234000813208F080E241E0682F80E10E945C1158
:10235000109265038093640308950F9300912505FF
:10236000069506950695015040912405415020E0C0
:1023700060E08EE195E00E942B0681E090912805B7
:10238000911101C080E08093280560E48EE195E022
:102390000F910C94FA05CF93DF93282F30E0F901C9
:1023A000ED56FA4F8491F901E158FA4FD491F901B1
:1023B000E559FA4FC491CC2391F081110E946E101F
:1023C000EC2FF0E0EE0FFF1FEF59FA4FA591B491FB
:1023D000EC91ED2381E090E021F480E002C080E008
:1023E00090E0DF91CF9108951F93CF93DF93282F33
:1023F00030E0F901ED56FA4F8491F901E158FA4FB6
:10240000D491F901E559FA4FC491CC23C9F0162FA4
:1024100081110E946E10EC2FF0E0EE0FFF1FE95AC1
:10242000FA4FA591B4918FB7F894111105C09C9102
:10243000ED2FE095E92302C0EC91ED2BEC938FBFDB
:10244000DF91CF911F910895CF93DF9390E0FC012E
:10245000E158FA4F2491FC01E559FA4F8491882301
:1024600061F190E0880F991FFC01E35BFA4FC59181
:10247000D491FC01E95AFA4FA591B491611109C0B8
:102480009FB7F8948881209582238883EC912E232E
:102490000BC0623061F49FB7F8943881822F809529
:1024A00083238883EC912E2B2C939FBF06C08FB77C
:1024B000F894E8812E2B28838FBFDF91CF91089568
:1024C0008F929F92AF92BF92CF92DF92EF92FF9244
:1024D0006B017C010E9497104B015C01C114D10477
:1024E000E104F104F1F00E949710DC01CB0188199E
:1024F0009909AA09BB09883E9340A105B10570F36B
:1025000021E0C21AD108E108F10888EE880E83E0C4
:10251000981EA11CB11CC114D104E104F10419F7E7
:10252000DDCFFF90EF90DF90CF90BF90AF909F9066
:102530008F9008951F920F920FB60F9211242F9330
:102540003F938F939F93AF93BF938091600390913C
:102550006103A0916203B091630330912D0523E0E4
:10256000230F2D3720F40196A11DB11D05C026E8CB
:10257000230F0296A11DB11D20932D0580936003AA
:1025800090936103A0936203B093630380912E053F
:1025900090912F05A0913005B09131050196A11DB4
:1025A000B11D80932E0590932F05A0933005B09315
:1025B0003105BF91AF919F918F913F912F910F90D6
:1025C0000FBE0F901F9018954F925F926F927F925F
:1025D000EF92FF920F931F93CF93DF93CDB7DEB7A8
:1025E000A1970FB6F894DEBF0FBECDBF7C01FA01F4
:1025F000CB0119A2223008F42AE08E010F5D1F4F93
:10260000422E512C612C712CBF01A30192010E941A
:102610006516F901CA01015011096A3014F4605DB0
:1026200001C0695CD8016C93232B242B252B61F707
:10263000B801C7010E94E710A1960FB6F894DEBF5B
:102640000FBECDBFDF91CF911F910F91FF90EF9003
:102650007F906F905F904F90089569E073E00C94C5
:10266000E7100F931F93CF93DF93EC010E94E710C5
:102670008C01CE010E942D13800F911FDF91CF910D
:102680001F910F910895DC01ED91FC910190F08173
:10269000E02D0994CF92DF92EF92FF92CF93DF93D8
:1026A0006C01990FEE08FF08F7FE1BC06DE281ED8B
:1026B00093E00E944313EC0144275527BA014C19BB
:1026C0005D096E097F092AE081ED93E00E94E41222
:1026D0008C0F9D1FDF91CF91FF90EF90DF90CF90F7
:1026E00008952AE0B701A60181ED93E0DF91CF9133
:1026F000FF90EF90DF90CF900C94E4120F931F9314
:10270000CF93DF93EC010E9443138C01CE010E9412
:102710002D13800F911FDF91CF911F910F9108957D
:102720000C94E710CF93DF93CDB7DEB72C970FB69D
:10273000F894DEBF0FBECDBF789484B5826084BDAF
:1027400084B5816084BD85B5826085BD85B58160B5
:1027500085BD80916E00816080936E001092810033
:1027600080918100826080938100809181008160EE
:1027700080938100809180008160809380008091AF
:10278000B10084608093B1008091B000816080933B
:10279000B00080917A00846080937A0080917A0002
:1027A000826080937A0080917A00816080937A00C1
:1027B00080917A00806880937A001092C10062E074
:1027C00082E00E94241262E083E00E94241262E010
:1027D00085E00E94241262E087E00E94241262E0F9
:1027E00086E00E94241262E084E00E94241261E0EC
:1027F0008DE00E94241261E088E00E942412E091A2
:10280000E103F091E20382E08083E091DD03F09147
:10281000DE031082E091DF03F091E0038FEC808310
:102820001092E903E091E503F091E60386E08083EE
:10283000E091E303F091E403808180618083E09183
:10284000E303F091E403808188608083E091E303F7
:10285000F091E403808180688083E091E303F0914C
:10286000E40380818F7D808366E572E081ED93E0F3
:102870000E94311364EF71E080E090E00E946012EA
:1028800061E088E00E94241260E088E00E94F41178
:102890006AE070E080E090E00E94601261E088E011
:1028A0000E94F4116AE070E080E090E00E94601203
:1028B00010922C058CE380932B0510922205109228
:1028C0002305E7E4F5E085919491E82EE9E4F5E04D
:1028D000F490EAE4F5E0E491E0932405EBE4F5E01C
:1028E000E491E0932505ECE4F5E0E491E09326051E
:1028F0008C01802F8E198F1548F4F80164918EE1B8
:1029000095E00E94FA050F5F1F4FF3CF1092280544
:102910000E94AD118BEA90E090932A0580932905DF
:1029200088EE94E00E94F40C81E08093EB040E9416
:10293000AD1140E060E08EE195E00E9402066FE597
:1029400072E08EE195E00E9431136CE672E08EE158
:1029500095E00E94901360ED77E080E090E00E94A7
:1029600060120E94AD1188EE94E00E94BB05909326
:102970005F0380935E03AC0160E070E02AE081EDCC
:1029800093E00E94E41281ED93E00E942D1307EA88
:1029900010E0F8014591549161E070E088EE94E018
:1029A0000E94350CF8016591749188EE94E00E94C4
:1029B0009B0860E088EE94E00E949E0C60E088EE48
:1029C00094E00E948F0C65E088EE94E00E94C20CB7
:1029D0008BEA9EE09093FC048093FB048CED9FE0D7
:1029E00090939F0480939E048FB7F894C0906003E7
:1029F000D0906103E0906203F09063038FBF82E0A8
:102A00000E94CB11892B59F466E772E081ED93E0C7
:102A10000E94311361E088EE94E00E947B0883E01D
:102A20000E94CB11892B59F469E772E081ED93E0A4
:102A30000E94311361E088EE94E00E945A0888EE0B
:102A400094E00E94C3038091000190910101A09144
:102A50000201B09103018C159D05AE05BF0508F07C
:102A6000C4C088EE94E00E94BB0590935F038093FE
:102A70005E0320915C0330915D0382179307B1F1EF
:102A80004CE0BE016F5F7F4F88EE94E00E94230E02
:102A90006EE772E081ED93E00E949013BE016F5FDC
:102AA0007F4F81ED93E00E94311340E060E08EE1C2
:102AB00095E00E9402066EE772E08EE195E00E94CA
:102AC000311342E060E08EE195E00E940206BE0113
:102AD0006F5F7F4F8EE195E00E94311380915E031E
:102AE00090915F0390935D0380935C0365E573E0D1
:102AF00088EE94E00E948E058091560380935403E3
:102B000090915303891709F462C065E573E088EE7C
:102B100094E00E948E0561EE72E081ED93E00E94E8
:102B200090134091560350E060E070E02AE081EDA0
:102B300093E00E94E41281ED93E00E942D138091B6
:102B40005803882311F002E501C00DE280915B0378
:102B5000882311F013E501C01DE240E066E48EE138
:102B600095E00E940206602F8EE195E00E944313DB
:102B7000612F8EE195E00E944313602F81ED93E079
:102B80000E944313612F81ED93E00E947E1340E089
:102B900064E68EE195E00E9402066BEF72E08EE142
:102BA00095E00E94901340E064E68EE195E00E947B
:102BB00002064091560350E060E070E02AE08EE1AA
:102BC00095E00E94E4128091540380935303F8EE41
:102BD000CF0EF3E0DF1EE11CF11CC0920001D09289
:102BE0000101E0920201F09203010E941A0AFCCE58
:102BF000E1EDF3E01382128288EE93E0A0E0B0E012
:102C000084839583A683B78328E031E031832083D2
:102C100025EC30E03587248724EC30E037872687A1
:102C200020EC30E0318B208B21EC30E0338B228B99
:102C300022EC30E0358B248B26EC30E0378B268B72
:102C4000118E128E138E148EEEE6F4E01382128231
:102C500084839583A683B7838AE191E091838083FF
:102C6000EEE1F5E01382128281E0818714861386FB
:102C700080E791E091838083E8EEF4E085E1DF0175
:102C80001D928A95E9F78CE291E0918380838FE031
:102C9000858B8EE6EAE7F4E0DF011D928A95E9F77D
:102CA0000895AA1BBB1B51E107C0AA1FBB1FA61793
:102CB000B70710F0A61BB70B881F991F5A95A9F7E5
:102CC00080959095BC01CD010895A1E21A2EAA1B12
:102CD000BB1BFD010DC0AA1FBB1FEE1FFF1FA217CC
:102CE000B307E407F50720F0A21BB30BE40BF50BC9
:102CF000661F771F881F991F1A9469F76095709552
:102D0000809590959B01AC01BD01CF010895EE0F18
:102D1000FF1F0590F491E02D099481E090E0F89474
:102D20000C94A216FB01DC018D9101908019011019
:102D3000D9F3990B0895FB01DC0101900D9200205D
:082D4000E1F70895F894FFCFBC
:102D48009001000000000000B109BC104909F80911
:102D58007A0958096C0900000000870357037D0CA5
:102D6800140338032403150300000000F40CCE0CF0
:102D7800C20C760C8F0C6D0C800C6A0CB30C730CA7
:102D8800270C230C1F0CDB052F0C9B08BB05350CEF
:102D98007B085A089E0C700C8E058B0EC3030D0C15
:102DA800090C230E060CC00D810D6E0400000000F6
:102DB8008E06BC107D0C7C0C0710424C4F434B5FB9
:102DC8004520666F756E642E002053746572656FBA
:102DD80000204D6F6E6F202000202D2D2D002052D9
:102DE8004453004672657175656E63793D002050E5
:102DF800493D00205369673D0030202020203120C4
:102E08002020203220202020332020202034202081
:102E18002020352020202036202020203720202068
:102E28002038202020203920202020412020202048
:102E380042202020204320202020442020202045FC
:102E480020202020460042617373426F6F73742004
:102E5800004D6F6E6F2000566F6C756D653D002DCF
:102E68005F736176655265676973746572002830AF
:102E780078002C203078007365744672657175652A
:102E88006E6379002D736176655265676973746541
:102E9800727300282900526164696F2E2E2E005328
:102EA80063616E2073746174696F6E0020524441CF
:102EB800353830372100557000446F776E00465220
:102EC80045513A007465726D00696E6974007261EB
:102ED80064696F20666F756E642E002042415353FB
:102EE80000202D2D2D2D00204D5554450020534FE9
:102EF80046544D55544500202D2D2D2D2D2D2D2D6D
:102F0800002054554E454400202D2D2D2D2D0020F8
:102F180053544552454F0020204D4F4E4F2000201E
:102F280020525353493A20002020534E523A200051
:102F3800204D487A002020202020202020005244C4
:0C2F4800533A005244533A20000D0A0096
:00000001FF
