:100000000C94D50D0C94FD0D0C94FD0D0C94FD0D70
:100010000C94FD0D0C94FD0D0C94FD0D0C94EF2033
:100020000C94FD0D0C94FD0D0C94FD0D0C94FD0D28
:100030000C94FD0D0C94FD0D0C94FD0D0C94FD0D18
:100040000C94321F0C94FD0D0C94A21F0C947C1F79
:100050000C94FD0D0C94FD0D0C94FD0D0C94FD0DF8
:100060000C94D41F0C94FD0DAED580A83FD3004056
:100070008D142002A1C8DA12817FD9F1DB40A4A639
:10008000AF0000060E20600000000000000000002D
:10009000000000000000FC00000000000D00000057
:1000A000001E001E000000000000000020FC20FCDC
:1000B0002000010F010F01304888FC883006080835
:1000C0001F08071824A478100C0C02070909060061
:1000D000B8C44438800708080506090000001E005F
:1000E000000000000000000000E01804020000030F
:1000F0000C102000020418E0000020100C03000087
:100100002040F04020000201070102008080F080C2
:100110008000000007000000000000000000002434
:100120001C00000080808080800000000000000033
:1001300000000000000000081C0800000000E0189B
:1001400006300C03000000F008040408F003040863
:10015000080403001008FC00000008080F08081835
:10016000040404C438080C0A09080804044464544C
:100170008C06080808080700C03008FC00030202CB
:10018000020F027C24242424C4060808080807F06F
:100190008844444480070808080807040404C43459
:1001A0000C000C0300000018A44444A4180708081D
:1001B0000808077884848444F806080808040300C3
:1001C00000207020000000040E04000000606000A9
:1001D000000000120E000000804020100800000106
:1001E000020408202020202020010101010101003B
:1001F0000810204080000804020100180404C424F0
:10020000180000000D0000F008E41414F8030409BD
:100210000A0A0BF088848488F00F000000000FFCAD
:10022000444444A8100F0808080403F80404040414
:1002300018070808080806FC04040408F00F08085A
:10024000080403FC44444404040F0808080808FC9C
:1002500044444404040F0000000000F804048484B3
:100260009807080808040FFC40404040FC0F0000BD
:1002700000000F000404FC04040008080F08080034
:10028000000004FC04060808080700FC40A0100851
:10029000040F000001020CFC00000000000F080821
:1002A000080808FC18606018FC0F000000000FFC34
:1002B00030408000FC0F000000030FF80404040429
:1002C000F8070808080807FC84848484780F000075
:1002D000000000F804040404F80709090A1C27FCBC
:1002E00084848484780F000001020C3844448484A0
:1002F00018060808080807040404FC0404000000A9
:100300000F0000FC00000000FC0708080808073C7C
:10031000C00000C03C00010E0E010000FC00000007
:10032000FC0007080708070C30C0C0300C0C0300A5
:1003300000030C001C6080601C0000000F00000423
:10034000048464140C0C0B080808080000FE020268
:100350000200003F2020200618E0000000000000FE
:10036000030C3000020202FE00002020203F0008A3
:100370000402020408000000000000000000000069
:10038000002020202020200000020408000000009F
:100390000000004020202020C006090909090FFCA8
:1003A00040202020C00F0408080807C0202020207B
:1003B00040070808080804C020202040FC0708085F
:1003C00008040FC020202020C007090909090540A2
:1003D00040F844440800000F000000C0202020C066
:1003E0002019262A2A2910FC40202020C00F0000B6
:1003F00000000F000020EC00000008080F080800B3
:1004000000000020EC00182020201FFC008040206D
:10041000000F0101020408000004FC0000000808AD
:100420000F080800E020C020C0000F0007000FE008
:1004300040202020C00F000000000FC020202020FE
:10044000C0070808080807E040202020C03F040833
:10045000080807C020202040E007080808043FE003
:1004600040202020C00F000000000040A0202020DD
:1004700040040809090A042020FC2020000000078D
:10048000080804E000000000E007080808040F0066
:10049000E0000000E00000030C030000E00080002A
:1004A000E00007080708076080000080600C020178
:1004B00001020CE000000000E013242424221F208D
:1004C0002020A06020080C0B0808080000807C0297
:1004D000020000001F2020000000FE0000000000BD
:1004E0003F00000002027C80000020201F00000C62
:1004F000020408100C000000000000FEFEFEFEFEDC
:10050000FE3F3F3F3F3F3F2E227E22CE22462378B2
:1005100023A023182458258025A82564280429E62B
:1005200028F42900030C0F30333C3FC0C3CCCFF07C
:10053000F3FCFF6E980A1A20600707090B0C1210D3
:10054000050607080A060505090C090C0C0C0C0B1E
:100550000E0D0D05050A0A0A0B100E0E0D0D0B0CE3
:100560000D0E080B0E0C0F0D0D0D0F0F0C0C0D0DBD
:10057000110D0D0C0706080A0C060E0E0D0D0B0CC6
:100580000D0E080B0E0C0F0D0D0D0F0F0C0C0D0D9D
:10059000110D0D0C0702070B0C00000000000000FD
:1005A000000000000000000000000000000000004B
:1005B0000000000000E0E0F0D020C080037FBD8399
:1005C000FCFF1F060910393F3F0800000000000033
:1005D00000E0F010E0E0F010E0C000070F0F0707A8
:1005E0000F0F0000000000000000000000000000ED
:1005F00000000000000000000080400000C040003B
:100600006066E67E6766E67E6766060004070000B1
:1006100004030000000000000000000000000000D3
:10062000008040A0E0D8F8D8D0A0C00000C72F3D7F
:100630003BCB1FAF2D6E9F3FDE03040C193B607355
:100640007B39381C1F000000000000000000000083
:100650000080E0E0F0F070E0E0C000806020E0E0CA
:10066000400000071F3F3777F87F1FCFE7391ECFC5
:10067000CB081030E00000001C32313C0F03030CAB
:1006800018173730383C1F00000000000000000041
:100690000000000000000000000000C0E0F0B0B06A
:1006A00020E0C0800000000000C0F07FBFC91F6FC5
:1006B000D63B670704C4E47860030508111333329E
:1006C000383930103330383F1E0000000000000081
:1006D000000000000000000000E0F010E0C0000793
:1006E0000C0F07000000000000000000000080F078
:1006F000E8F8F8FFFC5FFFFF03030F3447FFF80043
:10070000000000000028D8E8D870E0800001FE5BFF
:10071000FF19FF182760737C3F1F000000000000D6
:100720000080E0A0D0F070C0C00103070B1F1F16AF
:100730000F000000000000000000000000000000AA
:10074000000000000000000000000060606060FE2B
:10075000FE60606060000000000F0F0000000000FD
:100760000000000000000000000000000000000089
:1007700000000000006ED1D1E2FE780000400000D1
:1007800000000000000038585858580000000000D1
:100790000000000000000000000000000000000E4B
:1007A00011313E38000000000000000000C0F0B031
:1007B000F0E000C03816EFFD3F07001E31383F075C
:1007C0000000000000000000000000000000C0C0A9
:1007D000E0F0F0F0D0E0C0C000FC0FF10FFFFF0030
:1007E000FF0FFF8DFF00030D08111333383A1D1F53
:1007F0000F000000000000000000000000C040C02A
:10080000F0F010F0C0000306FE1BEF00FFFF001C1D
:100810003433303130373F38000000000000000032
:100820000080C060A0B0B070E0A040800007CFB6EC
:1008300057BFE9DFEFEF78FF1E1F31303A19113152
:100840003131383F1F0000000000000000000000B0
:100850000080C060F0F0F0F0E0A0408000834F3EE8
:100860003CFF74CF73EB3CDF9E030C181313333142
:1008700031381C1F070000000000000000000000CD
:100880000000000080E050F0F0F0C00000E0182E02
:10089000333D3FF9293F3F40800103031F3330318F
:1008A00030333F3B03000000000000000000000068
:1008B0000000E0F0F0F0F0F0F0F090F0C0C8371F6A
:1008C00015FF9FFB0DFF0DF9E103040811333331D0
:1008D00039181E0F03000000000000000000000097
:1008E000000080C060E0D0F0F0E0E0C0FC1FF10F3D
:1008F000CEF76FFDEF1FFF00030D181133323338B1
:100900001C1F0000000000000000000000F010F0BC
:10091000E06070F07060E0D0F0F0E00F181F1E1F74
:10092000F38F7F8BF5FF1E0F07000000001F303193
:10093000303F3F0000000000000000000000000009
:1009400000000000000080C0E0F0F0F0F0E0A04007
:100950008000C0271FD8F74F5A6DE7F31CFF8F03A5
:100960000C18111332323239391E1F0700000000F3
:100970000000000000000000008040E070B0F0F0D7
:10098000E0A040C00000879F7FF0E7EFF71FF10E67
:1009900083FFF8070C18163736313A391C1F0F0140
:1009A0000000000000000000000000000000000047
:1009B00000003844C4F8700E11313E3800000000C9
:1009C0000000000000003844C4F8606ED1D1E2FE9F
:1009D0000000404000000000000000000000006037
:1009E000F0F098980C0C06060300000001010303C8
:1009F00006060C00000000000000000000000000DF
:100A0000000000000000008C8C8C8C8C8C8C8C8CFA
:100A10008C01010101010101010101000000000040
:100A200000000000000000000000000000000003C3
:100A300006060C0C9898F0F0600C06060303010102
:100A40000000000000000000000000000080C06006
:100A5000D0F0F0F0E0A04080070B1F7FE99FEEF59B
:100A60007B1C1F0000000E1111313F000000000030
:100A70000000000000000000000000000000000076
:100A8000808080800000000000C0F81C06C3E131B7
:100A90001008C8F87901030EF8030F1C30276742CD
:100AA00042414747241402010000000000000000FA
:100AB00000000000000000000000000000C020F066
:100AC000F0B0E0C00000000000C03C038E9F9F3BE0
:100AD000ED1FFFE0001C12313030373F373231302C
:100AE00031333E0000000000000000000000000064
:100AF0000070B0F0F030B0B0B070E0A04080000006
:100B0000FF0DFF08EFEF6DCF35E318FF1E1C3331EB
:100B100030303737363131383C1F0F0000000000CD
:100B200000000000000000000000C0A0E0B0F0F0F5
:100B3000E0E0F0F0F0C0FF07F807FFFF0001DE770C
:100B400077FF3F00030C181133323339381E0F077B
:100B50000000000000000000000000000070B0F085
:100B6000F030B0B0B070E0C0C00000FF1BEF00FF7D
:100B7000FF817F8F738DFF1C333130303333313839
:100B8000391C1F07000000000000000000000000EA
:100B90000030F0F0F070F0F0B0F010F000FF0DFF5A
:100BA00008FFFFFF354CCF1C333031303333313049
:100BB000303F000000000000000000000070B0F0B6
:100BC000F030F0F0F0F0F010F000FF0DFF08EFEF64
:100BD0007867050C0F1C3330313033373800000094
:100BE0000000000000000000000000000000C0A0A5
:100BF000E0B0F0F0E0E0F010F0C0FF07F807FFFF12
:100C000070519E1F189FFF00030D181113323239C7
:100C100030303F3F000000000000000000000000F6
:100C20000070B0F0F030B0F0B0B0F0F0B090F00084
:100C3000FF0DFF08CFCFC9CFFD2DFFFF011C3331C2
:100C40003030373F34333130373F38000000000058
:100C500000000000000000000070B0F0F070F0F044
:100C6000E000FF1BEF00FFFF011C33303130373F46
:100C70003800000000000000000000000070B0F02C
:100C8000F070F0F0C020204080FF956F00FFFF0360
:100C90000C1813333131381C1F070000000000000E
:100CA000000000000070B0F0F030F0F070F0F07074
:100CB000B0D0F000FF8D7F08D7ABC71D7EEF83015A
:100CC000011C33313030373F363130303336380065
:100CD0000000000000000000000000000070B0F004
:100CE000F070F0F0C00000000000FF0BFF00FFFFFD
:100CF00001C04040C01C33303130313332313030EC
:100D00003F00000000000000000000000070B0F094
:100D100070F09060C0B070F0F0F0F0E000FF0FFFF6
:100D2000CC17E80F8FFCFB3BFFFF011C3330333740
:100D30003C31303F333130373F3800000000000095
:100D400000000000000000000070B0F0F0F0B0E023
:100D5000F0F0F0F0D0F000FF0FFFF6C936EB1F0FF8
:100D6000FFFF011C3330373F39370930303F3F0038
:100D70000000000000000000000000000000C0E0D3
:100D8000E0F0F0F0F0E0A0C08000FF0BF82FFFFFD4
:100D900000FF0FF30CFFFE01060918133734333937
:100DA000381E0F03000000000000000000000000DB
:100DB0000070B0F0F030B0B0B070E0A0408000FF44
:100DC0008D7F08CFCFCDCFEFE3707F1C3331303034
:100DD000373F383000000000000000000000000035
:100DE00000000000000080C0E0F0F0F0F0E0E0C0A3
:100DF00080000000FF0BF86F3F3F207F0FF30CFFD8
:100E0000FE000000030D18171735323120206371E2
:100E10007F3E000000000000000000000000000015
:100E20000070B0F0F030B0B0B070E0E04080000092
:100E300000FF8D7F08CFCF4DB7E937F8FF5E801CEC
:100E4000333130303337380719103130383F000034
:100E5000000000000000000000000000008040E0F2
:100E6000F0F0707070D0F0F0C0CF57AF6D4BCA9CEF
:100E7000ADC60B1FF71F30383912123231383C1E05
:100E80001F000000000000000000000000F0F0F073
:100E9000F0B0F0F070B070F0F00F1B1F1FFF9B6FF1
:100EA00000FFF80B1F00001C3433313030373F3067
:100EB0000000000000000000000000000070B0F022
:100EC000F030B0F0F0B0F0B090F000FF1BEF00FF9A
:100ED000FF01FF0FFFFF0100010609101337343B2C
:100EE0003C1F0F0000000000000000000000000098
:100EF000007070F0F030F0F0F0B0F030D0F00000A2
:100F00001F33EC03FF198FF8FF1F030000000709D0
:100F10001030383F3F0300000000000000000000D8
:100F200000000000007070F0F030B0F0F0F0F06001
:100F3000F0B0F0B0D0F00000073BEC033F0CFF3BFB
:100F4000EC3F0FC0FF3F01000000010F10303F3F9A
:100F50001F1130303F3F0000000000000000000083
:100F60000000000000000000003030F0F030B0F071
:100F7000F030F0F0F0F00001857629926F943FDEBA
:100F80008703011C363130363F3630313033363846
:100F9000000000000000000000000000003030F001
:100FA000F030F0F0F030F0F0F0E00000010EFBB4B3
:100FB0006BF4FBFE0F03010000001C3331303037AF
:100FC0003F30200000000000000000000000000092
:100FD00000F0F0F0B0B0B030F0F07090F0070DEF2E
:100FE0009F6FD7EDFBFD5F8F031E1331303333331B
:100FF0003231303F3F0000000000000000000000E0
:1010000000F8F8F8F8F86878FFFB2BFFFF00003FC6
:1010100061606F6F68780000000000000030F00031
:1010200000000000031FF08000000000011F1800F6
:1010300000000000003878F8F8F818F8F00000FF19
:101040001BEF00FFFF38686F6061607F7F0000006A
:101050000000000000000000C0E0E0C00000002030
:10106000381E030000071E382000000000000000AA
:101070000000000000000000000000000000000070
:101080000000000000000000000000000000000060
:101090000000000000404040404040404040404090
:1010A00040000000000000000000000000060B0EE1
:1010B0000E0C1C00000000000000000000000000FA
:1010C000000000000000000000C020F0F0B0E0C010
:1010D0000000000000C03C038E9F9F3BED1FFFE01F
:1010E000001C12313030373F3732313031333E005F
:1010F0000000000000000000000000000070B0F0E0
:10110000F030B0B0B070E0A040800000FF0DFF08EC
:10111000EFEF6DCF35E318FF1E1C3331303037371A
:10112000363131383C1F0F00000000000000000085
:10113000000000000000C0A0E0B0F0F0E0E0F0F03F
:10114000F0C0FF07F807FFFF0001DE7777FF3F00E1
:10115000030C181133323339381E0F07000000001A
:1011600000000000000000000070B0F0F030B0B0EF
:10117000B070E0C0C00000FF1BEF00FFFF817F8F59
:10118000738DFF1C3331303033333138391C1F0736
:101190000000000000000000000000000030F0F03F
:1011A000F070F0F0B0F010F000FF0DFF08FFFFFF4F
:1011B000354CCF1C3330313033333130303F0000C9
:1011C00000000000000000000070B0F0F030F0F00F
:1011D000F0F0F010F000FF0DFF08EFEF7867050C5E
:1011E0000F1C33303130333738000000000000006E
:1011F00000000000000000000000C0A0E0B0F0F01F
:10120000E0E0F010F0C0FF07F807FFFF70519E1FED
:10121000189FFF00030D18111332323930303F3F51
:101220000000000000000000000000000070B0F0AE
:10123000F030B0F0B0B0F0F0B090F000FF0DFF086B
:10124000CFCFC9CFFD2DFFFF011C33313030373FE9
:1012500034333130373F3800000000000000000018
:10126000000000000070B0F0F070F0F0E000FF1B34
:10127000EF00FFFF011C33303130373F38000000F2
:1012800000000000000000000070B0F0F070F0F00E
:10129000C020204080FF956F00FFFF030C18133320
:1012A0003131381C1F070000000000000000000062
:1012B0000070B0F0F030F0F070F0F070B0D0F000EE
:1012C000FF8D7F08D7ABC71D7EEF8301011C333133
:1012D0003030373F363130303336380000000000D0
:1012E00000000000000000000070B0F0F070F0F0AE
:1012F000C00000000000FF0BFF00FFFF01C04040E6
:10130000C01C333031303133323130303F000000D7
:1013100000000000000000000070B0F070F090606D
:10132000C0B070F0F0F0F0E000FF0FFFCC17E80F56
:101330008FFCFB3BFFFF011C333033373C31303F28
:10134000333130373F38000000000000000000005B
:10135000000000000070B0F0F0F0B0E0F0F0F0F04D
:10136000D0F000FF0FFFF6C936EB1F0FFFFF011C87
:101370003330373F39370930303F3F00000000003D
:1013800000000000000000000000C0E0E0F0F0F00D
:10139000F0E0A0C08000FF0BF82FFFFF00FF0FF36D
:1013A0000CFFFE010609181337343339381E0F03BA
:1013B0000000000000000000000000000070B0F01D
:1013C000F030B0B0B070E0A0408000FF8D7F08CF5B
:1013D000CFCDCFEFE3707F1C33313030373F383023
:1013E00000000000000000000000000000000000FD
:1013F000000080C0E0F0F0F0F0E0E0C0800000000D
:10140000FF0BF86F3F3F207F0FF30CFFFE00000043
:10141000030D181717353231202063717F3E00000D
:101420000000000000000000000000000070B0F0AC
:10143000F030B0B0B070E0E04080000000FF8D7F81
:1014400008CFCF4DB7E937F8FF5E801C333130301D
:101450003337380719103130383F000000000000E2
:101460000000000000000000008040E0F0F070701C
:1014700070D0F0F0C0CF57AF6D4BCA9CADC60B1FFC
:10148000F71F30383912123231383C1E1F0000006D
:10149000000000000000000000F0F0F0F0B0F0F0FC
:1014A00070B070F0F00F1B1F1FFF9B6F00FFF80B59
:1014B0001F00001C3433313030373F300000000053
:1014C00000000000000000000070B0F0F030B0F04C
:1014D000F0B0F0B090F000FF1BEF00FFFF01FF0F36
:1014E000FFFF0100010609101337343B3C1F0F00BA
:1014F000000000000000000000000000007070F01C
:10150000F030F0F0F0B0F030D0F000001F33EC031A
:10151000FF198FF8FF1F0300000007091030383F44
:101520003F03000000000000000000000000000079
:10153000007070F0F030B0F0F0F0F060F0B0F0B0AB
:10154000D0F00000073BEC033F0CFF3BEC3F0FC02B
:10155000FF3F01000000010F10303F3F1F113030EE
:101560003F3F0000000000000000000000000000FD
:1015700000000000003030F0F030B0F0F030F0F05B
:10158000F0F00001857629926F943FDE8703011CFD
:10159000363130363F3630313033363800000000D7
:1015A0000000000000000000003030F0F030F0F0EB
:1015B000F030F0F0F0E00000010EFBB46BF4FBFE45
:1015C0000F03010000001C33313030373F30200062
:1015D00000000000000000000000000000F0F0F03B
:1015E000B0B0B030F0F07090F0070DEF9F6FD7ED16
:1015F000FBFD5F8F031E1331303333333231303F05
:101600003F00000000000000000000000000C0B02B
:10161000F0B8F8F878EFF917FF1F00000F136047D4
:101620005FE000000000000000FCFCFFFFFFFFC0C7
:10163000C03878F0E020C0000000FF8778DFFF703E
:10164000D8C7E3F87F1F0000000000000000000082
:101650000000000000000000C06030303060C0C0FA
:10166000C07020000000000000000000000000002A
:10167000000000000000000000F838688808080832
:1016800008886838F8FF0000C1631C1C63C10000B3
:10169000FF0F0E0B0808080808080B0E0F000000CB
:1016A00000000000000000000019920A0C206002F7
:1016B000010408060B0801030305070204010506DF
:1016C0000506060706060606060102070707050ABD
:1016D00008060707060607070304060608070806A4
:1016E0000807060707080B06070603050308080294
:1016F0000606050606040606010305010906060698
:101700000604050506050905050505010508090086
:10171000000000FE2007000007000000008090F895
:101720009690F8961000300000300000001824FF5A
:101730004444842020F02020101C22221C80700CA5
:10174000C22020C00000002010000010202010DC6B
:101750002222225C80600010202020201010200710
:1017600000F806011060800106F88060100A041F6E
:10177000040A0000000000404040F84040400000E3
:101780000030000000000080704040404000000039
:101790000000300000E01C038070000000FC02022A
:1017A0000202FC1020202020100404FE0000202053
:1017B0003020200C824242221C3020202020200495
:1017C00002222222DC10202020201060504844FEFB
:1017D0004040000000003000001E12121212E21001
:1017E0002020202010F814121212E01020202020B7
:1017F00010020282621A06002010000000DC222281
:101800002222DC1020202020103C42424242FC00D8
:10181000202020100018300018807040A0A0101068
:101820000808000000101020205050505050505018
:101830000000000000000008081010A0A0402020B8
:1018400010100000000402E2221C0000200000F042
:101850000C04F20A0AFA040CF000302040505050F8
:1018600010100000E098868698E00030000000002C
:10187000000030FE2222223CC0302020202010F820
:1018800004020202020400102020202010FE0202A6
:10189000020204F830202020201000FE2222222202
:1018A00022302020202020FE22222222023000008E
:1018B000000000F80402022222E400102020202070
:1018C00010FE2020202020FE30000000000030020A
:1018D000FE02203020000202FE20202010FE2050B8
:1018E000880402300000001020FE000000000030DC
:1018F0002020202020FE0638C0C03806FE30000020
:101900000000000030FE061820C000FE300000007D
:10191000003030F8040202020204F80010202020F7
:10192000201000FE424242423C300000000000F81D
:10193000040202020204F80010202020609080FEC1
:10194000222262A21C00300000000010201C222273
:101950002222C4102020202010020202FE020202D5
:1019600000000030000000FE0000000000FE00103B
:1019700020202010000638C00000C03806000000FB
:1019800030300000001EE000C0380638C000E01E05
:1019900000003000000000003000000688707088F1
:1019A00006300000000030020C10E0100C020000B5
:1019B0000030000000028262120A0630202020203F
:1019C00020FF0101F08080031C60800000000030D7
:1019D000C00101FF8080F01008040202040810001A
:1019E0000000000000000000000000000000008077
:1019F00080808080808080010200008048484848C4
:101A0000F0102020202030FF10080808F03020209F
:101A1000202010F0080808101020202010F00808DE
:101A20000808FF102020201030F048484848701067
:101A3000202020201008FE090900300000F00808CE
:101A40000808F810A0A0A09070FF10080808F03057
:101A50000000000030F9300008F9808070FF40A0DD
:101A600010083000001020FF30F8080808F00808BF
:101A700008F0300000003000000030F810080808BE
:101A8000F0300000000030F008080808F0102020B6
:101A9000202010F810080808F0F02020202010F076
:101AA00008080808F81020202010F0F81008083066
:101AB0000000003048484888202020201008FE08F8
:101AC00008080010202020F800000000F810202056
:101AD00020103018E000E018000030000018E0008E
:101AE000E018E000E01800003000000030000018AE
:101AF000A040A018300000003018E000E01800807E
:101B0000700000088848281830202020202020DE7F
:101B100001010000708080FFF00101DE2020808044
:101B2000700000C020204040808060000000000065
:101B3000000000FE02020202020202FE302020200B
:101B40002020202030680019804000000000002480
:101B50000027002A0000000000250028002B0000BC
:101B600000000023002600290004040404040404E7
:101B7000040202020202020303030303030102043C
:101B800008102040800102040810200102040810FF
:101B9000200000000800020100000304070000000C
:101BA000000000000000AB21A22C11241FBECFEFCB
:101BB000D8E0DEBFCDBF26E0A4E6B3E001C01D92B1
:101BC000A73CB207E1F713E0A0E0B1E0ECEFF3E6E9
:101BD00002C005900D92A436B107D9F71DE0C4EDFF
:101BE000DDE004C02197FE010E94F02FC33DD10724
:101BF000C9F70E94AA220C94F1310C940000982F8E
:101C00002091450481E0213208F043C080912104F5
:101C10008111FCCF8091440432E0309321049093F1
:101C200020049FEF90931F0410921E0420931D0424
:101C3000A4E2B4E0EDEFF3E090E0291331C010929C
:101C4000FC039091FC03880F892B8093FC03809107
:101C5000FB03813049F51092FB038091FC038093D4
:101C6000BB008091BC0083FDF8CF85EC8093BC0065
:101C7000809121048230E1F380911F048F3FB1F005
:101C800080911F048032A1F080911F04803391F075
:101C900084E01092230410924504109222040895C7
:101CA0003D9131939F5FC9CF85EEE0CF80E0F1CFCA
:101CB00082E0EFCF83E0EDCF81E00C94FF0D9091B7
:101CC00021049111FCCF91E09093210440932004D2
:101CD0002FEF20931F0410921E04260F20931D0443
:101CE0009093FC039091FC03880F892B8093FC0355
:101CF0008091FB038130F9F41092FB038091FC0387
:101D00008093BB008091BC0083FDF8CF85EC80936D
:101D1000BC00809121048130E1F380911E0486177C
:101D200010F460911E04ADEFB3E0EBEDF3E080E062
:101D3000861303C0089585EEEACF9D9191938F5F3E
:101D4000F7CF833081F028F4813099F08230A9F008
:101D500008958730A9F08830C9F08430B1F48091BB
:101D600080008F7D03C0809180008F7780938000FA
:101D7000089584B58F7784BD089584B58F7DFBCF9A
:101D80008091B0008F778093B00008958091B0006B
:101D90008F7DF9CFCF93DF93282F30E0F901EF56F5
:101DA000F44E8491F901E358F44ED491F901E759C6
:101DB000F44EC491CC23A1F081110E94A10EEC2F0E
:101DC000F0E0EE0FFF1FE15AF44EA591B491EC91B3
:101DD000ED2381E090E009F480E0DF91CF91089558
:101DE00080E090E0FACF1F93CF93DF93282F30E06D
:101DF000F901EF56F44E8491F901E358F44ED49171
:101E0000F901E759F44EC491CC23A9F0162F8111A2
:101E10000E94A10EEC2FF0E0EE0FFF1FEB5AF44EE4
:101E2000A591B4918FB7F894EC91111108C0D09599
:101E3000DE23DC938FBFDF91CF911F910895DE2BBE
:101E4000F8CFCF93DF9390E0FC01E358F44E249158
:101E50008759944EFC0184918823C9F090E0880F43
:101E6000991FFC01E55BF44EA591B491FC01EB5A7E
:101E7000F44EC591D49161110DC09FB7F8948C9127
:101E8000209582238C938881282328839FBFDF910C
:101E9000CF910895623051F49FB7F8943C91822F0E
:101EA000809583238C93E8812E2BEFCF8FB7F89406
:101EB000EC912E2B2C938FBFEACF3FB7F8948091F3
:101EC000C5039091C603A091C703B091C80326B57E
:101ED000A89B05C02F3F19F00196A11DB11D3FBF62
:101EE000BA2FA92F982F8827BC01CD01620F711D31
:101EF000811D911D42E0660F771F881F991F4A952B
:101F0000D1F708958F929F92AF92BF92CF92DF92B6
:101F1000EF92FF924B015C010E945D0F6B017C010F
:101F20000E945D0F6C197D098E099F09683E734000
:101F300081059105A8F321E0821A9108A108B10852
:101F400088EEC80E83E0D81EE11CF11C81149104B8
:101F5000A104B10429F7FF90EF90DF90CF90BF90DC
:101F6000AF909F908F900895AF92BF92CF92DF92E3
:101F7000EF92FF920F931F93CF93DF936C017B013E
:101F80008B01040F151FEB015E01AE18BF08C017CF
:101F9000D10759F06991D601ED91FC910190F08142
:101FA000E02DC6010995892B79F7C501DF91CF9105
:101FB0001F910F91FF90EF90DF90CF90BF90AF9067
:101FC0000895FC01748B638B0895FC01728761870F
:101FD0006130710589F48CEF91E29687858780E303
:101FE0009AE2908B87878AE090E0928B818B30E039
:101FF00020E0358F248F089562307105D1F780EB92
:102000009DE19687858780E39AE2908B87878AE0B7
:1020100090E0928B818B28E030E0EBCFFC01638372
:102020000895FC01538D448D252F30E0842F90E0DE
:10203000821B930B541710F0CF96089501970895C3
:10204000FC01918D828D981761F0A28DAE0FBF2F8C
:10205000B11D5D968C91928D9F5F9F73928F90E0E2
:1020600008958FEF9FEF0895FC01918D828D981751
:1020700031F0828DE80FF11D858D90E008958FEF8E
:102080009FEF0895FC01918D228D892F90E0805C57
:102090009F4F821B91098F739927089586E494E0DE
:1020A0000E94421021E0892B09F420E0822F08953C
:1020B00080E090E0892B29F00E944E1081110C9451
:1020C00000000895FC01A48DA80FB92FB11DA35ADB
:1020D000BF4F2C91848D90E001968F739927848F48
:1020E000A689B7892C93A089B1898C9180648C933F
:1020F000938D848D981306C00288F389E02D80812A
:102100008F7D80830895EF92FF920F931F93CF935B
:10211000DF93EC0181E0888F9B8D8C8D981316C026
:10212000E889F989808185FF11C0EE89FF89608384
:10213000E889F98980818064808381E090E0DF9183
:10214000CF911F910F91FF90EF900895F62E0B8D78
:1021500010E00F5F1F4F0F731127E02E8C8D8E1133
:102160000CC00FB607FCFACFE889F989808185FF9A
:10217000F5CFCE010E946210F1CFEB8DEC0FFD2F59
:10218000F11DE35AFF4FF0820B8FEA89FB898081B2
:102190008062D2CF682F86E494E00C948310CF93B2
:1021A000DF93EC01888D8823B9F0AA89BB89E8897F
:1021B000F9898C9185FD03C0808186FD0DC00FB625
:1021C00007FCF7CF8C9185FFF2CF808185FFEDCFA3
:1021D000CE010E946210E9CFDF91CF91089585ED85
:1021E0008093BC008091BC0084FDFCCF1092210440
:1021F000089520918403260F3327331F21323105A0
:10220000ECF420912104FC0190E080E0243069F09E
:1022100082E00895A09184032191AC014C595C4F58
:10222000A40FB52FB11D2C930196861798F38091BA
:102230008403680F6093840380E0089581E008952B
:102240000895E091DA038091D903E81730F4F0E0C3
:10225000E552FC4F808190E008958FEF9FEF089545
:102260009091DA038091D9032FEF3FEF981748F44C
:10227000E92FF0E0E552FC4F208130E09F5F909322
:10228000DA03C90108951F93CF93DF9383EE94E09F
:102290000E943011182F83EE94E00E943011D12F4C
:1022A00090E0C92F8C0F9D2F911DDF91CF911F9131
:1022B00008958091D9039091DA03891B990B0895B1
:1022C000CF92DF92EF92FF920F931F93CF93DF9302
:1022D0007C01CB018A0120912204222389F0EB01A9
:1022E0006B01C40ED51ECC15DD0569F06991D701CF
:1022F000ED91FC910190F081E02DC7010995F3CF9C
:10230000642F0E94F910C801DF91CF911F910F91A6
:10231000FF90EF90DF90CF900895CF93DF931F92BF
:10232000CDB7DEB76983209122042223F9F02091F2
:102330004504203258F021E030E0FC013383228351
:1023400090E080E00F90DF91CF9108958091230479
:10235000E82FF0E0EC5DFB4F998190838F5F8093D5
:1023600023048093450481E090E0ECCF61E0CE014E
:1023700001960E94F910F7CFCF93C82F692F83EEF3
:1023800094E00E948D116C2F83EE94E0CF910C9419
:102390008D11CF92DF92EF92FF92CF93DF93EC01FA
:1023A000072E000C880B990B0E94BB2C6B017C0143
:1023B00020E030E040E45FE30E941A2D20E030E0AE
:1023C00048E452E40E94CC2E0E943E2FC617D70745
:1023D000D4F020E030E040EA5FE3C701B6010E949C
:1023E0001A2D20E030E048E452E40E94CC2E20E098
:1023F00030E040E85FE30E94602E0E943E2F21E023
:102400006C177D070CF420E0822F90E0DF91CF91D4
:10241000FF90EF90DF90CF9008958F929F92AF92B0
:10242000BF92CF92DF92EF92FF920F931F93CF93C1
:10243000DF93FC0120813181E091D503F091D60337
:1024400001E010E02E173F070CF045C0D901AA0F9C
:10245000BB1FE091D303F091D403EA0FFB1FA080D0
:10246000B1808901009510950170112720FD27C0CA
:102470002CE93FEFEA016B017C014901840E951EB6
:10248000B401C5010E94C91121E030E0892BD1F4CB
:102490008C0E9D1EB401C5010E94C91122E030E0DE
:1024A000892B81F4BE01680D791DC5010E94C911F7
:1024B00023E030E0892B31F40FEF1FEF0CC024E64E
:1024C00030E0D8CFF6018081918101968217930781
:1024D00084F491838083C801DF91CF911F910F9184
:1024E000FF90EF90DF90CF90BF90AF909F908F9034
:1024F000089511821082F701808191810196E9CFC0
:10250000DC015396ED91FC91309749F030E020E0EA
:1025100050E040E070E060E090E080E009940895D1
:10252000FC01818992890895FC018785908908952D
:10253000FC01858596850895FC0181859285089525
:102540000F931F93CF93DF93EC018A01E881F98108
:10255000028CF38DE02D0995E881F981068CF78DC9
:10256000E02DB801CE01DF91CF911F910F91099419
:10257000FC0180850895FC0187810895FC01868116
:102580000895FC0185810895FC0184810895CF930D
:10259000DF93EC019C818E81981758F4E881F981D2
:1025A0000084F185E02D42E0CE0109958C818F5F9A
:1025B0008C83DF91CF910895DC01ED91FC91008433
:1025C000F185E02D40E009940F931F93CF938C0188
:1025D000FC016483C085C60F6C2F6F700E94DC12F3
:1025E0006C2F62956F706061C801CF911F910F9140
:1025F0000C94DC121F93CF93DF93EC01142F8E8188
:10260000681718F4CE010E94E4128F818695869592
:102610008695181748F41D83612F606BCE01DF91FA
:10262000CF911F910C94DC12DF91CF911F910895EF
:10263000CF92DF92EF92FF920F931F93CF93DF938E
:10264000EC01F62EC42ED22E8F8186958695869526
:10265000081710F00FEF080F1D2D011780F0412F04
:102660006F2DCE010E94FA12EF2CCE1430F060E0F4
:10267000CE010E94C712E394F8CF1F5FEECF4D2D1D
:102680006F2DCE01DF91CF911F910F91FF90EF90B1
:10269000DF90CF900C94FA120F931F93DC011596E4
:1026A0002C9115971B96ED91FC911C9700E03097AB
:1026B00041F03396E49119960C911997E09F002D03
:1026C000112410E0095F1F4F83E0159507958A9547
:1026D000E1F78FEF820F080F16964C911697415035
:1026E00014966C911497CD010E9418131F910F91AD
:1026F00008952F923F924F925F926F927F928F92A6
:102700009F92AF92BF92CF92DF92EF92FF920F9380
:102710001F93CF93DF9300D000D01F92CDB7DEB7C9
:10272000FC01038514850115110509F447C19D833A
:102730008C83F8014491319654913196649031968E
:102740002491E22EF12CF7E0EF0EF11C33E0F5942A
:10275000E7943A95E1F7EA82F8013496349131969C
:10276000E491631748F08E2F90E0FC01E30FF11D18
:102770006E171F060CF460C06D3029F5EC81FD81E9
:10278000868181111AC081E090E00F900F900F9028
:102790000F900F90DF91CF911F910F91FF90EF90CD
:1027A000DF90CF90BF90AF909F908F907F906F9071
:1027B0005F904F903F902F90089560E08C819D81B5
:1027C0000E94E412E0CF6A3009F0F8C0EC81FD818C
:1027D000818515818E9D100D1124878186958695A2
:1027E0008695181730F08285882319F082E0828759
:1027F00010E0412F60E08C819D810E94FA12EC81F3
:10280000FD818285823008F4BECFCF010E944C1337
:10281000EC81FD818185612F8E9D600D1124660FF5
:10282000660F660F8781861708F460E060648C810C
:102830009D810E94DC12A7CF4527542745270A5FB8
:102840001F4F631BEC81FD81F185F98342305105F7
:1028500008F069C0452B09F019826E9CC0016F9C7D
:10286000900D1124689FF001699FF00D11240E0F47
:102870001F1F512CEC81FD81F481FB83EC81FD81D4
:102880004580862C912CAA24A394B12C212CFA816A
:102890002F1608F085C0312CEC81FD81818538161A
:1028A00008F077C0211002C0332041F0EC81FD8197
:1028B00045814F5F6B81CF010E94FA12D12CC12C50
:1028C000C61408F059C0F801EC0DFD1D7490552098
:1028D00061F0AE14BF0449F4E72DF0E0052C02C00E
:1028E000F595E7950A94E2F77E2EEC81FD818185CE
:1028F000823081F4332009F43BC072948FE0782257
:10290000E72DF0E0ED5DFA4F7490672D8C819D818D
:102910000E94C712672D8C819D810E94C7123FEFD4
:10292000C31AD30ACDCF277038E0532E521A211183
:1029300001C0512C50E040E030E020E0F8014617A3
:1029400040F4E40FF51FE4912E0F311D4F5F5F4FF0
:10295000F5CFE60FF11D6490E29EF001E39EF00DCD
:10296000F29EF00D11248E0F9F1F080F191F82CFAA
:10297000F72DFF707F2EC4CFD12C89818D1539F0B2
:1029800060E08C819D810E94C712D394F6CF33946E
:1029900083CF2394080D191DEFEFAE1ABE0A77CF2F
:1029A000EC81FD818781869586958695481608F08D
:1029B000EACE4582642D606BCF013BCF90E080E092
:1029C000E4CE0F93CF93DF93EC010F81069506952C
:1029D000069501504E81415020E060E00E9418139E
:1029E00081E09A85911101C080E08A8760E4CE0180
:1029F000DF91CF910F910C94DC12CF92DF92EF9286
:102A0000FF920F931F93CF93DF93EC01898182FD97
:102A100013C085FD11C08A810E94CA0E398131FB25
:102A2000222720F933FB332730F9232731E0892B84
:102A300009F030E023272A8B8FB7F8944091C10327
:102A40005091C2036091C3037091C4038FBF9A89F0
:102A50002B898881992309F46BC0211169C080FDFD
:102A60004EC0816088834E875F87688B798B8B89A6
:102A7000882319F1992309F18D819E81B0E0A0E0AE
:102A80000E851F85288939896A017B01C01AD10A00
:102A9000E20AF30A97018601081719072A073B077C
:102AA00060F0888181FD09C09B859D878A648F774E
:102AB00088834E875F87688B798B8E859F85A889F1
:102AC000B989481B590B6A0B7B0B8F819885B0E045
:102AD000A0E0481759076A077B0740F08B858823D9
:102AE00029F08C871B86888184608883DF91CF9151
:102AF0001F910F91FF90EF90DF90CF9008950E857A
:102B00001F85288939896A017B01C01AD10AE20A26
:102B1000F30A0B811C8130E020E0C016D106E206EA
:102B2000F30658F221E02B8B8062806888839FCF68
:102B30008E7F888391119BCF222309F4BECF1B8AFD
:102B400081FD03C08B858F5F8B8788818D7F80613E
:102B500088834E875F87688B798B86FF04C01C86CD
:102B60001B868F7B8883888187FFA7CF8F77888399
:102B70008981816089837BCFCF93DF93EC01898149
:102B800084FF03C0CE010E94FD14988192FB882728
:102B900080F992FF06C02C85213031F41C869B7F82
:102BA0009883DF91CF91089580E0FBCFCF93C82F1A
:102BB00081E08093BC0646E060E083EB96E00E94F3
:102BC000FA1286E0C89FF0011124EF53FA4F4481B6
:102BD00055816081718183EB96E00E94B40F83EB95
:102BE00096E0CF910C944C13FC016093BC00809153
:102BF000BC0087FFFCCF9091B900987F9083089527
:102C0000DF92EF92FF920F931F93CF93DF93EC012C
:102C1000D62EF42E8F85882351F0411108C084E907
:102C20008093BC008091BC0084FDFCCF1F868E0188
:102C3000035F1F4F8F8581111AC0EE8464EAC801BB
:102C40000E94F4158D85883011F0803139F4EE0C36
:102C5000E092BB0064E8C8010E94F41580E0F11026
:102C600080E48093BB0064E8C8010E94F415D09210
:102C7000BB0064E8C8010E94F41582E0F8120BC0A2
:102C80008F858F5F8F87DF91CF911F910F91FF907D
:102C9000EF90DF90089584E98093BC008091BC00A0
:102CA00084FDFCCF1F86EFCF089590E080E008956B
:102CB000CF93DF93DC01FB0184E0EB0119928A954D
:102CC000E9F714968C911497808317968C91179737
:102CD000818318968C911897828315968C918383A3
:102CE000DF91CF91089541E0682F80E10E945F0E4F
:102CF0001092DA038093D90308950F931F93CF9313
:102D0000DF93EC018CE090E00E9473168E01065D6B
:102D10001F4FE6960E944311F801819391938F0112
:102D2000EC17FD07B9F7DF91CF911F910F910C942C
:102D30005C0E0F931F93CF93DF938C01EB0187E021
:102D4000FB0111928A95E9F7F80186818D83C8010C
:102D50000E947D1621E02883F80182A593A592FDAB
:102D60002E8397FF02C081E08B83F80184A595A58F
:102D7000292F26952695298390FF02C081E08C8318
:102D8000F801828D938D95FF02C081E08D83DF91E4
:102D9000CF911F910F910895CF93DF93EC0182E0C3
:102DA00090E00E9473160E9443119BA78AA70E947D
:102DB0005C0E2AA53BA533704AE0429FC001439FA9
:102DC000900D11242D853E85820F931F9C878B8744
:102DD000DF91CF910895FB0101900020E9F7319731
:102DE000AF01461B570BDC01ED91FC910280F38192
:102DF000E02D09948F929F92AF92BF92EF92FF9233
:102E00000F931F93CF93DF93CDB7DEB7A1970FB684
:102E1000F894DEBF0FBECDBF7C01FA01CB0119A231
:102E2000223008F42AE08E010F5D1F4F822E912C74
:102E3000B12CA12CBF01A50194010E94982FF9018A
:102E4000CA016A300CF5605DD8016E938D01232BA9
:102E5000242B252B79F790E080E0109721F0BD011D
:102E6000C7010E94EB16A1960FB6F894DEBF0FBE05
:102E7000CDBFDF91CF911F910F91FF90EF90BF9049
:102E8000AF909F908F900895695CDECFCF93DF93D2
:102E9000EC018031910550F480E30E94CA1080E378
:102EA0000E94CA1080E30E94CA1008C08F3F91059B
:102EB000B1F3A8F3C11580E1D807A0F3AE0170E02B
:102EC00060E020E186E494E00E94FA1680E2DF915F
:102ED000CF910C94CA10AC01990F660B770B2AE0C6
:102EE00086E494E00C94FA1663E871E00C94EB1617
:102EF0000F931F93CF93DF93EC010E94EB168C018D
:102F0000CE010E947417800F911FDF91CF911F9106
:102F10000F9108951F93CF93DF93FC012389348988
:102F2000232B09F476C0EC0182E090E00E94731636
:102F30000E9443119BA78AA70E945C0E8AA59BA5AD
:102F400093FF0CC08B81882349F08EE30E94CA1046
:102F500066E871E086E494E00E9478178AA59BA554
:102F600097FF57C081E08093220481E1809344045D
:102F700010922304109245046CE083EE94E00E94CA
:102F80008D1180E00E94FF0D41E068E081E10E9428
:102F90005F0E1092DA038093D9030E9443112EA58D
:102FA0003FA510E08217930719F09FA78EA711E0A5
:102FB0000E94431128A939A98217930719F099ABE8
:102FC00088AB11E00E9443112AA93BA982179307FD
:102FD00019F09BAB8AAB11E00E9443112CA93DA9CB
:102FE0008217930791F09DAB8CAB0E945C0E2CA9CD
:102FF0003DA94AA95BA968A979A9EB89FC898EA595
:103000009FA5DF91CF911F9109940E945C0E111131
:10301000EECFDF91CF911F9108956115710511F0E9
:103020000C94EB1690E080E008950F931F93CF93DC
:10303000DF938C01C3EBD6E081E0898740E060E05C
:10304000CE010E94FA1265E971E0CE010E940D18CE
:10305000CE010E944C1382E0898742E060E0CE01FD
:103060000E94FA12CE010E944C13B801CE01DF91EA
:10307000CF911F910F910C940D18CF92DF92EF9288
:10308000FF920F931F93CF93DF93CDB7DEB72C97AB
:103090000FB6F894DEBF0FBECDBF8C010E947D1627
:1030A000D801ED91FC9106A8F7A9E02D4CE0BE01F6
:1030B0006F5F7F4FC801099560EC71E086E494E092
:1030C0000E940D18BE016F5F7F4F86E494E00E945E
:1030D0000D18F801E6A4F7A46BEC71E086E494E027
:1030E0000E940D18C7010E944617D8019A968D912B
:1030F0009C916EEA71E092FF02C066EA71E086E49C
:1031000094E00E940D18F80182A593A56BEB71E085
:1031100097FF02C066EB71E086E494E00E940D1810
:10312000D8019D968C91E82EE694E694F12C60ED02
:1031300071E086E494E00E940D18BAE0EB16F10409
:1031400028F460E286E494E00E948310C7010E94A4
:103150006B1780E20E94CA10D12CC12CEFE0EE1A4E
:10316000F108CE14DF044CF46AE286E494E00E9495
:103170008310FFEFCF1ADF0AF4CF86E494E00E94B9
:10318000741766ED71E086E494E00E947817780188
:1031900086E1E80EF11C6801A6E3CA0ED11CF70116
:1031A000819191917F010E944617CE14DF04B9F7F7
:1031B00086E494E00E94741781E08093220481E108
:1031C00080934404109223041092450460E083EE3F
:1031D00094E00E948D1180E00E94FF0D41E060E2CA
:1031E00081E10E945F0E1092DA038093D90380E19F
:1031F000E82EF12C0E9443110E944617F1E0EF1ACD
:10320000F108C1F70E945C0E86E494E00E947417F6
:10321000D801ED91FC910288F389E02DC801099550
:10322000882331F063E272E086E494E00E940D1896
:10323000D801ED91FC9102A4F3A5E02DC8010995F8
:10324000882331F06EE272E086E494E00E940D186B
:10325000D801ED91FC910680F781E02DC801099518
:10326000182F64E372E086E494E00E940D18812F29
:1032700090E00E946B1780E20E94CA1086E494E0FE
:103280000E9474172C960FB6F894DEBF0FBECDBF08
:10329000DF91CF911F910F91FF90EF90DF90CF9032
:1032A0000895FF920F931F93CF93DF938C01F62E17
:1032B000C62FD0E0FC0183812B96882399F18EE301
:1032C0000E94CA106CE372E086E494E00E940D183C
:1032D0006BE472E086E494E00E940D184F2D50E0FC
:1032E00070E060E020E186E494E00E94FA166FE46A
:1032F00072E086E494E00E940D18FE01EE0FFF1FBD
:10330000E00FF11F4081518170E060E020E186E430
:1033100094E00E94FA1689E20E94CA1086E494E0C2
:103320000E94741781E08093220481E18093440419
:1033300010922304109245046F2D83EE94E00E94B6
:103340008D11CC0FDD1FC00FD11F888199810E9484
:10335000BC11DF91CF911F910F91FF900C945C0EE7
:103360001F93CF93DF93EC01162F8A8D9B8D9D7F4A
:1033700091609B8F8A8F62E0CE010E9451191111DA
:103380000CC08A8D9B8D9E7F9B8F8A8F62E0CE01C1
:10339000DF91CF911F910C945119DF91CF911F9123
:1033A00008951F93CF93DF93EC01162F8A8D9B8D89
:1033B00093609B8F8A8F62E0CE010E945119111198
:1033C0000CC08A8D9B8D9E7F9B8F8A8F62E0CE0181
:1033D000DF91CF911F910C945119DF91CF911F91E3
:1033E0000895FC016087268D378D662331F03260A9
:1033F000378F268F64E00C9451193D7FF9CFFC0183
:103400006783228D338D662331F03F7B338F228F8C
:1034100062E00C9451193064F9CFFC016683828D0F
:10342000938D9C013E7F338F228F662339F030626B
:10343000338F228F62E0CF010C9451199E7D938FC0
:10344000828FF8CFFC016583228D338D662339F09E
:103450003061FC01338F228F62E00C9451193F7E62
:10346000F8CFFC01648320A131A1207F6F70262B4F
:1034700031A320A365E00C9451190F931F93CF93B0
:10348000DF93EC018B81882379F08EE30E94CA10D0
:1034900064E572E086E494E00E940D1863E672E051
:1034A00086E494E00E94781781E08093220480E112
:1034B0008093440410922304109245048E01065E0A
:1034C0001F4FA496F801819191918F010E94BC1128
:1034D0000C171D07B9F7DF91CF911F910F910C9435
:1034E0005C0EEF92FF920F931F93CF93DF93EC014B
:1034F0007B018B818823D9F08EE30E94CA1066E697
:1035000072E086E494E00E940D1888E20E94CA10DE
:10351000A70170E060E02AE086E494E00E94FA16D9
:1035200089E20E94CA1086E494E00E9474170C8D10
:103530001D8D0F7011274D855E85BA014E155F05F3
:1035400008F4B7019801205F3F4F8F85988968176D
:10355000790708F4CB01841B950B6AE070E00E94A8
:10356000842F8B0186E0000F111F8A95E1F7022B53
:10357000132B8A8D9B8D8960906C9B8F8A8F62E064
:10358000CE010E9451191D8F0C8F63E0CE010E9465
:10359000511965E0CE01DF91CF911F910F91FF90FE
:1035A000EF900C945119CF93DF93EC018B8188231A
:1035B00079F08EE30E94CA1063E772E086E494E03B
:1035C0000E940D1863E672E086E494E00E9478178A
:1035D000E881F9810480F581E02D60E0CE01099554
:1035E0001B8E1A8ECE01DF91CF910C943D1A1F9342
:1035F000CF93DF93EC018B81882379F08EE30E94D7
:10360000CA1068E772E086E494E00E940D1863E651
:1036100072E086E494E00E9478171092DA03109228
:10362000D90310922304109245041092210411E052
:10363000109320041092FB0361E082E10E94F30EDC
:1036400061E083E10E94F30E8091B9008E7F809348
:10365000B9008091B9008D7F8093B90088E4809390
:10366000B80085E48093BC001093220481E180932C
:10367000440410922304109245040E945C0E8111B0
:103680003AC08B81882349F08EE30E94CA106DE70F
:1036900072E086E494E00E94781784E098E59F8BBE
:1036A0008E8B198E188E83E090E09B8F8A8FE88135
:1036B000F981028CF38DE02D61E070E0CE01099577
:1036C00080E098E09F8F8E8F81E890E999A388A38E
:1036D0001BA21AA21DA21CA21FA21EA219A618A6F6
:1036E000CE010E943D1A81E090E09B8F8A8F62E0BC
:1036F000CE010E94511981E0DF91CF911F91089571
:10370000CF93DF9300D000D0CDB7DEB7DC01ED91D1
:10371000FC9106A4F7A5E02DBE016F5F7F4F0995D0
:103720008C8160E972E0882311F06AE872E086E437
:1037300094E00E940D188A8160E972E0882311F0FC
:1037400066E972E086E494E00E940D188B8166EAD7
:1037500072E0882311F06CE972E086E494E00E9444
:103760000D1886E494E00E9474170F900F900F904C
:103770000F90DF91CF910895CF93DF9300D000D0C9
:1037800000D01F92CDB7DEB7DC01ED91FC9104A40F
:10379000F5A5E02DBE016F5F7F4F09958C8166EB2B
:1037A00071E0882311F06BEB71E086E494E00E94F5
:1037B0000D188D8167EB72E0882311F060EB72E0E9
:1037C00086E494E00E940D188F8166EC72E08823F5
:1037D00011F06EEB72E086E494E00E940D186EEC3E
:1037E00072E086E494E00E940D184A8150E070E097
:1037F00060E02AE086E494E00E94FA1667ED72E049
:1038000086E494E00E940D184B8150E070E060E087
:103810002AE086E494E00E94FA1686E494E00E948E
:10382000741727960FB6F894DEBF0FBECDBFDF9199
:10383000CF910895DF92EF92FF920F931F93CF9352
:10384000DF938C01EB01D42EDC01ED91FC91048C13
:10385000F58DE02D09957C01D801ED91FC9100A03A
:10386000F1A1E02DC8010995209799F1BAE0BD15A5
:1038700080F5188221E0E21AF108A2E0EA16F104CC
:1038800040F5FE0125E00AE010E030E2215024304E
:1038900011F00097E1F0B8010E94842F805D8483CD
:1038A000CB0131972111F2CF8C818D838B818C8359
:1038B0008EE28B836FED72E0CE010696DF91CF91A1
:1038C0001F910F91FF90EF90DF900C94EA313483B9
:1038D000E8CFDF91CF911F910F91FF90EF90DF9094
:1038E00008950F931F93CF93DF93CDB7DEB72C9737
:1038F0000FB6F894DEBF0FBECDBF4CE0BE016F5FC8
:103900007F4F8DE796E00E941A1C03EB16E081E0E2
:10391000F801818740E060E0C8010E94FA1264EE7D
:1039200072E0C8010E94781782E0F8018187BE0129
:103930006F5F7F4FC8010E940D18C8010E944C1391
:103940002C960FB6F894DEBF0FBECDBFDF91CF919E
:103950001F910F910895EF92FF920F931F93CF93B2
:10396000DF93EC017B01198218821B821A821D826F
:103970001C82FB0101900020E9F731978F01061BA3
:10398000170BB8016F5F7F4F90E080E00E941B3102
:103990000097B9F0998388831B830A832C813D812A
:1039A000232B11F4FC0110821D830C83B701888145
:1039B0009981DF91CF911F910F91FF90EF900C941F
:1039C000EA3188819981009711F00E949230198222
:1039D00018821D821C821B821A82DF91CF911F9157
:1039E0000F91FF90EF900895CF93DF9300D000D018
:1039F00000D0CDB7DEB74091BC035091BD036091BC
:103A0000BE037091BF034093B6035093B703609316
:103A1000B8037093B9039091BB039130A1F150F0BA
:103A2000923009F460C06AE073E086E494E00E949A
:103A300078171BC061E0813009F58DE796E00E94A0
:103A4000D1196BEA73E08DE796E00E949916809198
:103A5000AF038823B1F36BEA73E08DE796E00E9431
:103A600099168091AF038823B1F326960FB6F89488
:103A7000DEBF0FBECDBFDF91CF9108958DE796E0F9
:103A80000E94B019E8CF20910401309105018130E6
:103A9000E9F42D3031053CF42F5F3F4F30930501A1
:103AA0002093040104C01092050110920401E091DA
:103AB0000401F0910501EE0FFF1FE95FFA4F6591D8
:103AC00074918DE796E00E94711ACFCF12161306FB
:103AD0001CF421503109E2CF8DE090E09093050174
:103AE00080930401E4CF909106018130A1F59F30CD
:103AF00020F49F5F9093060103C08FE0809306013E
:103B000069EF72E0CE0101960E94AB1C40E060E0DC
:103B100083EB96E00E94FA1283EB96E00E944C132E
:103B200081E890E09093BF068093BE062091060145
:103B300030E090E080E04FE78217930784F46D81D6
:103B40007E818617970728F4E981FA81E80FF91F2B
:103B500040830196F1CF992399F29150CBCF40E069
:103B600060E083EB96E00E94FA124D815E816981EC
:103B70007A8183EB96E00E94B40F40E060E783EB2C
:103B800096E00E94FA124091060150E070E060E079
:103B90002AE083EB96E00E94FA1689EA96E1909378
:103BA000BF068093BE068091BB030E94D615898113
:103BB0009A810E949230609106018DE796E00E9402
:103BC000311A53CF83E090E00E94E02D9093B5032B
:103BD0008093B40382E090E00E94D82D8093060188
:103BE00081E090E00E94D82D8093BB0380E090E0BC
:103BF0000E94D82D90E090930501809304010895D0
:103C0000CF92DF92EF92FF920F931F93CF93DF93A8
:103C10007A018901892BA9F567EA72E085E196E0CE
:103C20000E94EA3165E176E08FE196E00E94EA3198
:103C300066E173E089E296E00E94EA31EBE3F6E0A8
:103C400082E4DF011D928A95E9F710921406E09153
:103C50003306F0913406309719F089E296E0099521
:103C6000E0913706F0913806309701F185E891E050
:103C7000DF91CF911F910F91FF90EF90DF90CF9048
:103C80000994872F807F73FB772770F9782B7A60F0
:103C900070930F0610921006109211067A3209F4F2
:103CA000A0C068F47A50723008F455C0DF91CF910B
:103CB0001F910F91FF90EF90DF90CF9008957A348D
:103CC000A9F786E0369527958A95E1F72F73332774
:103CD00094E0EE0CFF1C9A95E1F7B0E1EB22FF2493
:103CE000C801892F992782958F70E82AF92A4CE319
:103CF0004E9DC0014F9D900D1124820F931F202FC8
:103D00002F71EEE12E9F9001112405FFA8C0821BA8
:103D1000930BE0913506F0913606309739F22091F9
:103D2000390630913A062817390709F4BFCF909326
:103D30003A06809339066CE370E00E94842F962F38
:103D4000682F892FDF91CF911F910F91FF90EF90F6
:103D5000DF90CF9009946370660FC12ED22EC62FCC
:103D6000D0E0FE01E15FF94F7F018681C05FD94F4E
:103D7000181330C08E81281329C0108B288B109205
:103D80002706663019F56FE176E085E196E00E943E
:103D9000E131892BB9F469E276E08FE196E00E9487
:103DA000E131892B79F06FE176E089E296E00E94BB
:103DB000EA31E0913306F0913406309719F089E248
:103DC00096E0099580911B06C81204C08E81D81612
:103DD00009F46CCFD70116961C930E8310921D0622
:103DE00065CF862F8071809312066F70C62FCC0F1F
:103DF000CC0F80911406C81748F4E0913706F09173
:103E00003806309719F08BE396E00995C0931406B5
:103E10008091120690911306891749F0809313063A
:103E2000EBE3F6E082E4DF011D928A95E9F7EC2FDF
:103E3000F0E0E15FF94FF4A6E1E0EC0FF0E0E15FC4
:103E4000F94FE4A6E2E0EC0FF0E0E15FF94F14A7D0
:103E5000CD5FEC2FF0E0E15FF94F04A727CF820F91
:103E6000931F57CF1F920F920FB60F9211242F93CB
:103E70003F938F939F93AF93BF938091C103909192
:103E8000C203A091C303B091C4033091C00323E0E7
:103E9000230F2D3758F50196A11DB11D2093C003A6
:103EA0008093C1039093C203A093C303B093C40350
:103EB0008091C5039091C603A091C703B091C80338
:103EC0000196A11DB11D8093C5039093C603A093D5
:103ED000C703B093C803BF91AF919F918F913F915A
:103EE0002F910F900FBE0F901F90189526E8230F6B
:103EF0000296A11DB11DD2CF1F920F920FB60F9245
:103F000011242F933F934F935F936F937F938F93DE
:103F10009F93AF93BF93EF93FF9386E494E00E9447
:103F20006210FF91EF91BF91AF919F918F917F911F
:103F30006F915F914F913F912F910F900FBE0F9016
:103F40001F9018951F920F920FB60F9211242F9366
:103F50008F939F93EF93FF93E0915604F091570452
:103F60008081E0915C04F0915D0482FD1BC0908132
:103F700080915F048F5F8F7320916004821741F0FE
:103F8000E0915F04F0E0EA5BFB4F958F80935F0464
:103F9000FF91EF919F918F912F910F900FBE0F90F6
:103FA0001F9018958081F4CF1F920F920FB60F9239
:103FB00011242F933F934F935F936F937F938F932E
:103FC0009F93AF93BF93EF93FF938091B900887F46
:103FD000803609F44AC0F0F5883209F4A5C018F516
:103FE000803109F499C0B8F4882309F4F5C0883009
:103FF00009F492C0FF91EF91BF91AF919F918F9182
:104000007F916F915F914F913F912F910F900FBED4
:104010000F901F901895883109F486C0803251F7AF
:1040200080931F0414C0803409F49BC040F4803393
:10403000B9F38833F9F680931F0485ECAEC0803560
:1040400009F483C0883509F494C0883499F60E9435
:10405000EF10D0CF883909F48AC038F5883729F0B5
:1040600050F4883611F0803729F683E080932104DC
:104070001092A60355C0883809F479C0803919F028
:10408000803809F0B7CF8091A603803208F06FC066
:10409000E091A60381E08E0F8093A6038091BB0080
:1040A000F0E0EA57FC4F80833BC0803B39F0D0F40E
:1040B000803A09F477C0883A09F09CCF84E0809375
:1040C00021041092850310928403F0E0E0E009954A
:1040D0008091840381110FC081E08093840310924A
:1040E000640309C0803C09F4A8CF883C09F4A5CF3B
:1040F000883B09F07FCFE091850381E08E0F8093AC
:104100008503F0E0EC59FC4F80818093BB009091D7
:1041100085038091840329C08091FC038093BB00B8
:1041200085EC8093BC0066CF90911E0480911D04A5
:10413000981758F5E0911E0481E08E0F80931E04BD
:10414000F0E0E350FC4F8081E9CFE0911E0481E074
:104150008E0F80931E048091BB00F0E0E350FC4F73
:10416000808390911E0480911D049817C8F285E801
:10417000D8CFE0911E0481E08E0F80931E048091C1
:10418000BB00F0E0E350FC4F80838091200481115C
:104190005ECF81E08093FB0384EA8093BC001092A1
:1041A000210428CF85EC8093BC00109221048091DB
:1041B000A603803230F4E091A603F0E0EA57FC4F0A
:1041C00010826091A60370E086E893E0F0E0E0E002
:1041D00009951092A6030ECF10921F0438CF1F929C
:1041E0000F920FB60F9211242F933F934F935F932B
:1041F0006F937F938F939F93AF93BF93EF93FF93AF
:104200008091F0040E94CA0E2091F4043091F504CC
:104210002F5F3F4F3093F5042093F4049091F30403
:10422000953618F096E09093EF049091EF04943057
:1042300009F466C0B8F49230F1F0933009F444C048
:104240009091F204992309F46BC081117AC0809196
:10425000F104882309F463C08091F10461E00E94B5
:10426000F30E5EC0953009F457C0963049F791E0DF
:104270009093C0054FC08111E3CF2091F404309199
:10428000F5042436310528F41092F5041092F40454
:10429000D7CF1092C0051092F304E091F30491E09F
:1042A0009E0F9093F304F0E02091F4043091F50414
:1042B000EE0FFF1FE151FB4F308727831092F5046B
:1042C0001092F40493E019C0813009F0B9CFE09165
:1042D000F30491E09E0F9093F304F0E02091F40436
:1042E0003091F504EE0FFF1FE151FB4F308727831C
:1042F0001092F5041092F40494E09093EF04A0CF90
:10430000882359F22091F4043091F50425363105C3
:1043100008F496CF95E0F1CF811192CFB5CF2D9AC9
:10432000FF91EF91BF91AF919F918F917F916F918D
:104330005F914F913F912F910F900FBE0F901F9063
:1043400018958091F104882321F08091F10460E0B8
:1043500086CF2D98E5CFCF92DF92EF92FF920F9309
:104360001F93CF93DF93E6E4F4E01382128288EE8A
:1043700093E0A0E0B0E084839583A683B78321E136
:1043800031E03183208325EC30E03587248724EC2D
:1043900030E03787268720EC30E0318B208B21EC12
:1043A00030E0338B228B22EC30E0358B248B26ECF3
:1043B00030E0378B268B118E128E138E148EE3EE27
:1043C000F4E01382128284839583A683B78383E209
:1043D00091E091838083E3EBF6E01382128281E027
:1043E00081871486138689E791E091838083EFE7C4
:1043F000F6E083E1DF011D928A95E9F7EDE7F6E04B
:1044000085E391E0918380838FE0858BEFE0F6E098
:104410008EE6DF011D928A95E9F7EBEFF5E00CE3FC
:1044200010E01483038384EFE82EFF24F394F682D4
:10443000E582F086E782C0E9D1E0D287C1871386A2
:104440001486158616861786108A118A128A138A90
:1044500082E082839CEFC92E95E0D92EF6018081FF
:104460008F7D877F808362E082E00E94210FD601EA
:104470008C918B7E8D7F8C93E7EEF5E01483038324
:10448000F682E582F086E782D287C187138614869A
:10449000158616861786108A118A128A138A83E077
:1044A000828328EEC22E25E0D22EF60180818F7DF8
:1044B000877F808362E083E00E94210FD6018C9188
:1044C0008B7E8D7F8C93E3EDF5E014830383F6827E
:1044D000E582F086E782D287C18713861486158627
:1044E00016861786108A118A128A138A84E08283BC
:1044F000C4EDD5E088818F7D877F888362E084E08A
:104500000E94210F88818B7E8D7F8883CFEED4E03F
:1045100089E089838DE08A8361E00E94210F1B82FC
:104520006FE173E081EC95E00E94AB1C67E273E001
:1045300087EC95E00E94AB1C63E373E08DEC95E0A3
:10454000DF91CF911F910F91FF90EF90DF90CF906F
:104550000C94AB1CCF93DF93CDB7DEB72C970FB67F
:10456000F894DEBF0FBECDBF789484B5826084BD61
:1045700084B5816084BD85B5826085BD85B5816067
:1045800085BD80916E00816080936E0010928100E5
:1045900080918100826080938100809181008160A0
:1045A0008093810080918000816080938000809161
:1045B000B10084608093B1008091B00081608093ED
:1045C000B00080917A00846080937A0080917A00B4
:1045D000826080937A0080917A00816080937A0073
:1045E00080917A00806880937A001092C10061E027
:1045F00088E00E94210FE0915604F091570482E078
:104600008083E0915204F09153041082E0915404AD
:10461000F09155049FEC908310925E04E0915A044F
:10462000F0915B0496E09083E0915804F091590476
:10463000908190619083E0915804F09159049081A9
:1046400098609083E0915804F091590490819068AB
:104650009083E0915804F091590490819F7D90835C
:10466000F8948093B0008093B10094E69093B300E7
:104670001092B2008093700078948093EF041092AF
:10468000F3048091F00460E00E94210F61E088E073
:104690000E94210F60E088E00E94F30E6AE070E063
:1046A00080E090E00E94820F61E088E00E94F30EBB
:1046B0006AE070E080E090E00E94820F1092C206F3
:1046C0008CE38093C1061092B9008CE08093B8000F
:1046D0001092B7061092B806E5E4FBE1C590D490BD
:1046E000E7E4FBE1F490E8E4FBE1E491E093B90650
:1046F000E9E4FBE1E491E093BA06EAE4FBE1E4914A
:10470000E093BB0610E000E00F1558F4F601E00F4F
:10471000F11F649183EB96E00E94DC120F5F1F4F44
:10472000F3CF1092BD0683EB96E00E94E114B9EA44
:10473000EB2EB6E1FB2EF092BF06E092BE0661E8DA
:1047400083EB96E00E94DC1260E083EB96E00E942F
:10475000DC1283EB96E00E94E11411E01093BC069A
:10476000F092BF06E092BE066FE373E083EB96E043
:104770000E940D1866E473E083EB96E00E940D182A
:1047800083E395E09093BF068093BE0642E060E02D
:1047900083EB96E00E94FA1261E573E083EB96E00A
:1047A0000E940D1860ED77E080E090E00E94820F9B
:1047B000F092BF06E092BE061093BC068DE796E02D
:1047C0000E94F71A1093800680E090E00E94D82D96
:1047D00090E0909305018093040181E090E00E94B5
:1047E000D82D8093BB0381E090E09093870680935F
:1047F00086068CEF91E290938B0680938A0680E385
:104800009AE290938D0680938C068AE090E09093D4
:104810008F0680938E0610929A061092990683E076
:1048200090E00E94E02DBC018DE796E00E94711A95
:1048300082E090E00E94D82D80930601682F8DE7DA
:1048400096E00E94311A80E09EE190939106809359
:10485000900685E198E190933406809333068DE7C6
:1048600096E00E94CC169093B3038093B2030E940B
:10487000711C8091BB030E94D61544244A94542C89
:104880003201A0E22A2E312C2FB7F8948091C10377
:104890009091C203A091C303B091C4032FBF809332
:1048A000BC039093BD03A093BE03B093BF0386EFF8
:1048B00094E09093D4038093D3038091F30490E029
:1048C0009093D6038093D5038091C00590E0909398
:1048D000D8038093D7038091EF04853009F023C477
:1048E0008091F8049091F904885891098D359105CB
:1048F00008F051C08091F304843009F58091FA04E6
:104900009091FB0480974797D0F48091FC0490919C
:10491000FD040997099798F41092D2031092D103DD
:104920004092CD035092CE036092CF037092D00399
:1049300083E090E09093CA038093C9035AC38091A7
:10494000F304843440F18091FA049091FB04825482
:1049500091098E9700F590E080E040E050E0BA01C8
:10496000FC01E450FB4F208131812950310929306D
:10497000310588F4FC01E250FB4F20813181275141
:1049800031092231310510F1208131812650310960
:104990002730310588F18091F3048A3108F461C031
:1049A0008091F6049091F704843F914050F5109265
:1049B000D2031092D1034092CD035092CE03609265
:1049C000CF037092D0038BE090E0B4CF440F551F1B
:1049D000661F771F416004968038910509F6309272
:1049E000D2032092D1034093CD035093CE03609322
:1049F000CF037093D0039CCF440F551F661F771FC2
:104A0000EACF8091F8049091F90485974B9748F587
:104A1000EFEEF4E082E090E0C12CD12C76019C0115
:104A20002F5F3F4F4091F3044217130609F00CF437
:104A3000F6C043855485475051094730510508F069
:104A4000EDC025853685235131092F30310508F415
:104A5000D7C0258536852A5031092930310508F41B
:104A6000D8C08091F3048A3108F43FC08091F604E5
:104A70009091F7048032934008F499CF8091F80424
:104A80009091F904C697869780F58091FA049091E9
:104A9000FB04C697869748F5EFEEF4E083E090E0DC
:104AA000C12CD12C76019C012F5F3F4F4091F30424
:104AB0004217130609F00CF4DAC0458556854C50B0
:104AC00051094B30510508F0D1C027853089255256
:104AD00031092B31310508F4BBC0278530892C50B2
:104AE00031092A30310508F4BCC08091F3048232C8
:104AF00038F18091F8049091F9040697079700F532
:104B0000EFEEF4E082E090E040E050E0BA01DC013A
:104B100011962091F3042A171B0609F00CF4D3C058
:104B2000238534852E5131092731310508F4B6C06B
:104B3000238534852C5031092B30310508F4BDC054
:104B40001C821B82E1E0F0E0FA83E9838091F304A8
:104B50008D3008F4E9C049E753E0BE016D5F7F4F37
:104B6000CE0101960E940D12892B09F0DDC049E7A4
:104B700053E0BE016D5F7F4FCE0101960E940D1282
:104B8000019709F0D1C049E753E0BE016D5F7F4F47
:104B9000CE0101960E940D128C01892B09F0C4C030
:104BA000812C912C54012091F30489819A8128173A
:104BB000190609F00CF4A9C049E753E0BE016D5F86
:104BC0007F4FCE0101960E940D127C0149E753E010
:104BD000BE016D5F7F4FCE0101960E940D12F1E084
:104BE000EF16F10409F088C0892B09F09DC0880CEC
:104BF000991CAA1CBB1C689480F80F5F1F4FD3CF71
:104C0000CC0CDD1CEE1CFF1C6894C0F80296349698
:104C100006CFCC0CDD1CEE1CFF1CF8CFC9010197A0
:104C2000959587959093D2038093D1030C972CF49C
:104C30001092D2031092D10314CFC092CD03D09220
:104C4000CE03E092CF03F092D00384E090E072CEE6
:104C5000CC0CDD1CEE1CFF1C6894C0F80296349648
:104C600022CFCC0CDD1CEE1CFF1CF8CFC901019734
:104C7000959587959093D2038093D1030C972CF44C
:104C80001092D2031092D10330CFC092CD03D092B4
:104C9000CE03E092CF03F092D00395CE440F551F80
:104CA000661F771F4160258536853496235031096C
:104CB0002530310538F402962ACF440F551F661F60
:104CC000771FF1CFCD010197959587959093D203EA
:104CD0008093D10340972CF41092D2031092D10309
:104CE0002FCF4093CD035093CE036093CF037093A7
:104CF000D0038CE090E01ECEEF28B1F40197A1F430
:104D0000880C991CAA1CBB1C78CF1093D20300936B
:104D1000D1038092CD039092CE03A092CF03B092A4
:104D2000D00381E090E006CE1C821B82A1E0B0E0BF
:104D3000BA83A9838091D5039091D60318161906DA
:104D40000CF07EC0E091D303F091D40382E090E0B8
:104D50009A8389838281938189974E9708F070C0E6
:104D600083E090E09A838983848195810B970A97E9
:104D700008F066C04CEB51E0BE016D5F7F4FCE0185
:104D800001960E940D128C01892B09F059C04CEB41
:104D900051E0BE016D5F7F4FCE0101960E940D1262
:104DA000019709F04DC0812C912C54012091D5031D
:104DB0003091D60389819A81821793070CF0E2C063
:104DC0004CEB51E0BE016D5F7F4FCE0101960E941A
:104DD0000D127C010330110539F14CEB51E0BE019D
:104DE0006D5F7F4FCE0101960E940D126C01033062
:104DF000110561F44CEB51E0BE016D5F7F4FCE01B8
:104E000001960E940D12C816D906D1F4E114F104DE
:104E100009F4ABC0EA94EF2899F4CD2889F4880C02
:104E2000991CAA1CBB1CABC04CEB51E0BE016D5FD2
:104E30007F4FCE0101960E940D12E816F90669F225
:104E4000E091D303F091D40382819381C697869732
:104E500078F5848195814B97459750F5DF0116963B
:104E60007F0126ECE20EF11C20E030E040E050E053
:104E700060E070E080E090E00D911C911197095086
:104E8000110908301105A0F412960D911C91139789
:104E9000015111090D30110508F487C012960D91CA
:104EA0001C911397045011090530110508F457C2DD
:104EB0008091F304893380F182819381895791092C
:104EC0008335910548F584819581CA97899720F5A6
:104ED0009F012A5F3F4FC12CD12C760143E050E067
:104EE000D9016D917C9111976A50710969307105F2
:104EF00098F412966D917C91139766517109613106
:104F0000710508F430C212966D917C91665071095A
:104F10006730710508F456C28091F304823209F0BB
:104F200056C2828193810A97099708F050C2A091D6
:104F3000F304B0E0A150B048AA0FBB1FAE0FBF1FD3
:104F40008D919C910A97099708F041C21092D20363
:104F50001092D1034092CD035092CE036092CF03C2
:104F60007092D00386E090E0E5CCCA94CD2809F099
:104F700067CF880C991CAA1CBB1C689480F80F5F33
:104F80001F4F14CF1093D2030093D1038092CD030F
:104F90009092CE03A092CF03B092D003E2E0F0E073
:104FA000F093CA03E093C90324C001E00E94BA2F22
:104FB00021601496AE15BF0509F05ECF2093CD0396
:104FC0003093CE034093CF035093D00300E20E946E
:104FD000D52F2093CB033093CC0385E090E09093C2
:104FE000CA038093C90380E390E09093D203809337
:104FF000D1034091CD035091CE036091CF037091C6
:10500000D00320E186E494E00E94FA1686E494E05E
:105010000E9474178091CD039091CE03A091CF038D
:10502000B091D00387369849AF4FB10561F46091D4
:10503000A8038DE796E00E94221A8091A80391E0D0
:1050400089278093A8038091CD039091CE03A091EE
:10505000CF03B091D00387399846AF4FB10561F4C3
:105060006091A7038DE796E00E94FF198091A70346
:1050700091E089278093A7038091CD039091CE037F
:10508000A091CF03B091D0038735984AAF4FB105B7
:1050900019F481E00E94F41C8091CD039091CE031D
:1050A000A091CF03B091D0038F31904EAF4FB10597
:1050B00019F48FEF0E94F41C8091CD039091CE03E0
:1050C000A091CF03B091D0038F369049AF4FB10577
:1050D000F9F48091BC039091BD03A091BE03B091FF
:1050E000BF038093B6039093B703A093B803B09324
:1050F000B9038091BA03882309F4F4C30E94E21D26
:105100000E94711C8091BB030E94D6151092BA03B5
:1051100064EF71E080E090E00E94820F82E0809373
:10512000EF041092F3048091BB03823041F0809130
:10513000BA03811104C08DE796E00E948A178BEFB5
:1051400095E00E94FD1487EE95E00E94FD1483ED2A
:1051500095E00E94FD148091BC039091BD03A09145
:10516000BE03B091BF034091B6035091B703609165
:10517000B8037091B903841B950BA60BB70B81364E
:105180009A4EA105B10528F18091BA03811121C081
:1051900083EB96E00E94E1146091B4037091B50333
:1051A00083E090E00E94F82D6091060182E090E09B
:1051B0000E94E62D6091BB0381E090E00E94E62D05
:1051C0006091040180E090E00E94E62D81E08093F0
:1051D000BA0383ED95E00E94BC158823F9F0809115
:1051E000BA03882309F48DC30E94E21D0E94711C3A
:1051F0008091BB030E94D6158091BC039091BD03A2
:10520000A091BE03B091BF038093B6039093B70300
:10521000A093B803B093B9031092BA038BEF95E053
:105220000E94BC15882319F081E00E94F41C87EECF
:1052300095E00E94BC15882319F08FEF0E94F41CA2
:105240004091BC035091BD036091BE037091BF03B8
:105250008091000190910101A0910201B0910301A0
:1052600084179507A607B70708F06CC08DE796E08E
:105270000E94CC169093B3038093B2032091B403A1
:105280003091B5038217930711F18091BB038230EF
:10529000F1F00E94711C8091B2039091B30390933E
:1052A000B5038093B4038091BC039091BD03A0919A
:1052B000BE03B091BF0388519C4FAF4FBF4F809347
:1052C000000190930101A0930201B09303016BEAE6
:1052D00073E08DE796E00E9499168091AC0380936D
:1052E000AA039091A903891769F18091BA038111EA
:1052F00029C06BEA73E08DE796E00E94991681E081
:105300008093BC0646E065E483EB96E00E94FA12C7
:105310006AE573E083EB96E00E940D1846E06EE6C6
:1053200083EB96E00E94FA124091AC0350E070E0EB
:1053300060E02AE083EB96E00E94FA168091AA03CF
:105340008093A90380E090E0892B09F49DCA0E9414
:105350004E10882309F495CA0E94000092CA01E009
:105360000E94BA2F26CED701C601880F991FAA1F07
:10537000BB1F6C017D016894C0F84E5F5F4F2C5FCE
:105380003F4F4B33510509F0ABCD9F012A583F4F9A
:10539000D9012D913C912A5031092930310508F06D
:1053A000BBCD2CE130E03093D2032093D103C092E7
:1053B000CD03D092CE03E092CF03F092D0038AE0E7
:1053C00090E0B8CACC0CDD1CEE1CFF1CD6CF82814D
:1053D0009381895791098335910560F58091F30494
:1053E000813240F184819581CA97899718F59F0190
:1053F0002A5F3F4FC12CD12C760143E050E0D90108
:105400006D917C9111976A5071096930710590F422
:1054100012966D917C9113976651710961317105F6
:1054200080F112966D917C9166507109673071051B
:1054300008F454C0828193818C549109C59708F077
:1054400081C08091F304843009F04DC0848195813E
:105450008097479708F047C08681978109970997F9
:1054600008F041C01092D2031092D1034092CD03B4
:105470005092CE036092CF037092D00387E090E009
:1054800059CAD701C601880F991FAA1FBB1F6C01FB
:105490007D016894C0F84E5F5F4F2C5F3F4F4332F1
:1054A000510509F0ACCF9F012A5B3F4FD9012D91E7
:1054B0003C912A5031092930310508F0BBCF20E159
:1054C00030E03093D2032093D103C092CD03D09229
:1054D000CE03E092CF03F092D00344CDCC0CDD1C80
:1054E000EE1CFF1CD8CF8091F304843458F18481E2
:1054F000958189549109C39728F59F012A5F3F4FF1
:10550000BF016A577F4FC12CD12C7601D9014D9133
:105510005C911197495051094930510598F4129600
:105520004D915C911397465151094131510508F451
:10553000A2C012964D915C914650510947305105D9
:1055400008F4B6C08091F3048634C0F1828193815F
:105550000C970B9798F5848195810997099770F5B9
:10556000868197818C974F9748F58085918589979B
:105570004D9720F59F01265F3F4FC12CD12C76011E
:1055800045E050E0D9016D917C9111976C50710903
:105590006B30710598F412966D917C9113976E5152
:1055A00071096731710508F488C012966D917C917C
:1055B000695071096930710508F4ACC08091F30439
:1055C000883508F4B6C082819381855891098B355E
:1055D000910508F0AEC084819581825491098E971F
:1055E00008F0A7C08F01045C1F4F8DE190E030E010
:1055F00020E04091F3044450550B8417950714F5AF
:10560000A80142505109DA014D915C91495051096C
:105610004830510508F08DC0BC016F5F7F4FD80145
:105620004D915C911197475051094730510508F44D
:1056300076C04D915C91485151094231510508F4B1
:1056400075C0CB010197959587959093D203809370
:10565000D1038A970CF46DC0C901330FAA0BBB0BA1
:105660008093CD039093CE03A093CF03B093D00348
:1056700089E090E05FC9D701C601880F991FAA1F72
:10568000BB1F6C017D016894C0F82C5F3F4F26174B
:10569000370709F03BCF3092D2032092D103C0925A
:1056A000CD03D092CE03E092CF03F092D003E6CEAA
:1056B000CC0CDD1CEE1CFF1CE8CFD701C601880F07
:1056C000991FAA1FBB1F6C017D016894C0F84E5F33
:1056D0005F4F2C5F3F4F4534510509F053CF9F0179
:1056E00026573F4FD9012D913C912C5031092B3039
:1056F000310508F063CF3092D2032092D103C092DB
:10570000CD03D092CE03E092CF03F092D00388E095
:1057100090E010C9CC0CDD1CEE1CFF1CD8CF220F72
:10572000331F216002960C5F1F4F63CF220F331F80
:10573000F9CF8091F304803279F5828193810697C5
:10574000069750F5848195810997099728F59F015F
:105750002A5F3F4FBF01625C7F4FC12CD12C760185
:10576000D9014D915C911197465051094630510530
:1057700098F412964D915C91139749515109433118
:10578000510508F489C012964D915C914950510918
:105790004930510508F4A1C08091D5039091D603FA
:1057A00098878F8306970CF4B9CCDF011296BE83DD
:1057B000AD8385ECC82E8DE9D82E8CE1E82E81E8EA
:1057C000F82E03E010E0ED81FE8164817581A080F8
:1057D000B18090E080E00E94B92C69877A878B873E
:1057E0009C87B50190E080E00E94B92C4B015C01E0
:1057F0002DEC3CEC4CE45FE30E941A2D9B01AC01C4
:1058000069857A858B859C850E94B42CF0E0E0E068
:1058100087FD16C02DEC3CEC4CE45FE369857A858E
:105820008B859C850E941A2D9B01AC01C501B4019A
:105830000E94B42CE2E0F0E087FD02C0E1E0F0E07D
:10584000A701960163E971E080E091E00E94742F66
:105850006F01FF0FEE08FF08C626D726E826F926B7
:105860000F5F1F4F8D819E8102969E838D83AF8136
:10587000B885A017B10709F0A6CFC092CD03D0928A
:10588000CE03E092CF03F092D0033092D203209265
:10589000D103EFEFFFEF84CBD701C601880F991F2B
:1058A000AA1FBB1F6C017D016894C0F82C5F3F4F9D
:1058B0002617370709F054CFEEE0F0E0F093D2035B
:1058C000E093D103C092CD03D092CE03E092CF03F8
:1058D000F092D0038FE090E02DC8CC0CDD1CEE1CC4
:1058E000FF1CE4CF8091BB038F5F833039F080933E
:1058F000BB038091BB030E94D6150ACC1092BB0358
:10590000F8CF8091BB038F5F8330C9F08093BB03D6
:105910008091BB030E94D6150E94711C8091BC032C
:105920009091BD03A091BE03B091BF038093B603D5
:105930009093B703A093B803B093B9036FCC1092C0
:10594000BB03E6CFCF93DF93C1ECD5E08C859D857B
:105950000E9492308E819F810E949230888199812D
:10596000DF91CF910C9492300E94F62C08F481E0E4
:105970000895E89409C097FB3EF490958095709542
:1059800061957F4F8F4F9F4F9923A9F0F92F96E98B
:10599000BB279395F695879577956795B795F11100
:1059A000F8CFFAF4BB0F11F460FF1BC06F5F7F4F9D
:1059B0008F4F9F4F16C0882311F096E911C07723AF
:1059C00021F09EE8872F762F05C0662371F096E8B8
:1059D000862F70E060E02AF09A95660F771F881F87
:1059E000DAF7880F9695879597F90895990F00082B
:1059F000550FAA0BE0E8FEEF16161706E807F907A1
:105A0000C0F012161306E407F50798F0621B730B3B
:105A1000840B950B39F40A2661F0232B242B252BBC
:105A200021F408950A2609F4A140A6958FEF811D5F
:105A3000811D08950E942D2D0C949E2D0E94902D65
:105A400038F00E94972D20F0952311F00C94872DAB
:105A50000C948D2D11240C94D22D0E94AF2D70F337
:105A6000959FC1F3950F50E0551F629FF001729F03
:105A7000BB27F00DB11D639FAA27F00DB11DAA1F12
:105A8000649F6627B00DA11D661F829F2227B00D5F
:105A9000A11D621F739FB00DA11D621F839FA00DEA
:105AA000611D221F749F3327A00D611D231F849F3A
:105AB000600D211D822F762F6A2F11249F57504091
:105AC0009AF0F1F088234AF0EE0FFF1FBB1F661F0C
:105AD000771F881F91505040A9F79E3F510580F0D5
