:100000000C94D6020C94FE020C94FE020C94FE0298
:100010000C94FE020C94FE020C94FE020C94FE0260
:100020000C94FE020C94FE020C94FE020C94FE0250
:100030000C94FE020C94FE020C94FE020C94FE0240
:100040000C94BC140C94FE020C940D110C94E7104B
:100050000C94FE020C94FE020C94FE020C94FE0220
:100060000C943F110C94FE020000000023002600B7
:10007000290000030C0F30333C3FC0C3CCCFF0F35A
:10008000FCFFAED580A83FD300408D142002A1C84C
:10009000DA12817FD9F1DB40A4A6AF2E22CE224610
:1000A000237823A023182458258025A825D0253C73
:1000B00028E628F42919920A0C2060020104080697
:1000C0000B080103030507020401050605060607E0
:1000D00006060606060102070707050A08060707BF
:1000E00006060707030406060807080608070607AA
:1000F00007080B060706030503080802060605069F
:1001000006040606010305010906060606040505A0
:10011000060509050505050105080900000000FEA2
:100120002007000007000000008090F89690F896E5
:100130001000300000300000001824FF44448420E8
:1001400020F02020101C22221C80700CC22020C015
:100150000000002010000010202010DC2222225C71
:1001600080600010202020201010200700F80601D9
:100170001060800106F88060100A041F040A000065
:10018000000000404040F8404040000000300000C7
:10019000000000807040404040000000000030003F
:1001A00000E01C038070000000FC02020202FC1050
:1001B00020202020100404FE000020203020200CED
:1001C000824242221C3020202020200402222222AF
:1001D000DC10202020201060504844FE40400000E9
:1001E00000003000001E12121212E2102020202007
:1001F00010F814121212E0102020202010020282A7
:10020000621A06002010000000DC22222222DC10EC
:1002100020202020103C42424242FC00202020109E
:100220000018300018807040A0A0101008080000CE
:10023000001010202050505050505050000000002E
:1002400000000008081010A0A0402020101000009E
:10025000000402E2221C0000200000F00C04F20A5C
:100260000AFA040CF00030204050505010100000EA
:10027000E098868698E0003000000000000030FE24
:100280002222223CC0302020202010F8040202024A
:10029000020400102020202010FE0202020204F8B6
:1002A00030202020201000FE222222222230202076
:1002B000202020FE2222222202300000000000F82E
:1002C0000402022222E400102020202010FE202020
:1002D000202020FE3000000000003002FE0220300E
:1002E00020000202FE20202010FE20508804023050
:1002F0000000001020FE0000000000302020202020
:1003000020FE0638C0C03806FE30000000000000A5
:1003100030FE061820C000FE30000000003030F82B
:10032000040202020204F80010202020201000FE27
:10033000424242423C300000000000F80402020247
:100340000204F80010202020609080FE222262A289
:100350001C00300000000010201C22222222C410A9
:100360002020202010020202FE02020200000030C3
:10037000000000FE0000000000FE00102020201001
:10038000000638C00000C038060000003030000011
:10039000001EE000C0380638C000E01E000030003B
:1003A00000000000300000068870708806300000F1
:1003B000000030020C10E0100C02000000300000C1
:1003C00000028262120A06302020202020FF010154
:1003D000F08080031C60800000000030C00101FF3D
:1003E0008080F010080402020408100000000000E1
:1003F000000000000000000000000080808080807D
:10040000808080010200008048484848F010202089
:10041000202030FF10080808F0302020202010F0A5
:10042000080808101020202010F008080808FF1005
:100430002020201030F0484848487010202020200C
:100440001008FE090900300000F008080808F8103C
:10045000A0A0A09070FF10080808F0300000000075
:1004600030F9300008F9808070FF40A0100830009B
:10047000001020FF30F8080808F0080808F03000E5
:1004800000003000000030F810080808F0300000CC
:10049000000030F008080808F0102020202010F894
:1004A00010080808F0F02020202010F008080808A4
:1004B000F81020202010F0F810080830000000305C
:1004C00048484888202020201008FE08080800100E
:1004D000202020F800000000F81020202010301804
:1004E000E000E018000030000018E000E018E00034
:1004F000E01800003000000030000018A040A018F4
:10050000300000003018E000E018008070000008A3
:100510008848281830202020202020DE01010000FB
:10052000708080FFF00101DE20208080700000C01C
:10053000202040408080600000000000000000FE9D
:1005400002020202020202FE30202020202020208F
:100550003082001980400000000000240027002A9B
:100560000000000000250028002B000404040404FF
:100570000404040202020202020303030303030150
:100580000204081020408001020408102001020427
:10059000081020000000080002010000030407000A
:1005A00000000000000000001818A51511241FBE4F
:1005B000CFEFD8E0DEBFCDBF25E0A8E6B3E001C0B5
:1005C0001D92AA3EB207E1F713E0A0E0B1E0EAE332
:1005D000F7E302C005900D92A836B107D9F712E0F3
:1005E000C5EDD2E004C02197FE010E947519C43DFB
:1005F000D107C9F70E94B7150C94901B0C9400000A
:10060000FC0163830895FC01748B638B0895DC0106
:100610005396ED91FC915497309749F020E030E0EB
:1006200040E050E060E070E080E090E009940895E0
:100630000895FC01818992890895FC01878590893C
:100640000895FC01858596850895FC018385948530
:100650000895FC01818592850895089508950F936A
:100660001F93CF93DF93EC018A01E881F981028C1B
:10067000F38DE02D0995E881F981068CF78DE02D49
:10068000B801CE01DF91CF911F910F910994FC0128
:10069000748763870895FC017287618761307105F3
:1006A00019F48CEF91E205C06230710561F480EBC2
:1006B0009DE19687858780E39AE2908B87878AE021
:1006C00090E0928B818B0895FC0180850895FC0158
:1006D00060870895FC0187810895FC016783089570
:1006E000FC0186810895FC0166830895FC018581E3
:1006F0000895FC0165830895FC0184810895FC013F
:1007000064830895089580E00895CF93DF93EC010A
:100710009C818E81981758F4E881F9810084F185D5
:10072000E02D42E0CE0109958C818F5F8C83DF91B3
:10073000CF910895FC016093BC008091BC0087FFBD
:10074000FCCF9091B900987F90830895CF92DF926B
:10075000EF92FF920F931F93CF93DF93EC01C62E7E
:10076000D42E8F85882351F0411108C084E98093ED
:10077000BC008091BC0084FDFCCF1F86EF848E01FD
:10078000035F1F4FE11014C0FE8464EAC8010E9499
:100790009A038D85883011F1803101F1DD2011F04F
:1007A00080E4E82EE092BB0064E8C8010E949A034E
:1007B000C092BB0064E8C8010E949A0382E0D8128C
:1007C00004C08F858F5F8F8711C084E98093BC0040
:1007D0008091BC0084FDFCCF1F8608C0FF0CF09206
:1007E000BB0064E8C8010E949A03D8CFDF91CF9183
:1007F0001F910F91FF90EF90DF90CF900895089593
:1008000080E090E00895CF93DF93CDB7DEB72797D0
:100810000FB6F894DEBF0FBECDBFDC01ED91FC91A9
:1008200004A4F5A5E02DBE016F5F7F4F09958C8173
:10083000811103C067E871E002C062E871E086E3FD
:1008400094E00E94A3158D81811103C063E971E0DA
:1008500002C06CE871E086E394E00E94A3158F81EA
:10086000811103C062EA71E002C06AE971E086E3C7
:1008700094E00E94A3156AEA71E086E394E00E9486
:10088000A3154A8150E060E070E02AE086E394E03E
:100890000E94061563EB71E086E394E00E94A315C5
:1008A0004B8150E060E070E02AE086E394E00E9433
:1008B000061586E394E00E948D1527960FB6F894EE
:1008C000DEBF0FBECDBFDF91CF910895CF92DF92F3
:1008D000EF92FF920F931F93CF93DF931F92CDB7A9
:1008E000DEB78C016B01DC01ED91FC91048CF58D80
:1008F000E02D498309957C01D801ED91FC9100A080
:10090000F1A1E02DC80109954981C114D104E1F19B
:100910004B30D0F1F6011082F1E0EF1AF10822E03D
:10092000E216F10488F545E0EAE0F0E010E241501B
:10093000242F30E0443011F0009751F02C0D3D1D74
:10094000BF010E943F19805DD9018C93CB0104C087
:10095000D601A20FB31F1C934111E9CFF601848188
:100960008583838184838EE283836BEB71E0C60190
:1009700006960F90DF91CF911F910F91FF90EF900E
:10098000DF90CF900C94891B0F90DF91CF911F9136
:100990000F91FF90EF90DF90CF900895DC01FB0165
:1009A000108211821282138214968C911497808384
:1009B00017968C911797818318968C91189782833C
:1009C00015968C918383089527E0FB0111922A9557
:1009D000E9F7FC018681FB0185830895EF92FF9280
:1009E0000F931F93CF93DF937A018901892BA1F590
:1009F0006DE272E083E395E00E94891B63E375E09A
:100A00008DE395E00E94891B60EC71E087E495E03E
:100A10000E94891B82E4E9E5F5E0DF011D928A95D9
:100A2000E9F710923205E0915105F09152053097A7
:100A300019F087E495E00995E0915505F091560588
:100A4000309709F4F5C086E693E0DF91CF911F91CE
:100A50000F91FF90EF900994CB0188279870892F10
:100A60008695869586959B012227307F832B8A6009
:100A700080932D0510922E0510922F058A3209F4CD
:100A80004BC020F48A50823028F0D2C08A3409F456
:100A900082C0CEC06370660FE12EF02EE62FF0E02C
:100AA000EF01C35DDA4F8E8181132AC0E25DFA4FF8
:100AB0008681801325C0188B008B10924505663007
:100AC000F9F46DE375E083E395E00E94801B892BC8
:100AD000B9F467E475E08DE395E00E94801B892BF3
:100AE00079F06DE375E087E495E00E94891BE09161
:100AF0005105F0915205309719F087E495E009957A
:100B00008E818E1104C08F818F1509F491C01E83D0
:100B10000F8310923B058CC0862F80718093300527
:100B2000E62FEF70CE2FCC0FCC0F80913205C81777
:100B300048F4E0915505F0915605309719F089E594
:100B400095E00995C093320580913005909131056B
:100B5000891749F08093310582E4E9E5F5E0DF018A
:100B60001D928A95E9F7EC2FF0E0E35DFA4FF4A6C9
:100B7000E1E0EC0FF0E0E35DFA4FE4A6E2E0EC0F19
:100B8000F0E0E35DFA4F14A7E3E0EC0FF0E0E35D83
:100B9000FA4F04A74DC0C80126E0969587952A957F
:100BA000E1F78F739927B1E0EB22FF2434E0EE0CDC
:100BB000FF1C3A95E1F7A801452F552742954F7044
:100BC000E42AF52A4CE34E9D90014F9D300D1124EF
:100BD000820F931F202F2F7105FF06C03EE1239F38
:100BE00080199109112405C0AEE12A9F800D911D45
:100BF0001124E0915305F09154053097C9F02091EC
:100C00005705309158058217930791F09093580536
:100C1000809357056CE370E00E943F19962F682F70
:100C2000892FDF91CF911F910F91FF90EF90099441
:100C3000DF91CF911F910F91FF90EF900895DC010C
:100C4000ED91FC910084F185E02D40E009940F9333
:100C50001F93CF938C01FC0164839085C62FC90F2D
:100C60006C2F6F70C8010E941F066C2F62956F7009
:100C70006061C801CF911F910F910C941F060F93D3
:100C80001F93CF93DF931F92CDB7DEB78C01FC018A
:100C90008681681728F4C80149830E942706498184
:100CA000F8018781869586958695481758F445837F
:100CB000642F606BC8010F90DF91CF911F910F914E
:100CC0000C941F060F90DF91CF911F910F91089503
:100CD000CF92DF92EF92FF920F931F93CF93DF9308
:100CE000EC01F62EC42ED22E8F81869586958695A0
:100CF000081710F00FEF080F1D2D011780F0412F7E
:100D00006F2DCE010E943F06EF2CCE1430F060E034
:100D1000CE010E948503E394F8CF1F5FEECF4D2DE7
:100D20006F2DCE01DF91CF911F910F91FF90EF902A
:100D3000DF90CF900C943F060F931F93DC01159624
:100D40002C9115971B96ED91FC911C97309749F0CB
:100D50003396E49119960C911997E09FE02D112498
:100D600001C0E0E08FEF820F0E2F10E0095F1F4FF0
:100D700093E0159507959A95E1F7080F16964C9113
:100D80001697415014966C911497CD010E946806F5
:100D90001F910F9108952F923F924F925F926F9201
:100DA0007F928F929F92AF92BF92CF92DF92EF92FB
:100DB000FF920F931F93CF93DF93CDB7DEB72797A3
:100DC0000FB6F894DEBF0FBECDBFFC0103851485BE
:100DD0000115110509F42FC19F838E83F801B49189
:100DE00031964491319654903196A491EA2EF12C8B
:100DF000F7E0EF0EF11C93E0F594E7949A95E1F794
:100E0000EB82F801349674913196E491671758F0AB
:100E1000862F90E02E2F30E0F901E70FF11D8E179D
:100E20009F070CF448C06D3061F4EE81FF8186812C
:100E3000882309F43DC060E08E819F810E942706CF
:100E400037C06A3009F0F7C0EE81FF8181851581D6
:100E50008E9D100D1124878186958695869518178D
:100E600030F08285882319F082E0828710E0412FDC
:100E700060E08E819F810E943F06EE81FF81828526
:100E80008230B0F0CF010E949C06EE81FF81818507
:100E9000612F8E9D600D1124660F660F660F87818E
:100EA000861708F460E060648E819F810E941F06AF
:100EB00081E090E0C2C050E05B2BC8010696671B42
:100EC000EE81FF81F185F9834230510588F4452B8D
:100ED00009F019825E9C90015F9C300D1124629F85
:100EE0008001639F100D1124080F191F412C24C08D
:100EF000EA2FE77021F048E0442E4E1A01C0412C41
:100F0000A82FFC0140E050E07E2F7A1B761728F4D2
:100F10007491470F511D3196F7CFFC01E60FF11D7B
:100F200054904E9D80014F9D100D5E9D100D11241B
:100F3000020F131F080F191FEE81FF81F481FC833C
:100F4000EE81FF813580652C712CCC24C394D12C8B
:100F5000812C912C7FEF7C0D7A838B81781708F0A0
:100F60005CC0212CEE81FF818185281608F04FC0DE
:100F70007A81711102C0222041F0EE81FF8145810A
:100F80004F5F6C81CF010E943F06A12CB12CA514AC
:100F900088F5F501E80DF91DE00FF11F24914420BB
:100FA00061F0CE14DF0449F4E22FF0E0042C02C01B
:100FB000F595E7950A94E2F72E2FEE81FF81818562
:100FC000823079F4E22F2110E295EF70F0E0EE58D4
:100FD000FF4F2491622F8E819F812D830E94850374
:100FE0002D81622F8E819F810E948503FFEFAF1AB2
:100FF000BF0ACDCFB12C7981B71639F060E08E8170
:101000009F810E948503B394F6CF2394ABCF860CC7
:10101000971CFFEFCF1ADF0A9DCFEE81FF818781FA
:10102000869586958695381608F042CF3582632DD1
:10103000606BCF013BCF80E090E027960FB6F8942D
:10104000DEBF0FBECDBFDF91CF911F910F91FF90FB
:10105000EF90DF90CF90BF90AF909F908F907F9058
:101060006F905F904F903F902F9008950F931F9334
:10107000CF93DF93D82FC62F01ED15E081E0F80163
:10108000818740E060E0C8010E943F0669EC71E0A2
:10109000C8010E94A315C8010E949C0682E0F801C5
:1010A000818742E060E0C8010E943F06C8010E94BB
:1010B0009C064D2F50E060E070E02AE0C8010E94DD
:1010C000061567ED71E0C8010E94A3154C2F50E092
:1010D00060E070E02AE0C801DF91CF911F910F918D
:1010E0000C9406150F931F93CF93DF938C01C1EDE2
:1010F000D5E081E0898740E060E0CE010E943F06B4
:101100006BED71E0CE010E94A315CE010E949C06FA
:1011100082E0898742E060E0CE010E943F06CE0176
:101120000E949C06B801CE01DF91CF911F910F91D3
:101130000C94A3150F93CF93DF93EC010F810695C9
:101140000695069501504E81415020E060E00E94D6
:10115000680681E09A85911101C080E08A8760E489
:10116000CE01DF91CF910F910C941F06CF92DF92A9
:10117000EF92FF920F931F93CF93DF93EC0189813E
:1011800082FD34C085FD32C02A8130E0F901ED5680
:10119000FA4F8491F901E158FA4F0491F901E559A8
:1011A000FA4F14911123A1F081110E94ED13E12F48
:1011B000F0E0EE0FFF1FE859FF4FA591B491EC91BD
:1011C000E02331E020E009F430E0832F922F02C0C9
:1011D00080E090E0298123FB332730F926952170A8
:1011E000232731E08327817082278A8B8FB7F89479
:1011F0004091C5035091C6036091C7037091C80325
:101200008FBF9A892B898881992321F1211122C0CE
:1012100080FD07C0816088834E875F87688B798BEC
:101220003BC00E851F85288939896A017B01C01A58
:10123000D10AE20AF30A0B811C8120E030E0C016DB
:10124000D106E206F30640F121E02B8B8062806834
:10125000888322C08E7F888391111EC02223E1F0F3
:101260001B8A81FD03C08B858F5F8B8788818D7F73
:10127000806188834E875F87688B798B86FF04C087
:101280001C861B868F7B8883888187FF05C08F77AC
:1012900088838981816089838B89882309F19923D7
:1012A000F9F08E859F85A889B9898A019B01081B61
:1012B000190B2A0B3B0B8D819E81A0E0B0E0081733
:1012C00019072A073B0760F0888181FD09C09B85CB
:1012D0009D878A648F7788834E875F87688B798B39
:1012E0008E859F85A889B989481B590B6A0B7B0B92
:1012F0008F819885A0E0B0E0481759076A077B07FF
:1013000040F08B85882329F08C871B868881846038
:101310008883DF91CF911F910F91FF90EF90DF9025
:10132000CF900895CF93DF93EC01898184FF03C0B0
:10133000CE010E94B608988192FB882780F992FF1F
:1013400008C02C85213021F41C869B7F988301C026
:1013500080E0DF91CF91089540916D0350916E032D
:1013600060916F03709170034093690350936A0317
:1013700060936B0370936C0390916803913091F0CC
:1013800030F0923009F03DC06CEE71E03CC061E09D
:10139000813021F48BE995E00C94FA0C8BE995E00F
:1013A0000C94D90C2091000130910101813059F445
:1013B0002C3031051CF42F5F3F4F0AC01092010101
:1013C0001092000110C0121613063CF4215031098E
:1013D000309301012093000106C08CE090E09093CF
:1013E000010180930001E0910001F0910101EE0FF5
:1013F000FF1FE556FF4F659174918BE995E00C94C2
:101400001A0D62EF71E086E394E00C949115CF938E
:10141000C82F81E08093DA0546E060E081ED95E039
:101420000E943F0686E0C89FF0011124E152FB4F65
:10143000448155816081718181ED95E00E94BA12ED
:1014400081ED95E0CF910C949C060F931F93CF9361
:10145000DF93CDB7DEB72C970FB6F894DEBF0FBE83
:10146000CDBF4CE0BE016F5F7F4F8BE995E00E94DE
:10147000660401ED15E081E0F801818740E060E05D
:10148000C8010E943F066EEF71E0C8010E949115ED
:1014900082E0F8018187BE016F5F7F4FC8010E9423
:1014A000A315C8010E949C062C960FB6F894DEBFC7
:1014B0000FBECDBFDF91CF911F910F910895089579
:1014C000CF92DF92EF92FF920F931F93CF93DF9310
:1014D0007C01262F972F8A0180911204882391F096
:1014E000C62FD72F6E01C40ED51ECC15DD0571F0A9
:1014F0006991D701ED91FC910190F081E02DC70138
:101500000995F3CF642F822F0E946D12C801DF91DD
:10151000CF911F910F91FF90EF90DF90CF900895A2
:10152000CF93DF931F92CDB7DEB76983209112046A
:101530002223D1F020913504203240F021E030E028
:10154000FC013383228380E090E015C08091130476
:10155000E82FF0E0EC5EFB4F998190838F5F8093E2
:1015600013048093350405C061E0CE0101960E940A
:101570006D1281E090E00F90DF91CF910895CF93AD
:10158000C62F672F83ED94E00E94900A6C2F83EDA5
:1015900094E0CF910C94900ACF93DF9300D000D0C9
:1015A000CDB7DEB7DC01ED91FC9106A4F7A5E02DE7
:1015B000BE016F5F7F4F09958C81811103C066E189
:1015C00072E002C060E172E086E394E00E94A3153D
:1015D0008A81811103C066E172E002C06CE172E0B1
:1015E00086E394E00E94A3158B81811103C06CE215
:1015F00072E002C062E272E086E394E00E94A3150A
:1016000086E394E00E948D150F900F900F900F903D
:10161000DF91CF910895EF92FF920F931F93CF9395
:10162000DF93EC018B81882379F08EE30E94E21333
:1016300066E372E086E394E00E94A31565E472E03D
:1016400086E394E00E94911581E08093120480E18A
:101650008093340410921304109235048E01065EB8
:101660001F4F7E0184E2E80EF11CF8016191719137
:101670008F01CE010E94BF0A0E151F05B1F7DF9141
:10168000CF911F910F91FF90EF900C948E13CF93F9
:10169000DF93EC018B81882379F08EE30E94E213C3
:1016A00068E472E086E394E00E94A31565E472E0CA
:1016B00086E394E00E949115E881F9810480F58128
:1016C000E02D60E0CE0109951B8E1A8ECE01DF91D0
:1016D000CF910C940B0B1F93CF93DF9383ED94E08A
:1016E0000E94B410182F83ED94E00E94B410D12F03
:1016F00020E0C22F9E01280F311DC901DF91CF913B
:101700001F9108951F93CF93DF93FC0123893489A0
:10171000232B09F47BC0EC0182E090E00E94D513FA
:10172000CE010E946B0B9BA78AA70E948E138AA5ED
:101730009BA593FF0CC08B81882349F08EE30E9408
:10174000E2136DE472E086E394E00E9491158AA5AD
:101750009BA597FF5BC081E08093120481E1809399
:10176000340410921304109235046CE083ED94E07D
:101770000E94900A80E00E94311341E068E081E11C
:101780000E9491131092CA038093C903CE010E9454
:101790006B0B2EA53FA58217930721F09FA78EA75D
:1017A00011E001C010E0CE010E946B0B28A939A9FD
:1017B0008217930719F099AB88AB11E0CE010E9414
:1017C0006B0B2AA93BA98217930719F09BAB8AAB35
:1017D00011E0CE010E946B0B2CA93DA98217930743
:1017E00019F09DAB8CAB11E00E948E13112371F0A8
:1017F0002CA93DA94AA95BA968A979A9EB89FC890B
:101800008EA59FA5DF91CF911F910994DF91CF9174
:101810001F910895EF92FF920F931F93CF93DF9341
:101820008C018CE090E00E94D513E801AA96780123
:1018300086E3E80EF11CC8010E946B0B8993999313
:10184000CE15DF05C1F7DF91CF911F910F91FF906A
:10185000EF900C948E130F931F93CF93DF938C0113
:10186000EB010E94E404C8010E940A0C21E02883D5
:10187000F80182A593A592FD2E8397FF02C081E017
:101880008B83F80185A586958695898384A595A582
:1018900090FF02C081E08C83F801828D938D95FFCB
:1018A00002C081E08D83DF91CF911F910F91089548
:1018B000CF93DF93EC0182E090E00E94D513CE013C
:1018C0000E946B0B9BA78AA70E948E132AA53BA59B
:1018D00033708AE0829FA001839F500D11248D8573
:1018E0009E85840F951F9C878B87DF91CF910895EC
:1018F000FF920F931F93CF93DF938C01F62EFC0181
:101900008381C62FD0E08823A1F18EE30E94E213E9
:101910006CE572E086E394E00E94A3156BE672E04A
:1019200086E394E00E94A3154F2D50E060E070E044
:1019300020E186E394E00E9406156FE672E086E3FC
:1019400094E00E94A315FE013B96EE0FFF1FE00FEF
:10195000F11F4081518160E070E020E186E394E076
:101960000E94061589E20E94E21386E394E00E9439
:101970008D1581E08093120481E1809334041092EC
:101980001304109235046F2D83ED94E00E94900AA9
:101990002B96CC0FDD1FC00FD11F68817981C80144
:1019A0000E94BF0ADF91CF911F910F91FF900C947D
:1019B0008E131F93CF93DF93EC01162F8A8D9B8D8F
:1019C0009D7F91609B8F8A8F62E0CE010E94780C90
:1019D00011110CC08A8D9B8D9E7F9B8F8A8F62E038
:1019E000CE01DF91CF911F910C94780CDF91CF91B4
:1019F0001F9108951F93CF93DF93EC01162F8A8DCB
:101A00009B8D93609B8F8A8F62E0CE010E94780C41
:101A100011110CC08A8D9B8D9E7F9B8F8A8F62E0F7
:101A2000CE01DF91CF911F910C94780CDF91CF9173
:101A30001F9108950F931F93CF93DF938C01EB01B8
:101A4000DC0113968C918823D9F08EE30E94E21377
:101A500064E772E086E394E00E94A31588E20E94A6
:101A6000E213AE0160E070E02AE086E394E00E94B9
:101A7000061589E20E94E21386E394E00E948D1528
:101A8000D8015C96ED91FC915D97EF70FF271D9654
:101A90008D919C911E979E01C817D90708F49C014F
:101AA000D8011F964D915C9150977096421753073D
:101AB00008F49A01A901481B590BCA016AE070E0B9
:101AC0000E943F19EB0186E0CC0FDD1F8A95E1F7FC
:101AD000CE2BDF2BD8015A968D919C915B97896014
:101AE000906C5B969C938E935A9762E0C8010E941B
:101AF000780CF801D58FC48F63E0C8010E94780C80
:101B000065E0C801DF91CF911F910F910C94780C83
:101B1000FC016087268D378D662311F0326002C08C
:101B20003D7FFC01378F268F64E00C94780CFC011C
:101B30006783228D338D662311F03F7B02C03064B2
:101B4000FC01338F228F62E00C94780CFC016683D9
:101B5000828D938D9C013E7F338F228F662321F0EF
:101B60003062338F228F03C09E7D938F828F62E01D
:101B7000CF010C94780CFC016583228D338D662394
:101B800011F0306101C03F7EFC01338F228F62E093
:101B90000C94780CFC0164836F7020A131A1207F2C
:101BA000262B31A320A365E00C94780CCF93DF9310
:101BB000EB016031710520F480E30E94E21304C060
:101BC0006F3F710509F020F480E30E94E21303C027
:101BD0006115704118F480E30E94E213AE0160E0E9
:101BE00070E020E186E394E00E94061580E2DF9138
:101BF000CF910C94E213CF92DF92EF92FF920F936A
:101C00001F93CF93DF93CDB7DEB72C970FB6F89421
:101C1000DEBF0FBECDBF8C010E940A0CD801ED9132
:101C2000FC9106A8F7A9E02D4CE0BE016F5F7F4F45
:101C3000C801099561E972E086E394E00E94A3156A
:101C4000BE016F5F7F4F86E394E00E94A315F80109
:101C5000E6A4F7A46CE972E086E394E00E94A31581
:101C6000B701C8010E94D60DD8019A968D919C911A
:101C70009B9792FD03C069E872E002C061E872E0E0
:101C800086E394E00E94A315F80182A593A597FD31
:101C900003C062E871E002C067E871E086E394E0A7
:101CA0000E94A315D8019D968C91E82EE694E694A7
:101CB000F12C61EA72E086E394E00E94A315BAE099
:101CC000EB16F1042CF460E286E394E00E94271006
:101CD000C7010E944F1580E20E94E213C12CD12C53
:101CE000EFE0EE1AF108CE14DF044CF46AE286E36A
:101CF00094E00E942710FFEFCF1ADF0AF4CF86E3AB
:101D000094E00E948D1567EA72E086E394E00E94F9
:101D10009115780186E1E80EF11C6801A6E3CA0E70
:101D2000D11CF701619171917F01C8010E94D60D0C
:101D3000EC14FD04B1F786E394E00E948D1581E078
:101D40008093120481E18093340410921304109262
:101D5000350460E083ED94E00E94900A80E00E94E8
:101D6000311341E060E281E10E9491131092CA03B5
:101D70008093C90380E1E82EF12CC8010E946B0B0F
:101D8000BC01C8010E94D60DF1E0EF1AF108A9F7D5
:101D90000E948E1386E394E00E948D15D801ED9188
:101DA000FC910288F389E02DC8010995882331F060
:101DB00064EF72E086E394E00E94A315D801ED91F0
:101DC000FC9102A4F3A5E02DC8010995882331F008
:101DD0006FEF72E086E394E00E94A315D801ED91C5
:101DE000FC910680F781E02DC8010995182F65E068
:101DF00073E086E394E00E94A315812F90E00E9497
:101E00004F1580E20E94E21386E394E00E948D1554
:101E10002C960FB6F894DEBF0FBECDBFDF91CF91E9
:101E20001F910F91FF90EF90DF90CF900895EF9268
:101E3000FF920F931F93CF93DF938C01EB010E94CE
:101E40004B03C130D10531F0229731F488E0E82E00
:101E5000F12C02C0E12CF12CF801F58EE48EDF911B
:101E6000CF911F910F91FF90EF9008951F93CF9303
:101E7000DF93EC018B81882379F08EE30E94E213DB
:101E80006DE073E086E394E00E94A31565E472E0E0
:101E900086E394E00E9491151092CA031092C90340
:101EA00010921304109235041092110411E0109353
:101EB00010041092EB0361E082E10E94161461E0CD
:101EC00083E10E9416148091B9008E7F8093B9003F
:101ED0008091B9008D7F8093B90088E48093B80029
:101EE00085E48093BC001093120481E18093340454
:101EF00010921304109235040E948E1381113AC07F
:101F00008B81882349F08EE30E94E21362E173E043
:101F100086E394E00E94911584E098E59F8B8E8B78
:101F2000198E188E83E090E09B8F8A8FE881F9816B
:101F3000028CF38DE02D61E070E0CE01099580E028
:101F400098E09F8F8E8F81E890E999A388A31BA2C8
:101F50001AA21DA21CA21FA21EA219A618A6CE017B
:101F60000E940B0B81E090E09B8F8A8F62E0CE0194
:101F70000E94780C81E0DF91CF911F910895FC01C0
:101F8000538D448D252F30E0842F90E0821B930BDE
:101F9000541710F0CF96089501970895FC01918D84
:101FA000828D981761F0828DDF01A80FB11D5D96BB
:101FB0008C91928D9F5F9F73928F90E008958FEF29
:101FC0009FEF0895FC01918D828D981731F0828DDD
:101FD000E80FF11D858D90E008958FEF9FEF089534
:101FE000FC01918D228D892F90E0805C9F4F821B98
:101FF00091098F739927089586E394E00E94F00F6A
:1020000021E0892B09F420E0822F0895FC01848DC2
:10201000DF01A80FB11DA35ABF4F2C91848D90E012
:1020200001968F739927848FA689B7892C93A089ED
:10203000B1898C9180648C93938D848D981306C0A4
:102040000288F389E02D80818F7D80830895EF924F
:10205000FF920F931F93CF93DF93EC0181E0888F62
:102060009B8D8C8D981305C0E889F989808185FD49
:1020700024C0F62E0B8D10E00F5F1F4F0F7311273A
:10208000E02E8C8DE8120CC00FB607FCFACFE88961
:10209000F989808185FFF5CFCE010E940610F1CF2E
:1020A0008B8DFE01E80FF11DE35AFF4FF0820B8F7D
:1020B000EA89FB898081806207C0EE89FF8960839D
:1020C000E889F98980818064808381E090E0DF91F4
:1020D000CF911F910F91FF90EF900895CF93DF93D1
:1020E000EC01888D8823C9F0EA89FB89808185FD10
:1020F00005C0A889B9898C9186FD0FC00FB607FC71
:10210000F5CF808185FFF2CFA889B9898C9185FFB1
:10211000EDCFCE010E940610E7CFDF91CF91089559
:1021200080E090E0892B29F00E94FC0F81110C9433
:102130000000089585ED8093BC008091BC0084FD73
:10214000FCCF1092110408950895E091CA03809184
:10215000C903E81730F4F0E0E553FC4F808190E0CC
:1021600008958FEF9FEF08959091CA038091C9035E
:10217000981750F4E92FF0E0E553FC4F208130E050
:102180009F5F9093CA0302C02FEF3FEFC9010895EC
:102190008091C90390E02091CA03821B91090895A0
:1021A0000E94721B6115710579F0FB0101900020FE
:1021B000E9F73197AF01461B570BDC01ED91FC911C
:1021C0000280F381E02D099480E090E008951F9251
:1021D0000F920FB60F9211242F933F934F935F935B
:1021E0006F937F938F939F93AF93BF93EF93FF93DF
:1021F00086E394E00E940610FF91EF91BF91AF91AA
:102200009F918F917F916F915F914F913F912F910E
:102210000F900FBE0F901F9018951F920F920FB640
:102220000F9211242F938F939F93EF93FF93E0913D
:102230004604F09147048081E0914C04F0914D04F4
:1022400082FD12C0908180914F048F5F8F73209127
:102250005004821751F0E0914F04F0E0EA5CFB4F2C
:10226000958F80934F0401C08081FF91EF919F91E2
:102270008F912F910F900FBE0F901F9018951F9266
:102280000F920FB60F9211242F933F934F935F93AA
:102290006F937F938F939F93AF93BF93EF93FF932E
:1022A0008091B900887F803609F49CC068F5883237
:1022B00009F45BC090F4803109F454C038F48823E9
:1022C00009F4F6C0883009F44DC0F6C0883109F42D
:1022D0004CC0803209F45DC0EFC0803409F468C09E
:1022E00048F4803309F455C0883309F0E5C0809381
:1022F0000F04D8C0803509F44FC0883509F45DC09B
:10230000883409F0D9C0D6C0883909F4C7C0A8F408
:10231000883709F467C038F4883609F463C0803719
:1023200009F460C0C9C0883809F4B8C0803909F41C
:102330005FC0803809F0C0C05BC0803B09F486C034
:1023400038F4803A09F466C0883A09F47FC0B4C012
:10235000803C09F4A7C0883C09F4A4C0883B09F478
:102360008AC0AAC08091EC0310C090910E048091A5
:102370000D04981770F5E0910E0481E08E0F8093A4
:102380000E04F0E0E351FC4F80818093BB0085ECAC
:1023900086C080930F048EC0E0910E0481E08E0F02
:1023A00080930E048091BB00F0E0E351FC4F8083EA
:1023B00090910E0480910D046EC0E0910E0481E0B6
:1023C0008E0F80930E048091BB00F0E0E351FC4F30
:1023D00080838091100481116DC081E08093EB03B4
:1023E00084EA61C083E0809311041092B703CFCFD9
:1023F0008091B703803208F051C0E091B70381E0CB
:102400008E0F8093B7038091BB00F0E0E956FC4F3C
:102410008083BDCF85EC8093BC0010921104809125
:10242000B703803230F4E091B703F0E0E956FC4F97
:1024300010826091B70370E0E0919503F0919603EC
:1024400087E993E009951092B70336C084E0809342
:1024500011041092940310929303E0919103F09170
:102460009203099580919303811105C081E08093C7
:10247000930310927103E091940381E08E0F809397
:102480009403F0E0EF58FC4F80818093BB00909163
:10249000940380919303981708F479CF85E880938B
:1024A000BC000AC085EC8093BC001092110404C0EB
:1024B00010920F040E949A10FF91EF91BF91AF917B
:1024C0009F918F917F916F915F914F913F912F914C
:1024D0000F900FBE0F901F90189540919303262FD9
:1024E00030E0240F311D21323105DCF4209111043C
:1024F0002430C9F4FC0180E090E0861758F4309154
:1025000093032191DC01AF58BC4FA30FB11D2C9355
:102510000196F3CF80919303680F6093930380E05B
:10252000089581E0089582E008953FB7F89480917E
:10253000E2059091E305A091E405B091E50526B58B
:10254000A89B05C02F3F19F00196A11DB11D3FBFEB
:10255000BA2FA92F982F8827820F911DA11DB11D79
:10256000BC01CD0142E0660F771F881F991F4A9575
:10257000D1F70895CF92DF92EF92FF920F931F93BE
:10258000CF93DF936C017A018B01C0E0D0E0CE15D0
:10259000DF0589F0D8016D918D01D601ED91FC9197
:1025A0000190F081E02DC6010995892B11F47E017F
:1025B00002C02196ECCFC701DF91CF911F910F91FF
:1025C000FF90EF90DF90CF900895EF92FF920F93DE
:1025D0001F93CF93DF93EC01198218821B821A821A
:1025E0001D821C8261157105A9F17B01FB0101901F
:1025F0000020E9F731978F01061B170BB8016F5FB9
:102600007F4F80E090E00E94A81A009759F09983CC
:1026100088831B830A832C813D81232B81F4FC0159
:1026200010820DC088819981009711F00E94101AC4
:10263000198218821D821C821B821A820BC01D8384
:102640000C83B701DF91CF911F910F91FF90EF9015
:102650000C94891BDF91CF911F910F91FF90EF9008
:102660000895382F2091350490913404213208F0D8
:1026700049C0809111048111FCCF42E040931104C4
:10268000309310043FEF30930F0410920E04209308
:102690000D04A4E1B4E04DEE53E0FA013E2F341BEB
:1026A000321718F43D913193F9CF1092EC03209139
:1026B000EC03990F922B9093EC039091EB039130E4
:1026C00061F41092EB039091EC039093BB00909116
:1026D000BC0093FDF8CF95EC01C095EE9093BC0043
:1026E000909111049230E1F390910F049F3F79F0A3
:1026F00080910F04803241F080910F04803331F0DB
:1027000084E005C081E003C082E001C083E0109254
:1027100013041092350410921204089581E00C9471
:102720003113909111049111FCCF91E09093110419
:10273000409310042FEF20930F0410920E04260FE5
:1027400020930D049093EC039091EC03880F892B58
:102750008093EC038091EB03813061F41092EB03E2
:102760008091EC038093BB008091BC0083FDF8CF87
:1027700085EC01C085EE8093BC008091110481300E
:10278000E1F380910E04861710F460910E04ADEE13
:10279000B3E02BEC33E0F9018E2F821B861718F47F
:1027A0008D918193F9CF862F0895813208F080E2D0
:1027B00041E0682F80E10E9491131092CA03809338
:1027C000C9030895E0913604F09137040190F08137
:1027D000E02D682F86E394E00994833081F028F49B
:1027E000813099F08230A1F008958730A9F08830C7
:1027F000B9F08430D1F4809180008F7D03C0809146
:1028000080008F7780938000089584B58F7702C011
:1028100084B58F7D84BD08958091B0008F7703C00B
:102820008091B0008F7D8093B00008951F93CF9367
:10283000DF93282F30E0F901ED56FA4F8491F9012A
:10284000E158FA4FD491F901E559FA4FC491CC23DC
:10285000C9F0162F81110E94ED13EC2FF0E0EE0F5E
:10286000FF1FEF59FA4FA591B4918FB7F89411114A
:1028700005C09C91ED2FE095E92302C0EC91ED2B72
:10288000EC938FBFDF91CF911F910895CF93DF938A
:1028900090E0FC01E158FA4F2491FC01E559FA4F10
:1028A0008491882361F190E0880F991FFC01E95A17
:1028B000FA4FC591D491FC01EF59FA4FA591B4910B
:1028C000611109C09FB7F89488812095822388837D
:1028D000EC912E230BC0623061F49FB7F8943881DD
:1028E000822F809583238883EC912E2B2C939FBF7E
:1028F00006C08FB7F894E8812E2B28838FBFDF9115
:10290000CF9108958F929F92AF92BF92CF92DF9214
:10291000EF92FF926B017C010E9495124B015C01CA
:10292000C114D104E104F104F1F00E949512DC011C
:10293000CB0188199909AA09BB09883E9340A105D2
:10294000B10570F321E0C21AD108E108F10888EE60
:10295000880E83E0981EA11CB11CC114D104E104AF
:10296000F10419F7DDCFFF90EF90DF90CF90BF908B
:10297000AF909F908F9008951F920F920FB60F9275
:1029800011242F933F938F939F93AF93BF93809185
:10299000C5039091C603A091C703B091C8033091BD
:1029A000E10523E0230F2D3720F40196A11DB11D71
:1029B00005C026E8230F0296A11DB11D2093E10555
:1029C0008093C5039093C603A093C703B093C80335
:1029D0008091E2059091E305A091E405B091E505B1
:1029E0000196A11DB11D8093E2059093E305A0938C
:1029F000E405B093E505BF91AF919F918F913F9111
:102A00002F910F900FBE0F901F9018954F925F92CD
:102A10006F927F92EF92FF920F931F93CF93DF936A
:102A2000CDB7DEB7A1970FB6F894DEBF0FBECDBF0E
:102A30007C01FA01CB0119A2223008F42AE08E01B0
:102A40000F5D1F4F422E512C612C712CBF01A30131
:102A500092010E945319F901CA01015011096A300B
:102A600014F4605D01C0695CD8016C93232B242BA6
:102A7000252B61F7B801C7010E94D210A1960FB6AD
:102A8000F894DEBF0FBECDBFDF91CF911F910F91A4
:102A9000FF90EF907F906F905F904F9008950F930D
:102AA0001F93CF93DF9300D000D0CDB7DEB7AC013A
:102AB000990F660B770B77FF23C08DE249835A830A
:102AC0006B837C830E94E2138C0149815A816B8164
:102AD0007C8170956095509541955F4F6F4F7F4F0A
:102AE0002AE086E394E00E940615800F911F0F9064
:102AF0000F900F900F90DF91CF911F910F9108953C
:102B00002AE086E394E00F900F900F900F90DF91F2
:102B1000CF911F910F910C94061564E673E00C940D
:102B2000D2100F931F93CF93DF93EC010E94D2102A
:102B30008C01CE010E948D15800F911FDF91CF91E6
:102B40001F910F9108950C94D210CF93DF93CFED86
:102B5000D4E08C859D850E94101A8E819F810E94F1
:102B6000101A88819981DF91CF910C94101A789472
:102B700084B5826084BD84B5816084BD85B5826082
:102B800085BD85B5816085BD80916E008160809333
:102B90006E0010928100809181008260809381009C
:102BA00080918100816080938100809180008160AC
:102BB000809380008091B10084608093B100809107
:102BC000B00081608093B00080917A00846080932F
:102BD0007A0080917A00826080937A0080917A00F6
:102BE000816080937A0080917A00806880937A0077
:102BF0001092C10061E088E00E944614E091460412
:102C0000F091470482E08083E0914204F091430414
:102C10001082E0914404F09145048FEC808310927F
:102C20004E04E0914A04F0914B0486E08083E091E9
:102C30004804F0914904808180618083E0914804D8
:102C4000F0914904808188608083E0914804F0918C
:102C50004904808180688083E0914804F0914904B0
:102C600080818F7D808361E088E00E94461460E06F
:102C700088E00E9416146AE070E080E090E00E9414
:102C8000821461E088E00E9416146AE070E080E03F
:102C900090E00E9482141092E0058CE38093DF059F
:102CA0001092B9008CE08093B8001092D505109274
:102CB000D605E1E5F5E085919491082FE3E5F5E08F
:102CC0001491E4E5F5E0E491E093D705E5E5F5E05E
:102CD000E491E093D805E6E5F5E0E491E093D905C9
:102CE000C02FD92F8C2F801B811740F4FE016491D7
:102CF00081ED95E00E941F062196F4CF1092DB052E
:102D000081ED95E00E949A0885EB90E09093DD05B7
:102D10008093DC0561E881ED95E00E941F0660E08C
:102D200081ED95E00E941F0681ED95E00E949A08D2
:102D3000C1E0C093DA056FE173E081ED95E00E9498
:102D4000A31566E273E081ED95E00E94A31582E091
:102D50008093DA0542E060E081ED95E00E943F0655
:102D600061E373E081ED95E00E94A31560ED77E0EB
:102D700080E090E00E9482148BE995E00E94360F7B
:102D8000C0939E05E0910001F0910101EE0FFF1F3D
:102D9000E556FF4F4591549161E070E08BE995E075
:102DA0000E942F03E0910001F0910101EE0FFF1F3F
:102DB000E556FF4F4591549160E070E02AE086E3CC
:102DC00094E00E94061586E394E00E948D15E09140
:102DD0000001F0910101EE0FFF1FE556FF4F6591D5
:102DE00074918BE995E00E941A0D8EEE94E0909319
:102DF000AF058093AE0582E798E0909352058093EB
:102E0000510586E398E090935405809353058BE930
:102E100095E00E94580C9093C4038093C3030E94D2
:102E2000250A809168030E94070A2FB7F8948091C1
:102E3000C5039091C603A091C703B091C8032FBFEB
:102E400080936D0390936E03A0936F03B093700310
:102E50008BE995E00E94820B89E195E00E94B6081B
:102E600085E095E00E94B60881EF94E00E94B608E4
:102E700080916D0390916E03A0916F03B0917003E8
:102E80004091690350916A0360916B0370916C03E8
:102E9000841B950BA60BB70B81329F4BA240B1054B
:102EA00020F081ED95E00E949A0881EF94E00E9465
:102EB00092098823F1F0809168038F5F833019F0C5
:102EC0008093680302C010926803809168030E9497
:102ED000070A80916D0390916E03A0916F03B091EA
:102EE00070038093690390936A03A0936B03B0937C
:102EF0006C0389E195E00E949209882319F081E032
:102F00000E94AC0985E095E00E949209882319F09F
:102F10008FEF0E94AC0940916D0350916E03609158
:102F20006F03709170038091020190910301A09151
:102F30000401B091050184179507A607B70708F0AB
:102F400074C08BE995E00E94580C9093C403809361
:102F5000C3032091C1033091C2038217930771F11B
:102F6000AC0160E070E02AE086E394E00E94061580
:102F700086E394E00E948D158091C3039091C40371
:102F80000E94250A8091C3039091C4039093C203C9
:102F90008093C10380916D0390916E03A0916F03A4
:102FA000B091700388519C4FAF4FBF4F8093020187
:102FB00090930301A0930401B09305016AEB73E0C1
:102FC0008BE995E00E942B0C8091BB038093B903A1
:102FD0009091B803891749F16AEB73E08BE995E0AA
:102FE0000E942B0C81E08093DA0546E065E481EDD8
:102FF00095E00E943F066AE373E081ED95E00E9450
:10300000A31546E06EE681ED95E00E943F064091F3
:10301000BB0350E060E070E02AE081ED95E00E94A3
:1030200006158091B9038093B8030E949010FDCEDD
:10303000CF92DF92EF92FF920F931F93CF93DF9384
:10304000E6E3F4E01382128288EE93E0A0E0B0E0C1
:1030500084839583A683B78320E131E03183208385
:1030600025EC30E03587248724EC30E0378726874D
:1030700020EC30E0318B208B21EC30E0338B228B45
:1030800022EC30E0358B248B26EC30E0378B268B1E
:10309000118E128E138E148EE3EDF4E013821282E1
:1030A00084839583A683B78382E291E091838083B2
:1030B000E1EDF5E01382128281E0818714861386A8
:1030C00088E791E091838083EBE9F5E085E1DF011A
:1030D0001D928A95E9F784E391E0918380838FE0E4
:1030E000858B8EE6EDE2F5E0DF011D928A95E9F72A
:1030F000E9E1F5E08CE3C82ED12CD482C382C4EF81
:10310000D1E0D683C583D087C78390E9E92EFF2419
:10311000F394F286E1861386148615861686178642
:10312000108A118A128A138A82E082830AE115E0EA
:10313000F80180818F7D877F808362E082E00E943A
:103140004614D8018C918B7E8D7F8C93E5E0F5E061
:10315000D482C382D683C583D087C783F286E186B3
:1031600013861486158616861786108A118A128A87
:10317000138A83E0828306E015E0F80180818F7D69
:10318000877F808362E083E00E944614D8018C919F
:103190008B7E8D7F8C93E1EFF4E0D482C382D68363
:1031A000C583D087C783F286E18613861486158689
:1031B00016861786108A118A128A138A84E08283FF
:1031C000C2EFD4E088818F7D877F888362E084E0CE
:1031D0000E94461488818B7E8D7F888364E473E02F
:1031E0008FED94E00E94E5126CE473E085EE94E0CC
:1031F0000E94E51268E573E08BEE94E0DF91CF91D9
:103200001F910F91FF90EF90DF90CF900C94E512FB
:103210002F923F924F925F926F927F928F929F92E6
:10322000AF92BF92CF92DF92EF92FF920F931F93D4
:10323000CF93DF93CDB7DEB7CA1BDB0B0FB6F89485
:10324000DEBF0FBECDBF09942A88398848885F84C5
:103250006E847D848C849B84AA84B984C884DF8036
:10326000EE80FD800C811B81AA81B981CE0FD11D1A
:103270000FB6F894DEBF0FBECDBFED010895AA1BB7
:10328000BB1B51E107C0AA1FBB1FA617B70710F051
:10329000A61BB70B881F991F5A95A9F78095909583
:1032A000BC01CD010895A1E21A2EAA1BBB1BFD0192
:1032B0000DC0AA1FBB1FEE1FFF1FA217B307E40715
:1032C000F50720F0A21BB30BE40BF50B661F771F6D
:1032D000881F991F1A9469F760957095809590954D
:1032E0009B01AC01BD01CF010895EE0FFF1F0590BA
:1032F000F491E02D0994CF93DF938230910510F47F
:1033000082E090E0E091E805F091E90520E030E00E
:10331000C0E0D0E0309711F1408151814817590742
:10332000C0F04817590761F482819381209719F002
:103330009B838A832BC09093E9058093E80526C080
:103340002115310519F04217530718F49A01BE01EF
:10335000DF01EF010280F381E02DDCCF2115310583
:1033600009F1281B390B2430310590F412968D9108
:103370009C9113976115710521F0FB019383828362
:1033800004C09093E9058093E805FD01329644C09E
:10339000FD01E20FF31F81939193225031092D9388
:1033A0003C933AC02091E6053091E705232B41F488
:1033B00020910801309109013093E7052093E6053B
:1033C00020910601309107012115310541F42DB7F7
:1033D0003EB740910A0150910B01241B350BE0913F
:1033E000E605F091E705E217F307A0F42E1B3F0B6B
:1033F0002817390778F0AC014E5F5F4F2417350767
:1034000048F04E0F5F1F5093E7054093E605819308
:10341000919302C0E0E0F0E0CF01DF91CF910895F9
:103420000F931F93CF93DF93009709F48CC0FC0197
:103430003297138212820091E8051091E905011577
:10344000110581F420813181820F931F2091E605BF
:103450003091E7052817390779F5F093E705E093F0
:10346000E60571C0D80140E050E0AE17BF0750F448
:1034700012962D913C911397AD012115310509F15B
:10348000D901F3CF9D01DA013383228360817181F9
:10349000860F971F8217930769F4EC012881398101
:1034A000260F371F2E5F3F4F318320838A819B81F8
:1034B00093838283452B29F4F093E905E093E80593
:1034C00042C01396FC93EE931297ED0149915991E6
:1034D0009E01240F351FE217F30771F4808191815B
:1034E000840F951F029611969C938E9382819381EF
:1034F00013969C938E931297E0E0F0E0D801129619
:103500008D919C911397009719F0F8018C01F6CFDB
:103510008D919C9198012E5F3F4F820F931F2091B8
:10352000E6053091E7052817390769F4309729F443
:103530001092E9051092E80502C0138212821093DE
:10354000E7050093E605DF91CF911F910F91089554
:10355000A0E0B0E0EEEAFAE10C940C19EC0100975F
:1035600021F4CB010E947B19B8C0FC01E60FF71FC4
:103570009C0122503109E217F30708F4ACC0D901CD
:103580000D911C91119706171707B0F00530110522
:1035900008F49FC0C80104978617970708F499C0DC
:1035A00002501109061B170B019311936D937C9325
:1035B000CF010E94101A8DC05B01A01AB10A4C0104
:1035C000800E911EA091E805B091E90540E050E021
:1035D000E12CF12C109709F44AC0A815B905D1F5D2
:1035E0006D907C901197630182E0C80ED11CCA14C3
:1035F000DB0480F1A3014A195B096A0182E0C80E6D
:10360000D11C1296BC9012971396AC91B5E0CB16D4
:10361000D10440F0B282A38351834083D9016D93DA
:103620007C930AC00E5F1F4FC301800F911FF901E9
:1036300091838083EB2DFA2FE114F10431F0D7014F
:103640001396FC93EE93129744C0F093E905E09330
:10365000E8053FC08D919C9111974817590708F4D0
:10366000AC017D0112960D90BC91A02DB3CF80913D
:10367000E6059091E70588159905E1F44617570787
:10368000C8F48091060190910701009741F48DB72D
:103690009EB740910A0150910B01841B950BE817CE
:1036A000F907C8F4F093E705E093E605F9017183A3
:1036B00060830FC0CB010E947B197C01009759F0F9
:1036C000A801BE010E94771BCE010E94101AC701FB
:1036D00004C0CE0102C080E090E0CDB7DEB7EEE0DE
:1036E0000C94281981E090E0F8940C94901BFB0155
:1036F000DC0102C001900D9241505040D8F708956E
:10370000FB01DC018D91019080190110D9F3990B17
:103710000895FB01DC0101900D920020E1F708956E
:1037200012E0C5EDD2E004C0FE010E947519219699
:0A373000C63DD107C9F7F894FFCF9A
:10373A000B00E80300000000EA058000000000001A
:10374A002710BA12BF0F6E10F00FCE0FE20F000053
:10375A000000900A600A0004A410C810B410A51052
:10376A0000000000360F470BCA0D7C03970D6A0351
:10377A00880D6403BB0D760321031D031903170F7C
:10378A0029031A0D580C2F03FA0CD90CA60D700335
:10379A002B0CCE04820B0703030366040003030405
:1037AA00CC0AFB0D00000000CB06BA120004FF038E
:1037BA00A6032052445300202D2D2D002054554E8F
:1037CA00454400202D2D2D2D2D00205354455245C2
:1037DA004F0020204D4F4E4F200020205253534976
:1037EA003A20002020534E523A2000204D487A00B9
:1037FA002020202020202020005220442053202056
:10380A00542049204D2045203A200052204420537C
:10381A002020542045205820543A20007265672001
:10382A00330072656720756E6B6E6F776E00462087
:10383A00522045205120552045204E204320590032
:10384A00204241535300202D2D2D2D00204D55543B
:10385A00450020534F46544D55544500202D2D2DDB
:10386A002D2D2D2D2D002D73617665526567697397
:10387A0074657273002829007465726D00424C4F9A
:10388A00434B5F4520666F756E642E002D5F736132
:10389A007665526567697374657200283078002C02
:1038AA00203078007365744672657175656E637948
:1038BA00002053746572656F00204D6F6E6F202073
:1038CA00004672657175656E63793D002050493D09
:1038DA0000205369673D003020202020312020201D
:1038EA002032202020203320202020342020202095
:1038FA003520202020362020202037202020203864
:10390A002020202039202020204120202020422051
:10391A002020204320202020442020202045202031
:10392A002020460042617373426F6F737420004D0A
:10393A006F6E6F2000566F6C756D653D00696E691C
:10394A007400726164696F20666F756E642E00562A
:10395A006572203A2000323032302E30332E313028
:10396A0000524441353830374D00522053205320FD
:10397A0049203A00542055204E204500502052201C
:10398A00452053204520540056204F204C205520D6
:08399A004D2045000D0A00005C
:00000001FF
