:100000000C94D6020C94FE020C94FE020C94FE0298
:100010000C94FE020C94FE020C94FE020C94FE0260
:100020000C94FE020C94FE020C94FE020C94FE0250
:100030000C94FE020C94FE020C94FE020C94FE0240
:100040000C9402150C94FE020C94440D0C941E0D9D
:100050000C94FE020C94FE020C94FE020C94FE0220
:100060000C94760D0C94FE02000000002300260084
:10007000290000030C0F30333C3FC0C3CCCFF0F35A
:10008000FCFFAED580A83FD300408D142002A1C84C
:10009000DA12817FD9F1DB40A4A6AF2E22CE224610
:1000A000237823A023182458258025A825D0253C73
:1000B00028E628F42919920A0C2060020104080697
:1000C0000B080103030507020401050605060607E0
:1000D00006060606060102070707050A08060707BF
:1000E00006060707030406060807080608070607AA
:1000F00007080B060706030503080802060605069F
:1001000006040606010305010906060606040505A0
:10011000060509050505050105080900000000FEA2
:100120002007000007000000008090F89690F896E5
:100130001000300000300000001824FF44448420E8
:1001400020F02020101C22221C80700CC22020C015
:100150000000002010000010202010DC2222225C71
:1001600080600010202020201010200700F80601D9
:100170001060800106F88060100A041F040A000065
:10018000000000404040F8404040000000300000C7
:10019000000000807040404040000000000030003F
:1001A00000E01C038070000000FC02020202FC1050
:1001B00020202020100404FE000020203020200CED
:1001C000824242221C3020202020200402222222AF
:1001D000DC10202020201060504844FE40400000E9
:1001E00000003000001E12121212E2102020202007
:1001F00010F814121212E0102020202010020282A7
:10020000621A06002010000000DC22222222DC10EC
:1002100020202020103C42424242FC00202020109E
:100220000018300018807040A0A0101008080000CE
:10023000001010202050505050505050000000002E
:1002400000000008081010A0A0402020101000009E
:10025000000402E2221C0000200000F00C04F20A5C
:100260000AFA040CF00030204050505010100000EA
:10027000E098868698E0003000000000000030FE24
:100280002222223CC0302020202010F8040202024A
:10029000020400102020202010FE0202020204F8B6
:1002A00030202020201000FE222222222230202076
:1002B000202020FE2222222202300000000000F82E
:1002C0000402022222E400102020202010FE202020
:1002D000202020FE3000000000003002FE0220300E
:1002E00020000202FE20202010FE20508804023050
:1002F0000000001020FE0000000000302020202020
:1003000020FE0638C0C03806FE30000000000000A5
:1003100030FE061820C000FE30000000003030F82B
:10032000040202020204F80010202020201000FE27
:10033000424242423C300000000000F80402020247
:100340000204F80010202020609080FE222262A289
:100350001C00300000000010201C22222222C410A9
:100360002020202010020202FE02020200000030C3
:10037000000000FE0000000000FE00102020201001
:10038000000638C00000C038060000003030000011
:10039000001EE000C0380638C000E01E000030003B
:1003A00000000000300000068870708806300000F1
:1003B000000030020C10E0100C02000000300000C1
:1003C00000028262120A06302020202020FF010154
:1003D000F08080031C60800000000030C00101FF3D
:1003E0008080F010080402020408100000000000E1
:1003F000000000000000000000000080808080807D
:10040000808080010200008048484848F010202089
:10041000202030FF10080808F0302020202010F0A5
:10042000080808101020202010F008080808FF1005
:100430002020201030F0484848487010202020200C
:100440001008FE090900300000F008080808F8103C
:10045000A0A0A09070FF10080808F0300000000075
:1004600030F9300008F9808070FF40A0100830009B
:10047000001020FF30F8080808F0080808F03000E5
:1004800000003000000030F810080808F0300000CC
:10049000000030F008080808F0102020202010F894
:1004A00010080808F0F02020202010F008080808A4
:1004B000F81020202010F0F810080830000000305C
:1004C00048484888202020201008FE08080800100E
:1004D000202020F800000000F81020202010301804
:1004E000E000E018000030000018E000E018E00034
:1004F000E01800003000000030000018A040A018F4
:10050000300000003018E000E018008070000008A3
:100510008848281830202020202020DE01010000FB
:10052000708080FFF00101DE20208080700000C01C
:10053000202040408080600000000000000000FE9D
:1005400002020202020202FE30202020202020208F
:100550003082001980400000000000240027002A9B
:100560000000000000250028002B000404040404FF
:100570000404040202020202020303030303030150
:100580000204081020408001020408102001020427
:10059000081020000000080002010000030407000A
:1005A00000000000000000006A18EB1511241FBEB7
:1005B000CFEFD8E0DEBFCDBF25E0A4E6B3E001C0B9
:1005C0001D92A63EB207E1F713E0A0E0B1E0EEED28
:1005D000F7E302C005900D92A436B107D9F712E0F7
:1005E000C5EDD2E004C02197FE010E94C719C43DA9
:1005F000D107C9F70E94FD150C94E21B0C94000072
:10060000FC0167830895FC0166830895FC016583FE
:100610000895FC01648308950895FC01638308959F
:10062000FC01748B638B0895DC015396ED91FC9172
:100630005497309749F020E030E040E050E060E02F
:1006400070E080E090E0099408950895FC018189AC
:1006500092890895FC01878590890895FC0185851C
:1006600096850895FC01838594850895FC01818514
:1006700092850895089508950F931F93CF93DF9364
:10068000EC018A01E881F981028CF38DE02D099556
:10069000E881F981068CF78DE02DB801CE01DF915C
:1006A000CF911F910F910994FC017487638708957E
:1006B000FC01728761876130710519F48CEF91E25A
:1006C00005C06230710561F480EB9DE196878587F6
:1006D00080E39AE2908B87878AE090E0928B818B0F
:1006E0000895FC0180850895FC0160870895FC0150
:1006F00087810895FC0186810895FC018581089514
:10070000FC0184810895089580E00895CF93DF93DC
:10071000EC019C818E81981758F4E881F98100845E
:10072000F185E02D42E0CE0109958C818F5F8C83AD
:10073000DF91CF910895FC016093BC008091BC00D3
:1007400087FFFCCF9091B900987F90830895CF9256
:10075000DF92EF92FF920F931F93CF93DF93EC0101
:10076000C62ED42E8F85882351F0411108C084E90C
:100770008093BC008091BC0084FDFCCF1F86EF8479
:100780008E01035F1F4FE11014C0FE8464EAC801AC
:100790000E949B038D85883011F1803101F1DD20AD
:1007A00011F080E4E82EE092BB0064E8C8010E94EA
:1007B0009B03C092BB0064E8C8010E949B0382E0D7
:1007C000D81204C08F858F5F8F8711C084E9809312
:1007D000BC008091BC0084FDFCCF1F8608C0FF0CCC
:1007E000F092BB0064E8C8010E949B03D8CFDF9160
:1007F000CF911F910F91FF90EF90DF90CF900895D0
:10080000089580E090E00895FC016783228D338D88
:10081000662311F03F7B02C03064FC01338F228FCE
:1008200062E00C948011FC016683828D938D9C01A3
:100830003E7F338F228F662321F03062338F228FE9
:1008400003C09E7D938F828F62E0CF010C94801154
:10085000FC016583228D338D662311F0306101C068
:100860003F7EFC01338F228F62E00C948011FC01EB
:1008700064836F7020A131A1207F262B31A320A398
:1008800065E00C948011CF93DF93EC018B8188237A
:1008900079F08EE30E94281464E871E082E394E02A
:1008A0000E94E91569E871E082E394E00E94D7159F
:1008B000E881F9810480F581E02D60E0CE010995A1
:1008C0001B8E1A8ECE01DF91CF910C949F121F9335
:1008D000CF93DF93EC018B81882379F08EE30E9424
:1008E00028146CE871E082E394E00E94E91569E85D
:1008F00071E082E394E00E94D7151092C603109233
:10090000C50310920F041092310410920D0411E0EF
:1009100010930C041092E70361E082E10E945C14E2
:1009200061E083E10E945C148091B9008E7F809326
:10093000B9008091B9008D7F8093B90088E48093DD
:10094000B80085E48093BC0010930E0481E180938D
:10095000300410920F04109231040E94D4138111BC
:100960003AC08B81882349F08EE30E94281461E904
:1009700071E082E394E00E94D71584E098E59F8BB4
:100980008E8B198E188E83E090E09B8F8A8FE88182
:10099000F981028CF38DE02D61E070E0CE010995C4
:1009A00080E098E09F8F8E8F81E890E999A388A3DB
:1009B0001BA21AA21DA21CA21FA21EA219A618A643
:1009C000CE010E949F1281E090E09B8F8A8F62E0AF
:1009D000CE010E94801181E0DF91CF911F91089597
:1009E000CF93DF9300D000D0CDB7DEB7DC01ED911F
:1009F000FC9106A4F7A5E02DBE016F5F7F4F09951E
:100A00008C81811103C064EA71E002C06EE971E07B
:100A100082E394E00E94E9158A81811103C064EAAF
:100A200071E002C06AEA71E082E394E00E94E91595
:100A30008B81811103C06AEB71E002C060EB71E051
:100A400082E394E00E94E91582E394E00E94D315CA
:100A50000F900F900F900F90DF91CF910895CF934B
:100A6000DF93CDB7DEB727970FB6F894DEBF0FBE82
:100A7000CDBFDC01ED91FC9104A4F5A5E02DBE01F4
:100A80006F5F7F4F09958C81811103C069EC71E024
:100A900002C064EC71E082E394E00E94E9158D816C
:100AA000811103C065ED71E002C06EEC71E082E37C
:100AB00094E00E94E9158F81811103C064EE71E01A
:100AC00002C06CED71E082E394E00E94E9156CEEE7
:100AD00071E082E394E00E94E9154A8150E060E011
:100AE00070E02AE082E394E00E944C1565EF71E02B
:100AF00082E394E00E94E9154B8150E060E070E0F1
:100B00002AE082E394E00E944C1582E394E00E9484
:100B1000D31527960FB6F894DEBF0FBECDBFDF9179
:100B2000CF910895CF92DF92EF92FF920F931F9390
:100B3000CF93DF931F92CDB7DEB78C016B01DC0141
:100B4000ED91FC91048CF58DE02D498309957C0194
:100B5000D801ED91FC9100A0F1A1E02DC80109950B
:100B60004981C114D104E1F14B30D0F1F60110827A
:100B7000F1E0EF1AF10822E0E216F10488F545E011
:100B8000EAE0F0E010E24150242F30E0443011F070
:100B9000009751F02C0D3D1DBF010E949119805D01
:100BA000D9018C93CB0104C0D601A20FB31F1C93B3
:100BB0004111E9CFF60184818583838184838EE2AC
:100BC00083836DEF71E0C60106960F90DF91CF91A0
:100BD0001F910F91FF90EF90DF90CF900C94DB1B53
:100BE0000F90DF91CF911F910F91FF90EF90DF90C9
:100BF000CF900895DC01FB011082118212821382D2
:100C000014968C911497808317968C9117978183F3
:100C100018968C911897828315968C9183830895EA
:100C200027E0FB0111922A95E9F7FC018681FB017F
:100C300085830895EF92FF920F931F93CF93DF93D5
:100C40007A018901892BA1F56BEB71E08FE295E0C8
:100C50000E94DB1B6FE275E089E395E00E94DB1BDD
:100C600062E072E083E495E00E94DB1B82E4E5E54C
:100C7000F5E0DF011D928A95E9F710922E05E091CB
:100C80004D05F0914E05309719F083E495E00995F4
:100C9000E0915105F0915205309709F4F5C082E6D4
:100CA00093E0DF91CF911F910F91FF90EF90099406
:100CB000CB0188279870892F8695869586959B010C
:100CC0002227307F832B8A608093290510922A0582
:100CD00010922B058A3209F44BC020F48A508230DE
:100CE00028F0D2C08A3409F482C0CEC06370660F87
:100CF000E12EF02EE62FF0E0EF01C75DDA4F8E8196
:100D000081132AC0E65DFA4F8681801325C0188BB7
:100D1000008B109241056630F9F469E375E08FE2CB
:100D200095E00E94D21B892BB9F463E475E089E356
:100D300095E00E94D21B892B79F069E375E083E48A
:100D400095E00E94DB1BE0914D05F0914E05309738
:100D500019F083E495E009958E818E1104C08F818E
:100D60008F1509F491C01E830F83109237058CC034
:100D7000862F807180932C05E62FEF70CE2FCC0F3D
:100D8000CC0F80912E05C81748F4E0915105F091E1
:100D90005205309719F085E595E00995C0932E0529
:100DA00080912C0590912D05891749F080932D0590
:100DB00082E4E5E5F5E0DF011D928A95E9F7EC2F85
:100DC000F0E0E75DFA4FF4A6E1E0EC0FF0E0E75D5C
:100DD000FA4FE4A6E2E0EC0FF0E0E75DFA4F14A76B
:100DE000E3E0EC0FF0E0E75DFA4F04A74DC0C80167
:100DF00026E0969587952A95E1F78F739927B1E0BC
:100E0000EB22FF2434E0EE0CFF1C3A95E1F7A80139
:100E1000452F552742954F70E42AF52A4CE34E9D05
:100E200090014F9D300D1124820F931F202F2F71A1
:100E300005FF06C03EE1239F80199109112405C0DA
:100E4000AEE12A9F800D911D1124E0914F05F09194
:100E500050053097C9F02091530530915405821701
:100E6000930791F090935405809353056CE370E0E1
:100E70000E949119962F682F892FDF91CF911F9192
:100E80000F91FF90EF900994DF91CF911F910F91F7
:100E9000FF90EF900895CF93DF93EB0160317105E0
:100EA00020F480E30E94281404C06F3F710509F00C
:100EB00020F480E30E94281403C06115704118F4E7
:100EC00080E30E942814AE0160E070E020E182E33C
:100ED00094E00E944C1580E2DF91CF910C9428148D
:100EE000DC01ED91FC910084F185E02D40E0099456
:100EF0000F931F93CF938C01FC0164839085C62FC1
:100F0000C90F6C2F6F70C8010E9470076C2F62951B
:100F10006F706061C801CF911F910F910C947007A1
:100F20000F931F93CF93DF931F92CDB7DEB78C0142
:100F3000FC018681681728F4C80149830E9478075C
:100F40004981F8018781869586958695481758F4DA
:100F50004583642F606BC8010F90DF91CF911F9183
:100F60000F910C9470070F90DF91CF911F910F910B
:100F70000895CF92DF92EF92FF920F931F93CF933A
:100F8000DF93EC01F62EC42ED22E8F8186958695A6
:100F90008695081710F00FEF080F1D2D011780F030
:100FA000412F6F2DCE010E949007EF2CCE1430F010
:100FB00060E0CE010E948603E394F8CF1F5FEECF7E
:100FC0004D2D6F2DCE01DF91CF911F910F91FF908D
:100FD000EF90DF90CF900C9490070F931F93DC015C
:100FE00015962C9115971B96ED91FC911C973097B7
:100FF00049F03396E49119960C911997E09FE02DF2
:10100000112401C0E0E08FEF820F0E2F10E0095F86
:101010001F4F93E0159507959A95E1F7080F1696DF
:101020004C911697415014966C911497CD010E94E3
:10103000B9071F910F9108952F923F924F925F929F
:101040006F927F928F929F92AF92BF92CF92DF92D8
:10105000EF92FF920F931F93CF93DF93CDB7DEB73D
:1010600027970FB6F894DEBF0FBECDBFFC010385F6
:1010700014850115110509F42FC19F838E83F80192
:10108000B49131964491319654903196A491EA2EC0
:10109000F12CF7E0EF0EF11C93E0F594E7949A95AC
:1010A000E1F7EB82F801349674913196E491671779
:1010B00058F0862F90E02E2F30E0F901E70FF11D58
:1010C0008E179F070CF448C06D3061F4EE81FF81EC
:1010D0008681882309F43DC060E08E819F810E9453
:1010E000780737C06A3009F0F7C0EE81FF8181854B
:1010F00015818E9D100D1124878186958695869584
:10110000181730F08285882319F082E0828710E07A
:10111000412F60E08E819F810E949007EE81FF81C8
:1011200082858230B0F0CF010E94ED07EE81FF8111
:101130008185612F8E9D600D1124660F660F660FED
:101140008781861708F460E060648E819F810E9429
:10115000700781E090E0C2C050E05B2BC8010696AA
:10116000671BEE81FF81F185F9834230510588F4D8
:10117000452B09F019825E9C90015F9C300D112473
:10118000629F8001639F100D1124080F191F412CCD
:1011900024C0EA2FE77021F048E0442E4E1A01C027
:1011A000412CA82FFC0140E050E07E2F7A1B7617DF
:1011B00028F47491470F511D3196F7CFFC01E60FCB
:1011C000F11D54904E9D80014F9D100D5E9D100DA0
:1011D0001124020F131F080F191FEE81FF81F481E4
:1011E000FC83EE81FF813580652C712CCC24C39467
:1011F000D12C812C912C7FEF7C0D7A838B817817F9
:1012000008F05CC0212CEE81FF818185281608F052
:101210004FC07A81711102C0222041F0EE81FF811E
:1012200045814F5F6C81CF010E949007A12CB12CAA
:10123000A51488F5F501E80DF91DE00FF11F2491C3
:10124000442061F0CE14DF0449F4E22FF0E0042CD6
:1012500002C0F595E7950A94E2F72E2FEE81FF8103
:101260008185823079F4E22F2110E295EF70F0E071
:10127000EE58FF4F2491622F8E819F812D830E9413
:1012800086032D81622F8E819F810E948603FFEF4E
:10129000AF1ABF0ACDCFB12C7981B71639F060E013
:1012A0008E819F810E948603B394F6CF2394ABCFA7
:1012B000860C971CFFEFCF1ADF0A9DCFEE81FF81CE
:1012C0008781869586958695381608F042CF3582B7
:1012D000632D606BCF013BCF80E090E027960FB687
:1012E000F894DEBF0FBECDBFDF91CF911F910F915C
:1012F000FF90EF90DF90CF90BF90AF909F908F9036
:101300007F906F905F904F903F902F9008950F9334
:101310001F93CF93DF93D82FC62F0DEC15E081E0FC
:10132000F801818740E060E0C8010E9490076BE00F
:1013300072E0C8010E94E915C8010E94ED0782E031
:10134000F801818742E060E0C8010E949007C8016F
:101350000E94ED074D2F50E060E070E02AE0C801E8
:101360000E944C1569E172E0C8010E94E9154C2FFA
:1013700050E060E070E02AE0C801DF91CF911F915A
:101380000F910C944C150F931F93CF93DF938C0107
:10139000CDECD5E081E0898740E060E0CE010E949D
:1013A00090076DE172E0CE010E94E915CE010E9426
:1013B000ED0782E0898742E060E0CE010E9490075D
:1013C000CE010E94ED07B801CE01DF91CF911F91B0
:1013D0000F910C94E9150F93CF93DF93EC010F81DC
:1013E00006950695069501504E81415020E060E03B
:1013F0000E94B90781E09A85911101C080E08A8737
:1014000060E4CE01DF91CF910F910C947007CF92E1
:10141000DF92EF92FF920F931F93CF93DF93EC0134
:10142000898182FD34C085FD32C02A8130E0F90116
:10143000ED56FA4F8491F901E158FA4F0491F90100
:10144000E559FA4F14911123A1F081110E94331430
:10145000E12FF0E0EE0FFF1FE859FF4FA591B49187
:10146000EC91E02331E020E009F430E0832F922F6B
:1014700002C080E090E0298123FB332730F92695D4
:101480002170232731E08327817082278A8B8FB7D1
:10149000F8944091C1035091C2036091C3037091CD
:1014A000C4038FBF9A892B898881992321F1211147
:1014B00022C080FD07C0816088834E875F87688B6C
:1014C000798B3BC00E851F85288939896A017B018C
:1014D000C01AD10AE20AF30A0B811C8120E030E035
:1014E000C016D106E206F30640F121E02B8B8062A4
:1014F0008068888322C08E7F888391111EC022233A
:10150000E1F01B8A81FD03C08B858F5F8B8788810B
:101510008D7F806188834E875F87688B798B86FF9C
:1015200004C01C861B868F7B8883888187FF05C04B
:101530008F7788838981816089838B89882309F1EA
:101540009923F9F08E859F85A889B9898A019B0125
:10155000081B190B2A0B3B0B8D819E81A0E0B0E08C
:10156000081719072A073B0760F0888181FD09C029
:101570009B859D878A648F7788834E875F87688B7A
:10158000798B8E859F85A889B989481B590B6A0B71
:101590007B0B8F819885A0E0B0E0481759076A0758
:1015A0007B0740F08B85882329F08C871B868881F8
:1015B00084608883DF91CF911F910F91FF90EF900E
:1015C000DF90CF900895CF93DF93EC01898184FF62
:1015D00003C0CE010E94070A988192FB882780F9F8
:1015E00092FF08C02C85213021F41C869B7F9883B4
:1015F00001C080E0DF91CF910895CF93C82F81E0A3
:101600008093D60546E060E08DEC95E00E9490075F
:1016100086E0C89FF0011124E552FB4F44815581BB
:10162000608171818DEC95E00E9400138DEC95E056
:10163000CF910C94ED074091690350916A0360913A
:101640006B0370916C034093640350936503609344
:1016500066037093670390916803913081F020F0E6
:10166000923009F43BC082C061E0813021F487E907
:1016700095E00C94021287E995E00C94E111209119
:10168000020130910301813059F42C3031051CF4F2
:101690002F5F3F4F0AC0109203011092020110C049
:1016A000121613063CF421503109309303012093A4
:1016B000020106C08CE090E0909303018093020148
:1016C000E0910201F0910301EE0FFF1FE556FF4F7D
:1016D0006591749187E995E00C94221220910001A4
:1016E00030910101813069F42031310518F42F5F08
:1016F0003F4F0CC080E190E0909301018093000186
:1017000009C02115310531F0215031093093010113
:101710002093000140E060E08DEC95E00E9490078E
:101720008DEC95E00E94ED0782E08093D60542E0C3
:1017300060E08DEC95E00E9490074091000150918F
:10174000010160E070E02AE08DEC95E00E944C150C
:101750008DEC95E00E94ED07809168030E94FD0AE0
:101760006091000187E995E00C9437046EE272E025
:1017700082E394E00C94D7150F931F93CF93DF93DC
:10178000CDB7DEB72C970FB6F894DEBF0FBECDBF36
:101790004CE0BE016F5F7F4F87E995E00E949205A4
:1017A0000DEC15E081E0F801818740E060E0C801C0
:1017B0000E9490076AE372E0C8010E94D71582E098
:1017C000F8018187BE016F5F7F4FC8010E94E91554
:1017D000C8010E94ED072C960FB6F894DEBF0FBE2D
:1017E000CDBFDF91CF911F910F910895FC01538DD3
:1017F000448D252F30E0842F90E0821B930B5417EB
:1018000010F0CF96089501970895FC01918D828D77
:10181000981761F0828DDF01A80FB11D5D968C9144
:10182000928D9F5F9F73928F90E008958FEF9FEF4F
:101830000895FC01918D828D981731F0828DE80F0B
:10184000F11D858D90E008958FEF9FEF0895FC01C5
:10185000918D228D892F90E0805C9F4F821B910992
:101860008F739927089582E394E00E94270C21E06A
:10187000892B09F420E0822F0895FC01848DDF017B
:10188000A80FB11DA35ABF4F2C91848D90E00196F3
:101890008F739927848FA689B7892C93A089B189E2
:1018A0008C9180648C93938D848D981306C00288EC
:1018B000F389E02D80818F7D80830895EF92FF92E0
:1018C0000F931F93CF93DF93EC0181E0888F9B8D63
:1018D0008C8D981305C0E889F989808185FD24C025
:1018E000F62E0B8D10E00F5F1F4F0F731127E02EA8
:1018F0008C8DE8120CC00FB607FCFACFE889F98985
:10190000808185FFF5CFCE010E943D0CF1CF8B8DFC
:10191000FE01E80FF11DE35AFF4FF0820B8FEA89B9
:10192000FB898081806207C0EE89FF896083E88936
:10193000F98980818064808381E090E0DF91CF919C
:101940001F910F91FF90EF900895CF93DF93EC01DB
:10195000888D8823C9F0EA89FB89808185FD05C0CF
:10196000A889B9898C9186FD0FC00FB607FCF5CF09
:10197000808185FFF2CFA889B9898C9185FFEDCF51
:10198000CE010E943D0CE7CFDF91CF91089580E01A
:1019900090E0892B29F00E94330C81110C940000F7
:1019A000089585ED8093BC008091BC0084FDFCCF40
:1019B00010920D0408950895E091C6038091C50327
:1019C000E81730F4F0E0E953FC4F808190E008958F
:1019D0008FEF9FEF08959091C6038091C5039817EC
:1019E00050F4E92FF0E0E953FC4F208130E09F5F95
:1019F0009093C60302C02FEF3FEFC9010895809175
:101A0000C50390E02091C603821B910908950E94AE
:101A1000C41B6115710579F0FB0101900020E9F705
:101A20003197AF01461B570BDC01ED91FC91028011
:101A3000F381E02D099480E090E008951F920F92C9
:101A40000FB60F9211242F933F934F935F936F9391
:101A50007F938F939F93AF93BF93EF93FF9382E313
:101A600094E00E943D0CFF91EF91BF91AF919F9147
:101A70008F917F916F915F914F913F912F910F9037
:101A80000FBE0F901F9018951F920F920FB60F92D6
:101A900011242F938F939F93EF93FF93E091420430
:101AA000F09143048081E0914804F091490482FD63
:101AB00012C0908180914B048F5F8F7320914C04F2
:101AC000821751F0E0914B04F0E0EE5CFB4F958FF4
:101AD00080934B0401C08081FF91EF919F918F9182
:101AE0002F910F900FBE0F901F9018951F920F927D
:101AF0000FB60F9211242F933F934F935F936F93E1
:101B00007F938F939F93AF93BF93EF93FF938091B6
:101B1000B900887F803609F49CC068F5883209F4E2
:101B20005BC090F4803109F454C038F4882309F480
:101B3000F6C0883009F44DC0F6C0883109F44CC0B5
:101B4000803209F45DC0EFC0803409F468C048F405
:101B5000803309F455C0883309F0E5C080930B0445
:101B6000D8C0803509F44FC0883509F45DC0883489
:101B700009F0D9C0D6C0883909F4C7C0A8F488379D
:101B800009F467C038F4883609F463C0803709F473
:101B900060C0C9C0883809F4B8C0803909F45FC092
:101BA000803809F0C0C05BC0803B09F486C038F4BF
:101BB000803A09F466C0883A09F47FC0B4C0803C1A
:101BC00009F4A7C0883C09F4A4C0883B09F48AC082
:101BD000AAC08091E80310C090910A048091090482
:101BE000981770F5E0910A0481E08E0F80930A0443
:101BF000F0E0E751FC4F80818093BB0085EC86C00C
:101C000080930B048EC0E0910A0481E08E0F8093D4
:101C10000A048091BB00F0E0E751FC4F8083909173
:101C20000A04809109046EC0E0910A0481E08E0FDD
:101C300080930A048091BB00F0E0E751FC4F808361
:101C400080910C0481116DC081E08093E70384EAE8
:101C500061C083E080930D041092B303CFCF8091D5
:101C6000B303803208F051C0E091B30381E08E0FDE
:101C70008093B3038091BB00F0E0ED56FC4F80836E
:101C8000BDCF85EC8093BC0010920D048091B3030E
:101C9000803230F4E091B303F0E0ED56FC4F108257
:101CA0006091B30370E0E0919103F091920383E9B6
:101CB00093E009951092B30336C084E080930D043D
:101CC0001092900310928F03E0918D03F0918E0398
:101CD000099580918F03811105C081E080938F0366
:101CE00010926D03E091900381E08E0F809390033A
:101CF000F0E0E359FC4F80818093BB00909190030A
:101D000080918F03981708F479CF85E88093BC0001
:101D10000AC085EC8093BC0010920D0404C01092A0
:101D20000B040E94D10CFF91EF91BF91AF919F9155
:101D30008F917F916F915F914F913F912F910F9074
:101D40000FBE0F901F90189540918F03262F30E003
:101D5000240F311D21323105DCF420910D04243093
:101D6000C9F4FC0180E090E0861758F430918F03AD
:101D70002191DC01A359BC4FA30FB11D2C930196F7
:101D8000F3CF80918F03680F60938F0380E00895F5
:101D900081E0089582E00895CF92DF92EF92FF9262
:101DA0000F931F93CF93DF937C01262F972F8A01E8
:101DB00080910E04882391F0C62FD72F6E01C40E98
:101DC000D51ECC15DD0571F06991D701ED91FC911F
:101DD0000190F081E02DC7010995F3CF642F822F88
:101DE0000E94A40EC801DF91CF911F910F91FF9027
:101DF000EF90DF90CF900895CF93DF931F92CDB7F0
:101E0000DEB7698320910E042223D1F020913104A2
:101E1000203240F021E030E0FC013383228380E077
:101E200090E015C080910F04E82FF0E0E05FFB4FD9
:101E3000998190838F5F80930F048093310405C054
:101E400061E0CE0101960E94A40E81E090E00F9027
:101E5000DF91CF910895CF93C62F672F8FEC94E039
:101E60000E94FC0E6C2F8FEC94E0CF910C94FC0E32
:101E70001F93CF93DF938FEC94E00E94EB0C182F0D
:101E80008FEC94E00E94EB0CD12F20E0C22F9E013A
:101E9000280F311DC901DF91CF911F9108951F9324
:101EA000CF93DF93FC0123893489232B09F47BC072
:101EB000EC0182E090E00E941B14CE010E94380FDA
:101EC0009BA78AA70E94D4138AA59BA593FF0CC049
:101ED0008B81882349F08EE30E94281461E772E029
:101EE00082E394E00E94D7158AA59BA597FF5BC06B
:101EF00081E080930E0481E18093300410920F04FE
:101F0000109231046CE08FEC94E00E94FC0E80E0B3
:101F10000E94771341E068E081E10E94D71310929C
:101F2000C6038093C503CE010E94380F2EA53FA59E
:101F30008217930721F09FA78EA711E001C010E040
:101F4000CE010E94380F28A939A98217930719F0EA
:101F500099AB88AB11E0CE010E94380F2AA93BA9AA
:101F60008217930719F09BAB8AAB11E0CE010E9458
:101F7000380F2CA93DA98217930719F09DAB8CABA4
:101F800011E00E94D413112371F02CA93DA94AA994
:101F90005BA968A979A9EB89FC898EA59FA5DF912A
:101FA000CF911F910994DF91CF911F910895EF92E6
:101FB000FF920F931F93CF93DF938C018CE090E0FF
:101FC0000E941B14E801AA96780186E3E80EF11C32
:101FD000C8010E94380F89939993CE15DF05C1F788
:101FE000DF91CF911F910F91FF90EF900C94D4133C
:101FF000CF92DF92EF92FF920F931F93CF93DF93D5
:10200000CDB7DEB72C970FB6F894DEBF0FBECDBFAD
:102010008C010E94D70FD801ED91FC9106A8F7A979
:10202000E02D4CE0BE016F5F7F4FC801099560E96C
:1020300072E082E394E00E94E915BE016F5F7F4F7A
:1020400082E394E00E94E915F801E6A4F7A46BE9A5
:1020500072E082E394E00E94E915B701C8010E9492
:102060004B07D8019A968D919C919B9792FD03C046
:1020700068E872E002C060E872E082E394E00E94E7
:10208000E915F80182A593A597FD03C064EC71E002
:1020900002C069EC71E082E394E00E94E915D80186
:1020A0009D968C91E82EE694E694F12C60EA72E01D
:1020B00082E394E00E94E915BAE0EB16F1042CF4F7
:1020C00060E282E394E00E945E0CC7010E949515D5
:1020D00080E20E942814C12CD12CEFE0EE1AF10806
:1020E000CE14DF044CF46AE282E394E00E945E0CBA
:1020F000FFEFCF1ADF0AF4CF82E394E00E94D315FA
:1021000066EA72E082E394E00E94D715780186E1E6
:10211000E80EF11C6801A6E3CA0ED11CF70161911B
:1021200071917F01C8010E944B07EC14FD04B1F7C7
:1021300082E394E00E94D31581E080930E0481E154
:102140008093300410920F041092310460E08FEC01
:1021500094E00E94FC0E80E00E94771341E060E270
:1021600081E10E94D7131092C6038093C50380E1DA
:10217000E82EF12CC8010E94380FBC01C8010E9452
:102180004B07F1E0EF1AF108A9F70E94D41382E39C
:1021900094E00E94D315D801ED91FC910288F38957
:1021A000E02DC8010995882331F063EF72E082E3E6
:1021B00094E00E94E915D801ED91FC9102A4F3A5E9
:1021C000E02DC8010995882331F06EEF72E082E3BB
:1021D00094E00E94E915D801ED91FC910680F78109
:1021E000E02DC8010995182F64E073E082E394E0C4
:1021F0000E94E915812F90E00E94951580E20E94CF
:10220000281482E394E00E94D3152C960FB6F8941C
:10221000DEBF0FBECDBFDF91CF911F910F91FF9019
:10222000EF90DF90CF9008950F931F93CF93DF939C
:102230008C01EB010E941006C8010E94D70F21E01B
:102240002883F80182A593A592FD2E8397FF02C0F3
:1022500081E08B83F80185A586958695898384A581
:1022600095A590FF02C081E08C83F801828D938D4B
:1022700095FF02C081E08D83DF91CF911F910F9177
:102280000895CF93DF93EC0182E090E00E941B144D
:10229000CE010E94380F9BA78AA70E94D4132AA5BB
:1022A0003BA533708AE0829FA001839F500D1124CB
:1022B0008D859E85840F951F9C878B87DF91CF919D
:1022C0000895EF92FF920F931F93CF93DF938C01AA
:1022D000EB010E945803C130D10531F0229731F44F
:1022E00088E0E82EF12C02C0E12CF12CF801F58EEB
:1022F000E48EDF91CF911F910F91FF90EF900895A1
:10230000FF920F931F93CF93DF938C01F62EFC0166
:102310008381C62FD0E08823A1F18EE30E94281488
:102320006CE073E082E394E00E94E9156BE173E0F6
:1023300082E394E00E94E9154F2D50E060E070E0E8
:1023400020E182E394E00E944C156FE173E082E3A8
:1023500094E00E94E915FE013B96EE0FFF1FE00F8F
:10236000F11F4081518160E070E020E182E394E060
:102370000E944C1589E20E94281482E394E00E9496
:10238000D31581E080930E0481E180933004109294
:102390000F04109231046F2D8FEC94E00E94FC0E1C
:1023A0002B96CC0FDD1FC00FD11F68817981C8012A
:1023B0000E942B0FDF91CF911F910F91FF900C94F2
:1023C000D4131F93CF93DF93EC01162F8A8D9B8D2F
:1023D0009D7F91609B8F8A8F62E0CE010E94801169
:1023E00011110CC08A8D9B8D9E7F9B8F8A8F62E01E
:1023F000CE01DF91CF911F910C948011DF91CF918D
:102400001F9108951F93CF93DF93EC01162F8A8DB0
:102410009B8D93609B8F8A8F62E0CE010E9480111A
:1024200011110CC08A8D9B8D9E7F9B8F8A8F62E0DD
:10243000CE01DF91CF911F910C948011DF91CF914C
:102440001F9108950F931F93CF93DF938C01EB019E
:10245000DC0113968C918823D9F08EE30E94281416
:1024600064E273E082E394E00E94E91588E20E944E
:102470002814AE0160E070E02AE082E394E00E945C
:102480004C1589E20E94281482E394E00E94D3153F
:10249000D8015C96ED91FC915D97EF70FF271D963A
:1024A0008D919C911E979E01C817D90708F49C0135
:1024B000D8011F964D915C91509770964217530723
:1024C00008F49A01A901481B590BCA016AE070E09F
:1024D0000E949119EB0186E0CC0FDD1F8A95E1F790
:1024E000CE2BDF2BD8015A968D919C915B978960FA
:1024F000906C5B969C938E935A9762E0C8010E9401
:102500008011F801D58FC48F63E0C8010E9480114B
:1025100065E0C801DF91CF911F910F910C9480115C
:10252000FC016087268D378D662311F0326002C072
:102530003D7FFC01378F268F64E00C948011EF9271
:10254000FF920F931F93CF93DF93EC018B8188232E
:1025500079F08EE30E94281461E373E082E394E053
:102560000E94E91569E871E082E394E00E94D715C2
:1025700081E080930E0480E18093300410920F0478
:10258000109231048E01065E1F4F7E0184E2E80E38
:10259000F11CF801619171918F01CE010E942B0F06
:1025A0000E151F05B1F7DF91CF911F910F91FF908D
:1025B000EF900C94D4133FB7F8948091DE0590917E
:1025C000DF05A091E005B091E10526B5A89B05C007
:1025D0002F3F19F00196A11DB11D3FBFBA2FA92FA2
:1025E000982F8827820F911DA11DB11DBC01CD011F
:1025F00042E0660F771F881F991F4A95D1F708950B
:10260000CF92DF92EF92FF920F931F93CF93DF93BE
:102610006C017A018B01C0E0D0E0CE15DF0589F0B6
:10262000D8016D918D01D601ED91FC910190F08161
:10263000E02DC6010995892B11F47E0102C0219677
:10264000ECCFC701DF91CF911F910F91FF90EF90D9
:10265000DF90CF900895EF92FF920F931F93CF9347
:10266000DF93EC01198218821B821A821D821C8260
:1026700061157105A9F17B01FB0101900020E9F7CB
:1026800031978F01061B170BB8016F5F7F4F80E0FA
:1026900090E00E94FA1A009759F0998388831B836F
:1026A0000A832C813D81232B81F4FC0110820DC013
:1026B00088819981009711F00E94621A198218820C
:1026C0001D821C821B821A820BC01D830C83B701E2
:1026D000DF91CF911F910F91FF90EF900C94DB1B36
:1026E000DF91CF911F910F91FF90EF900895382FB8
:1026F0002091310490913004213208F049C080913A
:102700000D048111FCCF42E040930D0430930C0482
:102710003FEF30930B0410920A0420930904A0E1C8
:10272000B4E049EE53E0FA013E2F341B321718F49F
:102730003D913193F9CF1092E8032091E803990F6E
:10274000922B9093E8039091E703913061F41092FB
:10275000E7039091E8039093BB009091BC0093FD38
:10276000F8CF95EC01C095EE9093BC0090910D04CC
:102770009230E1F390910B049F3F79F080910B042C
:10278000803241F080910B04803331F084E005C049
:1027900081E003C082E001C083E010920F04109238
:1027A000310410920E04089581E00C9477139091F7
:1027B0000D049111FCCF91E090930D0440930C0413
:1027C0002FEF20930B0410920A04260F2093090484
:1027D0009093E8039091E803880F892B8093E80396
:1027E0008091E703813061F41092E7038091E80360
:1027F0008093BB008091BC0083FDF8CF85EC01C0C5
:1028000085EE8093BC0080910D048130E1F38091CE
:102810000A04861710F460910A04A9EEB3E027ECCD
:1028200033E0F9018E2F821B861718F48D91819366
:10283000F9CF862F0895813208F080E241E0682FB9
:1028400080E10E94D7131092C6038093C5030895B8
:10285000E0913204F09133040190F081E02D682F73
:1028600082E394E00994833081F028F4813099F078
:102870008230A1F008958730A9F08830B9F0843013
:10288000D1F4809180008F7D03C0809180008F778C
:1028900080938000089584B58F7702C084B58F7DC2
:1028A00084BD08958091B0008F7703C08091B000FF
:1028B0008F7D8093B00008951F93CF93DF93282FCF
:1028C00030E0F901ED56FA4F8491F901E158FA4FE1
:1028D000D491F901E559FA4FC491CC23C9F0162FD0
:1028E00081110E943314EC2FF0E0EE0FFF1FEF591F
:1028F000FA4FA591B4918FB7F894111105C09C912E
:10290000ED2FE095E92302C0EC91ED2BEC938FBF06
:10291000DF91CF911F910895CF93DF9390E0FC0159
:10292000E158FA4F2491FC01E559FA4F849188232C
:1029300061F190E0880F991FFC01E95AFA4FC591A7
:10294000D491FC01EF59FA4FA591B491611109C0DE
:102950009FB7F8948881209582238883EC912E2359
:102960000BC0623061F49FB7F8943881822F809554
:1029700083238883EC912E2B2C939FBF06C08FB7A7
:10298000F894E8812E2B28838FBFDF91CF91089593
:102990008F929F92AF92BF92CF92DF92EF92FF926F
:1029A0006B017C010E94DB124B015C01C114D1045C
:1029B000E104F104F1F00E94DB12DC01CB01881983
:1029C0009909AA09BB09883E9340A105B10570F396
:1029D00021E0C21AD108E108F10888EE880E83E0F0
:1029E000981EA11CB11CC114D104E104F10419F713
:1029F000DDCFFF90EF90DF90CF90BF90AF909F9092
:102A00008F9008951F920F920FB60F9211242F935B
:102A10003F938F939F93AF93BF938091C103909106
:102A2000C203A091C303B091C4033091DD0523E03C
:102A3000230F2D3720F40196A11DB11D05C026E8F6
:102A4000230F0296A11DB11D2093DD058093C103C4
:102A50009093C203A093C303B093C4038091DE0597
:102A60009091DF05A091E005B091E1050196A11DCF
:102A7000B11D8093DE059093DF05A093E005B09330
:102A8000E105BF91AF919F918F913F912F910F9051
:102A90000FBE0F901F9018954F925F926F927F928A
:102AA000EF92FF920F931F93CF93DF93CDB7DEB7D3
:102AB000A1970FB6F894DEBF0FBECDBF7C01FA011F
:102AC000CB0119A2223008F42AE08E010F5D1F4FBE
:102AD000422E512C612C712CBF01A30192010E9446
:102AE000A519F901CA01015011096A3014F4605D99
:102AF00001C0695CD8016C93232B242B252B61F733
:102B0000B801C7010E94090DA1960FB6F894DEBF67
:102B10000FBECDBFDF91CF911F910F91FF90EF902E
:102B20007F906F905F904F9008950F931F93CF9376
:102B3000DF9300D000D0CDB7DEB7AC01990F660BA4
:102B4000770B77FF23C08DE249835A836B837C83A5
:102B50000E9428148C0149815A816B817C81709577
:102B60006095509541955F4F6F4F7F4F2AE082E30C
:102B700094E00E944C15800F911F0F900F900F90C2
:102B80000F90DF91CF911F910F9108952AE082E37A
:102B900094E00F900F900F900F90DF91CF911F91C5
:102BA0000F910C944C1560E673E00C94090D0F9393
:102BB0001F93CF93DF93EC010E94090D8C01CE018E
:102BC0000E94D315800F911FDF91CF911F910F911C
:102BD00008950C94090DCF93DF93CBEDD4E08C8551
:102BE0009D850E94621A8E819F810E94621A88814F
:102BF0009981DF91CF910C94621A789484B58260A8
:102C000084BD84B5816084BD85B5826085BD85B590
:102C1000816085BD80916E00816080936E0010920E
:102C20008100809181008260809381008091810089
:102C3000816080938100809180008160809380001A
:102C40008091B10084608093B1008091B000816078
:102C50008093B00080917A00846080937A008091A4
:102C60007A00826080937A0080917A0081608093FC
:102C70007A0080917A00806880937A001092C10077
:102C800061E088E00E948C14E0914204F0914304DA
:102C900082E08083E0913E04F0913F041082E09155
:102CA0004004F09141048FEC808310924A04E0913B
:102CB0004604F091470486E08083E0914404F0915B
:102CC0004504808180618083E0914404F091450453
:102CD000808188608083E0914404F0914504808184
:102CE00080688083E0914404F091450480818F7D69
:102CF000808361E088E00E948C1460E088E00E949C
:102D00005C146AE070E080E090E00E94C81461E02A
:102D100088E00E945C146AE070E080E090E00E942D
:102D2000C8141092DC058CE38093DB051092B90087
:102D30008CE08093B8001092D1051092D205E1E5A5
:102D4000F5E085919491082FE3E5F5E01491E4E531
:102D5000F5E0E491E093D305E5E5F5E0E491E09357
:102D6000D405E6E5F5E0E491E093D505C02FD92F31
:102D70008C2F801B811740F4FE0164918DEC95E04F
:102D80000E9470072196F4CF1092D7058DEC95E044
:102D90000E94EB0985EB90E09093D9058093D805CC
:102DA00061E88DEC95E00E94700760E08DEC95E0A5
:102DB0000E9470078DEC95E00E94EB09C1E0C09382
:102DC000D6056CE472E08DEC95E00E94E91563E5B0
:102DD00072E08DEC95E00E94E91582E08093D605C3
:102DE00042E060E08DEC95E00E9490076EE572E0B5
:102DF0008DEC95E00E94E91560ED77E080E090E0D1
:102E00000E94C81487E995E00E946704C0939A0560
:102E1000E0910201F0910301EE0FFF1FE556FF4F15
:102E20004591549161E070E087E995E00E943C0390
:102E3000E0910201F0910301EE0FFF1FE556FF4FF5
:102E40004591549160E070E02AE082E394E00E94B2
:102E50004C1582E394E00E94D315E0910201F091B9
:102E60000301EE0FFF1FE556FF4F6591749187E94F
:102E700095E00E9422128AE196E09093AB05809340
:102E8000AA0583EC99E090934E0580934D0587E861
:102E900099E09093500580934F0587E995E00E9453
:102EA00041119093C0038093BF030E94BC0B80919B
:102EB00068030E94FD0A2FB7F8948091C103909196
:102EC000C203A091C303B091C4032FBF80936903D1
:102ED00090936A03A0936B03B0936C038091680393
:102EE000823021F087E995E00E944F0F85E195E05F
:102EF0000E94070A81E095E00E94070A8DEE94E0A7
:102F00000E94070A8091690390916A03A0916B0364
:102F1000B0916C0340916403509165036091660326
:102F200070916703841B950BA60BB70B81329F4BE7
:102F3000A240B10520F08DEC95E00E94EB098DEEEA
:102F400094E00E94E30A8823F1F0809168038F5F88
:102F5000833019F08093680302C010926803809157
:102F600068030E94FD0A8091690390916A03A09111
:102F70006B03B0916C038093640390936503A093FB
:102F80006603B093670385E195E00E94E30A882316
:102F900019F081E00E941B0B81E095E00E94E30A9A
:102FA000882319F08FEF0E941B0B40916903509109
:102FB0006A0360916B0370916C038091040190919E
:102FC0000501A0910601B091070184179507A60796
:102FD000B70708F07CC087E995E00E944111909303
:102FE000C0038093BF032091BD033091BE038217BD
:102FF000930791F120916803223071F1AC0160E0F8
:1030000070E02AE082E394E00E944C1582E394E0B1
:103010000E94D3158091BF039091C0030E94BC0B06
:103020008091BF039091C0039093BE038093BD0332
:103030008091690390916A03A0916B03B0916C0336
:1030400088519C4FAF4FBF4F80930401909305016F
:10305000A0930601B093070166EB73E087E995E062
:103060000E9414118091B7038093B5039091B4032B
:10307000891769F180916803823049F166EB73E04A
:1030800087E995E00E94141181E08093D60546E01F
:1030900065E48DEC95E00E94900767E672E08DECA8
:1030A00095E00E94E91546E06EE68DEC95E00E9401
:1030B00090074091B70350E060E070E02AE08DECAB
:1030C00095E00E944C158091B5038093B4030E9453
:1030D000C70CF1CECF92DF92EF92FF920F931F9326
:1030E000CF93DF93E2E3F4E01382128288EE93E061
:1030F000A0E0B0E084839583A683B78322E131E02A
:103100003183208325EC30E03587248724EC30E0C0
:103110003787268720EC30E0318B208B21EC30E0A4
:10312000338B228B22EC30E0358B248B26EC30E085
:10313000378B268B118E128E138E148EEFECF4E0EB
:103140001382128284839583A683B78384E291E0FD
:1031500091838083EDECF5E01382128281E0818718
:10316000148613868AE791E091838083E7E9F5E08E
:1031700085E1DF011D928A95E9F786E391E091836D
:1031800080838FE0858B8EE6E9E2F5E0DF011D921A
:103190008A95E9F7E5E1F5E08CE3C82ED12CD482DD
:1031A000C382C4EFD1E0D683C583D087C78390E9BB
:1031B000E92EFF24F394F286E186138614861586A1
:1031C00016861786108A118A128A138A82E08283F1
:1031D00006E115E0F80180818F7D877F808362E0C2
:1031E00082E00E948C14D8018C918B7E8D7F8C9311
:1031F000E1E0F5E0D482C382D683C583D087C7835C
:10320000F286E18613861486158616861786108A3E
:10321000118A128A138A83E0828302E015E0F801A2
:1032200080818F7D877F808362E083E00E948C14A1
:10323000D8018C918B7E8D7F8C93EDEEF4E0D4825F
:10324000C382D683C583D087C783F286E18613867F
:103250001486158616861786108A118A128A138A92
:1032600084E08283CEEED4E088818F7D877F88835F
:1032700062E084E00E948C1488818B7E8D7F88833D
:1032800060E473E08BED94E00E942B1368E473E03C
:1032900081EE94E00E942B1364E573E087EE94E0E6
:1032A000DF91CF911F910F91FF90EF90DF90CF9022
:1032B0000C942B132F923F924F925F926F927F92BA
:1032C0008F929F92AF92BF92CF92DF92EF92FF9236
:1032D0000F931F93CF93DF93CDB7DEB7CA1BDB0BE2
:1032E0000FB6F894DEBF0FBECDBF09942A88398887
:1032F00048885F846E847D848C849B84AA84B9848E
:10330000C884DF80EE80FD800C811B81AA81B98199
:10331000CE0FD11D0FB6F894DEBF0FBECDBFED01AD
:103320000895AA1BBB1B51E107C0AA1FBB1FA6170C
:10333000B70710F0A61BB70B881F991F5A95A9F75E
:1033400080959095BC01CD010895A1E21A2EAA1B8B
:10335000BB1BFD010DC0AA1FBB1FEE1FFF1FA21745
:10336000B307E407F50720F0A21BB30BE40BF50B42
:10337000661F771F881F991F1A9469F760957095CB
:10338000809590959B01AC01BD01CF010895EE0F92
:10339000FF1F0590F491E02D0994CF93DF938230C5
:1033A000910510F482E090E0E091E405F091E505EC
:1033B00020E030E0C0E0D0E0309711F14081518151
:1033C00048175907C0F04817590761F48281938163
:1033D000209719F09B838A832BC09093E5058093F7
:1033E000E40526C02115310519F04217530718F4DA
:1033F0009A01BE01DF01EF010280F381E02DDCCFF5
:103400002115310509F1281B390B2430310590F4C1
:1034100012968D919C9113976115710521F0FB0116
:103420009383828304C09093E5058093E405FD01B6
:10343000329644C0FD01E20FF31F81939193225015
:1034400031092D933C933AC02091E2053091E30578
:10345000232B41F420910A0130910B013093E305B5
:103460002093E205209108013091090121153105D1
:1034700041F42DB73EB740910C0150910D01241B32
:10348000350BE091E205F091E305E217F307A0F4B4
:103490002E1B3F0B2817390778F0AC014E5F5F4FAA
:1034A0002417350748F04E0F5F1F5093E3054093F4
:1034B000E2058193919302C0E0E0F0E0CF01DF915B
:1034C000CF9108950F931F93CF93DF93009709F443
:1034D0008CC0FC013297138212820091E405109196
:1034E000E5050115110581F420813181820F931FBB
:1034F0002091E2053091E3052817390779F5F0931B
:10350000E305E093E20571C0D80140E050E0AE175A
:10351000BF0750F412962D913C911397AD012115E0
:10352000310509F1D901F3CF9D01DA0133832283FB
:1035300060817181860F971F8217930769F4EC01F0
:1035400028813981260F371F2E5F3F4F318320831B
:103550008A819B8193838283452B29F4F093E5052F
:10356000E093E40542C01396FC93EE931297ED01AD
:10357000499159919E01240F351FE217F30771F409
:1035800080819181840F951F029611969C938E9352
:103590008281938113969C938E931297E0E0F0E0E2
:1035A000D80112968D919C911397009719F0F8010C
:1035B0008C01F6CF8D919C9198012E5F3F4F820F29
:1035C000931F2091E2053091E3052817390769F42C
:1035D000309729F41092E5051092E40502C0138299
:1035E00012821093E3050093E205DF91CF911F91C2
:1035F0000F910895A0E0B0E0E0E0FBE10C945E19CB
:10360000EC01009721F4CB010E94CD19B8C0FC0158
:10361000E60FF71F9C0122503109E217F30708F467
:10362000ACC0D9010D911C91119706171707B0F086
:103630000530110508F49FC0C80104978617970745
:1036400008F499C002501109061B170B019311933E
:103650006D937C93CF010E94621A8DC05B01A01A0A
:10366000B10A4C01800E911EA091E405B091E505D0
:1036700040E050E0E12CF12C109709F44AC0A81565
:10368000B905D1F56D907C901197630182E0C80E69
:10369000D11CCA14DB0480F1A3014A195B096A0139
:1036A00082E0C80ED11C1296BC9012971396AC9172
:1036B000B5E0CB16D10440F0B282A383518340839E
:1036C000D9016D937C930AC00E5F1F4FC301800F19
:1036D000911FF90191838083EB2DFA2FE114F104FE
:1036E00031F0D7011396FC93EE93129744C0F093F8
:1036F000E505E093E4053FC08D919C911197481733
:10370000590708F4AC017D0112960D90BC91A02DD3
:10371000B3CF8091E2059091E30588159905E1F416
:1037200046175707C8F48091080190910901009746
:1037300041F48DB79EB740910C0150910D01841B4F
:10374000950BE817F907C8F4F093E305E093E20559
:10375000F901718360830FC0CB010E94CD197C01F8
:10376000009759F0A801BE010E94C91BCE010E941A
:10377000621AC70104C0CE0102C080E090E0CDB75C
:10378000DEB7EEE00C947A1981E090E0F8940C94A6
:10379000E21BFB01DC0102C001900D924150504040
:1037A000D8F70895FB01DC018D910190801901107B
:1037B000D9F3990B0895FB01DC0101900D920020D3
:1037C000E1F7089512E0C5EDD2E004C0FE010E94C9
:0E37D000C7192196C63DD107C9F7F894FFCF5F
:1037DE0005000B00E80300000000E6058000000075
:1037EE0000005E0C0013F60BA50C270C050C190C33
:1037FE0000000000FC0ECC0E0104DB0CFF0CEB0CE9
:10380E00DC0C00000000670443043704800304044A
:10381E0077039012710328047D032E032A032603D7
:10382E0061113603221241113C030212E1111304FD
:10383E007A031411FA054F0F1403100392050D03AA
:10384E002F05F004F80F000000001C0800130104FF
:10385E000004A7037465726D00282900696E6974EF
:10386E0000726164696F20666F756E642E0020426F
:10387E0041535300202D2D2D2D00204D5554450024
:10388E0020534F46544D55544500202D2D2D2D2D92
:10389E002D2D2D002052445300202D2D2D0020546F
:1038AE00554E454400202D2D2D2D2D0020535445D1
:1038BE0052454F0020204D4F4E4F20002020525396
:1038CE0053493A20002020534E523A2000204D48B2
:1038DE007A00202020202020202000522044205337
:1038EE002020542049204D2045203A2000522044CB
:1038FE0020532020542045205820543A2000726531
:10390E006720756E6B6E6F776E00462052204520D5
:10391E005120552045204E204320590056657220D7
:10392E003A2000323032302E30332E3230005244B4
:10393E0041353830374D0052205320532049203A1C
:10394E0000424C4F434B5F4520666F756E642E00F0
:10395E002053746572656F00204D6F6E6F202000CE
:10396E004672657175656E63793D002050493D0064
:10397E00205369673D003020202020312020202058
:10398E0032202020203320202020342020202035DB
:10399E0020202020362020202037202020203820D4
:1039AE0020202039202020204120202020422020AD
:1039BE00202043202020204420202020452020208D
:1039CE0020460042617373426F6F737420004D6F17
:1039DE006E6F2000566F6C756D653D002D5F7361C7
:1039EE007665526567697374657200283078002CAD
:1039FE00203078007365744672657175656E6379F3
:103A0E00002D736176655265676973746572730014
:103A1E00542055204E204500502052204520532042
:103A2E004520540056204F204C2055204D20450057
:043A3E000D0A00006D
:00000001FF
