:100000000C947C010C94A4010C94A4010C94A40104
:100010000C94A4010C94A4010C94A4010C9452041B
:100020000C94A4010C94A4010C94A4010C94A401BC
:100030000C94A4010C94A4010C94A4010C94A401AC
:100040000C94FB110C94A4010C941D090C94F7085A
:100050000C94A4010C94A4010C94A4010C94A4018C
:100060000C944F090C94A40100030C0F30333C3F57
:10007000C0C3CCCFF0F3FCFFAED580A81FD30040A7
:100080008D142002A1C8DA02817FD9F1DB40A4A639
:10009000AF2E22CE2246237823A023182458258071
:1000A00025A825D0253C28E628F4290000050720AE
:1000B00061000000000000005F0000000700070072
:1000C000147F147F14242A7F2A12231308646236B3
:1000D000495522500005030000001C224100004148
:1000E000221C00082A1C2A0808083E080800503074
:1000F00000000808080808006060000020100804DC
:10010000023E5149453E00427F400042615149460E
:100110002141454B311814127F1027454545393C84
:100120004A494930017109050336494949360649AA
:1001300049291E003636000000563600000008141B
:10014000224114141414144122140800020151090C
:1001500006324979413E7E1111117E7F4949493667
:100160003E414141227F4141221C7F494949417F13
:10017000090901013E414151327F0808087F0041D1
:100180007F41002040413F017F081422417F4040D1
:1001900040407F0204027F7F0408107F3E414141BE
:1001A0003E7F090909063E4151215E7F0919294612
:1001B000464949493101017F01013F4040403F1F0D
:1001C0002040201F7F2018207F631408146303043D
:1001D000780403615149454300007F41410204080E
:1001E000102041417F0000040201020440404040D1
:1001F00040000102040020545454787F484444389D
:100200003844444420384444487F385454541808EF
:100210007E090102081454543C7F08040478004409
:100220007D40002040443D00007F10284400417F75
:1002300040007C041804787C080404783844444462
:10024000387C14141408081414187C7C080404085E
:100250004854545420043F4440203C4040207C1CDF
:100260002040201C3C4030403C44281028440C5086
:1002700050503C4464544C44000836410000007F18
:100280000000004136080008082A1C08081C2A083B
:100290000800060909067800198020000000000007
:1002A000240027002A0000000000250028002B0061
:1002B00000000000230026002900040404040404B4
:1002C0000404020202020202030303030303010205
:1002D00004081020408001020408102001020408D4
:1002E00010200000000800020100000304070000C5
:1002F000000000000000E41511241FBECFEFD8E07D
:10030000DEBFCDBF13E0A0E0B1E0EAE2FDE202C053
:1003100005900D92A832B107D9F726E0A8E2B3E024
:1003200001C01D92A032B207E1F711E0CCE7D1E0A5
:1003300004C02197FE010E947816CB37D107C9F778
:100340000E942A130C9493160C940000CF93DF9311
:10035000EC019C818E81981758F4E881F981008422
:10036000F185E02D42E0CE0109958C818F5F8C8371
:10037000DF91CF9108950895E091810380918003EA
:10038000E81730F4F0E0EE57FC4F808190E00895DC
:100390008FEF9FEF089590918103809180039817CC
:1003A00050F4E92FF0E0EE57FC4F208130E09F5FE2
:1003B0009093810302C02FEF3FEFC9010895809110
:1003C000800390E020918103821B91090895CF92D0
:1003D000DF92EF92FF920F931F93CF93DF937C01F5
:1003E000262F972F8A018091C903882391F0C62F69
:1003F000D72F6E01C40ED51ECC15DD0571F06991A5
:10040000D701ED91FC910190F081E02DC701099594
:10041000F3CF642F822F0E947D0AC801DF91CF9114
:100420001F910F91FF90EF90DF90CF900895CF93A1
:10043000DF931F92CDB7DEB769832091C9032223D2
:10044000D1F02091EC03203240F021E030E0FC01BB
:100450003383228380E090E015C08091CA03E82FA7
:10046000F0E0E553FC4F998190838F5F8093CA033E
:100470008093EC0305C061E0CE0101960E947D0AE5
:1004800081E090E00F90DF91CF910895CF93C62F38
:10049000672F8AE894E00E9417026C2F8AE894E0A4
:1004A000CF910C941702DC01ED91FC910084F18551
:1004B000E02D40E009940F931F93CF93DF931F9299
:1004C000CDB7DEB78C01FC018681681728F4C8011E
:1004D00049830E94A50A4981F801878186958695FE
:1004E0008695481758F44583642F606BC8010F90B8
:1004F000DF91CF911F910F910C9453020F90DF91D8
:10050000CF911F910F910895CF92DF92EF92FF92BA
:100510000F931F93CF93DF93EC01F62EC42ED22EB0
:100520008F81869586958695081710F00FEF080F36
:100530001D2D011780F0412F6F2DCE010E945B020F
:10054000EF2CCE1430F060E0CE010E94A601E394BF
:10055000F8CF1F5FEECF4D2D6F2DCE01DF91CF91E4
:100560001F910F91FF90EF90DF90CF900C945B0262
:100570000F931F93DC0115962C9115971B96ED9107
:10058000FC911C97309749F03396E49119960C91A1
:100590001997E09FE02D112401C0E0E08FEF820F5A
:1005A0000E2F10E0095F1F4F93E0159507959A9560
:1005B000E1F7080F16964C911697415014966C91DE
:1005C0001497CD010E9484021F910F9108952F92DC
:1005D0003F924F925F926F927F928F929F92AF92D3
:1005E000BF92CF92DF92EF92FF920F931F93CF9320
:1005F000DF93CDB7DEB727970FB6F894DEBF0FBEF7
:10060000CDBFFC01038514850115110509F42FC127
:100610009F838E83F801B491319644913196549022
:100620003196A491EA2EF12CF7E0EF0EF11C93E045
:10063000F594E7949A95E1F7EB82F801349674917A
:100640003196E491671758F0862F90E02E2F30E016
:10065000F901E70FF11D8E179F070CF448C06D30AC
:1006600061F4EE81FF818681882309F43DC060E05A
:100670008E819F810E94A50A37C06A3009F0F7C0B9
:10068000EE81FF81818515818E9D100D112487815A
:10069000869586958695181730F08285882319F0FF
:1006A00082E0828710E0412F60E08E819F810E946E
:1006B0005B02EE81FF8182858230B0F0CF010E9423
:1006C000B802EE81FF818185612F8E9D600D11241E
:1006D000660F660F660F8781861708F460E0606416
:1006E0008E819F810E94530281E090E0C2C050E061
:1006F0005B2BC8010696671BEE81FF81F185F983AC
:100700004230510588F4452B09F019825E9C900116
:100710005F9C300D1124629F8001639F100D112496
:10072000080F191F412C24C0EA2FE77021F048E080
:10073000442E4E1A01C0412CA82FFC0140E050E08D
:100740007E2F7A1B761728F47491470F511D31962E
:10075000F7CFFC01E60FF11D54904E9D80014F9D97
:10076000100D5E9D100D1124020F131F080F191F8D
:10077000EE81FF81F481FC83EE81FF813580652C61
:10078000712CCC24C394D12C812C912C7FEF7C0D27
:100790007A838B81781708F05CC0212CEE81FF8171
:1007A0008185281608F04FC07A81711102C022207D
:1007B00041F0EE81FF8145814F5F6C81CF010E9446
:1007C0005B02A12CB12CA51488F5F501E80DF91DEB
:1007D000E00FF11F2491442061F0CE14DF0449F4AE
:1007E000E22FF0E0042C02C0F595E7950A94E2F7B9
:1007F0002E2FEE81FF818185823079F4E22F211046
:10080000E295EF70F0E0E859FF4F2491622F8E815E
:100810009F812D830E94A6012D81622F8E819F8151
:100820000E94A601FFEFAF1ABF0ACDCFB12C79818C
:10083000B71639F060E08E819F810E94A601B394C3
:10084000F6CF2394ABCF860C971CFFEFCF1ADF0AAD
:100850009DCFEE81FF818781869586958695381696
:1008600008F042CF3582632D606BCF013BCF80E033
:1008700090E027960FB6F894DEBF0FBECDBFDF9194
:10088000CF911F910F91FF90EF90DF90CF90BF908D
:10089000AF909F908F907F906F905F904F903F9020
:1008A0002F9008951F920F920FB60F9211242F933D
:1008B0003F934F935F936F937F938F939F93AF93E8
:1008C000BF93EF93FF93809197040E942C11209186
:1008D0009B0430919C042F5F3F4F30939C042093E6
:1008E0009B0490919A04953618F096E090939604A4
:1008F000909196049430C9F128F4923069F09330C5
:10090000D1F05EC0953009F451C0963009F058C05E
:1009100091E09093670551C0811152C020919B04D2
:1009200030919C042436310508F442C010926705CA
:1009300010929A041CC0813009F042C0E0919A04E0
:1009400091E09E0F90939A04F0E020919B043091E7
:100950009C04EE0FFF1FEA56FB4F3087278310924F
:100960009C0410929B0494E029C0811117C0E0916F
:100970009A0491E09E0F90939A04F0E020919B04DA
:1009800030919C04EE0FFF1FEA56FB4F3087278300
:1009900010929C0410929B0493E010C020919B0441
:1009A00030919C042536310558F007C0811108C0EC
:1009B00010929C0410929B0403C095E090939604BF
:1009C000909199049923B9F081110AC080919804FB
:1009D000882321F08091980461E009C02D9A0BC012
:1009E00080919804882331F08091980460E00E94FF
:1009F000551101C02D98FF91EF91BF91AF919F913B
:100A00008F917F916F915F914F913F912F910F90B7
:100A10000FBE0F901F9018951F93CF93DF938AE816
:100A200094E00E94CB01182F8AE894E00E94CB0149
:100A3000D12F20E0C22F9E01280F311DC901DF9167
:100A4000CF911F9108951F93CF93DF93FC012389CA
:100A50003489232B09F47DC0EC0182E090E00E94F0
:100A60000111CE010E940C059BA78AA70E94BA1013
:100A70008AA59BA593FF0EC08B81882359F06EE356
:100A80008DEE93E00E94A41260E871E08DEE93E099
:100A90000E9492128AA59BA597FF5BC081E080937C
:100AA000C90381E18093EB031092CA031092EC0317
:100AB0006CE08AE894E00E94170280E00E945D10DA
:100AC00041E068E081E10E94BD10109281038093B3
:100AD0008003CE010E940C052EA53FA58217930727
:100AE00021F09FA78EA711E001C010E0CE010E9467
:100AF0000C0528A939A98217930719F099AB88AB7F
:100B000011E0CE010E940C052AA93BA98217930788
:100B100019F09BAB8AAB11E0CE010E940C052CA909
:100B20003DA98217930719F09DAB8CAB11E00E9491
:100B3000BA10112371F02CA93DA94AA95BA968A993
:100B400079A9EB89FC898EA59FA5DF91CF911F9193
:100B50000994DF91CF911F910895EF92FF920F9327
:100B60001F93CF93DF938C018CE090E00E940111E2
:100B7000E801AA96780186E3E80EF11CC8010E94FC
:100B80000C0589939993CE15DF05C1F7DF91CF91BD
:100B90001F910F91FF90EF900C94BA10CF92DF92BB
:100BA000EF92FF920F931F93CF93DF93CDB7DEB7F2
:100BB0002C970FB6F894DEBF0FBECDBF8C010E94FC
:100BC000AD05D801ED91FC9106A8F7A9E02D4CE008
:100BD000BE016F5F7F4FC801099569EA71E08DEE34
:100BE00093E00E942813BE016F5F7F4F8DEE93E06C
:100BF0000E942813F801E6A4F7A464EB71E08DEEDF
:100C000093E00E942813B701C8010E94B70FD801D2
:100C10009A968D919C919B9792FD03C067E971E034
:100C200002C06FE871E08DEE93E00E942813F80196
:100C300082A593A597FD03C064EA71E002C06FE945
:100C400071E08DEE93E00E942813D8019D968C915F
:100C5000E82EE694E694F12C69EB71E08DEE93E0DA
:100C60000E942813BAE0EB16F1042CF460E28DEE3A
:100C700093E00E946308C7010E94E21260E28DEED9
:100C800093E00E94A412C12CD12CEFE0EE1AF108DF
:100C9000CE14DF044CF46AE28DEE93E00E94630808
:100CA000FFEFCF1ADF0AF4CF8DEE93E00E948E1291
:100CB0006FEB71E08DEE93E00E949212780186E175
:100CC000E80EF11C6801A6E3CA0ED11CF701619180
:100CD00071917F01C8010E94B70FEC14FD04B1F7B8
:100CE0008DEE93E00E948E1281E08093C90381E132
:100CF0008093EB031092CA031092EC0360E08AE841
:100D000094E00E94170280E00E945D1041E060E2E2
:100D100081E10E94BD10109281038093800380E1E5
:100D2000E82EF12CC8010E940C05BC01C8010E94EC
:100D3000B70FF1E0EF1AF108A9F70E94BA108DEE93
:100D400093E00E948E12D801ED91FC910288F38904
:100D5000E02DC8010995882331F06CE072E08DEE3A
:100D600093E00E942813D801ED91FC9102A4F3A511
:100D7000E02DC8010995882331F067E172E08DEE1E
:100D800093E00E942813D801ED91FC910680F78131
:100D9000E02DC8010995182F6DE172E08DEE93E00A
:100DA0000E942813812F90E00E94E21260E28DEEF3
:100DB00093E00E94A4128DEE93E00E948E122C9676
:100DC0000FB6F894DEBF0FBECDBFDF91CF911F915C
:100DD0000F91FF90EF90DF90CF9008950F931F93A6
:100DE000CF93DF938C01EB010E94510EC8010E944A
:100DF000AD0521E02883F80182A593A592FD2E83FD
:100E000097FF02C081E08B83F80185A586958695C2
:100E1000898384A595A590FF02C081E08C83F801A9
:100E2000828D938D95FF02C081E08D83DF91CF91FC
:100E30001F910F910895FF920F931F93CF93DF930C
:100E40008C01F62EFC018381C62FD0E08823A1F10E
:100E50006EE38DEE93E00E94A41265E272E08DEEE7
:100E600093E00E94281364E372E08DEE93E00E9409
:100E700028134F2D50E060E070E020E18DEE93E00C
:100E80000E94451268E372E08DEE93E00E94281301
:100E9000FE013B96EE0FFF1FE00FF11F40815181D5
:100EA00060E070E020E18DEE93E00E94451269E27F
:100EB0008DEE93E00E94161381E08093C90381E1D7
:100EC0008093EB031092CA031092EC036F2D8AE813
:100ED00094E00E9417022B96CC0FDD1FC00FD11F8C
:100EE00068817981C8010E944602DF91CF911F91EC
:100EF0000F91FF900C94BA101F93CF93DF93EC01E6
:100F0000162F8A8D9B8D9D7F91609B8F8A8F62E0CB
:100F1000CE010E941B0711110CC08A8D9B8D9E7FF4
:100F20009B8F8A8F62E0CE01DF91CF911F910C944D
:100F30001B07DF91CF911F9108951F93CF93DF93EC
:100F4000EC01162F8A8D9B8D93609B8F8A8F62E0B8
:100F5000CE010E941B0711110CC08A8D9B8D9E7FB4
:100F60009B8F8A8F62E0CE01DF91CF911F910C940D
:100F70001B07DF91CF911F910895EF92FF920F937E
:100F80001F93CF93DF93EC018B81882389F06EE36D
:100F90008DEE93E00E94A4126DE372E08DEE93E07B
:100FA0000E9428136CE472E08DEE93E00E9492128E
:100FB00081E08093C90380E18093EB031092CA0320
:100FC0001092EC038E01065E1F4F7E0184E2E80E54
:100FD000F11CF801619171918F01CE010E944602CE
:100FE0000E151F05B1F7DF91CF911F910F91FF9063
:100FF000EF900C94BA10FC01538D448D252F30E0F6
:10100000842F90E0821B930B541710F0CF96089515
:1010100001970895FC01918D828D981761F0828D62
:10102000DF01A80FB11D5D968C91928D9F5F9F731C
:10103000928F90E008958FEF9FEF0895FC01918DBE
:10104000828D981731F0828DE80FF11D858D90E02B
:1010500008958FEF9FEF0895FC01918D228D892FC8
:1010600090E0805C9F4F821B91098F7399270895B0
:101070008DEE93E00E942C0821E0892B09F420E0FA
:10108000822F0895FC01848DDF01A80FB11DA35AA2
:10109000BF4F2C91848D90E001968F739927848F98
:1010A000A689B7892C93A089B1898C9180648C938F
:1010B000938D848D981306C00288F389E02D80817A
:1010C0008F7D80830895EF92FF920F931F93CF93AC
:1010D000DF93EC0181E0888F9B8D8C8D981305C088
:1010E000E889F989808185FD24C0F62E0B8D10E0FA
:1010F0000F5F1F4F0F731127E02E8C8DE8120CC06D
:101100000FB607FCFACFE889F989808185FFF5CF12
:10111000CE010E944208F1CF8B8DFE01E80FF11D38
:10112000E35AFF4FF0820B8FEA89FB89808180624E
:1011300007C0EE89FF896083E889F989808180642E
:10114000808381E090E0DF91CF911F910F91FF901C
:10115000EF900895CF93DF93EC01888D8823C9F039
:10116000EA89FB89808185FD05C0A889B9898C91B0
:1011700086FD0FC00FB607FCF5CF808185FFF2CF4B
:10118000A889B9898C9185FFEDCFCE010E944208D4
:10119000E7CFDF91CF91089580E090E0892B29F08F
:1011A0000E94380881110C940000089585ED809309
:1011B000BC008091BC0084FDFCCF1092C803089550
:1011C0000E947E166115710579F0FB0101900020E7
:1011D000E9F73197AF01461B570BDC01ED91FC910C
:1011E0000280F381E02D099480E090E008951F9241
:1011F0000F920FB60F9211242F933F934F935F934B
:101200006F937F938F939F93AF93BF93EF93FF93CE
:101210008DEE93E00E944208FF91EF91BF91AF9154
:101220009F918F917F916F915F914F913F912F91FE
:101230000F900FBE0F901F9018951F920F920FB630
:101240000F9211242F938F939F93EF93FF93E0912D
:10125000FD03F091FE038081E0910304F09104040A
:1012600082FD12C09081809106048F5F8F73209160
:101270000704821751F0E0910604F0E0E351FC4FBF
:10128000958F8093060401C08081FF91EF919F911B
:101290008F912F910F900FBE0F901F9018951F9256
:1012A0000F920FB60F9211242F933F934F935F939A
:1012B0006F937F938F939F93AF93BF93EF93FF931E
:1012C0008091B900887F803609F49CC068F5883227
:1012D00009F45BC090F4803109F454C038F48823D9
:1012E00009F4F6C0883009F44DC0F6C0883109F41D
:1012F0004CC0803209F45DC0EFC0803409F468C08E
:1013000048F4803309F455C0883309F0E5C0809370
:10131000C603D8C0803509F44FC0883509F45DC0D4
:10132000883409F0D9C0D6C0883909F4C7C0A8F4F8
:10133000883709F467C038F4883609F463C0803709
:1013400009F460C0C9C0883809F4B8C0803909F40C
:101350005FC0803809F0C0C05BC0803B09F486C024
:1013600038F4803A09F466C0883A09F47FC0B4C002
:10137000803C09F4A7C0883C09F4A4C0883B09F468
:101380008AC0AAC08091A30310C09091C503809128
:10139000C403981770F5E091C50381E08E0F809328
:1013A000C503F0E0EC55FC4F80818093BB0085ECD9
:1013B00086C08093C6038EC0E091C50381E08E0F86
:1013C0008093C5038091BB00F0E0EC55FC4F808317
:1013D0009091C5038091C4036EC0E091C50381E084
:1013E0008E0F8093C5038091BB00F0E0EC55FC4F5D
:1013F00080838091C70381116DC081E08093A20337
:1014000084EA61C083E08093C80310926E03CFCF5B
:1014100080916E03803208F051C0E0916E0381E04C
:101420008E0F80936E038091BB00F0E0E25BFC4F77
:101430008083BDCF85EC8093BC001092C80380915F
:101440006E03803230F4E0916E03F0E0E25BFC4F1B
:10145000108260916E0370E0E0914C03F0914D03B7
:101460008EE493E0099510926E0336C084E0809379
:10147000C80310924B0310924A03E0914803F09185
:101480004903099580914A03811105C081E0809349
:101490004A0310922803E0914B0381E08E0F809362
:1014A0004B03F0E0E85DFC4F80818093BB0090919E
:1014B0004B0380914A03981708F479CF85E880930D
:1014C000BC000AC085EC8093BC001092C80304C025
:1014D0001092C6030E94D608FF91EF91BF91AF9181
:1014E0009F918F917F916F915F914F913F912F913C
:1014F0000F900FBE0F901F90189540914A03262F12
:1015000030E0240F311D21323105DCF42091C80375
:101510002430C9F4FC0180E090E0861758F4309143
:101520004A032191DC01A85DBC4FA30FB11D2C9390
:101530000196F3CF80914A03680F60934A0380E0DD
:10154000089581E0089582E008950F931F93CF934B
:101550008C01FC0164839085C62FC90F6C2F6F70BE
:10156000C8010E9453026C2F62956F706061C801C0
:10157000CF911F910F910C945302FC016087089545
:10158000FC0167830895FC0166830895FC0165836F
:101590000895FC01648308950895FC016383089510
:1015A000FC01748B638B0895DC015396ED91FC91E3
:1015B0005497309749F020E030E040E050E060E0A0
:1015C00070E080E090E0099408950895FC0181891D
:1015D00092890895FC01878590890895FC0185858D
:1015E00096850895FC01838594850895FC01818585
:1015F00092850895089508950F931F93CF93DF93D5
:10160000EC018A01E881F981028CF38DE02D0995C6
:10161000E881F981068CF78DE02DB801CE01DF91CC
:10162000CF911F910F910994FC01748763870895EE
:10163000FC01728761876130710519F48CEF91E2CA
:1016400005C06230710561F480EB9DE19687858766
:1016500080E39AE2908B87878AE090E0928B818B7F
:101660000895EF92FF920F931F93CF93DF938C0116
:10167000EB010E94180BC130D10531F0229731F4F3
:1016800088E0E82EF12C02C0E12CF12CF801F58E57
:10169000E48EDF91CF911F910F91FF90EF9008950D
:1016A000FC0180850895FC0187810895FC018681F5
:1016B0000895FC0185810895FC01848108950895B1
:1016C00080E00895089580E090E00895FC0160872F
:1016D000268D378D662311F0326002C03D7FFC01FC
:1016E000378F268F64E00C941B07FC016783228DE3
:1016F000338D662311F03F7B02C03064FC01338FD1
:10170000228F62E00C941B07FC016683828D938D0F
:101710009C013E7F338F228F662321F03062338F0E
:10172000228F03C09E7D938F828F62E0CF010C9445
:101730001B07FC016583228D338D662311F0306118
:1017400001C03F7EFC01338F228F62E00C941B07A7
:10175000FC0164836F7020A131A1207F262B31A36F
:1017600020A365E00C941B070F931F93CF93DF9387
:101770008C01EB01DC0113968C918823E9F06EE378
:101780008DEE93E00E94A41262E972E08DEE93E088
:101790000E94281368E28DEE93E00E94A412AE012D
:1017A00060E070E02AE08DEE93E00E94451269E26D
:1017B0008DEE93E00E941613D8015C96ED91FC919A
:1017C0005D97EF70FF271D968D919C911E979E014E
:1017D000C817D90708F49C01D8011F964D915C9158
:1017E000509770964217530708F49A01A901481BB5
:1017F000590BCA016AE070E00E944216EB0186E0D4
:10180000CC0FDD1F8A95E1F7CE2BDF2BD8015A963E
:101810008D919C915B978960906C5B969C938E9365
:101820005A9762E0C8010E941B07F801D58FC48F48
:1018300063E0C8010E941B0765E0C801DF91CF91FA
:101840001F910F910C941B070F931F93CF93DF935E
:10185000EC01062F142F8E85813120F4882329F086
:10186000411103C00E94BA101E868E85811113C0DB
:101870008D8591E09093C9038093EB031092CA0386
:101880001092EC03112311F060E401C060E08AE8DB
:1018900094E00E941702602F8AE894E00E941702E9
:1018A000123021F48E858F5F8E8703C00E94BA109C
:1018B0001E86DF91CF911F910F910895CF93DF93F3
:1018C000EC0182E090E00E940111CE010E940C0523
:1018D0009BA78AA70E94BA102AA53BA533708AE06D
:1018E000829FA001839F500D11248D859E85840FBA
:1018F000951F9C878B87DF91CF910895CF93DF93BE
:10190000EC018B81882389F06EE38DEE93E00E94D9
:10191000A4126FE972E08DEE93E00E9428136CE44C
:1019200072E08DEE93E00E949212E881F9810480CA
:10193000F581E02D60E0CE0109951B8E1A8ECE0157
:10194000DF91CF910C94BD071F93CF93DF93EC01F0
:101950008B81882389F06EE38DEE93E00E94A412C0
:1019600064EA72E08DEE93E00E9428136CE472E06A
:101970008DEE93E00E9492121092810310928003E8
:101980001092CA031092EC031092C80311E0109356
:10199000C7031092A20361E082E10E94551161E049
:1019A00083E10E9455118091B9008E7F8093B90028
:1019B0008091B9008D7F8093B90088E48093B8004E
:1019C00085E48093BC001093C90381E18093EB030D
:1019D0001092CA031092EC030E94BA1081113CC00D
:1019E0008B81882359F06EE38DEE93E00E94A41260
:1019F00069EA72E08DEE93E00E94921284E098E52D
:101A00009F8B8E8B198E188E83E090E09B8F8A8F30
:101A1000E881F981028CF38DE02D61E070E0CE0168
:101A2000099580E098E09F8F8E8F81E890E999A3D7
:101A300088A31BA21AA21DA21CA21FA21EA219A645
:101A400018A6CE010E94BD0781E090E09B8F8A8F8F
:101A500062E0CE010E941B0781E0DF91CF911F91D0
:101A60000895CF93DF9300D000D0CDB7DEB7DC016F
:101A7000ED91FC9106A4F7A5E02DBE016F5F7F4FAD
:101A800009958C81811103C06CEB72E002C066EB9A
:101A900072E08DEE93E00E9428138A81811103C0C9
:101AA0006CEB72E002C062EC72E08DEE93E00E949B
:101AB00028138B81811103C062ED72E002C068ECD3
:101AC00072E08DEE93E00E9428138DEE93E00E9469
:101AD0008E120F900F900F900F90DF91CF9108957D
:101AE000CF93DF93CDB7DEB727970FB6F894DEBF5D
:101AF0000FBECDBFDC01ED91FC9104A4F5A5E02D56
:101B0000BE016F5F7F4F09958C81811103C06FE922
:101B100071E002C064EA71E08DEE93E00E94281348
:101B20008D81811103C063EE72E002C06CED72E042
:101B30008DEE93E00E9428138F81811103C062EF24
:101B400072E002C06AEE72E08DEE93E00E9428130C
:101B50006AEF72E08DEE93E00E9428134A8150E014
:101B600060E070E02AE08DEE93E00E94451263E0B1
:101B700073E08DEE93E00E9428134B8150E060E00B
:101B800070E02AE08DEE93E00E9445128DEE93E026
:101B90000E948E1227960FB6F894DEBF0FBECDBFFF
:101BA000DF91CF910895CF92DF92EF92FF920F9342
:101BB0001F93CF93DF931F92CDB7DEB78C016B01DC
:101BC000DC01ED91FC91048CF58DE02D49830995A4
:101BD0007C01D801ED91FC9100A0F1A1E02DC8019C
:101BE00009954981C114D104E1F14B30D0F1F601DE
:101BF0001082F1E0EF1AF10822E0E216F10488F514
:101C000045E0EAE0F0E010E24150242F30E04430BB
:101C100011F0009751F02C0D3D1DBF010E9442169E
:101C2000805DD9018C93CB0104C0D601A20FB31FF4
:101C30001C934111E9CFF6018481858383818483DC
:101C40008EE283836BE073E0C60106960F90DF910E
:101C5000CF911F910F91FF90EF90DF90CF900C9458
:101C60008C160F90DF91CF911F910F91FF90EF9005
:101C7000DF90CF900895DC01FB0110821182128267
:101C8000138214968C911497808317968C911797D2
:101C9000818318968C911897828315968C918383F3
:101CA000089527E0FB0111922A95E9F7FC0186814E
:101CB000FB0185830895EF92FF920F931F93CF93BB
:101CC000DF937A018901892BA1F563ED72E08EE63D
:101CD00095E00E948C166EE675E088E795E00E941C
:101CE0008C1660E173E082E895E00E948C1682E435
:101CF000E4E9F5E0DF011D928A95E9F710926D05A0
:101D0000E0918C05F0918D05309719F082E895E00F
:101D10000995E0919005F0919105309709F4F5C08F
:101D200086E293E0DF91CF911F910F91FF90EF90AA
:101D30000994CB0188279870892F8695869586957A
:101D40009B012227307F832B8A6080936805109245
:101D5000690510926A058A3209F44BC020F48A5052
:101D6000823028F0D2C08A3409F482C0CEC06370B9
:101D7000660FE12EF02EE62FF0E0EF01C859DA4FA2
:101D80008E8181132AC0E759FA4F8681801325C0BE
:101D9000188B008B109280056630F9F468E775E0C7
:101DA0008EE695E00E948316892BB9F462E875E00F
:101DB00088E795E00E948316892B79F068E775E043
:101DC00082E895E00E948C16E0918C05F0918D05DB
:101DD000309719F082E895E009958E818E1104C044
:101DE0008F818F1509F491C01E830F8310927605A1
:101DF0008CC0862F807180936B05E62FEF70CE2FFD
:101E0000CC0FCC0F80916D05C81748F4E091900578
:101E1000F0919105309719F084E995E00995C09308
:101E20006D0580916B0590916C05891749F0809341
:101E30006C0582E4E4E9F5E0DF011D928A95E9F79B
:101E4000EC2FF0E0E859FA4FF4A6E1E0EC0FF0E0F7
:101E5000E859FA4FE4A6E2E0EC0FF0E0E859FA4F57
:101E600014A7E3E0EC0FF0E0E859FA4F04A74DC0E7
:101E7000C80126E0969587952A95E1F78F739927F3
:101E8000B1E0EB22FF2434E0EE0CFF1C3A95E1F7C1
:101E9000A801452F552742954F70E42AF52A4CE3B7
:101EA0004E9D90014F9D300D1124820F931F202FC6
:101EB0002F7105FF06C03EE1239F8019910911246F
:101EC00005C0AEE12A9F800D911D1124E0918E0581
:101ED000F0918F053097C9F02091920530919305CC
:101EE0008217930791F090939305809392056CE38A
:101EF00070E00E944216962F682F892FDF91CF91B4
:101F00001F910F91FF90EF900994DF91CF911F9156
:101F10000F91FF90EF900895CF93DF93EC0169E16B
:101F200073E08DEE93E00E942813BE018DEE93E0E6
:101F30000E94921240E060E08CE096E00E945B021A
:101F40006EE173E08CE096E00E94281342E060E0CE
:101F50008CE096E00E945B028CE096E00E94B80262
:101F6000BE018CE096E0DF91CF910C942813CF93C3
:101F7000DF93EB016031710530F460E38DEE93E0A7
:101F80000E94A41204C06F3F710509F030F460E3B1
:101F90008DEE93E00E94A41203C06115704128F4F5
:101FA00060E38DEE93E00E94A412AE0160E070E069
:101FB00020E18DEE93E00E94451260E28DEE93E009
:101FC000DF91CF910C94A412833081F028F48130FA
:101FD00099F08230A1F008958730A9F08830B9F0E7
:101FE0008430D1F4809180008F7D03C08091800087
:101FF0008F7780938000089584B58F7702C084B571
:102000008F7D84BD08958091B0008F7703C080914B
:10201000B0008F7D8093B00008953FB7F894809111
:102020001C0690911D06A0911E06B0911F0626B5B4
:10203000A89B05C02F3F19F00196A11DB11D3FBF00
:10204000BA2FA92F982F8827820F911DA11DB11D8E
:10205000BC01CD0142E0660F771F881F991F4A958A
:10206000D1F70895CF92DF92EF92FF920F931F93D3
:10207000CF93DF936C017A018B01C0E0D0E0CE15E5
:10208000DF0589F0D8016D918D01D601ED91FC91AC
:102090000190F081E02DC6010995892B11F47E0194
:1020A00002C02196ECCFC701DF91CF911F910F9114
:1020B000FF90EF90DF90CF900895382F2091EC03A0
:1020C0009091EB03213208F049C08091C80381113F
:1020D000FCCF42E04093C8033093C7033FEF3093F7
:1020E000C6031092C5032093C403ABECB3E044EAEB
:1020F00053E0FA013E2F341B321718F43D9131930F
:10210000F9CF1092A3032091A303990F922B9093E0
:10211000A3039091A203913061F41092A2039091D5
:10212000A3039093BB009091BC0093FDF8CF95EC76
:1021300001C095EE9093BC009091C8039230E1F3FA
:102140009091C6039F3F79F08091C603803241F0A1
:102150008091C603803331F084E005C081E003C084
:1021600082E001C083E01092CA031092EC03109247
:10217000C903089581E00C945D109091C8039111FA
:10218000FCCF91E09093C8034093C7032FEF2093B7
:10219000C6031092C503260F2093C4039093A30394
:1021A0009091A303880F892B8093A3038091A203AE
:1021B000813061F41092A2038091A3038093BB004D
:1021C0008091BC0083FDF8CF85EC01C085EE809343
:1021D000BC008091C8038130E1F38091C50386176C
:1021E00010F46091C503A4EAB3E022E833E0F901FA
:1021F0008E2F821B861718F48D918193F9CF862F2D
:102200000895813208F080E241E0682F80E10E9469
:10221000BD10109281038093800308950F93009165
:1022200013060695069506950150409112064150F9
:1022300020E060E08CE096E00E94840281E09091D2
:102240001606911101C080E08093160660E48CE0D0
:1022500096E00F910C945302CF93DF93282F30E038
:10226000F901EE51FD4F8491F901E253FD4FD491F4
:10227000F901E654FD4FC491CC2391F081110E94E5
:10228000E40FEC2FF0E0EE0FFF1FE055FD4FA5919E
:10229000B491EC91ED2381E090E021F480E002C064
:1022A00080E090E0DF91CF9108951F93CF93DF936B
:1022B000282F30E0F901EE51FD4F8491F901E253EE
:1022C000FD4FD491F901E654FD4FC491CC23C9F0E0
:1022D000162F81110E94E40FEC2FF0E0EE0FFF1F8C
:1022E000EA55FD4FA591B4918FB7F894111105C02F
:1022F0009C91ED2FE095E92302C0EC91ED2BEC933E
:102300008FBFDF91CF911F910895CF93DF9390E01E
:10231000FC01E253FD4F2491FC01E654FD4F8491F2
:10232000882361F190E0880F991FFC01E456FD4F6E
:10233000C591D491FC01EA55FD4FA591B49161116D
:1023400009C09FB7F8948881209582238883EC91F7
:102350002E230BC0623061F49FB7F8943881822F2E
:10236000809583238883EC912E2B2C939FBF06C0EE
:102370008FB7F894E8812E2B28838FBFDF91CF9100
:1023800008958F929F92AF92BF92CF92DF92EF9279
:10239000FF926B017C010E940D104B015C01C11486
:1023A000D104E104F104F1F00E940D10DC01CB0135
:1023B00088199909AA09BB09883E9340A105B1056E
:1023C00070F321E0C21AD108E108F10888EE880E06
:1023D00083E0981EA11CB11CC114D104E104F104D6
:1023E00019F7DDCFFF90EF90DF90CF90BF90AF90C7
:1023F0009F908F9008951F920F920FB60F92112405
:102400002F933F938F939F93AF93BF9380917C03C0
:1024100090917D03A0917E03B0917F0330911B06C4
:1024200023E0230F2D3720F40196A11DB11D05C017
:1024300026E8230F0296A11DB11D20931B06809351
:102440007C0390937D03A0937E03B0937F038091E0
:102450001C0690911D06A0911E06B0911F060196C4
:10246000A11DB11D80931C0690931D06A0931E060E
:10247000B0931F06BF91AF919F918F913F912F9184
:102480000F900FBE0F901F9018954F925F926F9212
:102490007F92EF92FF920F931F93CF93DF93CDB76D
:1024A000DEB7A1970FB6F894DEBF0FBECDBF7C019B
:1024B000FA01CB0119A2223008F42AE08E010F5D47
:1024C0001F4F422E512C612C712CBF01A301920190
:1024D0000E945616F901CA01015011096A3014F41C
:1024E000605D01C0695CD8016C93232B242B252BE4
:1024F00061F7B801C7010E94E208A1960FB6F894EF
:10250000DEBF0FBECDBFDF91CF911F910F91FF9026
:10251000EF907F906F905F904F90089564E273E02A
:102520000C94E2080F931F93CF93DF93EC010E946A
:10253000E2088C01CE010E948E12800F911FDF9164
:10254000CF911F910F910895DC01ED91FC910190C5
:10255000F081E02D0994CF92DF92EF92FF92CF931A
:10256000DF936C01990FEE08FF08F7FE16C06DE2CD
:102570008DEE93E00E94A412EC0144275527BA0186
:102580004C195D096E097F092AE08DEE93E00E94E7
:1025900045127C01EC0EFD1E08C02AE0B701A60121
:1025A0008DEE93E00E9445127C018DEE93E00E9437
:1025B0008E128E0D9F1DDF91CF91FF90EF90DF90D7
:1025C000CF900895CF92DF92EF92FF92CF93DF9357
:1025D0006C01990FEE08FF08F7FE1BC06DE28DEE4F
:1025E00093E00E94A412EC0144275527BA014C192C
:1025F0005D096E097F092AE08DEE93E00E94451285
:102600008C0F9D1FDF91CF91FF90EF90DF90CF90C7
:1026100008952AE0B701A6018DEE93E0DF91CF91F6
:10262000FF90EF90DF90CF900C9445120F931F9383
:10263000CF93DF93EC010E94A4128C01CE010E9483
:102640008E12800F911FDF91CF911F910F910895EE
:102650000C94E208CF93DF93CDB7DEB72C970FB67B
:10266000F894DEBF0FBECDBF789484B5826084BD80
:1026700084B5816084BD85B5826085BD85B5816086
:1026800085BD80916E00816080936E001092810004
:1026900080918100826080938100809181008160BF
:1026A0008093810080918000816080938000809180
:1026B000B10084608093B1008091B000816080930C
:1026C000B00080917A00846080937A0080917A00D3
:1026D000826080937A0080917A00816080937A0092
:1026E00080917A00806880937A001092C10060E047
:1026F00082E00E94851160E083E00E94851160E025
:1027000085E00E94851160E087E00E94851160E00D
:1027100086E00E94851160E084E00E94851161E0FE
:102720008DE00E948511E091FD03F091FE0382E0AF
:102730008083E091F903F091FA031082E091FB03AA
:10274000F091FC038FEC808310920504E09101046A
:10275000F091020486E08083E091FF03F091000491
:10276000808180618083E091FF03F091000480818B
:1027700088608083E091FF03F0910004808180688D
:102780008083E091FF03F091000480818F7D80833E
:102790006FE472E08DEE93E00E94921264EF71E0BC
:1027A00080E090E00E94C11110921A068CE38093A1
:1027B00019061092100610921106E6E9F2E08591D2
:1027C0009491E82EE8E9F2E0F490E9E9F2E0E4918E
:1027D000E0931206EAE9F2E0E491E0931306EBE9F4
:1027E000F2E0E491E09314068C01802F8E198F158E
:1027F00048F4F80164918CE096E00E9453020F5F68
:102800001F4FF3CF109216060E940E118BEA90E034
:10281000909318068093170664E670E080E090E0DD
:102820000E94C1110E940E1182E08093150640E0C3
:1028300060E08CE096E00E945B0268E572E08CE06C
:1028400096E00E94921265E672E08CE096E00E94AB
:10285000281360ED77E080E090E00E94C1110E94B3
:102860000E1186ED95E00E94A40C86ED95E00E9485
:102870005E0C90937B0380937A03AC0160E070E080
:102880002AE08DEE93E00E9445128DEE93E00E94C7
:102890008E1281E08093D90507EA10E0F801459196
:1028A000549161E070E086ED95E00E94FC0AF80129
:1028B0006591749186ED95E00E94B40B60E086ED21
:1028C00095E00E94840B60E086ED95E00E94750B18
:1028D0006091000186ED95E00E94A80B8BE59EE0DB
:1028E0009093EA058093E9058CE89FE090938D052D
:1028F00080938C058FB7F894C0907C03D0907D03B3
:10290000E0907E03F0907F038FBF82E00E942C1145
:10291000892B59F46FE672E08DEE93E00E949212DB
:1029200061E086ED95E00E949D0783E00E942C11F6
:10293000892B59F462E772E08DEE93E00E949212C7
:1029400061E086ED95E00E947C078FB7F894809057
:102950007C0390907D03A0907E03B0907F038FBF97
:102960008091020190910301A0910401B0910501B1
:1029700088159905AA05BB0508F04DC087E00E949F
:102980002C11892B51F460910001709101016F307D
:1029900071059CF56F5F7F4F0EC086E00E942C1181
:1029A000892BF1F460910001709101011616170650
:1029B00024F561507109709301016093000186ED67
:1029C00095E00E94A80B67E772E08DEE93E00E940D
:1029D000281380910001909101010E94AB120DC05B
:1029E00084E00E942C11892B41F46091DB0581E089
:1029F000682786ED95E00E94990BF4EF8F0EF1E0C9
:102A00009F1EA11CB11C8092020190920301A09212
:102A10000401B092050186ED95E00E9423058091A6
:102A2000060190910701A0910801B09109018C1550
:102A30009D05AE05BF0508F0C4C086ED95E00E9477
:102A40005E0C90937B0380937A03209178033091FE
:102A5000790382179307B1F14CE0BE016F5F7F4F9E
:102A600086ED95E00E94D30D6CE872E08DEE93E068
:102A70000E942813BE016F5F7F4F8DEE93E00E948E
:102A8000921240E060E08CE096E00E945B026CE80D
:102A900072E08CE096E00E94921242E060E08CE0EE
:102AA00096E00E945B02BE016F5F7F4F8CE096E074
:102AB0000E94921280917A0390917B039093790304
:102AC0008093780361E773E086ED95E00E94EE065F
:102AD000809172038093700390916F03891709F4BA
:102AE00062C061E773E086ED95E00E94EE066CEF50
:102AF00072E08DEE93E00E9428134091720350E043
:102B000060E070E02AE08DEE93E00E9445128DEEC9
:102B100093E00E948E1280917403882311F002E5E5
:102B200001C00DE280917703882311F013E501C005
:102B30001DE240E066E48CE096E00E945B02602FBC
:102B40008CE096E00E94A412612F8CE096E00E9437
:102B5000A412602F8DEE93E00E94A412612F8DEEDF
:102B600093E00E94161340E064E68CE096E00E9439
:102B70005B0266E173E08CE096E00E94281340E07F
:102B800064E68CE096E00E945B024091720350E0A4
:102B900060E070E02AE08CE096E00E9445128091AF
:102BA000700380936F0388EEC80E83E0D81EE11C8B
:102BB000F11CC0920601D0920701E0920801F09248
:102BC00009010E94CC0896CEEDEEF3E0138212824A
:102BD00088EE93E0A0E0B0E084839583A683B7837A
:102BE0002EE031E03183208325EC30E035872487E7
:102BF00024EC30E03787268720EC30E0318B208BC7
:102C000021EC30E0338B228B22EC30E0358B248BAF
:102C100026EC30E0378B268B118E128E138E148E9D
:102C2000EAE8F4E01382128284839583A683B78353
:102C300080E291E091838083ECE0F6E013821282DF
:102C400081E081871486138686E791E091838083F3
:102C5000E6E9F4E089E081831382E6EDF5E085E1C1
:102C6000DF011D928A95E9F782E391E091838083E9
:102C70008FE0858B8EE6E8E6F5E0DF011D928A9510
:102C8000E9F70895AA1BBB1B51E107C0AA1FBB1F90
:102C9000A617B70710F0A61BB70B881F991F5A95E8
:102CA000A9F780959095BC01CD010895A1E21A2E57
:102CB000AA1BBB1BFD010DC0AA1FBB1FEE1FFF1FE0
:102CC000A217B307E407F50720F0A21BB30BE40B30
:102CD000F50B661F771F881F991F1A9469F7609577
:102CE0007095809590959B01AC01BD01CF01089531
:102CF000EE0FFF1F0590F491E02D099481E090E024
:102D0000F8940C949316FB01DC018D9101908019CD
:102D10000110D9F3990B0895FB01DC0101900D928C
:0A2D20000020E1F70895F894FFCFBA
:102D2A000500E803000090010000000000006308AD
:102D3A003210FB07AA082C080A081E080000000027
:102D4A001702E701630BBB01DF01CB01BC010000E5
:102D5A000000A40C7E0CA80B5C0B750B530B660BC6
:102D6A00500B990B590BEE0AEA0AE60A310BF60ADE
:102D7A00B40B5E0CFC0A9D077C07840B560BEE060F
:102D8A003B0E2305D40AD00AD30DCD0A700D310D9E
:102D9A00CE0500000000E7023210630B620B240C20
:102DAA00424C4F434B5F4520666F756E642E002080
:102DBA0053746572656F00204D6F6E6F202000207E
:102DCA002D2D2D0020524453004672657175656E93
:102DDA0063793D002050493D00205369673D00302A
:102DEA0020202020312020202032202020203320A3
:102DFA00202020342020202035202020203620208A
:102E0A002020372020202038202020203920202070
:102E1A002041202020204220202020432020202042
:102E2A004420202020452020202046004261737340
:102E3A00426F6F737420004D6F6E6F2000566F6C77
:102E4A00756D653D002D5F736176655265676973BF
:102E5A0074657200283078002C203078002D736158
:102E6A007665526567697374657273002829005222
:102E7A006164696F2E2E2E005363616E2073746134
:102E8A0074696F6E0020524441353830372100553D
:102E9A007000446F776E00D093D180D0BED0BCD082
:102EAA00BAD0BED181D182D18C3A20004652455146
:102EBA003A007365744672657175656E637900745C
:102ECA0065726D00696E697400726164696F20666B
:102EDA006F756E642E00204241535300202D2D2D14
:102EEA002D00204D5554450020534F46544D5554FE
:102EFA004500202D2D2D2D2D2D2D2D002054554EE4
:102F0A00454400202D2D2D2D2D002053544552458A
:102F1A004F0020204D4F4E4F20002020525353493E
:102F2A003A20002020534E523A2000204D487A0081
:102F3A002020202020202020005244533A005244CE
:082F4A00533A20000D0A0000BB
:00000001FF
