:100000000C947C010C94A4010C94A4010C94A40104
:100010000C94A4010C94A4010C94A4010C948E11D2
:100020000C94A4010C94A4010C94A4010C94A401BC
:100030000C94A4010C94A4010C94A4010C94A401AC
:100040000C94D10F0C94A4010C9441100C941B102F
:100050000C94A4010C94A4010C94A4010C94A4018C
:100060000C9473100C94A401AED580A81FD300404B
:100070008D142002A1C8DA02817FD9F1DB40A4A649
:10008000AF00030C0F30333C3FC0C3CCCFF0F3FCC8
:10009000FF2E22CE2246237823A023182458258021
:1000A00025A825D0253C28E628F4290000050720AE
:1000B00061000000000000005F0000000700070072
:1000C000147F147F14242A7F2A12231308646236B3
:1000D000495522500005030000001C224100004148
:1000E000221C00082A1C2A0808083E080800503074
:1000F00000000808080808006060000020100804DC
:10010000023E5149453E00427F400042615149460E
:100110002141454B311814127F1027454545393C84
:100120004A494930017109050336494949360649AA
:1001300049291E003636000000563600000008141B
:10014000224114141414144122140800020151090C
:1001500006324979413E7E1111117E7F4949493667
:100160003E414141227F4141221C7F494949417F13
:10017000090901013E414151327F0808087F0041D1
:100180007F41002040413F017F081422417F4040D1
:1001900040407F0204027F7F0408107F3E414141BE
:1001A0003E7F090909063E4151215E7F0919294612
:1001B000464949493101017F01013F4040403F1F0D
:1001C0002040201F7F2018207F631408146303043D
:1001D000780403615149454300007F41410204080E
:1001E000102041417F0000040201020440404040D1
:1001F00040000102040020545454787F484444389D
:100200003844444420384444487F385454541808EF
:100210007E090102081454543C7F08040478004409
:100220007D40002040443D00007F10284400417F75
:1002300040007C041804787C080404783844444462
:10024000387C14141408081414187C7C080404085E
:100250004854545420043F4440203C4040207C1CDF
:100260002040201C3C4030403C44281028440C5086
:1002700050503C4464544C44000836410000007F18
:100280000000004136080008082A1C08081C2A083B
:100290000800060909066800198020000000000017
:1002A000240027002A0000000000250028002B0061
:1002B00000000000230026002900040404040404B4
:1002C0000404020202020202030303030303010205
:1002D00004081020408001020408102001020408D4
:1002E00010200000000800020100000304070000C5
:1002F0000000000000004A1211241FBECFEFD8E01A
:10030000DEBFCDBF13E0A0E0B1E0E6E9FBE202C052
:1003100005900D92A832B107D9F726E0A8E2B3E024
:1003200001C01D92AC31B207E1F711E0CCE7D1E09A
:1003300004C02197FE010E94B315CB37D107C9F73E
:100340000E94AA120C94C9150C940000982F2091B9
:10035000ED0381E0213208F043C08091C90381118F
:10036000FCCF8091EC0332E03093C9039093C80333
:100370009FEF9093C7031092C6032093C503ACEC84
:10038000B3E0E5EAF3E090E0291331C01092A40352
:100390009091A403880F892B8093A4038091A303D9
:1003A000813049F51092A3038091A4038093BB0090
:1003B0008091BC0083FDF8CF85EC8093BC008091D8
:1003C000C9038230E1F38091C7038F3FB1F0809180
:1003D000C7038032A1F08091C703803391F084E09D
:1003E0001092CB031092ED031092CA0308953D9131
:1003F00031939F5FC9CF85EEE0CF80E0F1CF82E0FF
:10040000EFCF83E0EDCF81E00C94A6019091C9037A
:100410009111FCCF91E09093C9034093C8032FEF53
:100420002093C7031092C603260F2093C503909311
:10043000A4039091A403880F892B8093A403809137
:10044000A3038130F9F41092A3038091A403809355
:10045000BB008091BC0083FDF8CF85EC8093BC008D
:100460008091C9038130E1F38091C603861710F4AF
:100470006091C603A5EAB3E0E3E8F3E080E0861309
:1004800003C0089585EEEACF9D9191938F5FF7CFDA
:10049000833081F028F4813099F08230A9F00895FA
:1004A0008730A9F08830C9F08430B1F480918000A1
:1004B0008F7D03C0809180008F77809380000895A6
:1004C00084B58F7784BD089584B58F7DFBCF8091EF
:1004D000B0008F778093B00008958091B0008F7D39
:1004E000F9CFCF93DF93282F30E0F901EE51FD4F84
:1004F0008491F901E253FD4FD491F901E654FD4F87
:10050000C491CC23A1F081110E944802EC2FF0E0AD
:10051000EE0FFF1FE055FD4FA591B491EC91ED2337
:1005200081E090E009F480E0DF91CF91089580E0D0
:1005300090E0FACF1F93CF93DF93282F30E0F9019B
:10054000EE51FD4F8491F901E253FD4FD491F90131
:10055000E654FD4FC491CC23A9F0162F81110E94BF
:100560004802EC2FF0E0EE0FFF1FEA55FD4FA5917A
:10057000B4918FB7F894EC91111108C0D095DE2397
:10058000DC938FBFDF91CF911F910895DE2BF8CFC1
:10059000CF93DF9390E0FC01E253FD4F249186540A
:1005A0009D4FFC0184918823D1F090E0880F991F22
:1005B000FC01E456FD4FA591B491FC01EA55FD4FB5
:1005C000C591D49161110EC09FB7F8948C91E22F20
:1005D000E0958E238C932881E223E8839FBFDF91EF
:1005E000CF9108958FB7F894EC91E22BEC938FBFE5
:1005F000F6CF3FB7F89480917D0390917E03A09150
:100600007F03B091800326B5A89B05C02F3F19F04A
:100610000196A11DB11D3FBFBA2FA92F982F882782
:10062000BC01CD01620F711D811D911D42E0660F5D
:10063000771F881F991F4A95D1F708958F929F922F
:10064000AF92BF92CF92DF92EF92FF924B015C018B
:100650000E94F9026B017C010E94F9026C197D096C
:100660008E099F09683E734081059105A8F321E03A
:10067000821A9108A108B10888EEC80E83E0D81E3E
:10068000E11CF11C81149104A104B10429F7FF902D
:10069000EF90DF90CF90BF90AF909F908F90089594
:1006A000DC01ED91FC910190F081E02D0994AF9275
:1006B000BF92CF92DF92EF92FF920F931F93CF934F
:1006C000DF936C017B018B01040F151FEB015E01B1
:1006D000AE18BF08C017D10759F06991D601ED9146
:1006E000FC910190F081E02DC6010995892B79F7E5
:1006F000C501DF91CF911F910F91FF90EF90DF9097
:10070000CF90BF90AF900895FC0185810895FC01C2
:10071000748B638B0895FC0163830895FC01538DF2
:10072000448D252F30E0842F90E0821B930B5417CB
:1007300010F0CF96089501970895FC01918D828D58
:10074000981761F0A28DAE0FBF2FB11D5D968C91F1
:10075000928D9F5F9F73928F90E008958FEF9FEF30
:100760000895FC01918D828D981731F0828DE80FEC
:10077000F11D858D90E008958FEF9FEF0895FC01A6
:10078000918D228D892F90E0805C9F4F821B910973
:100790008F73992708958EEE93E00E94BF0321E0A6
:1007A000892B09F420E0822F089580E090E0892BC6
:1007B00029F00E94CB0381110C9400000895FC01E4
:1007C000A48DA80FB92FB11DA35ABF4F2C91848DB2
:1007D00090E001968F739927848FA689B7892C930F
:1007E000A089B1898C9180648C93938D848D9813AA
:1007F00006C00288F389E02D80818F7D8083089573
:10080000EF92FF920F931F93CF93DF93EC0181E060
:10081000888F9B8D8C8D981316C0E889F98980810B
:1008200085FF11C0EE89FF896083E889F98980819D
:100830008064808381E090E0DF91CF911F910F91E0
:10084000FF90EF900895F62E0B8D10E00F5F1F4F75
:100850000F731127E02E8C8D8E110CC00FB607FC84
:10086000FACFE889F989808185FFF5CFCE010E9412
:10087000DF03F1CFEB8DEC0FFD2FF11DE35AFF4F9E
:10088000F0820B8FEA89FB8980818062D2CFCF937F
:10089000DF93EC01888D8823B9F0AA89BB89E889A8
:1008A000F9898C9185FD03C0808186FD0DC00FB64E
:1008B00007FCF7CF8C9185FFF2CF808185FFEDCFCC
:1008C000CE010E94DF03E9CFDF91CF91089585ED3E
:1008D0008093BC008091BC0084FDFCCF1092C903C2
:1008E000089520914803260F3327331F2132310505
:1008F000ECF42091C903FC0190E080E0243069F021
:1009000082E00895A09148032191AC01485D5C4FBD
:10091000A40FB52FB11D2C930196861798F38091E3
:100920004803680F6093480380E0089581E00895CC
:10093000CF93DF93EC019C818E81981758F4E88166
:10094000F9810084F185E02D42E0CE0109958C818A
:100950008F5F8C83DF91CF910895DC01ED91FC9145
:100960000084F185E02D40E009940F931F93CF930D
:100970008C01FC016483C085C60F6C2F6F700E94D0
:10098000AD046C2F62956F706061C801CF911F91AB
:100990000F910C94AD041F93CF93DF93EC01142FB0
:1009A0008E81681718F4CE010E94B5048F81869558
:1009B00086958695181748F41D83612F606BCE01CC
:1009C000DF91CF911F910C94AD04DF91CF911F91D6
:1009D0000895CF92DF92EF92FF920F931F93CF93E0
:1009E000DF93EC01F62EC42ED22E8F81869586954C
:1009F0008695081710F00FEF080F1D2D011780F0D6
:100A0000412F6F2DCE010E94CB04EF2CCE1430F07D
:100A100060E0CE010E949804E394F8CF1F5FEECF10
:100A20004D2D6F2DCE01DF91CF911F910F91FF9032
:100A3000EF90DF90CF900C94CB040F9300911406AD
:100A4000069506950695015040911306415020E009
:100A500060E08DE096E00E94E90481E09091170645
:100A6000911101C080E08093170660E48DE096E06C
:100A70000F910C94AD040F931F93DC0115962C91EC
:100A800015971B96ED91FC911C9700E0309741F073
:100A90003396E49119960C911997E09F002D11243B
:100AA00010E0095F1F4F83E0159507958A95E1F7E0
:100AB0008FEF820F080F16964C911697415014969F
:100AC0006C911497CD010E94E9041F910F91089534
:100AD0002F923F924F925F926F927F928F929F924E
:100AE000AF92BF92CF92DF92EF92FF920F931F933C
:100AF000CF93DF9300D000D01F92CDB7DEB7FC01BB
:100B0000038514850115110509F447C19D838C8364
:100B1000F801449131965491319664903196249124
:100B2000E22EF12CF7E0EF0EF11C33E0F594E794A0
:100B30003A95E1F7EA82F801349634913196E491DE
:100B4000631748F08E2F90E0FC01E30FF11D6E1744
:100B50001F060CF460C06D3029F5EC81FD818681A3
:100B600081111AC081E090E00F900F900F900F90CC
:100B70000F90DF91CF911F910F91FF90EF90DF9039
:100B8000CF90BF90AF909F908F907F906F905F902D
:100B90004F903F902F90089560E08C819D810E943E
:100BA000B504E0CF6A3009F0F8C0EC81FD818185A1
:100BB00015818E9D100D11248781869586958695C9
:100BC000181730F08285882319F082E0828710E0C0
:100BD000412F60E08C819D810E94CB04EC81FD81DE
:100BE0008285823008F4BECFCF010E943B05EC81A4
:100BF000FD818185612F8E9D600D1124660F660F2A
:100C0000660F8781861708F460E060648C819D819F
:100C10000E94AD04A7CF4527542745270A5F1F4FE1
:100C2000631BEC81FD81F185F9834230510508F0A9
:100C300069C0452B09F019826E9CC0016F9C900D14
:100C40001124689FF001699FF00D11240E0F1F1FE2
:100C5000512CEC81FD81F481FB83EC81FD81458089
:100C6000862C912CAA24A394B12C212CFA812F1626
:100C700008F085C0312CEC81FD818185381608F0A3
:100C800077C0211002C0332041F0EC81FD81458105
:100C90004F5F6B81CF010E94CB04D12CC12CC614B5
:100CA00008F059C0F801EC0DFD1D7490552061F05D
:100CB000AE14BF0449F4E72DF0E0052C02C0F59511
:100CC000E7950A94E2F77E2EEC81FD8181858230E2
:100CD00081F4332009F43BC072948FE07822E72D31
:100CE000F0E0EF57FF4F7490672D8C819D810E943B
:100CF0009804672D8C819D810E9498043FEFC31A50
:100D0000D30ACDCF277038E0532E521A211101C0DB
:100D1000512C50E040E030E020E0F801461740F46C
:100D2000E40FF51FE4912E0F311D4F5F5F4FF5CF9C
:100D3000E60FF11D6490E29EF001E39EF00DF29E3D
:100D4000F00D11248E0F9F1F080F191F82CFF72D52
:100D5000FF707F2EC4CFD12C89818D1539F060E0D2
:100D60008C819D810E949804D394F6CF339483CFD5
:100D70002394080D191DEFEFAE1ABE0A77CFEC8150
:100D8000FD818781869586958695481608F0EACE7E
:100D90004582642D606BCF013BCF90E080E0E4CED4
:100DA0000895E091820380918103E81730F4F0E028
:100DB000ED57FC4F808190E008958FEF9FEF0895ED
:100DC00090918203809181032FEF3FEF981748F4B1
:100DD000E92FF0E0ED57FC4F208130E09F5F9093CA
:100DE0008203C90108951F93CF93DF938BE894E0AA
:100DF0000E94E006182F8BE894E00E94E006D12FB5
:100E000090E0C92F8C0F9D2F911DDF91CF911F91E5
:100E100008958091810390918203891B990B089515
:100E2000CF92DF92EF92FF920F931F93CF93DF93B6
:100E30007C01CB018A012091CA03222389F0EB01B6
:100E40006B01C40ED51ECC15DD0569F06991D70183
:100E5000ED91FC910190F081E02DC7010995F3CF50
:100E6000642F0E947104C801DF91CF911F910F91EF
:100E7000FF90EF90DF90CF900895CF93DF931F9274
:100E8000CDB7DEB769832091CA032223F9F0209100
:100E9000ED03203258F021E030E0FC01338322835F
:100EA00090E080E00F90DF91CF9108958091CB0387
:100EB000E82FF0E0E453FC4F998190838F5F80939B
:100EC000CB038093ED0381E090E0ECCF61E0CE01B5
:100ED00001960E947104F7CFCF93C82F692F8BE83A
:100EE00094E00E943D076C2F8BE894E0CF910C9426
:100EF0003D07FC01728761876130710589F48CEFD1
:100F000091E29687858780E39AE2908B87878AE0D3
:100F100090E0928B818B30E020E0358F248F089514
:100F200062307105D1F780EB9DE19687858780E37C
:100F30009AE2908B87878AE090E0928B818B28E001
:100F400030E0EBCFDC015396ED91FC91309749F006
:100F500030E020E050E040E070E060E090E080E0D1
:100F600009940895FC01818992890895FC0187857F
:100F700090890895FC01858596850895FC018185F9
:100F8000928508950F931F93CF93DF93EC018A010D
:100F9000E881F981028CF38DE02D0995E881F981D2
:100FA000068CF78DE02DB801CE01DF91CF911F9116
:100FB0000F910994FC0180850895FC0187810895B3
:100FC000FC0186810895FC01848108950F931F938D
:100FD000CF93DF93EC01062F142F8E85813120F4FF
:100FE000882329F0411103C00E9403021E868E85CA
:100FF000811112C08D8591E09093CA038093EC0318
:101000001092CB031092ED0360E4111101C060E077
:101010008BE894E00E943D07602F8BE894E00E94EB
:101020003D07123041F48E858F5F8E87DF91CF911F
:101030001F910F9108950E9403021E86F7CF089515
:1010400090E080E00895CF93DF93DC01FB0184E022
:10105000EB0119928A95E9F714968C911497808385
:1010600017968C911797818318968C911897828385
:1010700015968C918383DF91CF91089541E0682F7D
:1010800080E10E94060210928203809381030895FA
:101090000F931F93CF93DF93EC018CE090E00E94BD
:1010A0003E088E01065D1F4FE6960E94F306F8018A
:1010B000819391938F01EC17FD07B9F7DF91CF91E1
:1010C0001F910F910C9403020F931F93CF93DF9303
:1010D0008C01EB0187E0FB0111928A95E9F7F80199
:1010E00086818D83C8010E94480821E02883F80189
:1010F00082A593A592FD2E8397FF02C081E08B838A
:10110000F80184A595A5292F26952695298390FF7A
:1011100002C081E08C83F801828D938D95FF02C01F
:1011200081E08D83DF91CF911F910F910895CF932F
:10113000DF93EC0182E090E00E943E080E94F306FB
:101140009BA78AA70E9403022AA53BA533704AE009
:10115000429FC001439F900D11242D853E85820F33
:10116000931F9C878B87DF91CF910895FB0101909E
:101170000020E9F73197AF01461B570BDC01ED91D9
:10118000FC910280F381E02D09948F929F92AF929F
:10119000BF92EF92FF920F931F93CF93DF93CDB740
:1011A000DEB7A1970FB6F894DEBF0FBECDBF7C01AE
:1011B000FA01CB0119A2223008F42AE08E010F5D5A
:1011C0001F4F822E912CB12CA12CBF01A50194019F
:1011D0000E949115F901CA016A300CF5605DD801D1
:1011E0006E938D01232B242B252B79F790E080E043
:1011F000109721F0BD01C7010E94B608A1960FB655
:10120000F894DEBF0FBECDBFDF91CF911F910F913C
:10121000FF90EF90BF90AF909F908F900895695C82
:10122000DECFCF92DF92EF92FF920F931F93CF9377
:10123000DF9377FF1DC06A017B01EC016DE20E9424
:1012400050038C0144275527BA014C195D096E09DA
:101250007F092AE0CE010E94C508800F911FDF910F
:10126000CF911F910F91FF90EF90DF90CF90089555
:101270002AE0DF91CF911F910F91FF90EF90DF90C7
:10128000CF900C94C508CF93DF93EC01803191058A
:1012900080F460E38EEE93E00E94500360E38EEEF4
:1012A00093E00E94500360E38EEE93E00E945003AF
:1012B00008C08F3F910591F388F3C11580E1D807ED
:1012C00090F3AE0170E060E020E18EEE93E00E94CA
:1012D000C50860E28EEE93E0DF91CF910C9450034D
:1012E00060E871E00C94B6080F931F93CF93DF93DF
:1012F000EC010E9450038C01CE010E947009800F06
:10130000911FDF91CF911F910F9108950F931F931C
:10131000CF93DF938C01D0E0C0E06115710519F027
:101320000E94B608EC01C8010E9470098C0F9D1F35
:10133000DF91CF911F910F9108951F93CF93DF936A
:10134000FC0123893489232B09F478C0EC0182E065
:1013500090E00E943E080E94F3069BA78AA70E9485
:1013600003028AA59BA593FF0EC08B81882359F0A9
:101370006EE38EEE93E00E94500363E871E08EEE20
:1013800093E00E9486098AA59BA597FF57C081E03C
:101390008093CA0381E18093EC031092CB031092F7
:1013A000ED036CE08BE894E00E943D0780E00E9432
:1013B000A60141E068E081E10E94060210928203EA
:1013C000809381030E94F3062EA53FA510E08217AB
:1013D000930719F09FA78EA711E00E94F30628A992
:1013E00039A98217930719F099AB88AB11E00E94D5
:1013F000F3062AA93BA98217930719F09BAB8AAB86
:1014000011E00E94F3062CA93DA98217930791F0E1
:101410009DAB8CAB0E9403022CA93DA94AA95BA9F4
:1014200068A979A9EB89FC898EA59FA5DF91CF9149
:101430001F9109940E9403021111EECFDF91CF9109
:101440001F9108956115710511F00C94B60890E094
:1014500080E00895CF93DF93EC0162E971E08EEEB6
:1014600093E00E94220ABE018EEE93E00E9486095C
:1014700040E060E08DE096E00E94CB0467E971E017
:101480008DE096E00E94220A42E060E08DE096E066
:101490000E94CB048DE096E00E943B05BE018DE0EA
:1014A00096E0DF91CF910C94220ACF92DF92EF92D7
:1014B000FF920F931F93CF93DF93CDB7DEB72C9797
:1014C0000FB6F894DEBF0FBECDBF8C010E94480856
:1014D000D801ED91FC9106A8F7A9E02D4CE0BE01E2
:1014E0006F5F7F4FC801099567EB71E08EEE93E067
:1014F0000E94220ABE016F5F7F4F8EEE93E00E9432
:10150000220AF801E6A4F7A462EC71E08EEE93E003
:101510000E94220AC7010E944309D8019A968D9120
:101520009C9165EA71E092FF02C06DE971E08EEE78
:1015300093E00E94220AF80182A593A562EB71E074
:1015400097FF02C06DEA71E08EEE93E00E94220ADE
:10155000D8019D968C91E82EE694E694F12C67ECE8
:1015600071E08EEE93E00E94220ABAE0EB16F104DD
:1015700028F460E28EEE93E00E940004A70170E080
:1015800060E08EEE93E00E94110960E28EEE93E03F
:101590000E945003D12CC12CEFE0EE1AF108CE14BA
:1015A000DF044CF46AE28EEE93E00E940004FFEF49
:1015B000CF1ADF0AF4CF8EEE93E00E9470096DEC33
:1015C00071E08EEE93E00E948609780186E1E80ED4
:1015D000F11C6801A6E3CA0ED11CF701819191911B
:1015E0007F010E944309CE14DF04B9F78EEE93E029
:1015F0000E94700981E08093CA0381E18093EC032B
:101600001092CB031092ED0360E08BE894E00E940F
:101610003D0780E00E94A60141E060E281E10E9476
:101620000602109282038093810380E1E82EF12C60
:101630000E94F3060E944309F1E0EF1AF108C1F796
:101640000E9403028EEE93E00E947009D801ED9192
:10165000FC910288F389E02DC8010995882331F0B7
:101660006AE172E08EEE93E00E94220AD801ED91C9
:10167000FC9102A4F3A5E02DC8010995882331F05F
:1016800065E272E08EEE93E00E94220AD801ED91AD
:10169000FC910680F781E02DC8010995182F6BE2B7
:1016A00072E08EEE93E00E94220A412F50E070E03B
:1016B00060E08EEE93E00E94110960E28EEE93E00E
:1016C0000E9450038EEE93E00E9470092C960FB694
:1016D000F894DEBF0FBECDBFDF91CF911F910F9168
:1016E000FF90EF90DF90CF900895FF920F931F939C
:1016F000CF93DF938C01F62EC62FD0E0FC018381BF
:101700002B96882399F16EE38EEE93E00E945003AE
:1017100063E372E08EEE93E00E94220A62E472E0DC
:101720008EEE93E00E94220A4F2D50E070E060E0C0
:1017300020E18EEE93E00E94C50866E472E08EEE32
:1017400093E00E94220AFE01EE0FFF1FE00FF11F3F
:101750004081518170E060E020E18EEE93E00E94D4
:10176000C50869E28EEE93E00E94740981E08093DF
:10177000CA0381E18093EC031092CB031092ED0336
:101780006F2D8BE894E00E943D07CC0FDD1FC00F4A
:10179000D11F888199810E946C07DF91CF911F91A1
:1017A0000F91FF900C9403021F93CF93DF93EC01F2
:1017B000162F8A8D9B8D9D7F91609B8F8A8F62E013
:1017C000CE010E94750B11110CC08A8D9B8D9E7FDE
:1017D0009B8F8A8F62E0CE01DF91CF911F910C9495
:1017E000750BDF91CF911F9108951F93CF93DF93D6
:1017F000EC01162F8A8D9B8D93609B8F8A8F62E000
:10180000CE010E94750B11110CC08A8D9B8D9E7F9D
:101810009B8F8A8F62E0CE01DF91CF911F910C9454
:10182000750BDF91CF911F910895FC016087268D84
:10183000378D662331F03260378F268F64E00C9449
:10184000750B3D7FF9CFFC016783228D338D6623B5
:1018500031F03F7B338F228F62E00C94750B306444
:10186000F9CFFC016683828D938D9C013E7F338F7F
:10187000228F662339F03062338F228F62E0CF01EE
:101880000C94750B9E7D938F828FF8CFFC0165833E
:10189000228D338D662339F03061FC01338F228F26
:1018A00062E00C94750B3F7EF8CFFC01648320A1AD
:1018B00031A1207F6F70262B31A320A365E00C940B
:1018C000750B0F931F93CF93DF93EC018B818823CC
:1018D00089F06EE38EEE93E00E9450036BE472E0B9
:1018E0008EEE93E00E94220A6AE572E08EEE93E0AB
:1018F0000E94860981E08093CA0380E18093EC0313
:101900001092CB031092ED038E01065E1F4FA4963A
:10191000F801819191918F010E946C070C171D07AE
:10192000B9F7DF91CF911F910F910C940302EF92C1
:10193000FF920F931F93CF93DF93EC017B018B8179
:101940008823E9F06EE38EEE93E00E9450036DE58C
:1019500072E08EEE93E00E94220A68E28EEE93E03F
:101960000E945003A70170E060E02AE08EEE93E051
:101970000E94C50869E28EEE93E00E9474090C8D06
:101980001D8D0F7011274D855E85BA014E155F05BF
:1019900008F4B7019801205F3F4F8F859889681739
:1019A000790708F4CB01841B950B6AE070E00E9474
:1019B0007D158B0186E0000F111F8A95E1F7022B40
:1019C000132B8A8D9B8D8960906C9B8F8A8F62E030
:1019D000CE010E94750B1D8F0C8F63E0CE010E941B
:1019E000750B65E0CE01DF91CF911F910F91FF90B4
:1019F000EF900C94750BCF93DF93EC018B818823D0
:101A000089F06EE38EEE93E00E9450036AE672E086
:101A10008EEE93E00E94220A6AE572E08EEE93E079
:101A20000E948609E881F9810480F581E02D60E05B
:101A3000CE0109951B8E1A8ECE01DF91CF910C94A9
:101A4000610C1F93CF93DF93EC018B81882389F086
:101A50006EE38EEE93E00E9450036FE672E08EEE2E
:101A600093E00E94220A6AE572E08EEE93E00E9403
:101A7000860910928203109281031092CB03109278
:101A8000ED031092C90311E01093C8031092A30351
:101A900061E082E10E949A0261E083E10E949A0281
:101AA0008091B9008E7F8093B9008091B9008D7FBD
:101AB0008093B90088E48093B80085E48093BC00EB
:101AC0001093CA0381E18093EC031092CB03109230
:101AD000ED030E94030281113CC08B81882359F0E1
:101AE0006EE38EEE93E00E94500364E772E08EEEA8
:101AF00093E00E94860984E098E59F8B8E8B198E77
:101B0000188E83E090E09B8F8A8FE881F981028CA8
:101B1000F38DE02D61E070E0CE01099580E098E062
:101B20009F8F8E8F81E890E999A388A31BA21AA2A8
:101B30001DA21CA21FA21EA219A618A6CE010E94B9
:101B4000610C81E090E09B8F8A8F62E0CE010E9461
:101B5000750B81E0DF91CF911F910895CF93DF93B3
:101B600000D000D0CDB7DEB7DC01ED91FC9106A42A
:101B7000F7A5E02DBE016F5F7F4F09958C8167E867
:101B800072E0882311F061E872E08EEE93E00E942B
:101B9000220A8A8167E872E0882311F06DE872E01A
:101BA0008EEE93E00E94220A8B816DE972E0882319
:101BB00011F063E972E08EEE93E00E94220A8EEE4D
:101BC00093E00E9470090F900F900F900F90DF919B
:101BD000CF910895CF93DF9300D000D000D01F9213
:101BE000CDB7DEB7DC01ED91FC9104A4F5A5E02DA5
:101BF000BE016F5F7F4F09958C816DEA71E088238C
:101C000011F062EB71E08EEE93E00E94220A8D816A
:101C10006EEA72E0882311F067EA72E08EEE93E0DC
:101C20000E94220A8F816DEB72E0882311F065EB30
:101C300072E08EEE93E00E94220A65EC72E08EEE76
:101C400093E00E94220A4A8150E070E060E02AE0BE
:101C50008EEE93E00E94C5086EEC72E08EEE93E08B
:101C60000E94220A4B8150E070E060E02AE08EEE94
:101C700093E00E94C5088EEE93E00E9470092796BB
:101C80000FB6F894DEBF0FBECDBFDF91CF910895A0
:101C9000DF92EF92FF920F931F93CF93DF938C010C
:101CA000EB01D42EDC01ED91FC91048CF58DE02D3F
:101CB00009957C01D801ED91FC9100A0F1A1E02DE6
:101CC000C8010995209799F1BAE0BD1580F51882F1
:101CD00021E0E21AF108A2E0EA16F10440F5FE0163
:101CE00025E00AE010E030E22150243011F00097A6
:101CF000E1F0B8010E947D15805D8483CB013197AE
:101D00002111F2CF8C818D838B818C838EE28B832A
:101D100066ED72E0CE010696DF91CF911F910F9193
:101D2000FF90EF90DF900C94C2153483E8CFDF91E1
:101D3000CF911F910F91FF90EF90DF900895CF9278
:101D4000DF92EF92FF920F931F93CF93DF937A016D
:101D50008901892BA9F56EE972E08FE695E00E9472
:101D6000C2156FE675E089E795E00E94C2156BED3C
:101D700072E083E895E00E94C215E5E9F5E082E4AF
:101D8000DF011D928A95E9F710926E05E0918D05AD
:101D9000F0918E05309719F083E895E00995E09170
:101DA0009105F0919205309701F182E891E0DF9181
:101DB000CF911F910F91FF90EF90DF90CF900994FA
:101DC000872F807F73FB772770F9782B7A60709369
:101DD000690510926A0510926B057A3209F4A0C069
:101DE00068F47A50723008F455C0DF91CF911F919A
:101DF0000F91FF90EF90DF90CF9008957A34A9F77C
:101E000086E0369527958A95E1F72F73332794E07E
:101E1000EE0CFF1C9A95E1F7B0E1EB22FF24C8011C
:101E2000892F992782958F70E82AF92A4CE34E9DD5
:101E3000C0014F9D900D1124820F931F202F2F71F1
:101E4000EEE12E9F9001112405FFA8C0821B930B89
:101E5000E0918F05F0919005309739F2209193052C
:101E6000309194052817390709F4BFCF9093940552
:101E7000809393056CE370E00E947D15962F682F88
:101E8000892FDF91CF911F910F91FF90EF90DF90FD
:101E9000CF9009946370660FC12ED22EC62FD0E06A
:101EA000FE01E759FA4F7F018681C659DA4F1813B0
:101EB00030C08E81281329C0108B288B1092810589
:101EC000663019F569E775E08FE695E00E94B9156F
:101ED000892BB9F463E875E089E795E00E94B915AC
:101EE000892B79F069E775E083E895E00E94C215D7
:101EF000E0918D05F0918E05309719F083E895E01B
:101F0000099580917505C81204C08E81D81609F410
:101F10006CCFD70116961C930E831092770565CF70
:101F2000862F807180936C056F70C62FCC0FCC0FFD
:101F300080916E05C81748F4E0919105F0919205E3
:101F4000309719F085E995E00995C0936E05809169
:101F50006C0590916D05891749F080936D05E5E951
:101F6000F5E082E4DF011D928A95E9F7EC2FF0E0BD
:101F7000E759FA4FF4A6E1E0EC0FF0E0E759FA4F29
:101F8000E4A6E2E0EC0FF0E0E759FA4F14A7CD5FCA
:101F9000EC2FF0E0E759FA4F04A727CF820F931FE9
:101FA00057CF1F920F920FB60F9211242F933F938A
:101FB0008F939F93AF93BF938091790390917A030E
:101FC000A0917B03B0917C033091780323E0230F31
:101FD0002D3758F50196A11DB11D209378038093EC
:101FE000790390937A03A0937B03B0937C03809151
:101FF0007D0390917E03A0917F03B09180030196B1
:10200000A11DB11D80937D0390937E03A0937F0358
:10201000B0938003BF91AF919F918F913F912F918A
:102020000F900FBE0F901F90189526E8230F029671
:10203000A11DB11DD2CF1F920F920FB60F92112486
:102040002F933F934F935F936F937F938F939F93C0
:10205000AF93BF93EF93FF938EEE93E00E94DF0365
:10206000FF91EF91BF91AF919F918F917F916F9170
:102070005F914F913F912F910F900FBE0F901F9046
:1020800018951F920F920FB60F9211242F938F93D2
:102090009F93EF93FF93E091FE03F091FF03808104
:1020A000E0910404F091050482FD1BC090818091B1
:1020B00007048F5F8F7320910804821741F0E0912D
:1020C0000704F0E0E251FC4F958F80930704FF91E5
:1020D000EF919F918F912F910F900FBE0F901F90B6
:1020E00018958081F4CF1F920F920FB60F92112492
:1020F0002F933F934F935F936F937F938F939F9310
:10210000AF93BF93EF93FF938091B900887F8036A0
:1021100009F44AC0F0F5883209F4A5C018F58031F9
:1021200009F499C0B8F4882309F4F5C0883009F49B
:1021300092C0FF91EF91BF91AF919F918F917F914D
:102140006F915F914F913F912F910F900FBE0F9024
:102150001F901895883109F486C0803251F780931A
:10216000C70314C0803409F49BC040F48033B9F332
:102170008833F9F68093C70385ECAEC0803509F447
:1021800083C0883509F494C0883499F60E946704A6
:10219000D0CF883909F48AC038F5883729F050F44F
:1021A000883611F0803729F683E08093C9031092B6
:1021B0006A0355C0883809F479C0803919F080382D
:1021C00009F0B7CF80916A03803208F06FC0E091C8
:1021D0006A0381E08E0F80936A038091BB00F0E078
:1021E000E65BFC4F80833BC0803B39F0D0F4803A03
:1021F00009F477C0883A09F09CCF84E08093C90342
:102200001092490310924803F0E0E0E009958091B4
:10221000480381110FC081E0809348031092280386
:1022200009C0803C09F4A8CF883C09F4A5CF883BBD
:1022300009F07FCFE091490381E08E0F809349033D
:10224000F0E0E85DFC4F80818093BB0090914903F2
:102250008091480329C08091A4038093BB0085EC42
:102260008093BC0066CF9091C6038091C5039817F8
:1022700058F5E091C60381E08E0F8093C603F0E02D
:10228000EB55FC4F8081E9CFE091C60381E08E0FD2
:102290008093C6038091BB00F0E0EB55FC4F808338
:1022A0009091C6038091C5039817C8F285E8D8CFEE
:1022B000E091C60381E08E0F8093C6038091BB003E
:1022C000F0E0EB55FC4F80838091C80381115ECF15
:1022D00081E08093A30384EA8093BC001092C90339
:1022E00028CF85EC8093BC001092C90380916A03CB
:1022F000803230F4E0916A03F0E0E65BFC4F10823C
:1023000060916A0370E08AE493E0F0E0E0E0099510
:1023100010926A030ECF1092C70338CF1F920F920C
:102320000FB60F9211242F933F934F935F936F93A8
:102330007F938F939F93AF93BF93EF93FF9380917E
:1023400098040E94710220919C0430919D042F5F9B
:102350003F4F30939D0420939C0490919B049536AD
:1023600018F096E09093970490919704943009F4B4
:1023700066C0B8F49230F1F0933009F444C0909103
:102380009A04992309F46BC081117AC08091990451
:10239000882309F463C08091990461E00E949A0245
:1023A0005EC0953009F457C0963049F791E090939C
:1023B00068054FC08111E3CF20919C0430919D04AA
:1023C0002436310528F410929D0410929C04D7CF36
:1023D0001092680510929B04E0919B0491E09E0F7F
:1023E00090939B04F0E020919C0430919D04EE0FAB
:1023F000FF1FE956FB4F3087278310929D041092F0
:102400009C0493E019C0813009F0B9CFE0919B049E
:1024100091E09E0F90939B04F0E020919C043091FA
:102420009D04EE0FFF1FE956FB4F30872783109264
:102430009D0410929C0494E090939704A0CF88236D
:1024400059F220919C0430919D042536310508F401
:1024500096CF95E0F1CF811192CFB5CF2D9AFF9114
:10246000EF91BF91AF919F918F917F916F915F910C
:102470004F913F912F910F900FBE0F901F90189585
:1024800080919904882321F08091990460E086CF9F
:102490002D98E5CFEEEEF3E01382128288EE93E002
:1024A000A0E0B0E084839583A683B7832EE031E07B
:1024B0003183208325EC30E03587248724EC30E01D
:1024C0003787268720EC30E0318B208B21EC30E001
:1024D000338B228B22EC30E0358B248B26EC30E0E2
:1024E000378B268B118E128E138E148EEBE8F4E050
:1024F0001382128284839583A683B78380E291E05E
:1025000091838083EDE0F6E01382128281E081877F
:102510001486138686E791E091838083E7E9F4E0EF
:1025200089E081831382E9EDF5E083E1DF011D920B
:102530008A95E9F7E7EDF5E082E391E09183808306
:102540008FE0858BE9E6F5E08EE6DF011D928A9546
:10255000E9F70895CF93DF93CDB7DEB72C970FB689
:10256000F894DEBF0FBECDBF789484B5826084BD81
:1025700084B5816084BD85B5826085BD85B5816087
:1025800085BD80916E00816080936E001092810005
:1025900080918100826080938100809181008160C0
:1025A0008093810080918000816080938000809181
:1025B000B10084608093B1008091B000816080930D
:1025C000B00080917A00846080937A0080917A00D4
:1025D000826080937A0080917A00816080937A0093
:1025E00080917A00806880937A001092C10060E048
:1025F00082E00E94C80260E083E00E94C80260E0BE
:1026000085E00E94C80260E087E00E94C80260E0A6
:1026100086E00E94C80260E084E00E94C80261E097
:102620008DE00E94C802E091FE03F091FF0382E07A
:102630008083E091FA03F091FB031082E091FC03A8
:10264000F091FD038FEC808310920604E091020468
:10265000F091030486E08083E0910004F09101048E
:10266000808180618083E0910004F0910104808189
:1026700088608083E0910004F0910104808180688B
:102680008083E0910004F091010480818F7D80833C
:1026900064EE72E08EEE93E00E94860964EF71E0D2
:1026A00080E090E00E941E0310921B068CE3809352
:1026B0001A061092110610921206E6E9F2E0C59091
:1026C000D490E8E9F2E0F490E9E9F2E0E491E093F3
:1026D0001306EAE9F2E0E491E0931406EBE9F2E094
:1026E000E491E093150610E000E00F1558F4F801AE
:1026F000EC0DFD1D64918DE096E00E94AD040F5F2E
:102700001F4FF3CF109217060E941D058BEA90E031
:10271000909319068093180664E670E080E090E0DC
:102720000E941E030E941D0582E08093160640E071
:1027300060E08DE096E00E94CB046DEE72E08DE0EB
:1027400096E00E9486096AEF72E08DE096E00E94B2
:10275000220A60ED77E080E090E00E941E030E9474
:102760001D0587ED95E00E94210D87ED95E00E9403
:1027700097089093770380937603AC0170E060E054
:102780002AE08EEE93E00E94C5088EEE93E00E9450
:10279000700981E08093DA0507EA10E0F8014591BD
:1027A000549161E070E087ED95E00E94C207F80166
:1027B0006591749187ED95E00E94970C60E087ED3C
:1027C00095E00E94310C60E087ED95E00E94230CBB
:1027D0006091000187ED95E00E94550C8FE99EE025
:1027E0009093EB058093EA058AE29AE090938E0538
:1027F00080938D0500E010E08FB7F894C0907903C6
:10280000D0907A03E0907B03F0907C038FBF82E04E
:102810000E947102892B59F464E073E08EEE93E01C
:102820000E94860961E087ED95E00E94F50B83E048
:102830000E947102892B59F467E073E08EEE93E0F9
:102840000E94860961E087ED95E00E94D40B8FB766
:10285000F8948090790390907A03A0907B03B090D5
:102860007C038FBF8091020190910301A09104012C
:10287000B091050188159905AA05BB05D8F587E033
:102880000E947102892B09F019C1609100017091B9
:1028900001016F30710504F56F5F7F4F7093010187
:1028A0006093000187ED95E00E94550C6CE073E0A9
:1028B0008EEE93E00E94220A4091000150910101A6
:1028C000052E000C660B770B8EEE93E00E9411092B
:1028D0008EEE93E00E94700984EF880E81E0981ECE
:1028E000A11CB11C8092020190920301A0920401EC
:1028F000B092050187ED95E00E949D098091060147
:1029000090910701A0910801B09109018C159D05D6
:10291000AE05BF0508F0C6C087ED95E00E94970898
:10292000909377038093760320917403309175031D
:1029300082179307B1F14CE0BE016F5F7F4F87EDC7
:1029400095E00E94480E61E273E08EEE93E00E94F3
:10295000220ABE016F5F7F4F8EEE93E00E948609D0
:1029600040E060E08DE096E00E94CB0461E273E01D
:102970008DE096E00E94860942E060E08DE096E0FE
:102980000E94CB04BE016F5F7F4F8DE096E00E94F6
:1029900086098091760390917703909375038093D5
:1029A00074036DE673E087ED95E00E946408809102
:1029B0006E0380936C0390916B03891709F464C0D4
:1029C0006DE673E087ED95E00E94640867EC72E0C5
:1029D0008EEE93E00E94220A40916E0350E070E078
:1029E00060E02AE08EEE93E00E94C5088EEE93E050
:1029F0000E9470098091700332E5A32E811102C0FC
:102A00002DE2A22E8091730393E5B92E811102C0AD
:102A10008DE2B82E40E066E48DE096E00E94CB04A3
:102A20006A2D8DE096E00E9450036B2D8DE096E0BC
:102A30000E9450036A2D8EEE93E00E9450036B2D8E
:102A40008EEE93E00E94740940E064E68DE096E02B
:102A50000E94CB0461EE72E08DE096E00E94220AB3
:102A600040E064E68DE096E00E94CB0440916E0366
:102A700050E070E060E02AE08DE096E00E94C5083A
:102A800080916C0380936B0388EEC80E83E0D81EA0
:102A9000E11CF11CC0920601D0920701E0920801EE
:102AA000F09209010115110509F4A6CE0E94CB038D
:102AB000882309F4A1CE0E9400009ECE86E00E94E9
:102AC0007102892B59F46091000170910101161671
:102AD00017060CF001CF61507109E0CE84E00E942E
:102AE0007102892B09F0F8CE6091DC0581E068273E
:102AF00087ED95E00E94460CEFCEAA1BBB1B51E16F
:102B000007C0AA1FBB1FA617B70710F0A61BB70B5D
:102B1000881F991F5A95A9F780959095BC01CD0102
:102B20000895A1E21A2EAA1BBB1BFD010DC0AA1F0E
:102B3000BB1FEE1FFF1FA217B307E407F50720F026
:102B4000A21BB30BE40BF50B661F771F881F991FA1
:102B50001A9469F760957095809590959B01AC01EA
:102B6000BD01CF010895EE0FFF1F0590F491E02DF8
:102B70000994FB01DC018D91019080190110D9F3BA
:102B8000990B0895FB01DC0101900D920020E1F703
:062B90000895F894FFCF48
:102B96000500E803000090010000000000000004AA
:102BA60057038E034704BF039D03B10300000000D3
:102BB6003D0710072008D0060907E006D1060000E9
:102BC6000000210DFB0C550CE307230CDD07150C4B
:102BD600DA07460C8403BA07B607B2077907BE07B9
:102BE600970C9708C207F50BD40B310CE007640865
:102BF60023089D09A2078703480E8B03EA0DAE0D35
:102C0600550A000000006805570320081F08E6075C
:102C16000D0A00424C4F434B5F4520666F756E644C
:102C26002E005244533A005244533A200020537423
:102C36006572656F00204D6F6E6F202000202D2D70
:102C46002D0020524453004672657175656E637996
:102C56003D002050493D00205369673D003020204B
:102C66002020312020202032202020203320202028
:102C7600203420202020352020202036202020200F
:102C860037202020203820202020392020202041D5
:102C960020202020422020202043202020204420C5
:102CA6002020204520202020460042617373426F79
:102CB6006F737420004D6F6E6F2000566F6C756DCC
:102CC600653D002D5F73617665526567697374654E
:102CD6007200283078002C203078002D73617665DC
:102CE6005265676973746572730028290073657489
:102CF6004672657175656E6379007465726D0069FB
:102D06006E697400726164696F20666F756E642EF9
:102D160000204241535300202D2D2D2D00204D55CE
:102D260054450020534F46544D55544500202D2DF3
:102D36002D2D2D2D2D2D002054554E454400202D92
:102D46002D2D2D2D002053544552454F0020204D4A
:102D56004F4E4F20002020525353493A2000202046
:102D6600534E523A2000204D487A00202020202041
:102D760020202000526164696F2E2E2E005363615D
:102D86006E2073746174696F6E0020524441353849
:102D960030372100557000446F776E00D093D18094
:102DA600D0BED0BCD0BAD0BED181D182D18C3A208F
:082DB60000465245513A0000AD
:00000001FF
