:100000000C94EC0D0C94090E0C94090E0C94090E32
:100010000C94090E0C94090E0C94090E0C94090E04
:100020000C94090E0C94090E0C94090E0C94090EF4
:100030000C94090E0C94090E0C94090E0C94090EE4
:100040000C94090E0C94090E0C94090E0C94090ED4
:100050000C94090E0C94090E0C94090E0C94090EC4
:100060000C94090E0C94090EFFFFC0FFFFC0FFFFA8
:10007000C0FFFFC0C0C0C0C0FFFF1E1EC0C0C0C0C8
:10008000C0C0C0C0C0C0C0C0C0C0C0C0C0C00000F0
:100090000000000000000000000000000000000060
:1000A0000000000000000000000000000000000050
:1000B0000000000000000000000000000000000040
:1000C000000000000000FF808080000000000000B1
:1000D0000000000000000000000000000000000020
:1000E00000000000000000808080FF000000000091
:1000F0000000000000000000000000000000000000
:1001000000003F00000000000000000000008080B0
:1001100080800000000000000000000000000000DF
:100120000000000000003F00000000000000008010
:10013000808080000000000000000000000000003F
:10014000000000000000000000003F000000000070
:10015000000000000000FF000000000000000000A0
:10016000000000000000000000000000000000008F
:1001700000000000000000808080808080800000FF
:10018000000000000000000000000000000000006F
:10019000010303030100000000000000C0E0E0E0F4
:1001A000C00000000000000000000000000000008F
:1001B0000000003F3E3C3C3C3E3F0000000000FF92
:1001C0003F1F1F1F3FFF0000000000000000000055
:1001D000000000000000000000000000000000001F
:1001E000000000000000000000000000000000000F
:1001F00000000000000000000000000000000000FF
:1002000000000000000000000000000000000000EE
:1002100000000000000000000000000000000000DE
:100220000000080B0C0F0000000000001824E41868
:1002300000000000000000000000000000000000BE
:1002400000000000000000000000000000000000AE
:10025000000000000000000000000000000000009E
:10026000000000000000000000000000000000008E
:10027000000000000000000000000000000000007E
:10028000000000000000000000000000000705055D
:100290000A0F0000000000000CFC000018F800002D
:1002A000000000000000000000000000000000004E
:1002B0000C030C030C0000000000000098E018E0A4
:1002C0009800000000000000000000000000000096
:1002D0000000000000003F0000000000000000805F
:1002E0008080FF808080000000000000000000008F
:1002F0000000000000000000000103070F1F0000C5
:100300000000000080C0E0F0F8FC000000000000E9
:1003100000000000000000000000000008103F1076
:1003200008000000000000000804FE0408000000AF
:1003300000000000000000000000000000000000BD
:10034000001F00001F0000000000000000E6000089
:10035000E6000000000000000000000000000000B7
:10036000000000000F101F001F0000000000000030
:100370008040FE00FE0000000000000000000000C1
:10038000000000000000000000003F00000000002E
:1003900000000080808080808080000000000000DD
:1003A000000000000000000000000000000000004D
:1003B00000000000000000808080FF80808000003E
:1003C000000000000000000000000000000000002D
:1003D00000003F0000000000000000808080FF005F
:1003E000000000000000000000000000000000000D
:1003F0000000000004081F080400000000000000C6
:100400000000FE00000000000000000000000000EE
:10041000000000000000000000003F00000000009D
:10042000000000000000FF8080800000000000004D
:1004300000000000000000000000000000000001BB
:10044000000000000000000040404050E04000007C
:10045000000000000000000000000000000000009C
:1004600000000100000000000000000040E05040DB
:1004700040400000000000000000000000000000FC
:10048000000000000F00000000000000000000005D
:10049000E0202020202000000000000000000000DC
:1004A000000000000000000000000000000000004C
:1004B0000000000040E04040E0400000000000007C
:1004C00000000000000000000000000000031F0307
:1004D00000000000000000007CFCFCFC7C00000030
:1004E000000000000000000000000000000000000C
:1004F0000F0F0F0F0F0000000000000080F0FEF053
:10050000800000000000000000000000000000006B
:1005100000000000000000000000000000000000DB
:1005200000000000000000000000000000000000CB
:10053000000000000000000000000F0000000000AC
:10054000000000000000F4000000000000000000B7
:100550000000000000000000000000000F000F007D
:10056000000000000000000000000000000000008B
:10057000000000000000000000000000000000017A
:1005800001030D01030D0000000000203CE0203CB1
:10059000E02000000000000000000000000000005B
:1005A00000000007081F08040000000000000018F9
:1005B00084FE8478000000000000000000000000BD
:1005C00000000000000708080700010608000000FE
:1005D0000000808418608038444438000000000027
:1005E00000000000000000000000000007080906ED
:1005F0000000000000000078C48464186C0400004F
:1006000000000000000000000000000000000000EA
:10061000000F0000000000000000000000000000CB
:1006200000000000000000000000000000000000CA
:1006300000000000000106080000000000000000AB
:1006400000FC03000000000000000000000000802B
:10065000000000000000000008060100000000008B
:10066000000000000003FC0000000000000000008B
:10067000800000000000000000000000050E0500E2
:10068000000000000000000000000000000000006A
:10069000000000000000000000000000000000005A
:1006A0000000010000000000000000404040F04059
:1006B00040400000000000000000000000000000BA
:1006C000000000000000000000000000000000002A
:1006D0000001060000000000000000000000000013
:1006E000000000000000000000000000000000000A
:1006F000000000002020200000000000000000009A
:1007000000000000000000000000000000000000E9
:1007100000000000000000000000040000000000D5
:1007200000000000000000000000000000000000C9
:1007300000000F0000000000000000000CF00000AE
:1007400000000000000000000000000000000000A9
:10075000000000030408040300000000000000F093
:10076000080408F000000000000000000000000085
:10077000000000000000000001020F000000000067
:10078000000000000000FC0000000000000000006D
:10079000000000000000000000000006080804033C
:1007A000000000000000000C14244484000000003D
:1007B0000000000000000000000000000000000435
:1007C00008080502000000000000001804844830FA
:1007D0000000000000000000000000000000000019
:1007E000000000000001060F0000000000000030C3
:1007F000509010FC100000000000000000000000FD
:1008000000000000000000030D09080800000000BF
:100810000000009804048870000000000000000040
:1008200000000000000000000000000304080804AD
:1008300000000000000000F0488448300000000084
:1008400000000000000000000000000000000008A0
:1008500008080B0C00000000000000001CE0000075
:100860000000000000000000000000000000000088
:100870000000000205080502000000000000003032
:100880004884483000000000000000000000000024
:100890000000000000000003040804030000000042
:1008A00000000008844488F0000000000000000000
:1008B0000000000000000000000000000000010037
:1008C0000000000000000000000004000000000024
:1008D0000000000000000000000000000000000018
:1008E0000000010000000000000000000001060000
:1008F00000000000000000000000000000000000F8
:10090000000000000101020204000000000000805D
:100910004040202010000000000000000000000007
:1009200000000000000000010101010101000000C1
:1009300000000020202020202000000000000000F7
:10094000000000000000000000000004020201019D
:100950000000000000000010202040408000000047
:100960000000000000000000000000000000000681
:100970000808080700000000000000000034408064
:100980000000000000000000000000000000000067
:1009900000010204090909080502010000FC02F92E
:1009A000040408FC8405FA000000000080808080B8
:1009B00080000000000000000708070000000000A1
:1009C00000000C70A020A0700C00000000000000CF
:1009D00000000000000000000000000F08080808E8
:1009E00007000000000000FC84848484780000007C
:1009F00000000000000000000000000000000003F4
:100A00000408080806000000000000F008040408BC
:100A100030000000000000000000000000000000A6
:100A20000000000F0808080403000000000000FC9C
:100A300004040408F00000000000000000000000B2
:100A4000000000000000000F08080808080000006F
:100A5000000000FC84848484840000000000000006
:100A60000000000000000000000000000F0808085F
:100A70000808000000000000FC808080800000006A
:100A80000000000000000000000000000000000363
:100A90000408080808060000000000F008040444E8
:100AA000447800000000000000000000000000008A
:100AB0000000000F000000000F000000000000FC1C
:100AC00080808080FC00000000000000000000002A
:100AD000000000000000000000000F000000000007
:100AE000000000000000FC0000000000000000000A
:100AF0000000000000000000000000000000000FE7
:100B00000000000000000000180404F800000000CD
:100B10000000000000000000000000000000000FC6
:100B20000001020408000000000000FC4080601882
:100B300004000000000000000000000000000000B1
:100B4000000000000F000000000000000000000096
:100B5000FC04040404000000000000000000000089
:100B60000000000000000F0C03000000030C0F0049
:100B70000000FC00807804788000FC000000000089
:100B800000000000000000000000000F060100004F
:100B90000F000000000000FC00806018FC00000056
:100BA0000000000000000000000000000000000342
:100BB0000408080804030000000000F0080404040E
:100BC00008F000000000000000000000000000002D
:100BD0000000000F0808080807000000000000FCE3
:100BE0004040404080000000000000000000000085
:100BF00000000000000000030408080804030000CF
:100C0000000000F00804041C08F6000000000000CA
:100C100000000000000000000000000F08080808A5
:100C200007000000000000FC404040609804000005
:100C300000000000000000000000000000000007AD
:100C400008080808060000000000003884844444B6
:100C5000380000000000000000000000000000005C
:100C60000000000808080F08080800000000000045
:100C70000000FC0000000000000000000000000078
:100C8000000000000000000F000000000F00000046
:100C9000000000F008040408F0000000000000005C
:100CA00000000000000000000000000C0300000035
:100CB000030C000000000000807804788000000031
:100CC000000000000000000000000000000E010015
:100CD000000708070000010E0000F804788000807B
:100CE0007804F80000000000000000000000000090
:100CF00000000804030000030408000000000408CA
:100D000030C0C030080400000000000000000000F7
:100D100000000000000008060100010608000000B5
:100D200000000000807C8000000000000000000047
:100D30000000000000000000000000080808090A88
:100D40000C0000000000000C146484040400000087
:100D50000000000000000000000000000000000093
:100D600000000F0800000000000000000000FF006D
:100D70000000000000000000000080800000000073
:100D800000000000000E0100000000000000000054
:100D90000000F00C00000000000000000000000057
:100DA000000000000000000000080F00000000002C
:100DB000000000000000FF00000000000000000034
:100DC000008080000000000000000000000708070D
:100DD0000000000000000000800000008000000013
:100DE0000000000000000000000000000000000003
:100DF00000000000000000000000000101010101EE
:100E000001000000000000000000000000000000E1
:100E100000000000000804000000000000000000C6
:100E200000000000000000000000000000000000C2
:100E300000000000000000000101010000000000AF
:100E400000000098242424FC0000000000000000A2
:100E500000000000000000000000000F0001010081
:100E600000000000000000FC880404F800000000FE
:100E70000000000000000000000000000000000072
:100E80000101010000000000000000F804040498C3
:100E90000000000000000000000000000000000052
:100EA000000000000101000F00000000000000F839
:100EB000040488FC000000000000000000000000A6
:100EC000000000000000000001010100000000001F
:100ED000000000F8242424E80000000000000000C6
:100EE000000000000000000000000000010F0900E9
:100EF000000000000000000000FC000000000000F6
:100F000000000000000000000000000000000000E1
:100F10000101000100000000000000F9040488FF46
:100F20000000000000000000808080000000000041
:100F30000000000F0001010000000000000000FCA4
:100F4000800000FC00000000000000000000000025
:100F50000000000000000000000900000000000088
:100F60000000000000FC0000000000000000000085
:100F70000000000000000000000000000009000068
:100F8000000000000000000000FF00000000000062
:100F90000000000080800000000000000000000051
:100FA0000F0000010000000000000000FC40B00C39
:100FB0000000000000000000000000000000000031
:100FC00000000000000F0000000000000000000012
:100FD00000FC000000000000000000000000000015
:100FE00000000000000100010100010101000000FB
:100FF00000FC800000FC000000FC0000000000007D
:1010000000000000000000000000000100010100DD
:1010100000000000000000FC800000FC0000000058
:1010200000000000000000000000000000000000C0
:101030000101010000000000000000F8040404F8B1
:1010400000000000000000000000000000000000A0
:10105000000000010001010000000000000000FF8E
:10106000880404F800000000000000800000000078
:10107000000000000000000001010001000000006D
:10108000000000F8040488FF0000000000000000D9
:1010900000000080000000000000000001000100CE
:1010A0000000000000000000FC80000000000000C4
:1010B0000000000000000000000000000000000030
:1010C0000101010000000000000000C82424249851
:1010D0000000000000000000000000000000000010
:1010E00000000000010F01000000000000000000EF
:1010F00000FC0400000000000000000000000000F0
:1011000000000000000000010000000100000000DD
:10111000000000F8040408FC0000000000000000CB
:1011200000000000000000000000000100000001BD
:1011300000000000000000807804788000000000BB
:10114000000000000000000000000000000001009E
:1011500000010000010000000000F804788078041D
:10116000F800000000000000000000000000000087
:101170000000000100000001000000000000000469
:10118000D820D8040000000000000000000000008B
:10119000000000000000000100000001000000004D
:1011A00000000080700F70800000000000000080D0
:1011B00080000000000000000000000101010101AA
:1011C000000000000000000C142444840000000013
:1011D000000000000000000000000000000000000F
:1011E00000070800000000000000000020DF0000F1
:1011F000000000000000000000008000000000006F
:101200000000000000000F000000000000000000CF
:101210000000FF000000000000000000000080004F
:1012200000000000000000000807000000000000AF
:101230000000000000DF20000000000000000000AF
:10124000800000000000000000000000000000001E
:1012500000000000000000C08080404080000000CE
:10126000000000000000000000000000000000007E
:101270000F0808080F00000000000000FC04040430
:10128000FC00000000000000000000000000000062
:1012900000000000070807000000000000000C70BC
:1012A000A020A0700C000000000000000000000062
:1012B000000000000000000F0808080800000000FF
:1012C000000000FC8484848478000000000000009A
:1012D00000000000000000000000000F08080808DF
:1012E00007000000000000FC848484847800000073
:1012F00000000000000000000000000000000000EE
:101300000F0808080800000000000000FC000000B2
:1013100000000000000000000000000000000000CD
:10132000000000000F0808080F0000000000071C64
:10133000E4040404FC0700000000000000000000BA
:10134000000000000000000F080808080800000066
:10135000000000FC848484848400000000000000FD
:1013600000000000000000000000080601000F005F
:101370000106080000000C304080FC80C0300C00EA
:101380000000000000000000000000000000000657
:10139000080808080700000000000018048484847E
:1013A00078000000000000000000000000000000C5
:1013B0000000000F000001060F000000000000FC0C
:1013C00018608000FC000000000000000000000029
:1013D000000000000000000F004021460F00000048
:1013E000000000FC18608000FC000000000000000D
:1013F0000000000000000000000000000F000106D7
:101400000808000000000000FC8040601804000094
:101410000000000000000000000000000000000FBD
:10142000080808080F000000000004FC000000008D
:10143000FC000000000000000000000000000000B0
:1014400000000F0C03000000030C0F000000FC0064
:10145000807804788000FC0000000000000000009C
:10146000000000000000000F000000000F0000005E
:10147000000000FC80808080FC0000000000000074
:10148000000000000000000000000003040808083D
:1014900004030000000000F00804040408F0000049
:1014A0000000000000000000000000000000000F2D
:1014B000080808080F000000000000FC0000000001
:1014C000FC00000000000000000000000000000020
:1014D0000000000F0808080807000000000000FCDA
:1014E000404040408000000000000000000000007C
:1014F00000000000000000030408080806000000C7
:10150000000000F0080404083000000000000000A3
:1015100000000000000000000000000808080F089C
:1015200008080000000000000000FC0000000000AF
:1015300000000000000000000000000000000008A3
:1015400007000000070800000000000004CC30C0C5
:10155000000000000000000000000000000000008B
:101560000000000102040F0402010000000000E07E
:101570001008FC0810E0000000000000000000005F
:10158000000000000000080403000003040800003D
:101590000000040830C0C030080400000000000053
:1015A00000000000000000000000000F000000002C
:1015B000000F0000000000FC0404040404FC070009
:1015C0000000000000000000000080000000000F8C
:1015D000000000000F000000000000C0202020409C
:1015E000FC000000000000000000000000000000FF
:1015F00000000F0000000F0000000F000000FC04BE
:101600000404FC040404FC000000000000000000CE
:101610000000000000000F0000000F0000000F009D
:101620000000FC040404FC040404FC0700000000A7
:101630000000000000000080000008080F0000000B
:101640000000000000000000FC8484848478000016
:1016500000000000000000000000000000000F007B
:101660000000000000000F000000FC8484848478E7
:101670000000FC000000000000000000000000006E
:101680000000000F0000000000000000000000FC4F
:1016900084848484780000000000000000000000C2
:1016A0000000000000000006040808040300000019
:1016B0000000001808048488F0000000000000000A
:1016C0000000000000000000000F000003040808F4
:1016D0000804030000FC8080F00804040408F00003
:1016E00000000000000000000000000000000007F3
:1016F000080808080F0000000000049860404040FF
:10170000FC000000000000000000000000000000DD
:10171000000000000101010000000000000000982E
:10172000242424FC00000000000000000000000051
:101730000000000000000000070809090800000080
:1017400000000000F8840404F8000000000000001D
:101750000000000000000000000000010101010085
:1017600000000000000000FC242424D80000000039
:101770000000000000000000000000000000000069
:10178000010101010000000000000000FC00000059
:101790000000000000000000000000000000000049
:1017A000000000000001010101000000000000072E
:1017B0000CF40404FC07000000000000000000001E
:1017C0000000000000000000010101000000000016
:1017D000000000F8242424E80000000000000000BD
:1017E00000000000000000000000010000010000F7
:1017F00001000000000004D820FC20D804000000F4
:1018000000000000000000000000000000000000D8
:10181000000101000000000000000000880424D83E
:1018200000000000000000000000000000000000B8
:10183000000000010000000100000000000000FCAA
:101840001820C0FC000000000000000000000000A4
:101850000000000000000001080408010000000072
:10186000000000FC1820C0FC000000000000000088
:101870000000000000000000000000000100000166
:101880000100000000000000FC20D008040000005F
:101890000000000000000000000000000000000048
:1018A000010101010100000000000004FC00000033
:1018B000FC0000000000000000000000000000002C
:1018C0000000010100000001010000000000FCC058
:1018D000380438C0FC0000000000000000000000D8
:1018E00000000000000000010000000100000000F6
:1018F000000000FC202020FC000000000000000090
:1019000000000000000000000000000001010100D4
:1019100000000000000000F8040404F800000000CB
:1019200000000000000000000000000000000001B6
:101930000101010100000000000000FC000000FCAB
:101940000000000000000000000000000000000097
:10195000000000010001010000000000000000FF85
:10196000880404F80000000000000080000000006F
:101970000000000000000000010101000000000064
:10198000000000F8040404980000000000000000BB
:101990000000000000000000000000010101010142
:1019A000000000000000000000FC0000000000003B
:1019B0000000000000000000000000000000000126
:1019C000000000010000000000000080700F708027
:1019D0000000000000000080800000000000000007
:1019E0000000000101010F01010100000000F804E6
:1019F0000404FF040404F80000000000000080005C
:101A000000000000000000010000000100000000D4
:101A100000000004D820D8040000000000000000EE
:101A200000000000000000000000000100000000B5
:101A300001000000000000FC04040404FC07000096
:101A40000000000000000000008000000000000115
:101A50000000000100000000000000E0101010FC79
:101A60000000000000000000000000000000000076
:101A70000000010000010000010000000000FC0463
:101A800004FC0404FC000000000000000000000052
:101A90000000000000000100000100000100000043
:101AA0000000FC0404FC0404FC070000000000002B
:101AB00000000000008000000000000101010000A3
:101AC000000000000000000000FC242418000000BA
:101AD0000000000000000000000000000000010005
:101AE00000000000010000000000FC242424180075
:101AF000FC000000000000000000000000000000EA
:101B0000000000010000000000000000000000FCD8
:101B10002424241800000000000000000000000041
:101B200000000000000000000001010000000000B3
:101B300000000000980424F80000000000000000ED
:101B40000000000000000000000001000000010192
:101B5000010000000000FC2020F8040404F800004C
:101B60000000000000000000000000000000000075
:101B70000101010100000000000000CC302020FC29
:101B80000000000000000000000000000000000055
:101B90000000000F0828082808000000000000FCD2
:101BA00084848484840000000000000000000000A1
:101BB000000000000000000005010500000000001A
:101BC000000000F8242424E80000000000000000C9
:101BD000000000000000000011241FBECFEFD8E07D
:101BE000DEBFCDBF11E0A0E0B1E0E8E2F3E202C069
:101BF00005900D92A431B107D9F715E0A4E1B1E049
:101C000001C01D92A032B107E1F70E940B0E0C94A7
:101C100092110C9400000E94311181E090E00E942A
:101C2000890E86E390E063E270E00E94800E4091AE
:101C30000701509108016091090170910A0180919A
:101C40000B0190910C010E945D0F82E090E061E138
:101C500070E00E94800E8CE790E00E94AF0E82E060
:101C600090E06EE370E00E94800E8CE790E00E94AE
:101C7000AF0E88E290E06AE170E00E94800E8EE193
:101C800090E00E948E0E88E590E06AE170E00E948C
:101C9000800E8EE190E00E948E0E8AE090E06DE171
:101CA00070E00E94800E84E190E064E170E00E94A8
:101CB000D00E82E690E06DE170E00E94800E84E13B
:101CC00090E064E170E00E94110F40910D0150918D
:101CD0000E0160910F01709110018091110190919E
:101CE00012010E94DE0F89E190E060E070E00E9446
:101CF000800E80E091E00E9487100E94FC10FFCFD0
:101D0000909317058093160570931505609314053D
:101D1000089590931F0580931E050895CF93DF9338
:101D2000EC0118C0609114057091150540911E05D5
:101D300050911F0580911605909117050E9455112D
:101D40008091140590911505019690931505809347
:101D500014052197209731F7DF91CF910895CF9304
:101D6000DF93EC0118C06091140570911505409146
:101D70001E0550911F0580911605909117050E9430
:101D800055118091160590911705019690931705AE
:101D9000809316052197209731F7DF91CF91089511
:101DA000CF92DF92EF92FF920F931F93CF93DF9327
:101DB000EC018B01E0901605F0901705C09014051A
:101DC000D0901505CB010E948E0E80911405909144
:101DD000150501979093150580931405CE010E9477
:101DE000AF0EF0921705E0921605D0921505C0923D
:101DF0001405CE010E94AF0E809116059091170533
:101E000001979093170580931605C8010E948E0EC6
:101E1000DF91CF911F910F91FF90EF90DF90CF90C6
:101E20000895EF92FF920F931F93CF93DF93EC01EE
:101E30007B01009114051091150511C0C7010E9486
:101E40008E0E8091160590911705019690931705B7
:101E5000809316051093150500931405219720977C
:101E600069F7DF91CF911F910F91FF90EF90089547
:101E70000F931F93082F18E01BC007FF0EC060913F
:101E800014057091150540911E0550911F05809114
:101E90001605909117050E945511000F2091140509
:101EA000309115052F5F3F4F309315052093140592
:101EB000115018F71F910F9108956F927F928F9292
:101EC0009F92AF92BF92CF92DF92EF92FF920F93C9
:101ED0001F93DF93CF9300D000D000D0CDB7DEB7F3
:101EE00049835A836B837C838D839E838D819E81FE
:101EF0006090160570901705009114051091150556
:101F00007C0153E0F694E7945A95E1F7970143E09A
:101F1000220F331F4A95E1F72817390719F0089463
:101F2000E11CF11CAA24BB24882499242CC0E9813B
:101F3000FA81E80DF91D84910E94380F80911605F1
:101F400090911705019690931705809316051093AD
:101F50001505009314050894811C911C0894C11C5C
:101F6000D11C8B819C81C816D90608F3085F1F4FCE
:101F700010931505009314057092170560921605CD
:101F80000894A11CB11CAE14BF0418F4CC24DD24A9
:101F9000E8CF26960FB6F894DEBF0FBECDBFCF9127
:101FA000DF911F910F91FF90EF90DF90CF90BF9046
:101FB000AF909F908F907F906F900895DF93CF9315
:101FC00000D000D000D0CDB7DEB749835A836B83F1
:101FD0007C838D839E8389819A8190931905809358
:101FE00018058B819C8190931B0580931A058D8128
:101FF0009E8190931D0580931C0526960FB6F8943C
:10200000DEBF0FBECDBFCF91DF9108958F929F921B
:10201000AF92BF92CF92DF92EF92FF920F931F93F6
:10202000CF93DF93809016059090170500911405CB
:102030001091150520911C0530911D05E90173E0F3
:10204000D695C7957A95E1F7AE0163E0440F551F29
:102050006A95E1F74217530709F0219690E0409105
:102060001A0550911B05849F9001859F300D949F08
:10207000300D11242C9F60012D9FD00C3C9FD00C63
:102080001124AA24BB2430C0E0911805F091190551
:10209000EC0DFD1D84910E94380F809116059091E2
:1020A0001705019690931705809316051093150553
:1020B000009314050894C11CD11C0894E11CF11C68
:1020C00080911A0590911B05E816F906E8F2085F61
:1020D0001F4F1093150500931405909217058092D9
:1020E00016050894A11CB11CAC16BD0618F4EE240C
:1020F000FF24E6CFDF91CF911F910F91FF90EF90DA
:10210000DF90CF90BF90AF909F908F900895EF9207
:10211000FF920F931F93CF93DF93E0901405F090FD
:102120001505C0911605D0911705082F192F20C04D
:1021300087FF0DC0883A31F0883B39F090E0805439
:10214000904005C080EC90E002C081EC90E00E94DD
:102150000610F0921505E092140580911A059091F1
:102160001B050196C80FD91FD0931705C0931605FC
:10217000F80181918F018823D9F6DF91CF911F91CA
:102180000F91FF90EF9008958BE184B92C9A0895F8
:1021900098E087FF02C0299A01C02998289A2898B8
:1021A000915011F0880FF5CF08952B982C980E942C
:1021B000C8102C9A08952B9A2C980E94C8102C9A1B
:1021C00008952A988AE18A95F1F700C02A9A8FEF3C
:1021D0009DEEA2E081509040A040E1F700C00000D9
:1021E000089580E094E0E4E1F1E0DF019C011D92BC
:1021F00021503040E1F70895CF93DF9381E20E94B0
:10220000D51080E00E94D5108FE70E94D51082E2A1
:102210000E94D51080E00E94D51087E00E94D51062
:102220002B9A2C98C4E1D1E089910E94C81085E0D6
:10223000C431D807C9F72C9ADF91CF910895813026
:1022400039F481EA0E94D51088EC0E94D5100895D7
:10225000823031F480EA0E94D51080EC0E94D510C3
:1022600008950E94C4100E94E1108DE80E94D510CC
:1022700084E10E94D51080E20E94D51080E00E9487
:10228000D5108FEA0E94D5108FEF9DEEA2E081500D
:102290009040A040E1F700C0000081E00E941F11C3
:1022A0000E94F1100E94FC10089541155105E9F0BB
:1022B00041305105B1F5FB01B3E0F695E795BA95CC
:1022C000E1F7F695FE2FEE27F795E795E80FF91F52
:1022D000EC5EFE4F6770707002C0440F551F6A9528
:1022E000E2F78081842B80830895FB0133E0F6952B
:1022F000E7953A95E1F7F695FE2FEE27F795E795E6
:10230000E80FF91FEC5EFE4F6770707081E090E09F
:1023100002C0880F991F6A95E2F780959081892302
:0823200080830895F894FFCFBB
:10232800C6F3F0EDE0EB00680014000A0090000C22
:042338000011000090
:00000001FF
