:100000000C9458000C9480000C9480000C94800098
:100010000C9480000C9480000C9480000C94800060
:100020000C9480000C9480000C9480000C94800050
:100030000C9480000C9480000C9480000C94800040
:100040000C94D5090C9480000C94450A0C941F0A5A
:100050000C9480000C9480000C9480000C94800020
:100060000C94980E0C9480000000000025002800DD
:100070002B00040404040404040402020202020229
:10008000030303030303010204081020408001025C
:1000900004081020010204081020000000080002DB
:1000A00001000003040700000000000000003911F7
:1000B00011241FBECFEFD8E0DEBFCDBF26E0ACE4F9
:1000C000B4E001C01D92AC35B207E1F714E0A0E046
:1000D000B1E0E8E9F8E202C005900D92AC34B10756
:1000E000D9F710E0C8E5D0E004C02197FE010E94D6
:1000F0002F12C735D107C9F70E9400100C944A147B
:100100000C940000FC0160870895FC01678308954A
:10011000FC0166830895FC0165830895FC016483F6
:1001200008950895FC0163830895FC01748B638B2B
:100130000895DC015396ED91FC915497309749F066
:1001400020E030E040E050E060E070E080E090E0EF
:10015000099408950895FC01818992890895FC010C
:10016000878590890895FC01858596850895FC0111
:10017000838594850895FC0181859285089508956D
:1001800008950F931F93CF93DF93EC018A01E881C9
:10019000F981028CF38DE02D0995E881F981068CB7
:1001A000F78DE02DB801CE01DF91CF911F910F9116
:1001B0000994FC01748763870895FC017287618745
:1001C0006130710519F48CEF91E205C06230710560
:1001D00061F480EB9DE19687858780E39AE2908BBE
:1001E00087878AE090E0928B818B0895EF92FF924F
:1001F0000F931F93CF93DF938C01EB010E94DD00DF
:10020000C130D10531F0229731F488E0E82EF12C8D
:1002100002C0E12CF12CF801F58EE48EDF91CF9134
:100220001F910F91FF90EF900895FC018085089534
:10023000FC0187810895FC0186810895FC01858178
:100240000895FC0184810895089580E00895CF9376
:10025000C62F672F80E894E00E94A10C6C2F80E8E5
:1002600094E0CF910C94A10CCF93DF93FC01AC01EF
:10027000485F5F4F20E03191303209F021E0E41710
:10028000F507C9F7222369F0EC018EE691E00E94A0
:10029000090DCE010E94090D8EE2DF91CF910C94E1
:1002A0001A0DDF91CF910895FF920F931F93CF9373
:1002B000DF938C01F62EFC018381C62FD0E08823CA
:1002C00041F18EE30E940F0D83E791E00E94090D3A
:1002D00082E891E00E94090D8F2D90E0A0E0B0E04F
:1002E00040E1BC01CD010E94260D86E891E00E940C
:1002F000090DFE013B96EE0FFF1FE00FF11F60811D
:10030000718180E090E040E10E94260D89E20E9428
:100310001A0D81E080937C0481E180937E04109229
:100320007D0410927F046F2D80E894E00E94A10C60
:100330002B96CC0FDD1FC00FD11F68817981C801BA
:100340000E942701DF91CF911F910F91FF900C9494
:10035000F20D1F93CF93DF93EC01162F8A8D9B8DA7
:100360009D7F91609B8F8A8F62E0CE010E94540135
:1003700011110CC08A8D9B8D9E7F9B8F8A8F62E0AE
:10038000CE01DF91CF911F910C945401DF91CF9159
:100390001F9108951F93CF93DF93EC01162F8A8D41
:1003A0009B8D93609B8F8A8F62E0CE010E945401E7
:1003B00011110CC08A8D9B8D9E7F9B8F8A8F62E06E
:1003C000CE01DF91CF911F910C945401DF91CF9119
:1003D0001F910895FC016087268D378D662311F0EB
:1003E000326002C03D7FFC01378F268F64E00C94A1
:1003F0005401FC016783228D338D662311F03F7B0E
:1004000002C03064FC01338F228F62E00C945401EF
:10041000FC016683828D938D9C013E7F338F228FFA
:10042000662321F03062338F228F03C09E7D938F2D
:10043000828F62E0CF010C945401FC016583228D10
:10044000338D662311F0306101C03F7EFC01338F94
:10045000228F62E00C945401FC0164836F7020A130
:1004600031A1207F262B31A320A365E00C945401F9
:100470000F931F93CF93DF938C01EB01DC01139655
:100480008C918823A9F08EE30E940F0D8BE891E0F8
:100490000E94090D88E20E940F0DCE01A0E0B0E09D
:1004A0004AE0BC01CD010E94260D89E20E941A0D8E
:1004B000D8015C96ED91FC915D97EF70FF271D963A
:1004C0008D919C911E979E01C817D90708F49C0135
:1004D000D8011F964D915C91509770964217530723
:1004E00008F49A01A901481B590BCA016AE070E09F
:1004F0000E94F911EB0186E0CC0FDD1F8A95E1F730
:10050000CE2BDF2BD8015A968D919C915B978960F9
:10051000906C5B969C938E935A9762E0C8010E9400
:100520005401F801D58FC48F63E0C8010E945401C3
:1005300065E0C801DF91CF911F910F910C94540198
:10054000EF92FF920F931F93CF93DF93EC018B8178
:10055000882359F08EE30E940F0D88E991E00E94F4
:10056000090D87EA91E00E94390E81E080937C04B6
:1005700080E180937E0410927D0410927F048E01AE
:10058000065E1F4F7E0184E2E80EF11CF8016191C6
:1005900071918F01CE010E9427010E151F05B1F741
:1005A000DF91CF911F910F91FF90EF900C94F20D7E
:1005B000CF93DF93EC018B81882359F08EE30E9467
:1005C0000F0D8AEA91E00E94090D87EA91E00E94EE
:1005D000390EE881F9810480F581E02D60E0CE01DB
:1005E00009951B8E1A8ECE01DF91CF910C94A0023B
:1005F000CF93DF93EC0182E090E00E94450ECE01A4
:100600000E94770A9BA78AA70E94F20D2AA53BA504
:1006100033708AE0829FA001839F500D11248D8545
:100620009E85840F951F9C878B87DF91CF910895BE
:100630001F93CF93DF93EC018B81882359F08EE3D6
:100640000E940F0D8FEA91E00E94090D87EA91E068
:100650000E94390E109258041092570410927D0493
:1006600010927F0410927B0411E010937A04109290
:10067000790482E10E94520E83E10E94520E809121
:10068000B9008E7F8093B9008091B9008D7F8093EF
:10069000B90088E48093B80085E48093BC0010938F
:1006A0007C0481E180937E0410927D0410927F048B
:1006B0000E94F20D811138C08B81882339F08EE3BE
:1006C0000E940F0D84EB91E00E94390E84E098E5C2
:1006D0009F8B8E8B198E188E83E090E09B8F8A8F74
:1006E000E881F981028CF38DE02D61E070E0CE01AC
:1006F000099580E098E09F8F8E8F81E890E999A31B
:1007000088A31BA21AA21DA21CA21FA21EA219A688
:1007100018A6CE010E94A00281E090E09B8F8A8FF4
:1007200062E0CE010E94540181E0DF91CF911F91E0
:100730000895CF93DF9300D000D0CDB7DEB7DC01B2
:10074000ED91FC9106A4F7A5E02DBE016F5F7F4FF0
:1007500009958C81811103C087EC91E002C081EC86
:1007600091E00E94090D8A81811103C087EC91E01C
:1007700002C08DEC91E00E94090D8B81811103C0B4
:100780008DED91E002C083ED91E00E94090D0E9481
:100790000B0D0F900F900F900F90DF91CF91089558
:1007A000CF93DF93CDB7DEB727970FB6F894DEBFB0
:1007B0000FBECDBFDC01ED91FC9104A4F5A5E02DA9
:1007C000BE016F5F7F4F09958C81811103C08CEE54
:1007D00091E002C087EE91E00E94090D8D818111A8
:1007E00003C088EF91E002C081EF91E00E94090D03
:1007F0008F81811103C087E092E002C08FEF91E00A
:100800000E94090D8FE092E00E94090D6A8170E05C
:1008100080E090E04AE00E94260D88E192E00E948C
:10082000090D6B8170E080E090E04AE00E94260DA7
:100830000E940B0D27960FB6F894DEBF0FBECDBFFA
:10084000DF91CF910895CF92DF92EF92FF920F93B5
:100850001F93CF93DF931F92CDB7DEB78C016B014F
:10086000DC01ED91FC91048CF58DE02D4983099517
:100870007C01D801ED91FC9100A0F1A1E02DC8010F
:1008800009954981C114D104E1F14B30D0F1F60151
:100890001082F1E0EF1AF10822E0E216F10488F587
:1008A00045E0EAE0F0E010E24150242F30E044302F
:1008B00011F0009751F02C0D3D1DBF010E94F91160
:1008C000805DD9018C93CB0104C0D601A20FB31F68
:1008D0001C934111E9CFF601848185838381848350
:1008E0008EE2838360E272E0C60106960F90DF918C
:1008F000CF911F910F91FF90EF90DF90CF900C94CC
:1009000043140F90DF91CF911F910F91FF90EF90C3
:10091000DF90CF900895DC01FB01108211821282DA
:10092000138214968C911497808317968C91179745
:10093000818318968C911897828315968C91838366
:10094000089527E0FB0111922A95E9F7FC018681C1
:10095000FB0185830895EF92FF920F931F93CF932E
:10096000DF937A01890190934D0480934C04892B85
:10097000A1F56EED71E08FE295E00E9443146FE205
:1009800075E089E395E00E94431465E272E083E438
:1009900095E00E94431482E4E5E5F5E0DF011D9255
:1009A0008A95E9F710922E05E0914D05F0914E05DC
:1009B000309719F083E495E00995E0915105F091A5
:1009C0005205309709F4F5C08AE494E0DF91CF91A5
:1009D0001F910F91FF90EF900994CB018827987099
:1009E000892F8695869586959B012227307F832BBC
:1009F0008A608093290510922A0510922B058A326D
:100A000009F44BC020F48A50823028F0D2C08A34D6
:100A100009F482C0CEC06370660FE12EF02EE62F7F
:100A2000F0E0EF01C75DDA4F8E8181132AC0E65DE9
:100A3000FA4F8681801325C0188B008B10924105D8
:100A40006630F9F469E375E08FE295E00E943A14AC
:100A5000892BB9F463E475E089E395E00E943A14C8
:100A6000892B79F069E375E083E495E00E944314F3
:100A7000E0914D05F0914E05309719F083E495E033
:100A800009958E818E1104C08F818F1509F491C054
:100A90001E830F83109237058CC0862F8071809340
:100AA0002C05E62FEF70CE2FCC0FCC0F80912E05AA
:100AB000C81748F4E0915105F0915205309719F0AC
:100AC00085E595E00995C0932E0580912C059091C0
:100AD0002D05891749F080932D0582E4E5E5F5E0C1
:100AE000DF011D928A95E9F7EC2FF0E0E75DFA4F00
:100AF000F4A6E1E0EC0FF0E0E75DFA4FE4A6E2E0F7
:100B0000EC0FF0E0E75DFA4F14A7E3E0EC0FF0E044
:100B1000E75DFA4F04A74DC0C80126E0969587957A
:100B20002A95E1F78F739927B1E0EB22FF2434E097
:100B3000EE0CFF1C3A95E1F7A801452F5527429589
:100B40004F70E42AF52A4CE34E9D90014F9D300DE5
:100B50001124820F931F202F2F7105FF06C03EE145
:100B6000239F80199109112405C0AEE12A9F800DB1
:100B7000911D1124E0914F05F09150053097C9F077
:100B800020915305309154058217930791F090936B
:100B90005405809353056CE370E00E94F911962F81
:100BA000682F892FDF91CF911F910F91FF90EF90C8
:100BB0000994DF91CF911F910F91FF90EF900895CD
:100BC000EF92FF920F931F93CF93DF938C018CE0F2
:100BD00090E00E94450EE801AA96780186E3E80EAF
:100BE000F11CC8010E94770A89939993CE15DF05FD
:100BF000C1F7DF91CF911F910F91FF90EF900C946F
:100C0000F20DCF93DF93EB016031710520F480E3A7
:100C10000E940F0D04C06F3F710509F020F480E3BE
:100C20000E940F0D03C06115704118F480E30E940B
:100C30000F0DBE0180E090E040E10E94260D80E2B1
:100C4000DF91CF910C940F0D2F923F924F925F92B4
:100C50006F927F928F929F92AF92BF92CF92DF92CC
:100C6000EF92FF920F931F93CF93DF93CDB7DEB731
:100C700063970FB6F894DEBF0FBECDBF0091A405F9
:100C80001091A505E090A605F090A7058F33B9F562
:100C90000E940B0D8EE292E00E94390E85E392E0F5
:100CA0000E94390E87E492E00E94390E89E592E0B5
:100CB0000E94390E80E792E00E94390E87E892E0A8
:100CC0000E94390E8CEA92E00E94390E83ED92E088
:100CD0000E94390E84EE92E00E94390E87EF92E076
:100CE0000E94390E84E093E00E94390E82E193E085
:100CF0000E94390E89E293E00E94390EDFC18B32E7
:100D000051F460919B0570E06F3071050CF0D6C115
:100D10006F5F7F4F0BC08D3271F460919B0570E067
:100D20006115710509F4CAC16150710987E995E03F
:100D30000E942C02C3C1853749F460919E0581E071
:100D4000682787E995E00E94F901B8C1833749F423
:100D500060919D0581E0682787E995E00E9408027F
:100D6000ADC1823649F460919C0581E0682787E92E
:100D700095E00E941D02A2C1813309F05EC084E4A7
:100D800093E00E94390E87E995E00E94F8026C0119
:100D9000E016F10608F4A7C0B80187E995E00E94C3
:100DA000380262E370E080E090E00E94C60FBE016E
:100DB000635F7F4F87E995E00E94A80989898823AE
:100DC000A9F14CE0BE016F5F7F4F87E995E00E947B
:100DD0002304CE0101960E94090D80E20E940F0DAE
:100DE0006E8570E080E090E04AE00E94260D80E28F
:100DF0000E940F0D6F8570E080E090E04AE00E9455
:100E0000260D80E20E940F0D8B89811102C08DE2B8
:100E100001C083E50E940F0D8889811102C08DE217
:100E200001C082E50E940F0D0E940B0D8091A80564
:100E30009091A905080F191FABCF823309F05BC051
:100E40008EE693E00E94390E87E995E00E94F80251
:100E50006C01B80187E995E00E943802E016F106BE
:100E600008F441C061E087E995E00E94CA0164E6A8
:100E700070E080E090E00E94C60F8FB7F894409039
:100E80004E0450904F0460905004709051048FBFF6
:100E9000530142018CE2880E81E0981EA11CB11C16
:100EA000BE01635F7F4F87E995E00E94A8098989A9
:100EB000811110C02FB7F89480914E0490914F0487
:100EC000A0915004B09151042FBF88159905AA052F
:100ED000BB0530F387E995E00E94F8028C0182158A
:100EE000930508F065C0B60187E995E00E943802D5
:100EF0000E940B0DE3C0863629F487E995E00E9435
:100F00003802DCC08E3211F460E003C08A3331F461
:100F100061E087E995E00E94CA01D0C08C3211F4EB
:100F200060E003C08B3331F461E087E995E00E9413
:100F3000A901C4C0813289F46115710529F487E9DA
:100F400095E00E94D802BAC06130710509F0B6C0C0
:100F500087E995E00E941803B1C0893609F54CE095
:100F6000BE016F5F7F4F87E995E00E9423048DE803
:100F700093E00E94090DCE0101960E94390E86E988
:100F800093E00E94090D87E995E00E94D0038DE966
:100F900093E00E94090D87E995E00E9499038EC0B5
:100FA000883709F08BC087E995E00E948E0A86C0D9
:100FB0008989882309F47CC08E85893208F478C039
:100FC0008F858B3008F474C087E995E00E948D0B03
:100FD0004CE0BE016F5F7F4F87E995E00E942304DC
:100FE000CE0101960E94090D80E20E940F0D88E556
:100FF000480E82E0581E611C711C87E995E00E9432
:101000008D0B80914C0490914D04892B81F42FB766
:10101000F89480914E0490914F04A0915004B091A7
:1010200051042FBF84159505A605B70530F3BE0101
:10103000635F7F4F87E995E00E94A8096E8570E0A5
:1010400080E090E04AE00E94260D80E20E940F0DB1
:101050006F8570E080E090E04AE00E94260D80E21B
:101060000E940F0D8B89811125C08DE20E940F0D0A
:101070008889811121C08DE20E940F0D80914C045E
:1010800090914D04892B91F080E20E940F0D8BE529
:101090000E940F0D60914C0470914D0480E090E02F
:1010A00040E10E94260D8DE50E940F0D0E940B0D60
:1010B0001801D4CE83E5DACF82E5DECF63960FB692
:1010C000F894DEBF0FBECDBFDF91CF911F910F917E
:1010D000FF90EF90DF90CF90BF90AF909F908F9058
:1010E0007F906F905F904F903F902F900895CF9298
:1010F000DF92EF92FF920F931F93CF93DF936C01D8
:101100007A018B01C0E0D0E0CE15DF0589F0D8016F
:101110006D918D01D601ED91FC910190F081E02D52
:10112000C6010995892B11F47E0102C02196ECCFEE
:10113000C701DF91CF911F910F91FF90EF90DF904A
:10114000CF900895089580E090E00895FC01538DBC
:10115000448D252F30E0842F90E0821B930B541791
:1011600010F0CF96089501970895FC01918D828D1E
:10117000981761F0828DDF01A80FB11D5D968C91EB
:10118000928D9F5F9F73928F90E008958FEF9FEFF6
:101190000895FC01918D828D981731F0828DE80FB2
:1011A000F11D858D90E008958FEF9FEF0895FC016C
:1011B000918D228D892F90E0805C9F4F821B910939
:1011C0008F73992708958CE894E00E94D70821E056
:1011D000892B09F420E0822F0895FC01848DDF0122
:1011E000A80FB11DA35ABF4F2C91848D90E001969A
:1011F0008F739927848FA689B7892C93A089B18989
:101200008C9180648C93938D848D981306C0028892
:10121000F389E02D80818F7D80830895EF92FF9286
:101220000F931F93CF93DF93EC0181E0888F9B8D09
:101230008C8D981305C0E889F989808185FD24C0CB
:10124000F62E0B8D10E00F5F1F4F0F731127E02E4E
:101250008C8DE8120CC00FB607FCFACFE889F9892B
:10126000808185FFF5CFCE010E94ED08F1CF8B8DF7
:10127000FE01E80FF11DE35AFF4FF0820B8FEA8960
:10128000FB898081806207C0EE89FF896083E889DD
:10129000F98980818064808381E090E0DF91CF9143
:1012A0001F910F91FF90EF900895CF93DF93EC0182
:1012B000888D8823C9F0EA89FB89808185FD05C076
:1012C000A889B9898C9186FD0FC00FB607FCF5CFB0
:1012D000808185FFF2CFA889B9898C9185FFEDCFF8
:1012E000CE010E94ED08E7CFDF91CF91089580E015
:1012F00090E0892B29F00E94E30881110C940000F2
:1013000008950F931F93CF93DF93EC018881998108
:10131000009729F02A813B812617370788F48B0133
:101320006F5F7F4F0E946213009761F099838883FB
:101330001B830A832C813D81232B11F4FC01108235
:1013400081E001C080E0DF91CF911F910F9108955E
:101350000F931F93CF93DF938C01EB010E94A104A5
:10136000C8010E94E00521E02883F80182A593A529
:1013700092FD2E8397FF02C081E08B83F80185A543
:1013800086958695898384A595A590FF02C081E006
:101390008C83F801828D938D95FF02C081E08D834F
:1013A000DF91CF911F910F9108951F920F920FB669
:1013B0000F9211242F933F938F939F93AF93BF93DB
:1013C00080914E0490914F04A0915004B09151042B
:1013D0003091520423E0230F2D3720F40196A11DF4
:1013E000B11D05C026E8230F0296A11DB11D209353
:1013F000520480934E0490934F04A0935004B093F2
:1014000051048091530490915404A0915504B091DB
:1014100056040196A11DB11D80935304909354046A
:10142000A0935504B0935604BF91AF919F918F91B3
:101430003F912F910F900FBE0F901F9018951F9204
:101440000F920FB60F9211242F933F934F935F93F8
:101450006F937F938F939F93AF93BF93EF93FF937C
:101460008CE894E00E94ED08FF91EF91BF91AF915D
:101470009F918F917F916F915F914F913F912F91AC
:101480000F900FBE0F901F9018951F920F920FB6DE
:101490000F9211242F938F939F93EF93FF93E091DB
:1014A0009C04F0919D048081E091A204F091A3043A
:1014B00082FD12C090818091A5048F5F8F7320916F
:1014C000A604821751F0E091A504F0E0E457FB4F29
:1014D000958F8093A50401C08081FF91EF919F912A
:1014E0008F912F910F900FBE0F901F9018951F9303
:1014F000CF93DF9380E894E00E94550C182F80E88A
:1015000094E00E94550CD12F20E0C22F9E01280F9D
:10151000311DC901DF91CF911F910895CF92DF92C4
:10152000EF92FF920F931F93CF93DF93CDB7DEB768
:101530002C970FB6F894DEBF0FBECDBF8C010E9472
:10154000E005D801ED91FC9106A8F7A9E02D4CE04B
:10155000BE016F5F7F4FC801099584EB93E00E9445
:10156000090DCE0101960E94090DF801E6A4F7A429
:101570008FEB93E00E94090DB701C8010E9401069C
:10158000D8019A968D919C919B9792FD03C08CEA0D
:1015900093E002C084EA93E00E94090DF80182A55D
:1015A00093A597FD03C087EE91E002C08CEE91E019
:1015B0000E94090DD8019D968C91E82EE694E69440
:1015C000F12C84EC93E00E94090DBAE0EB16F104D3
:1015D0002CF460E28CE894E00E940E09C7010E949E
:1015E000670D80E20E940F0DC12CD12CEFE0EE1AA6
:1015F000F108CE14DF044CF46AE28CE894E00E9417
:101600000E09FFEFCF1ADF0AF4CF0E940B0D8AEC10
:1016100093E00E94390E780186E1E80EF11C680122
:10162000A6E3CA0ED11CF701619171917F01C80137
:101630000E940106EC14FD04B1F70E940B0D81E03D
:1016400080937C0481E180937E0410927D0410924B
:101650007F0460E080E894E00E94A10C80E00E949A
:10166000950D41E060E281E10E94F50D1092580471
:101670008093570480E1E82EF12CC8010E94770A7C
:10168000BC01C8010E940106F1E0EF1AF108A9F7B8
:101690000E94F20D0E940B0DD801ED91FC91028881
:1016A000F389E02DC8010995882321F087E194E0B2
:1016B0000E94090DD801ED91FC9102A4F3A5E02D43
:1016C000C8010995882321F082E294E00E94090D67
:1016D000D801ED91FC910680F781E02DC8010995B4
:1016E000182F88E294E00E94090D812F90E00E945B
:1016F000670D80E20E940F0D0E940B0D2C960FB615
:10170000F894DEBF0FBECDBFDF91CF911F910F9137
:10171000FF90EF90DF90CF9008951F93CF93DF93CA
:10172000FC0123893489232B09F479C0EC0182E080
:1017300090E00E94450ECE010E94770A9BA78AA7DF
:101740000E94F20D8AA59BA593FF0AC08B81882376
:1017500039F08EE30E940F0D80E394E00E94390E71
:101760008AA59BA597FF5BC081E080937C0481E103
:1017700080937E0410927D0410927F046CE080E8D8
:1017800094E00E94A10C80E00E94950D41E068E089
:1017900081E10E94F50D1092580480935704CE0108
:1017A0000E94770A2EA53FA58217930721F09FA7D5
:1017B0008EA711E001C010E0CE010E94770A28A98F
:1017C00039A98217930719F099AB88AB11E0CE01C4
:1017D0000E94770A2AA93BA98217930719F09BABAD
:1017E0008AAB11E0CE010E94770A2CA93DA982178D
:1017F000930719F09DAB8CAB11E00E94F20D112301
:1018000071F02CA93DA94AA95BA968A979A9EB891E
:10181000FC898EA59FA5DF91CF911F910994DF913F
:10182000CF911F91089585ED8093BC008091BC00FD
:1018300084FDFCCF10927B0408954091EF05262F84
:1018400030E0240F311D21323105DCF420917B047E
:101850002430C9F4FC0180E090E0861758F4309100
:10186000EF052191DC01A353BA4FA30FB11D2C93B7
:101870000196F3CF8091EF05680F6093EF0580E04C
:10188000089581E0089582E008950895E091580454
:1018900080915704E81730F4F0E0E75AFB4F80815D
:1018A00090E008958FEF9FEF0895909158048091F4
:1018B0005704981750F4E92FF0E0E75AFB4F2081C6
:1018C00030E09F5F9093580402C02FEF3FEFC901B3
:1018D00008958091570490E020915804821B91094B
:1018E0000895CF92DF92EF92FF920F931F93CF93C1
:1018F000DF937C01262F972F8A0180917C04882317
:1019000091F0C62FD72F6E01C40ED51ECC15DD0564
:1019100071F06991D701ED91FC910190F081E02D7A
:10192000C7010995F3CF642F822F0E941D0CC801B7
:10193000DF91CF911F910F91FF90EF90DF90CF90AB
:101940000895CF93DF931F92CDB7DEB769832091BF
:101950007C042223D1F020917F04203240F021E04A
:1019600030E0FC013383228380E090E015C0809159
:101970007D04E82FF0E0E85CF94F998190838F5F58
:1019800080937D0480937F0405C061E0CE010196C1
:101990000E941D0C81E090E00F90DF91CF9108959F
:1019A0003FB7F8948091530490915404A09155044A
:1019B000B091560426B5A89B05C02F3F19F001969B
:1019C000A11DB11D3FBFBA2FA92F982F8827820FC5
:1019D000911DA11DB11DBC01CD0142E0660F771F15
:1019E000881F991F4A95D1F70895009769F0FC0167
:1019F00001900020E9F73197AF01481B590BBC015A
:101A00008CE894E00C94770880E090E008950E94C0
:101A10002C140C94F50C88E494E00C94F50CE091F3
:101A20008C04F0918D040190F081E02D682F8CE8FA
:101A300094E00994CF93DF930E940F0DEC010E9474
:101A40000B0D8C0F9D1FDF91CF9108958F929F9268
:101A5000AF92BF920F931F93CF93DF93CDB7DEB7B3
:101A6000A1970FB6F894DEBF0FBECDBF19A24230CA
:101A700008F44AE08E010F5D1F4F842E912CA12C9B
:101A8000B12CA50194010E940D12E62FB901CA01E3
:101A900001501109EA3014F4E05D01C0E95CD8019D
:101AA000EC93232B242B252B61F7C8010E94F50C06
:101AB000A1960FB6F894DEBF0FBECDBFDF91CF91D8
:101AC0001F910F91BF90AF909F908F900895CF92EC
:101AD000DF92EF92FF92CF93DF936C01990FEE08A4
:101AE000FF08F7FE17C08DE20E940F0DEC0166277C
:101AF0007727CB016C197D098E099F094AE00E9466
:101B0000260D8C0F9D1FDF91CF91FF90EF90DF90FE
:101B1000CF9008954AE0C701B601DF91CF91FF90C1
:101B2000EF90DF90CF900C94260D382F20917F04FA
:101B300090917E04213208F049C080917B0481118C
:101B4000FCCF42E040937B0430937A043FEF309324
:101B500037061092360620933506A8E3B6E045E135
:101B600056E0FA013E2F341B321718F43D913193A1
:101B7000F9CF1092140620911406990F922B90938E
:101B8000140690917904913061F410927904909147
:101B900014069093BB009091BC0093FDF8CF95EC98
:101BA00001C095EE9093BC0090917B049230E1F3DC
:101BB000909137069F3F79F080913706803241F04F
:101BC00080913706803331F084E005C081E003C0A6
:101BD00082E001C083E010927D0410927F04109295
:101BE0007C04089581E00C94950D90917B049111F3
:101BF000FCCF91E090937B0440937A042FEF2093E5
:101C0000370610923606260F209335069093140659
:101C100090911406880F892B809314068091790483
:101C2000813061F410927904809114068093BB0096
:101C30008091BC0083FDF8CF85EC01C085EE8093D8
:101C4000BC0080917B048130E1F3809136068617D9
:101C500010F460913606A5E1B6E029E534E0F9011B
:101C60008E2F821B861718F48D918193F9CF862FC2
:101C70000895CF93DF930E94F50CEC010E940B0DA9
:101C80008C0F9D1FDF91CF910895813208F080E283
:101C900041E0682F80E10E94F50D10925804809376
:101CA0005704089590E0FC01E656FF4F2491FC0193
:101CB000EA57FF4F3491FC01EE58FF4FE491EE23B9
:101CC000B1F1222339F1233091F038F42130A9F019
:101CD000223001F584B58F7D12C0273091F0283075
:101CE000A1F02430B9F4809180008F7D03C08091F1
:101CF00080008F77809380000DC084B58F7784BD7E
:101D000009C08091B0008F7703C08091B0008F7DB3
:101D10008093B000F0E0EE0FFF1FE859FF4FA59150
:101D2000B4918FB7F894EC913E2B3C938FBF0895FC
:101D30001F920F920FB60F9211242F933F934F9340
:101D40005F936F937F938F939F93AF93BF93EF9323
:101D5000FF938091B900887F803609F49CC068F5B4
:101D6000883209F45BC090F4803109F454C038F42F
:101D7000882309F4F6C0883009F44DC0F6C08831D4
:101D800009F44CC0803209F45DC0EFC0803409F41E
:101D900068C048F4803309F455C0883309F0E5C0C1
:101DA00080933706D8C0803509F44FC0883509F4D0
:101DB0005DC0883409F0D9C0D6C0883909F4C7C0DD
:101DC000A8F4883709F467C038F4883609F463C08A
:101DD000803709F460C0C9C0883809F4B8C08039B8
:101DE00009F45FC0803809F0C0C05BC0803B09F4D3
:101DF00086C038F4803A09F466C0883A09F47FC096
:101E0000B4C0803C09F4A7C0883C09F4A4C0883B56
:101E100009F48AC0AAC08091140610C090913606B9
:101E200080913506981770F5E091360681E08E0FA7
:101E300080933606F0E0EB5EF94F80818093BB0023
:101E400085EC86C0809337068EC0E091360681E02F
:101E50008E0F809336068091BB00F0E0EB5EF94F69
:101E6000808390913606809135066EC0E0913606EB
:101E700081E08E0F809336068091BB00F0E0EB5E30
:101E8000F94F808380917A0481116DC081E0809345
:101E9000790484EA61C083E080937B041092130686
:101EA000CFCF80911306803208F051C0E091130625
:101EB00081E08E0F809313068091BB00F0E0ED501F
:101EC000FA4F8083BDCF85EC8093BC0010927B04D9
:101ED00080911306803230F4E0911306F0E0ED506B
:101EE000FA4F10826091130670E0E091F105F091D5
:101EF000F20583EF95E009951092130636C084E051
:101F000080937B041092F0051092EF05E091ED05AF
:101F1000F091EE0509958091EF05811105C081E0F2
:101F20008093EF051092CD05E091F00581E08E0FD2
:101F30008093F005F0E0E353FA4F80818093BB007B
:101F40009091F0058091EF05981708F479CF85E816
:101F50008093BC000AC085EC8093BC0010927B0487
:101F600004C0109237060E94130CFF91EF91BF91AD
:101F7000AF919F918F917F916F915F914F913F9121
:101F80002F910F900FBE0F901F9018958F929F92D8
:101F9000AF92BF92CF92DF92EF92FF926B017C01E2
:101FA0000E94D00C4B015C01C114D104E104F10486
:101FB000F1F00E94D00CDC01CB0188199909AA0923
:101FC000BB09883E9340A105B10570F321E0C21A18
:101FD000D108E108F10888EE880E83E0981EA11C64
:101FE000B11CC114D104E104F10419F7DDCFFF9055
:101FF000EF90DF90CF90BF90AF909F908F9008951B
:10200000CF93DF93CDB7DEB728970FB6F894DEBF36
:102010000FBECDBF789484B5826084BD84B58160E5
:1020200084BD85B5826085BD85B5816085BD8091A3
:102030006E00816080936E0010928100809181001B
:102040008260809381008091810081608093810013
:10205000809180008160809380008091B1008460D5
:102060008093B1008091B00081608093B000809136
:102070007A00846080937A0080917A0082608093F5
:102080007A0080917A00816080937A0080917A0052
:10209000806880937A001092C100E0919C04F091D6
:1020A0009D0482E08083E0919804F091990410826D
:1020B000E0919A04F0919B048FEC80831092A40429
:1020C000E091A004F091A10486E08083E0919E0459
:1020D000F0919F04808180618083E0919E04F09163
:1020E0009F04808188608083E0919E04F0919F042A
:1020F000808180688083E0919E04F0919F048081BC
:102100008F7D80838FE394E00E94090D64EF71E07E
:1021100080E090E00E94C60F87E995E00E941803D6
:1021200081E080939A0546EE58E261E070E087E92D
:1021300095E00E94C10060E087E995E00E940802F6
:1021400060E087E995E00E94F90165E087E995E0A4
:102150000E942C026EE38CE894E00E940E098BEA48
:1021600094E09093AB058093AA0584E391E090936B
:102170004E0580934D0560E070E08FE30E942406D9
:102180001A8219821C821B821E821D8260E070E00E
:10219000CE0101960E94810929813A8181110DC0E9
:1021A0002115310519F0C9010E94CA121A8219823B
:1021B0001E821D821C821B8207C01E821D826AE451
:1021C00074E0C9010E9443148CE894E00E94D7088F
:1021D00018161906ECF58CE894E00E94B5088636CE
:1021E00099F58CE894E00E94B5089C0120533109D0
:1021F0002A303105D8F48F8318860D811E810F5F38
:102200001F4FB801CE0101960E948109882349F32E
:1022100029813A818D819E81BE01695F7F4F820F46
:10222000931F0E9443141E830D83DBCF0A97C9F6C8
:1022300089819A81009719F00E94861103C060E09D
:1022400070E0CB0186E602C060E070E00E942406E8
:1022500087E995E00E948D0B64EF71E080E090E0EB
:102260000E94C60F89819A810E94CA120E94770932
:1022700087CFE0E8F4E01382128288EE93E0A0E0DA
:10228000B0E084839583A683B7832AE031E031836D
:102290002083ECE8F4E01382128284839583A68382
:1022A000B7838CE191E09183808385EC90E0958702
:1022B000848784EC90E09787868780EC90E0918B10
:1022C000808B81EC90E0938B828B82EC90E0958BFD
:1022D000848B86EC90E0978B868B118E128E138EFA
:1022E000148EE7E9F5E085E1DF011D928A95E9F7B3
:1022F0008EE291E0918380838FE0858B8EE6E9E228
:10230000F5E0DF011D928A95E9F708951F93FC011E
:1023100099278827BC01E89411911032E9F319300C
:1023200010F01E30C8F31B3251F01D3249F468948E
:1023300006C00E94AD11610F711D811D911D11918B
:1023400010531A30B0F33EF49095809570956195D6
:102350007F4F8F4F9F4F1F910895592F482F372F31
:10236000262F660F771F881F991F660F771F881FFC
:10237000991F620F731F841F951F660F771F881F99
:10238000991F08952F923F924F925F926F927F9282
:102390008F929F92AF92BF92CF92DF92EF92FF9275
:1023A0000F931F93CF93DF93CDB7DEB7CA1BDB0B21
:1023B0000FB6F894DEBF0FBECDBF09942A883988C6
:1023C00048885F846E847D848C849B84AA84B984CD
:1023D000C884DF80EE80FD800C811B81AA81B981D9
:1023E000CE0FD11D0FB6F894DEBF0FBECDBFED01ED
:1023F0000895AA1BBB1B51E107C0AA1FBB1FA6174C
:10240000B70710F0A61BB70B881F991F5A95A9F79D
:1024100080959095BC01CD010895A1E21A2EAA1BCA
:10242000BB1BFD010DC0AA1FBB1FEE1FFF1FA21784
:10243000B307E407F50720F0A21BB30BE40BF50B81
:10244000661F771F881F991F1A9469F7609570950A
:10245000809590959B01AC01BD01CF010895EE0FD1
:10246000FF1F0590F491E02D0994CF93DF93823004
:10247000910510F482E090E0E0915A06F0915B063D
:1024800020E030E0C0E0D0E0309711F14081518190
:1024900048175907C0F04817590761F482819381A2
:1024A000209719F09B838A832BC090935B068093BF
:1024B0005A0626C02115310519F04217530718F4A2
:1024C0009A01BE01DF01EF010280F381E02DDCCF34
:1024D0002115310509F1281B390B2430310590F401
:1024E00012968D919C9113976115710521F0FB0156
:1024F0009383828304C090935B0680935A06FD0108
:10250000329644C0FD01E20FF31F81939193225054
:1025100031092D933C933AC02091580630915906C9
:10252000232B41F42091020130910301309359068D
:1025300020935806209100013091010121153105A9
:1025400041F42DB73EB74091040150910501241B81
:10255000350BE0915806F0915906E217F307A0F405
:102560002E1B3F0B2817390778F0AC014E5F5F4FE9
:102570002417350748F04E0F5F1F509359064093BC
:1025800058068193919302C0E0E0F0E0CF01DF9123
:10259000CF9108950F931F93CF93DF93009709F482
:1025A0008CC0FC0132971382128200915A0610915E
:1025B0005B060115110581F420813181820F931F83
:1025C00020915806309159062817390779F5F0936C
:1025D0005906E093580671C0D80140E050E0AE17AC
:1025E000BF0750F412962D913C911397AD01211520
:1025F000310509F1D901F3CF9D01DA01338322833B
:1026000060817181860F971F8217930769F4EC012F
:1026100028813981260F371F2E5F3F4F318320835A
:102620008A819B8193838283452B29F4F0935B06F7
:10263000E0935A0642C01396FC93EE931297ED0175
:10264000499159919E01240F351FE217F30771F448
:1026500080819181840F951F029611969C938E9391
:102660008281938113969C938E931297E0E0F0E021
:10267000D80112968D919C911397009719F0F8014B
:102680008C01F6CF8D919C9198012E5F3F4F820F68
:10269000931F20915806309159062817390769F47D
:1026A000309729F410925B0610925A0602C01382EA
:1026B00012821093590600935806DF91CF911F9113
:1026C0000F910895A0E0B0E0E8E6F3E10C94C611A4
:1026D000EC01009721F4CB010E943512B8C0FC0137
:1026E000E60FF71F9C0122503109E217F30708F4A7
:1026F000ACC0D9010D911C91119706171707B0F0C6
:102700000530110508F49FC0C80104978617970784
:1027100008F499C002501109061B170B019311937D
:102720006D937C93CF010E94CA128DC05B01A01AE9
:10273000B10A4C01800E911EA0915A06B0915B0621
:1027400040E050E0E12CF12C109709F44AC0A815A4
:10275000B905D1F56D907C901197630182E0C80EA8
:10276000D11CCA14DB0480F1A3014A195B096A0178
:1027700082E0C80ED11C1296BC9012971396AC91B1
:10278000B5E0CB16D10440F0B282A38351834083DD
:10279000D9016D937C930AC00E5F1F4FC301800F58
:1027A000911FF90191838083EB2DFA2FE114F1043D
:1027B00031F0D7011396FC93EE93129744C0F09337
:1027C0005B06E0935A063FC08D919C911197481784
:1027D000590708F4AC017D0112960D90BC91A02D13
:1027E000B3CF809158069091590688159905E1F468
:1027F00046175707C8F48091000190910101009796
:1028000041F48DB79EB74091040150910501841B9E
:10281000950BE817F907C8F4F0935906E0935806AA
:10282000F901718360830FC0CB010E9435127C01D6
:10283000009759F0A801BE010E943114CE010E94F8
:10284000CA12C70104C0CE0102C080E090E0CDB73B
:10285000DEB7EEE00C94E21181E090E0F8940C9485
:102860004A14FB01DC0102C001900D92415050401E
:10287000D8F70895FB01DC018D91019080190110BA
:10288000D9F3990B0895FB01DC0101900D92002012
:08289000E1F70895F894FFCF71
:1028980000005C06800000000000A10C710CA30879
:1028A800450C690C550C460C000000000E09770811
:1028B800A6085509D708B508C9080000000018037C
:1028C800D8022C022101F9011801EA0115011D02A3
:1028D8001E01B300AF00AB00F600BB003802F802DF
:1028E800C100CA01A90108021B01A8098B048D0BAC
:1028F8009900950023049200D00399038E0A52444C
:10290800533A002D5F736176655265676973746524
:102918007200283078002C20307800736574467275
:10292800657175656E6379002D73617665526567AB
:10293800697374657273002829007465726D006983
:102948006E697400726164696F20666F756E642EBB
:1029580000204241535300202D2D2D2D00204D5590
:1029680054450020534F46544D55544500202D2DB5
:102978002D2D2D2D2D2D002052445300202D2D2D91
:10298800002054554E454400202D2D2D2D2D00207E
:1029980053544552454F0020204D4F4E4F200020A4
:1029A80020525353493A20002020534E523A2000D7
:1029B800204D487A002020202020202020003F2081
:1029C80048656C70002B20696E63726561736520C1
:1029D800766F6C756D65002D206465637265617333
:1029E8006520766F6C756D65003120737461727443
:1029F800207363616E2076657273696F6E20310093
:102A080032207374617274207363616E207665720C
:102A180073696F6E2032002E207363616E207570AB
:102A28002020203A207363616E20757020746F2017
:102A38006E6578742073656E646572002C2073630C
:102A4800616E20646F776E203B207363616E206433
:102A58006F776E20746F206E6578742073656E646E
:102A6800657200692073746174696F6E2073746194
:102A78007475730073206D6F6E6F2F737465726554
:102A88006F206D6F64650062206261737320626FEE
:102A98006F73740075206D7574652F756E6D757420
:102AA80065007820646562756720696E666F2066C8
:102AB800726F6D206368697000663C76616C3E20B9
:102AC800736574206672657175656E6379203D2043
:102AD80076616C005363616E6E696E6720616C6C21
:102AE80020617661696C61626C65206672657175DA
:102AF800656E636965732E2E2E2028312900536573
:102B0800656B696E6720616C6C20667265717565AE
:102B18006E636965732E2E2E202832290053746146
:102B280074696F6E3A00526164696F3A0041756466
:102B3800696F3A002053746572656F00204D6F6E9F
:102B48006F2020004672657175656E63793D0020BF
:102B580050493D00205369673D0030202020203136
:102B68002020202032202020203320202020342024
:102B7800202020352020202036202020203720200B
:102B880020203820202020392020202041202020EB
:102B980020422020202043202020204420202020C4
:102BA8004520202020460042617373426F6F737482
:102BB80020004D6F6E6F2000566F6C756D653D007F
:102BC800424C4F434B5F4520666F756E642E005232
:0C2BD8006164696F2E2E2E000D0A0000B3
:00000001FF
